{
  "contractName": "AccountsWithController",
  "abi": [
    {
      "constant": true,
      "inputs": [],
      "name": "ACCURACY",
      "outputs": [
        {
          "internalType": "uint256",
          "name": "",
          "type": "uint256"
        }
      ],
      "payable": false,
      "stateMutability": "view",
      "type": "function"
    },
    {
      "constant": true,
      "inputs": [],
      "name": "BLOCKS_PER_YEAR",
      "outputs": [
        {
          "internalType": "uint256",
          "name": "",
          "type": "uint256"
        }
      ],
      "payable": false,
      "stateMutability": "view",
      "type": "function"
    },
    {
      "constant": true,
      "inputs": [],
      "name": "EMERGENCY_ADDR",
      "outputs": [
        {
          "internalType": "address payable",
          "name": "",
          "type": "address"
        }
      ],
      "payable": false,
      "stateMutability": "view",
      "type": "function"
    },
    {
      "constant": true,
      "inputs": [],
      "name": "ETH_ADDR",
      "outputs": [
        {
          "internalType": "address",
          "name": "",
          "type": "address"
        }
      ],
      "payable": false,
      "stateMutability": "view",
      "type": "function"
    },
    {
      "constant": true,
      "inputs": [],
      "name": "INT_UNIT",
      "outputs": [
        {
          "internalType": "uint256",
          "name": "",
          "type": "uint256"
        }
      ],
      "payable": false,
      "stateMutability": "view",
      "type": "function"
    },
    {
      "constant": true,
      "inputs": [
        {
          "internalType": "address",
          "name": "",
          "type": "address"
        }
      ],
      "name": "accounts",
      "outputs": [
        {
          "internalType": "uint128",
          "name": "depositBitmap",
          "type": "uint128"
        },
        {
          "internalType": "uint128",
          "name": "borrowBitmap",
          "type": "uint128"
        }
      ],
      "payable": false,
      "stateMutability": "view",
      "type": "function"
    },
    {
      "constant": false,
      "inputs": [
        {
          "internalType": "address",
          "name": "_accountAddr",
          "type": "address"
        },
        {
          "internalType": "address",
          "name": "_token",
          "type": "address"
        },
        {
          "internalType": "uint256",
          "name": "_amount",
          "type": "uint256"
        }
      ],
      "name": "borrow",
      "outputs": [],
      "payable": false,
      "stateMutability": "nonpayable",
      "type": "function"
    },
    {
      "constant": false,
      "inputs": [
        {
          "internalType": "address",
          "name": "_accountAddr",
          "type": "address"
        },
        {
          "internalType": "address",
          "name": "_token",
          "type": "address"
        },
        {
          "internalType": "uint256",
          "name": "_amount",
          "type": "uint256"
        }
      ],
      "name": "deposit",
      "outputs": [],
      "payable": false,
      "stateMutability": "nonpayable",
      "type": "function"
    },
    {
      "constant": true,
      "inputs": [
        {
          "internalType": "address",
          "name": "_token",
          "type": "address"
        },
        {
          "internalType": "address",
          "name": "_accountAddr",
          "type": "address"
        }
      ],
      "name": "getBorrowBalanceCurrent",
      "outputs": [
        {
          "internalType": "uint256",
          "name": "borrowBalance",
          "type": "uint256"
        }
      ],
      "payable": false,
      "stateMutability": "view",
      "type": "function"
    },
    {
      "constant": true,
      "inputs": [
        {
          "internalType": "address",
          "name": "_accountAddr",
          "type": "address"
        }
      ],
      "name": "getBorrowETH",
      "outputs": [
        {
          "internalType": "uint256",
          "name": "borrowETH",
          "type": "uint256"
        }
      ],
      "payable": false,
      "stateMutability": "view",
      "type": "function"
    },
    {
      "constant": true,
      "inputs": [
        {
          "internalType": "address",
          "name": "_accountAddr",
          "type": "address"
        },
        {
          "internalType": "address",
          "name": "_token",
          "type": "address"
        }
      ],
      "name": "getBorrowInterest",
      "outputs": [
        {
          "internalType": "uint256",
          "name": "",
          "type": "uint256"
        }
      ],
      "payable": false,
      "stateMutability": "view",
      "type": "function"
    },
    {
      "constant": true,
      "inputs": [
        {
          "internalType": "address",
          "name": "_borrower",
          "type": "address"
        }
      ],
      "name": "getBorrowPower",
      "outputs": [
        {
          "internalType": "uint256",
          "name": "power",
          "type": "uint256"
        }
      ],
      "payable": false,
      "stateMutability": "view",
      "type": "function"
    },
    {
      "constant": true,
      "inputs": [
        {
          "internalType": "address",
          "name": "_accountAddr",
          "type": "address"
        },
        {
          "internalType": "address",
          "name": "_token",
          "type": "address"
        }
      ],
      "name": "getBorrowPrincipal",
      "outputs": [
        {
          "internalType": "uint256",
          "name": "",
          "type": "uint256"
        }
      ],
      "payable": false,
      "stateMutability": "view",
      "type": "function"
    },
    {
      "constant": true,
      "inputs": [
        {
          "internalType": "address",
          "name": "_token",
          "type": "address"
        },
        {
          "internalType": "address",
          "name": "_accountAddr",
          "type": "address"
        }
      ],
      "name": "getDepositBalanceCurrent",
      "outputs": [
        {
          "internalType": "uint256",
          "name": "depositBalance",
          "type": "uint256"
        }
      ],
      "payable": false,
      "stateMutability": "view",
      "type": "function"
    },
    {
      "constant": true,
      "inputs": [
        {
          "internalType": "address",
          "name": "_accountAddr",
          "type": "address"
        }
      ],
      "name": "getDepositETH",
      "outputs": [
        {
          "internalType": "uint256",
          "name": "depositETH",
          "type": "uint256"
        }
      ],
      "payable": false,
      "stateMutability": "view",
      "type": "function"
    },
    {
      "constant": true,
      "inputs": [
        {
          "internalType": "address",
          "name": "_accountAddr",
          "type": "address"
        },
        {
          "internalType": "address",
          "name": "_token",
          "type": "address"
        }
      ],
      "name": "getDepositInterest",
      "outputs": [
        {
          "internalType": "uint256",
          "name": "",
          "type": "uint256"
        }
      ],
      "payable": false,
      "stateMutability": "view",
      "type": "function"
    },
    {
      "constant": true,
      "inputs": [
        {
          "internalType": "address",
          "name": "_accountAddr",
          "type": "address"
        },
        {
          "internalType": "address",
          "name": "_token",
          "type": "address"
        }
      ],
      "name": "getDepositPrincipal",
      "outputs": [
        {
          "internalType": "uint256",
          "name": "",
          "type": "uint256"
        }
      ],
      "payable": false,
      "stateMutability": "view",
      "type": "function"
    },
    {
      "constant": true,
      "inputs": [
        {
          "internalType": "address",
          "name": "_accountAddr",
          "type": "address"
        },
        {
          "internalType": "address",
          "name": "_token",
          "type": "address"
        }
      ],
      "name": "getLastBorrowBlock",
      "outputs": [
        {
          "internalType": "uint256",
          "name": "",
          "type": "uint256"
        }
      ],
      "payable": false,
      "stateMutability": "view",
      "type": "function"
    },
    {
      "constant": true,
      "inputs": [
        {
          "internalType": "address",
          "name": "_accountAddr",
          "type": "address"
        },
        {
          "internalType": "address",
          "name": "_token",
          "type": "address"
        }
      ],
      "name": "getLastDepositBlock",
      "outputs": [
        {
          "internalType": "uint256",
          "name": "",
          "type": "uint256"
        }
      ],
      "payable": false,
      "stateMutability": "view",
      "type": "function"
    },
    {
      "constant": false,
      "inputs": [
        {
          "internalType": "address",
          "name": "_borrower",
          "type": "address"
        }
      ],
      "name": "isAccountLiquidatable",
      "outputs": [
        {
          "internalType": "bool",
          "name": "",
          "type": "bool"
        }
      ],
      "payable": false,
      "stateMutability": "nonpayable",
      "type": "function"
    },
    {
      "constant": true,
      "inputs": [
        {
          "internalType": "address",
          "name": "_account",
          "type": "address"
        }
      ],
      "name": "isUserHasAnyDeposits",
      "outputs": [
        {
          "internalType": "bool",
          "name": "",
          "type": "bool"
        }
      ],
      "payable": false,
      "stateMutability": "view",
      "type": "function"
    },
    {
      "constant": true,
      "inputs": [
        {
          "internalType": "address",
          "name": "_account",
          "type": "address"
        },
        {
          "internalType": "uint8",
          "name": "_index",
          "type": "uint8"
        }
      ],
      "name": "isUserHasBorrows",
      "outputs": [
        {
          "internalType": "bool",
          "name": "",
          "type": "bool"
        }
      ],
      "payable": false,
      "stateMutability": "view",
      "type": "function"
    },
    {
      "constant": true,
      "inputs": [
        {
          "internalType": "address",
          "name": "_account",
          "type": "address"
        },
        {
          "internalType": "uint8",
          "name": "_index",
          "type": "uint8"
        }
      ],
      "name": "isUserHasDeposits",
      "outputs": [
        {
          "internalType": "bool",
          "name": "",
          "type": "bool"
        }
      ],
      "payable": false,
      "stateMutability": "view",
      "type": "function"
    },
    {
      "constant": false,
      "inputs": [
        {
          "internalType": "address",
          "name": "_accountAddr",
          "type": "address"
        },
        {
          "internalType": "address",
          "name": "_token",
          "type": "address"
        },
        {
          "internalType": "uint256",
          "name": "_amount",
          "type": "uint256"
        }
      ],
      "name": "repay",
      "outputs": [
        {
          "internalType": "uint256",
          "name": "",
          "type": "uint256"
        }
      ],
      "payable": false,
      "stateMutability": "nonpayable",
      "type": "function"
    },
    {
      "constant": false,
      "inputs": [
        {
          "internalType": "address",
          "name": "_accountAddr",
          "type": "address"
        },
        {
          "internalType": "address",
          "name": "_token",
          "type": "address"
        },
        {
          "internalType": "uint256",
          "name": "_amount",
          "type": "uint256"
        }
      ],
      "name": "withdraw",
      "outputs": [
        {
          "internalType": "uint256",
          "name": "",
          "type": "uint256"
        }
      ],
      "payable": false,
      "stateMutability": "nonpayable",
      "type": "function"
    },
    {
      "constant": false,
      "inputs": [
        {
          "internalType": "contract GlobalConfig",
          "name": "_globalConfig",
          "type": "address"
        },
        {
          "internalType": "address",
          "name": "_comptroller",
          "type": "address"
        }
      ],
      "name": "initialize",
      "outputs": [],
      "payable": false,
      "stateMutability": "nonpayable",
      "type": "function"
    },
    {
      "constant": false,
      "inputs": [
        {
          "internalType": "contract GlobalConfig",
          "name": "_globalConfig",
          "type": "address"
        }
      ],
      "name": "initialize",
      "outputs": [],
      "payable": false,
      "stateMutability": "nonpayable",
      "type": "function"
    }
  ],
  "bytecode": "0x608060405234801561001057600080fd5b50614df0806100206000396000f3fe608060405234801561001057600080fd5b50600436106101a95760003560e01c8063be2801b5116100f9578063e21f0b5511610097578063edc337b411610071578063edc337b41461058c578063f1debb90146105ba578063fa78d59f146105e8578063fbcd9b0514610478576101a9565b8063e21f0b551461050a578063e2a93dd914610530578063e94201c71461055e576101a9565b8063d8c2d84c116100d3578063d8c2d84c14610478578063d9caed1214610480578063e0ed3194146104b6578063e2067204146104e4576101a9565b8063be2801b514610424578063c4d66de81461044a578063d37db1d214610470576101a9565b80635e5c06e2116101665780638340f549116101405780638340f549146103745780639c9dd88f146103aa578063b0fcd7a0146103d0578063b44d253d146103f6576101a9565b80635e5c06e2146102f25780637753f47b1461033e5780638224b89914610346576101a9565b80631da649cf146101ae57806324e46eba146101f6578063485cc955146102395780634b096f80146102695780635224372c146102985780635467cec4146102ce575b600080fd5b6101e4600480360360608110156101c457600080fd5b506001600160a01b03813581169160208101359091169060400135610616565b60408051918252519081900360200190f35b6102256004803603604081101561020c57600080fd5b5080356001600160a01b0316906020013560ff16610c04565b604080519115158252519081900360200190f35b6102676004803603604081101561024f57600080fd5b506001600160a01b0381358116916020013516610c45565b005b6102256004803603604081101561027f57600080fd5b5080356001600160a01b0316906020013560ff16610d0d565b610267600480360360608110156102ae57600080fd5b506001600160a01b03813581169160208101359091169060400135610d43565b6102d6611425565b604080516001600160a01b039092168252519081900360200190f35b6103186004803603602081101561030857600080fd5b50356001600160a01b031661143d565b604080516001600160801b03938416815291909216602082015281519081900390910190f35b6102d6611466565b6101e46004803603604081101561035c57600080fd5b506001600160a01b038135811691602001351661146b565b6102676004803603606081101561038a57600080fd5b506001600160a01b03813581169160208101359091169060400135611516565b6101e4600480360360208110156103c057600080fd5b50356001600160a01b03166119fb565b6101e4600480360360208110156103e657600080fd5b50356001600160a01b0316611e27565b6101e46004803603604081101561040c57600080fd5b506001600160a01b0381358116916020013516612234565b6102256004803603602081101561043a57600080fd5b50356001600160a01b031661278e565b6102676004803603602081101561046057600080fd5b50356001600160a01b0316612bfb565b6101e4612cb9565b6101e4612cc0565b6101e46004803603606081101561049657600080fd5b506001600160a01b03813581169160208101359091169060400135612ccc565b6101e4600480360360408110156104cc57600080fd5b506001600160a01b03813581169160200135166137c6565b610225600480360360208110156104fa57600080fd5b50356001600160a01b031661383d565b6101e46004803603602081101561052057600080fd5b50356001600160a01b0316613866565b6101e46004803603604081101561054657600080fd5b506001600160a01b0381358116916020013516613d67565b6101e46004803603604081101561057457600080fd5b506001600160a01b0381358116916020013516613f93565b6101e4600480360360408110156105a257600080fd5b506001600160a01b0381358116916020013516614481565b6101e4600480360360408110156105d057600080fd5b506001600160a01b03813581169160200135166144f8565b6101e4600480360360408110156105fe57600080fd5b506001600160a01b03813581169160200135166146ef565b6034546040805163cc5738b560e01b815290516000926001600160a01b03169163cc5738b5916004808301926020929190829003018186803b15801561065b57600080fd5b505afa15801561066f573d6000803e3d6000fd5b505050506040513d602081101561068557600080fd5b50516001600160a01b031633148061071e5750603460009054906101000a90046001600160a01b03166001600160a01b03166376cdb03b6040518163ffffffff1660e01b815260040160206040518083038186803b1580156106e657600080fd5b505afa1580156106fa573d6000803e3d6000fd5b505050506040513d602081101561071057600080fd5b50516001600160a01b031633145b6107595760405162461bcd60e51b8152600401808060200182810382526038815260200180614d5e6038913960400191505060405180910390fd5b60006107658486613f93565b905060008184116107765783610778565b815b9050600082851161078a57600061079a565b61079a858463ffffffff61476416565b6001600160a01b038089166000908152603360209081526040808320938b16835292815282822083516343ae240160e11b815260048101829052935194955093919273__AccountTokenLib_______________________9263875c480292602480840193919291829003018186803b15801561081557600080fd5b505af4158015610829573d6000803e3d6000fd5b505050506040513d602081101561083f57600080fd5b50511161087d5760405162461bcd60e51b815260040180806020018281038252605c815260200180614c1a605c913960600191505060405180910390fd5b603454604080516376cdb03b60e01b815290516000926001600160a01b0316916376cdb03b916004808301926020929190829003018186803b1580156108c257600080fd5b505afa1580156108d6573d6000803e3d6000fd5b505050506040513d60208110156108ec57600080fd5b5051604080516301de24b560e51b81526004810185905290516001600160a01b0390921691632d6cb681918b9173__AccountTokenLib_______________________91633bc496a0916024808301926020929190829003018186803b15801561095457600080fd5b505af4158015610968573d6000803e3d6000fd5b505050506040513d602081101561097e57600080fd5b5051604080516001600160e01b031960e086901b1681526001600160a01b0390931660048401526024830191909152516044808301926020929190829003018186803b1580156109cd57600080fd5b505afa1580156109e1573d6000803e3d6000fd5b505050506040513d60208110156109f757600080fd5b5051905073__AccountTokenLib_______________________63febc2fe3838684610a206147ad565b6040518563ffffffff1660e01b81526004018085815260200184815260200183815260200182815260200194505050505060006040518083038186803b158015610a6957600080fd5b505af4158015610a7d573d6000803e3d6000fd5b505050508173__AccountTokenLib_______________________63875c480290916040518263ffffffff1660e01b81526004018082815260200191505060206040518083038186803b158015610ad257600080fd5b505af4158015610ae6573d6000803e3d6000fd5b505050506040513d6020811015610afc57600080fd5b5051610bf75760345460408051639895880f60e01b815290516000926001600160a01b031691639895880f916004808301926020929190829003018186803b158015610b4757600080fd5b505afa158015610b5b573d6000803e3d6000fd5b505050506040513d6020811015610b7157600080fd5b5051604080516319b02f4960e21b81526001600160a01b038c81166004830152915191909216916366c0bd24916024808301926020929190829003018186803b158015610bbd57600080fd5b505afa158015610bd1573d6000803e3d6000fd5b505050506040513d6020811015610be757600080fd5b50519050610bf58a82614823565b505b5090979650505050505050565b6001600160a01b03821660009081526033602052604081206001810154610c3b90600160801b90046001600160801b03168461487e565b9150505b92915050565b600054610100900460ff1680610c5e5750610c5e6148dd565b80610c6c575060005460ff16155b610ca75760405162461bcd60e51b815260040180806020018281038252602e815260200180614ce9602e913960400191505060405180910390fd5b600054610100900460ff16158015610cd2576000805460ff1961ff0019909116610100171660011790555b610cdb83612bfb565b603580546001600160a01b0319166001600160a01b0384161790558015610d08576000805461ff00191690555b505050565b6001600160a01b03821660009081526033602052604081206001810154610c3b906001600160801b03168463ffffffff61487e16565b603460009054906101000a90046001600160a01b03166001600160a01b031663cc5738b56040518163ffffffff1660e01b815260040160206040518083038186803b158015610d9157600080fd5b505afa158015610da5573d6000803e3d6000fd5b505050506040513d6020811015610dbb57600080fd5b50516001600160a01b0316331480610e545750603460009054906101000a90046001600160a01b03166001600160a01b03166376cdb03b6040518163ffffffff1660e01b815260040160206040518083038186803b158015610e1c57600080fd5b505afa158015610e30573d6000803e3d6000fd5b505050506040513d6020811015610e4657600080fd5b50516001600160a01b031633145b610e8f5760405162461bcd60e51b8152600401808060200182810382526038815260200180614d5e6038913960400191505060405180910390fd5b80610ecb5760405162461bcd60e51b815260040180806020018281038252602b815260200180614bef602b913960400191505060405180910390fd5b610ed48361383d565b610f0f5760405162461bcd60e51b8152600401808060200182810382526023815260200180614d3b6023913960400191505060405180910390fd5b610f1883613866565b6034546040805163d182f33560e01b81526001600160a01b0392831660048201529185166024830152516110c7916110b29173__Utils_________________________________9163d182f335916044808301926020929190829003018186803b158015610f8557600080fd5b505af4158015610f99573d6000803e3d6000fd5b505050506040513d6020811015610faf57600080fd5b505160345460408051639895880f60e01b815290516110a6926001600160a01b031691639895880f916004808301926020929190829003018186803b158015610ff757600080fd5b505afa15801561100b573d6000803e3d6000fd5b505050506040513d602081101561102157600080fd5b505160408051636e9ecb0f60e11b81526001600160a01b038a811660048301529151919092169163dd3d961e916024808301926020929190829003018186803b15801561106d57600080fd5b505afa158015611081573d6000803e3d6000fd5b505050506040513d602081101561109757600080fd5b5051869063ffffffff6148e316565b9063ffffffff61493c16565b6110bb86611e27565b9063ffffffff61497e16565b11156111045760405162461bcd60e51b8152600401808060200182810382526024815260200180614d176024913960400191505060405180910390fd5b6001600160a01b0380841660009081526033602090815260408083208685168452825280832060345482516376cdb03b60e01b81529251919516926376cdb03b9260048082019391829003018186803b15801561116057600080fd5b505afa158015611174573d6000803e3d6000fd5b505050506040513d602081101561118a57600080fd5b5051604080516301de24b560e51b81526004810185905290516001600160a01b0390921691632d6cb68191879173__AccountTokenLib_______________________91633bc496a0916024808301926020929190829003018186803b1580156111f257600080fd5b505af4158015611206573d6000803e3d6000fd5b505050506040513d602081101561121c57600080fd5b5051604080516001600160e01b031960e086901b1681526001600160a01b0390931660048401526024830191909152516044808301926020929190829003018186803b15801561126b57600080fd5b505afa15801561127f573d6000803e3d6000fd5b505050506040513d602081101561129557600080fd5b5051905073__AccountTokenLib_______________________639efdc35c8385846112be6147ad565b6040518563ffffffff1660e01b81526004018085815260200184815260200183815260200182815260200194505050505060006040518083038186803b15801561130757600080fd5b505af415801561131b573d6000803e3d6000fd5b505050506000603460009054906101000a90046001600160a01b03166001600160a01b0316639895880f6040518163ffffffff1660e01b815260040160206040518083038186803b15801561136f57600080fd5b505afa158015611383573d6000803e3d6000fd5b505050506040513d602081101561139957600080fd5b5051604080516319b02f4960e21b81526001600160a01b038881166004830152915191909216916366c0bd24916024808301926020929190829003018186803b1580156113e557600080fd5b505afa1580156113f9573d6000803e3d6000fd5b505050506040513d602081101561140f57600080fd5b5051905061141d86826149d8565b505050505050565b73c04158f7db6f9c9ffbd5593236a1a3d69f92167c81565b6033602052600090815260409020600101546001600160801b0380821691600160801b90041682565b600e81565b6001600160a01b038083166000908152603360209081526040808320938516835292815282822083516343ae240160e11b81526004810182905293519293909273__AccountTokenLib_______________________9263875c48029260248082019391829003018186803b1580156114e257600080fd5b505af41580156114f6573d6000803e3d6000fd5b505050506040513d602081101561150c57600080fd5b5051949350505050565b603460009054906101000a90046001600160a01b03166001600160a01b031663cc5738b56040518163ffffffff1660e01b815260040160206040518083038186803b15801561156457600080fd5b505afa158015611578573d6000803e3d6000fd5b505050506040513d602081101561158e57600080fd5b50516001600160a01b03163314806116275750603460009054906101000a90046001600160a01b03166001600160a01b03166376cdb03b6040518163ffffffff1660e01b815260040160206040518083038186803b1580156115ef57600080fd5b505afa158015611603573d6000803e3d6000fd5b505050506040513d602081101561161957600080fd5b50516001600160a01b031633145b6116625760405162461bcd60e51b8152600401808060200182810382526038815260200180614d5e6038913960400191505060405180910390fd5b6001600160a01b0380841660009081526033602090815260408083208685168452825280832060345482516376cdb03b60e01b81529251919516926376cdb03b9260048082019391829003018186803b1580156116be57600080fd5b505afa1580156116d2573d6000803e3d6000fd5b505050506040513d60208110156116e857600080fd5b50516040805163b66b3ce960e01b81526004810185905290516001600160a01b0390921691635a80c49791879173__AccountTokenLib_______________________9163b66b3ce9916024808301926020929190829003018186803b15801561175057600080fd5b505af4158015611764573d6000803e3d6000fd5b505050506040513d602081101561177a57600080fd5b5051604080516001600160e01b031960e086901b1681526001600160a01b0390931660048401526024830191909152516044808301926020929190829003018186803b1580156117c957600080fd5b505afa1580156117dd573d6000803e3d6000fd5b505050506040513d60208110156117f357600080fd5b50516040805162b0b8a160e01b815260048101859052905191925073__AccountTokenLib_______________________9162b0b8a191602480820192602092909190829003018186803b15801561184957600080fd5b505af415801561185d573d6000803e3d6000fd5b505050506040513d602081101561187357600080fd5b505161196e5760345460408051639895880f60e01b815290516000926001600160a01b031691639895880f916004808301926020929190829003018186803b1580156118be57600080fd5b505afa1580156118d2573d6000803e3d6000fd5b505050506040513d60208110156118e857600080fd5b5051604080516319b02f4960e21b81526001600160a01b038881166004830152915191909216916366c0bd24916024808301926020929190829003018186803b15801561193457600080fd5b505afa158015611948573d6000803e3d6000fd5b505050506040513d602081101561195e57600080fd5b5051905061196c8682614a0f565b505b73__AccountTokenLib_______________________631496a7978385846119936147ad565b6040518563ffffffff1660e01b81526004018085815260200184815260200183815260200182815260200194505050505060006040518083038186803b1580156119dc57600080fd5b505af41580156119f0573d6000803e3d6000fd5b505050505050505050565b6000805b603460009054906101000a90046001600160a01b03166001600160a01b0316639895880f6040518163ffffffff1660e01b815260040160206040518083038186803b158015611a4d57600080fd5b505afa158015611a61573d6000803e3d6000fd5b505050506040513d6020811015611a7757600080fd5b505160408051630463749760e51b815290516001600160a01b0390921691638c6e92e091600480820192602092909190829003018186803b158015611abb57600080fd5b505afa158015611acf573d6000803e3d6000fd5b505050506040513d6020811015611ae557600080fd5b5051811015611e2157611af88382610d0d565b15611e195760345460408051639895880f60e01b815290516000926001600160a01b031691639895880f916004808301926020929190829003018186803b158015611b4257600080fd5b505afa158015611b56573d6000803e3d6000fd5b505050506040513d6020811015611b6c57600080fd5b50516040805163021245b160e01b81526004810185905290516001600160a01b039092169163021245b191602480820192602092909190829003018186803b158015611bb757600080fd5b505afa158015611bcb573d6000803e3d6000fd5b505050506040513d6020811015611be157600080fd5b50519050670de0b6b3a76400006001600160a01b038216600e14611cf857603460009054906101000a90046001600160a01b03166001600160a01b0316639895880f6040518163ffffffff1660e01b815260040160206040518083038186803b158015611c4d57600080fd5b505afa158015611c61573d6000803e3d6000fd5b505050506040513d6020811015611c7757600080fd5b505160408051633c2e3e7b60e11b81526001600160a01b0385811660048301529151919092169163785c7cf6916024808301926020929190829003018186803b158015611cc357600080fd5b505afa158015611cd7573d6000803e3d6000fd5b505050506040513d6020811015611ced57600080fd5b505160ff16600a0a90505b611e14611e07826110a6603460009054906101000a90046001600160a01b03166001600160a01b0316639895880f6040518163ffffffff1660e01b815260040160206040518083038186803b158015611d5057600080fd5b505afa158015611d64573d6000803e3d6000fd5b505050506040513d6020811015611d7a57600080fd5b505160408051634af44fff60e11b8152600481018a905290516001600160a01b03909216916395e89ffe91602480820192602092909190829003018186803b158015611dc557600080fd5b505afa158015611dd9573d6000803e3d6000fd5b505050506040513d6020811015611def57600080fd5b5051611dfb878b612234565b9063ffffffff6148e316565b859063ffffffff61497e16565b935050505b6001016119ff565b50919050565b6000805b603460009054906101000a90046001600160a01b03166001600160a01b0316639895880f6040518163ffffffff1660e01b815260040160206040518083038186803b158015611e7957600080fd5b505afa158015611e8d573d6000803e3d6000fd5b505050506040513d6020811015611ea357600080fd5b505160408051630463749760e51b815290516001600160a01b0390921691638c6e92e091600480820192602092909190829003018186803b158015611ee757600080fd5b505afa158015611efb573d6000803e3d6000fd5b505050506040513d6020811015611f1157600080fd5b5051811015611e2157611f248382610c04565b1561222c5760345460408051639895880f60e01b815290516000926001600160a01b031691639895880f916004808301926020929190829003018186803b158015611f6e57600080fd5b505afa158015611f82573d6000803e3d6000fd5b505050506040513d6020811015611f9857600080fd5b50516040805163021245b160e01b81526004810185905290516001600160a01b039092169163021245b191602480820192602092909190829003018186803b158015611fe357600080fd5b505afa158015611ff7573d6000803e3d6000fd5b505050506040513d602081101561200d57600080fd5b50519050670de0b6b3a76400006001600160a01b038216600e1461212457603460009054906101000a90046001600160a01b03166001600160a01b0316639895880f6040518163ffffffff1660e01b815260040160206040518083038186803b15801561207957600080fd5b505afa15801561208d573d6000803e3d6000fd5b505050506040513d60208110156120a357600080fd5b505160408051633c2e3e7b60e11b81526001600160a01b0385811660048301529151919092169163785c7cf6916024808301926020929190829003018186803b1580156120ef57600080fd5b505afa158015612103573d6000803e3d6000fd5b505050506040513d602081101561211957600080fd5b505160ff16600a0a90505b612227611e07826110a6603460009054906101000a90046001600160a01b03166001600160a01b0316639895880f6040518163ffffffff1660e01b815260040160206040518083038186803b15801561217c57600080fd5b505afa158015612190573d6000803e3d6000fd5b505050506040513d60208110156121a657600080fd5b505160408051634af44fff60e11b8152600481018a905290516001600160a01b03909216916395e89ffe91602480820192602092909190829003018186803b1580156121f157600080fd5b505afa158015612205573d6000803e3d6000fd5b505050506040513d602081101561221b57600080fd5b5051611dfb878b613f93565b935050505b600101611e2b565b6001600160a01b0380821660009081526033602090815260408083209386168352928152828220835162b0b8a160e01b815260048101829052935192939092849273__AccountTokenLib_______________________9262b0b8a19260248083019392829003018186803b1580156122ab57600080fd5b505af41580156122bf573d6000803e3d6000fd5b505050506040513d60208110156122d557600080fd5b50516122e657600092505050610c3f565b603460009054906101000a90046001600160a01b03166001600160a01b03166376cdb03b6040518163ffffffff1660e01b815260040160206040518083038186803b15801561233457600080fd5b505afa158015612348573d6000803e3d6000fd5b505050506040513d602081101561235e57600080fd5b50516040805163b66b3ce960e01b81526004810185905290516001600160a01b0390921691631ff4443c91889173__AccountTokenLib_______________________9163b66b3ce9916024808301926020929190829003018186803b1580156123c657600080fd5b505af41580156123da573d6000803e3d6000fd5b505050506040513d60208110156123f057600080fd5b5051604080516001600160e01b031960e086901b1681526001600160a01b0390931660048401526024830191909152516044808301926020929190829003018186803b15801561243f57600080fd5b505afa158015612453573d6000803e3d6000fd5b505050506040513d602081101561246957600080fd5b505161247e5750670de0b6b3a76400006126ff565b603454604080516376cdb03b60e01b815290516126fc926001600160a01b0316916376cdb03b916004808301926020929190829003018186803b1580156124c457600080fd5b505afa1580156124d8573d6000803e3d6000fd5b505050506040513d60208110156124ee57600080fd5b50516040805163b66b3ce960e01b81526004810186905290516001600160a01b0390921691631ff4443c91899173__AccountTokenLib_______________________9163b66b3ce9916024808301926020929190829003018186803b15801561255657600080fd5b505af415801561256a573d6000803e3d6000fd5b505050506040513d602081101561258057600080fd5b5051604080516001600160e01b031960e086901b1681526001600160a01b0390931660048401526024830191909152516044808301926020929190829003018186803b1580156125cf57600080fd5b505afa1580156125e3573d6000803e3d6000fd5b505050506040513d60208110156125f957600080fd5b5051603454604080516376cdb03b60e01b815290516110a692670de0b6b3a7640000926001600160a01b03909116916376cdb03b91600480820192602092909190829003018186803b15801561264e57600080fd5b505afa158015612662573d6000803e3d6000fd5b505050506040513d602081101561267857600080fd5b505160408051637ebff3d560e01b81526001600160a01b038c8116600483015291519190921691637ebff3d5916024808301926020929190829003018186803b1580156126c457600080fd5b505afa1580156126d8573d6000803e3d6000fd5b505050506040513d60208110156126ee57600080fd5b50519063ffffffff6148e316565b90505b604080516313d973f760e01b81526004810184905260248101839052905173__AccountTokenLib_______________________916313d973f7916044808301926020929190829003018186803b15801561275857600080fd5b505af415801561276c573d6000803e3d6000fd5b505050506040513d602081101561278257600080fd5b50519250610c3f915050565b6000805b603460009054906101000a90046001600160a01b03166001600160a01b0316639895880f6040518163ffffffff1660e01b815260040160206040518083038186803b1580156127e057600080fd5b505afa1580156127f4573d6000803e3d6000fd5b505050506040513d602081101561280a57600080fd5b505160408051630463749760e51b815290516001600160a01b0390921691638c6e92e091600480820192602092909190829003018186803b15801561284e57600080fd5b505afa158015612862573d6000803e3d6000fd5b505050506040513d602081101561287857600080fd5b505160ff82161015612a6c5761288e8382610d0d565b8061289e575061289e8382610c04565b15612a645760345460408051639895880f60e01b815290516000926001600160a01b031691639895880f916004808301926020929190829003018186803b1580156128e857600080fd5b505afa1580156128fc573d6000803e3d6000fd5b505050506040513d602081101561291257600080fd5b50516040805163021245b160e01b815260ff8516600482015290516001600160a01b039092169163021245b191602480820192602092909190829003018186803b15801561295f57600080fd5b505afa158015612973573d6000803e3d6000fd5b505050506040513d602081101561298957600080fd5b5051603454604080516376cdb03b60e01b815290519293506001600160a01b03909116916376cdb03b91600480820192602092909190829003018186803b1580156129d357600080fd5b505afa1580156129e7573d6000803e3d6000fd5b505050506040513d60208110156129fd57600080fd5b50516040805163378d2c3d60e21b81526001600160a01b0384811660048301529151919092169163de34b0f491602480830192600092919082900301818387803b158015612a4a57600080fd5b505af1158015612a5e573d6000803e3d6000fd5b50505050505b600101612792565b506034546040805163100c48d360e21b815290516000926001600160a01b031691634031234c916004808301926020929190829003018186803b158015612ab257600080fd5b505afa158015612ac6573d6000803e3d6000fd5b505050506040513d6020811015612adc57600080fd5b505160345460408051634802b7c160e01b815290519293506000926001600160a01b0390921691634802b7c191600480820192602092909190829003018186803b158015612b2957600080fd5b505afa158015612b3d573d6000803e3d6000fd5b505050506040513d6020811015612b5357600080fd5b505190506000612b6285611e27565b90506000612b6f866119fb565b9050612b81818463ffffffff6148e316565b612b9283606463ffffffff6148e316565b1115612bcf5760405162461bcd60e51b815260040180806020018281038252602e815260200180614cbb602e913960400191505060405180910390fd5b612bdf818563ffffffff6148e316565b612bf083606463ffffffff6148e316565b119695505050505050565b600054610100900460ff1680612c145750612c146148dd565b80612c22575060005460ff16155b612c5d5760405162461bcd60e51b815260040180806020018281038252602e815260200180614ce9602e913960400191505060405180910390fd5b600054610100900460ff16158015612c88576000805460ff1961ff0019909116610100171660011790555b603480546001600160a01b0319166001600160a01b0384161790558015612cb5576000805461ff00191690555b5050565b6220148081565b670de0b6b3a764000081565b6034546040805163cc5738b560e01b815290516000926001600160a01b03169163cc5738b5916004808301926020929190829003018186803b158015612d1157600080fd5b505afa158015612d25573d6000803e3d6000fd5b505050506040513d6020811015612d3b57600080fd5b50516001600160a01b0316331480612dd45750603460009054906101000a90046001600160a01b03166001600160a01b03166376cdb03b6040518163ffffffff1660e01b815260040160206040518083038186803b158015612d9c57600080fd5b505afa158015612db0573d6000803e3d6000fd5b505050506040513d6020811015612dc657600080fd5b50516001600160a01b031633145b612e0f5760405162461bcd60e51b8152600401808060200182810382526038815260200180614d5e6038913960400191505060405180910390fd5b612e198385612234565b821115612e65576040805162461bcd60e51b815260206004820152601560248201527424b739bab33334b1b4b2b73a103130b630b731b29760591b604482015290519081900360640190fd5b60345460408051639895880f60e01b815290516000926001600160a01b031691639895880f916004808301926020929190829003018186803b158015612eaa57600080fd5b505afa158015612ebe573d6000803e3d6000fd5b505050506040513d6020811015612ed457600080fd5b505160408051632418cd4960e21b81526001600160a01b038781166004830152915191909216916390633524916024808301926020929190829003018186803b158015612f2057600080fd5b505afa158015612f34573d6000803e3d6000fd5b505050506040513d6020811015612f4a57600080fd5b50519050612f5785613866565b612f6086611e27565b1161315e576034546040805163d182f33560e01b81526001600160a01b03928316600482015291861660248301525161311891613103916064916110a69173__Utils_________________________________9163d182f335916044808301926020929190829003018186803b158015612fd957600080fd5b505af4158015612fed573d6000803e3d6000fd5b505050506040513d602081101561300357600080fd5b505160345460408051639895880f60e01b815290516110a6928992611dfb926001600160a01b0390921691639895880f91600480820192602092909190829003018186803b15801561305457600080fd5b505afa158015613068573d6000803e3d6000fd5b505050506040513d602081101561307e57600080fd5b505160408051636e9ecb0f60e11b81526001600160a01b038f811660048301529151919092169163dd3d961e916024808301926020929190829003018186803b1580156130ca57600080fd5b505afa1580156130de573d6000803e3d6000fd5b505050506040513d60208110156130f457600080fd5b50518b9063ffffffff6148e316565b61310c87613866565b9063ffffffff61476416565b61312186611e27565b111561315e5760405162461bcd60e51b8152600401808060200182810382526026815260200180614d966026913960400191505060405180910390fd5b6001600160a01b0380861660009081526033602090815260408083209388168352928152828220835162b0b8a160e01b8152600481018290529351909373__AccountTokenLib_______________________9262b0b8a192602480840193829003018186803b1580156131d057600080fd5b505af41580156131e4573d6000803e3d6000fd5b505050506040513d60208110156131fa57600080fd5b5051603454604080516376cdb03b60e01b815290519293506000926001600160a01b03909216916376cdb03b91600480820192602092909190829003018186803b15801561324757600080fd5b505afa15801561325b573d6000803e3d6000fd5b505050506040513d602081101561327157600080fd5b50516040805163b66b3ce960e01b81526004810186905290516001600160a01b0390921691635a80c497918a9173__AccountTokenLib_______________________9163b66b3ce9916024808301926020929190829003018186803b1580156132d957600080fd5b505af41580156132ed573d6000803e3d6000fd5b505050506040513d602081101561330357600080fd5b5051604080516001600160e01b031960e086901b1681526001600160a01b0390931660048401526024830191909152516044808301926020929190829003018186803b15801561335257600080fd5b505afa158015613366573d6000803e3d6000fd5b505050506040513d602081101561337c57600080fd5b5051905073__AccountTokenLib_______________________63381cec488488846133a56147ad565b6040518563ffffffff1660e01b81526004018085815260200184815260200183815260200182815260200194505050505060006040518083038186803b1580156133ee57600080fd5b505af4158015613402573d6000803e3d6000fd5b5050505060008373__AccountTokenLib_______________________62b0b8a190916040518263ffffffff1660e01b81526004018082815260200191505060206040518083038186803b15801561345857600080fd5b505af415801561346c573d6000803e3d6000fd5b505050506040513d602081101561348257600080fd5b50516040805162b0b8a160e01b815260048101879052905191925073__AccountTokenLib_______________________9162b0b8a191602480820192602092909190829003018186803b1580156134d857600080fd5b505af41580156134ec573d6000803e3d6000fd5b505050506040513d602081101561350257600080fd5b50516135fd5760345460408051639895880f60e01b815290516000926001600160a01b031691639895880f916004808301926020929190829003018186803b15801561354d57600080fd5b505afa158015613561573d6000803e3d6000fd5b505050506040513d602081101561357757600080fd5b5051604080516319b02f4960e21b81526001600160a01b038c81166004830152915191909216916366c0bd24916024808301926020929190829003018186803b1580156135c357600080fd5b505afa1580156135d7573d6000803e3d6000fd5b505050506040513d60208110156135ed57600080fd5b505190506135fb8a82614a75565b505b60345460408051632fe24e4560e21b815290516000926001600160a01b03169163bf893914916004808301926020929190829003018186803b15801561364257600080fd5b505afa158015613656573d6000803e3d6000fd5b505050506040513d602081101561366c57600080fd5b50516001600160a01b038b81169116146137a85761372260646110a6603460009054906101000a90046001600160a01b03166001600160a01b031663ace96d0e6040518163ffffffff1660e01b815260040160206040518083038186803b1580156136d657600080fd5b505afa1580156136ea573d6000803e3d6000fd5b505050506040513d602081101561370057600080fd5b5051611dfb613715898863ffffffff61476416565b8d9063ffffffff61476416565b90506137a8603460009054906101000a90046001600160a01b03166001600160a01b031663bf8939146040518163ffffffff1660e01b815260040160206040518083038186803b15801561377557600080fd5b505afa158015613789573d6000803e3d6000fd5b505050506040513d602081101561379f57600080fd5b50518a83611516565b6137b8888263ffffffff61476416565b9a9950505050505050505050565b6001600160a01b0380831660009081526033602090815260408083209385168352928152828220835163b66b3ce960e01b81526004810182905293519293909273__AccountTokenLib_______________________9263b66b3ce99260248082019391829003018186803b1580156114e257600080fd5b6001600160a01b03166000908152603360205260409020600101546001600160801b0316151590565b6000805b603460009054906101000a90046001600160a01b03166001600160a01b0316639895880f6040518163ffffffff1660e01b815260040160206040518083038186803b1580156138b857600080fd5b505afa1580156138cc573d6000803e3d6000fd5b505050506040513d60208110156138e257600080fd5b505160408051630463749760e51b815290516001600160a01b0390921691638c6e92e091600480820192602092909190829003018186803b15801561392657600080fd5b505afa15801561393a573d6000803e3d6000fd5b505050506040513d602081101561395057600080fd5b505160ff82161015611e21576139668382610d0d565b15613d5f5760345460408051639895880f60e01b815290516000926001600160a01b031691639895880f916004808301926020929190829003018186803b1580156139b057600080fd5b505afa1580156139c4573d6000803e3d6000fd5b505050506040513d60208110156139da57600080fd5b50516040805163021245b160e01b815260ff8516600482015290516001600160a01b039092169163021245b191602480820192602092909190829003018186803b158015613a2757600080fd5b505afa158015613a3b573d6000803e3d6000fd5b505050506040513d6020811015613a5157600080fd5b50519050670de0b6b3a76400006001600160a01b038216600e14613b6857603460009054906101000a90046001600160a01b03166001600160a01b0316639895880f6040518163ffffffff1660e01b815260040160206040518083038186803b158015613abd57600080fd5b505afa158015613ad1573d6000803e3d6000fd5b505050506040513d6020811015613ae757600080fd5b505160408051633c2e3e7b60e11b81526001600160a01b0385811660048301529151919092169163785c7cf6916024808301926020929190829003018186803b158015613b3357600080fd5b505afa158015613b47573d6000803e3d6000fd5b505050506040513d6020811015613b5d57600080fd5b505160ff16600a0a90505b613d5a611e07826110a660646110a6603460009054906101000a90046001600160a01b03166001600160a01b0316639895880f6040518163ffffffff1660e01b815260040160206040518083038186803b158015613bc557600080fd5b505afa158015613bd9573d6000803e3d6000fd5b505050506040513d6020811015613bef57600080fd5b505160408051632418cd4960e21b81526001600160a01b038b81166004830152915191909216916390633524916024808301926020929190829003018186803b158015613c3b57600080fd5b505afa158015613c4f573d6000803e3d6000fd5b505050506040513d6020811015613c6557600080fd5b505160345460408051639895880f60e01b81529051611dfb926001600160a01b031691639895880f916004808301926020929190829003018186803b158015613cad57600080fd5b505afa158015613cc1573d6000803e3d6000fd5b505050506040513d6020811015613cd757600080fd5b505160408051634af44fff60e11b815260ff8e16600482015290516001600160a01b03909216916395e89ffe91602480820192602092909190829003018186803b158015613d2457600080fd5b505afa158015613d38573d6000803e3d6000fd5b505050506040513d6020811015613d4e57600080fd5b5051611dfb8b8f612234565b935050505b60010161386a565b6001600160a01b0380831660009081526033602090815260408083208585168452825280832060345482516376cdb03b60e01b8152925194959194869491909216926376cdb03b9260048083019392829003018186803b158015613dca57600080fd5b505afa158015613dde573d6000803e3d6000fd5b505050506040513d6020811015613df457600080fd5b5051604080516301de24b560e51b81526004810185905290516001600160a01b0390921691635a80c49791879173__AccountTokenLib_______________________91633bc496a0916024808301926020929190829003018186803b158015613e5c57600080fd5b505af4158015613e70573d6000803e3d6000fd5b505050506040513d6020811015613e8657600080fd5b5051604080516001600160e01b031960e086901b1681526001600160a01b0390931660048401526024830191909152516044808301926020929190829003018186803b158015613ed557600080fd5b505afa158015613ee9573d6000803e3d6000fd5b505050506040513d6020811015613eff57600080fd5b5051604080516328648c6560e11b81526004810185905260248101839052905191925073__AccountTokenLib_______________________916350c918ca91604480820192602092909190829003018186803b158015613f5e57600080fd5b505af4158015613f72573d6000803e3d6000fd5b505050506040513d6020811015613f8857600080fd5b505195945050505050565b6001600160a01b038082166000908152603360209081526040808320938616835292815282822083516343ae240160e11b815260048101829052935192939092849273__AccountTokenLib_______________________9263875c48029260248083019392829003018186803b15801561400c57600080fd5b505af4158015614020573d6000803e3d6000fd5b505050506040513d602081101561403657600080fd5b505161404757600092505050610c3f565b603460009054906101000a90046001600160a01b03166001600160a01b03166376cdb03b6040518163ffffffff1660e01b815260040160206040518083038186803b15801561409557600080fd5b505afa1580156140a9573d6000803e3d6000fd5b505050506040513d60208110156140bf57600080fd5b5051604080516301de24b560e51b81526004810185905290516001600160a01b0390921691637aa473d191889173__AccountTokenLib_______________________91633bc496a0916024808301926020929190829003018186803b15801561412757600080fd5b505af415801561413b573d6000803e3d6000fd5b505050506040513d602081101561415157600080fd5b5051604080516001600160e01b031960e086901b1681526001600160a01b0390931660048401526024830191909152516044808301926020929190829003018186803b1580156141a057600080fd5b505afa1580156141b4573d6000803e3d6000fd5b505050506040513d60208110156141ca57600080fd5b50516141df5750670de0b6b3a7640000614428565b603454604080516376cdb03b60e01b81529051614425926001600160a01b0316916376cdb03b916004808301926020929190829003018186803b15801561422557600080fd5b505afa158015614239573d6000803e3d6000fd5b505050506040513d602081101561424f57600080fd5b5051604080516301de24b560e51b81526004810186905290516001600160a01b0390921691637aa473d191899173__AccountTokenLib_______________________91633bc496a0916024808301926020929190829003018186803b1580156142b757600080fd5b505af41580156142cb573d6000803e3d6000fd5b505050506040513d60208110156142e157600080fd5b5051604080516001600160e01b031960e086901b1681526001600160a01b0390931660048401526024830191909152516044808301926020929190829003018186803b15801561433057600080fd5b505afa158015614344573d6000803e3d6000fd5b505050506040513d602081101561435a57600080fd5b5051603454604080516376cdb03b60e01b815290516110a692670de0b6b3a7640000926001600160a01b03909116916376cdb03b91600480820192602092909190829003018186803b1580156143af57600080fd5b505afa1580156143c3573d6000803e3d6000fd5b505050506040513d60208110156143d957600080fd5b505160408051630b57444360e01b81526001600160a01b038c8116600483015291519190921691630b574443916024808301926020929190829003018186803b1580156126c457600080fd5b90505b6040805163e8f2267360e01b81526004810184905260248101839052905173__AccountTokenLib_______________________9163e8f22673916044808301926020929190829003018186803b15801561275857600080fd5b6001600160a01b038083166000908152603360209081526040808320938516835292815282822083516301de24b560e51b81526004810182905293519293909273__AccountTokenLib_______________________92633bc496a09260248082019391829003018186803b1580156114e257600080fd5b6001600160a01b0380831660009081526033602090815260408083208585168452825280832060345482516376cdb03b60e01b8152925194959194869491909216926376cdb03b9260048083019392829003018186803b15801561455b57600080fd5b505afa15801561456f573d6000803e3d6000fd5b505050506040513d602081101561458557600080fd5b5051604080516301de24b560e51b81526004810185905290516001600160a01b0390921691632d6cb68191879173__AccountTokenLib_______________________91633bc496a0916024808301926020929190829003018186803b1580156145ed57600080fd5b505af4158015614601573d6000803e3d6000fd5b505050506040513d602081101561461757600080fd5b5051604080516001600160e01b031960e086901b1681526001600160a01b0390931660048401526024830191909152516044808301926020929190829003018186803b15801561466657600080fd5b505afa15801561467a573d6000803e3d6000fd5b505050506040513d602081101561469057600080fd5b5051604080516315d7fef560e01b81526004810185905260248101839052905191925073__AccountTokenLib_______________________916315d7fef591604480820192602092909190829003018186803b158015613f5e57600080fd5b6001600160a01b0380831660009081526033602090815260408083209385168352928152828220835162b0b8a160e01b81526004810182905293519293909273__AccountTokenLib_______________________9262b0b8a19260248082019391829003018186803b1580156114e257600080fd5b60006147a683836040518060400160405280601e81526020017f536166654d6174683a207375627472616374696f6e206f766572666c6f770000815250614aab565b9392505050565b603554604080516310b2ec5760e21b815290516000926001600160a01b0316916342cbb15c916004808301926020929190829003018186803b1580156147f257600080fd5b505afa158015614806573d6000803e3d6000fd5b505050506040513d602081101561481c57600080fd5b5051905090565b6001600160a01b0382166000908152603360205260409020600181015461485a90600160801b90046001600160801b031683614b42565b600190910180546001600160801b03928316600160801b0292169190911790555050565b600060808260ff16106148c25760405162461bcd60e51b8152600401808060200182810382526024815260200180614c766024913960400191505060405180910390fd5b50600160ff82161b82166001600160801b0316151592915050565b303b1590565b6000826148f257506000610c3f565b828202828482816148ff57fe5b04146147a65760405162461bcd60e51b8152600401808060200182810382526021815260200180614c9a6021913960400191505060405180910390fd5b60006147a683836040518060400160405280601a81526020017f536166654d6174683a206469766973696f6e206279207a65726f000000000000815250614b6a565b6000828201838110156147a6576040805162461bcd60e51b815260206004820152601b60248201527f536166654d6174683a206164646974696f6e206f766572666c6f770000000000604482015290519081900360640190fd5b6001600160a01b0382166000908152603360205260409020600181015461485a90600160801b90046001600160801b031683614bcf565b6001600160a01b03821660009081526033602052604090206001810154614a45906001600160801b03168363ffffffff614bcf16565b60019190910180546fffffffffffffffffffffffffffffffff19166001600160801b039092169190911790555050565b6001600160a01b03821660009081526033602052604090206001810154614a45906001600160801b03168363ffffffff614b4216565b60008184841115614b3a5760405162461bcd60e51b81526004018080602001828103825283818151815260200191508051906020019080838360005b83811015614aff578181015183820152602001614ae7565b50505050905090810190601f168015614b2c5780820380516001836020036101000a031916815260200191505b509250505060405180910390fd5b505050900390565b6000614b4e838361487e565b15614b635750600160ff82161b198216610c3f565b5090919050565b60008183614bb95760405162461bcd60e51b8152602060048201818152835160248401528351909283926044909101919085019080838360008315614aff578181015183820152602001614ae7565b506000838581614bc557fe5b0495945050505050565b6000614bdb838361487e565b614b635750600160ff82161b8217610c3f56fe426f72726f77207a65726f20616d6f756e74206f6620746f6b656e206973206e6f7420616c6c6f7765642e546f6b656e20426f72726f775072696e636970616c206d7573742062652067726561746572207468616e20302e20546f206465706f7369742062616c616e63652c20706c6561736520757365206465706f73697420627574746f6e2e496e646578206f7574206f662072616e676520666f7220626974206f7065726174696f6e536166654d6174683a206d756c7469706c69636174696f6e206f766572666c6f77436f6c6c61746572616c206973206e6f742073756666696369656e7420746f206265206c6971756964617465642e436f6e747261637420696e7374616e63652068617320616c7265616479206265656e20696e697469616c697a6564496e73756666696369656e7420636f6c6c61746572616c207768656e20626f72726f772e546865207573657220646f65736e2774206861766520616e79206465706f736974732e4f6e6c7920617574686f72697a656420746f2063616c6c2066726f6d20446546696e657220696e7465726e616c20636f6e7472616374732e496e73756666696369656e7420636f6c6c61746572616c207768656e2077697468647261772ea265627a7a723158203b41981e48b142d902de0479a95354998e304d5d21c42d4deda4ec4e6dd2dfe664736f6c634300050e0032",
  "source": "pragma solidity 0.5.14;\n\nimport \"../Accounts.sol\";\nimport { IController } from \"../compound/ICompound.sol\";\n\ncontract AccountsWithController is Accounts {\n\n    address comptroller;\n\n    function initialize(\n        GlobalConfig _globalConfig,\n        address _comptroller\n    ) public initializer {\n        super.initialize(_globalConfig); // expected 3 passed 5 args\n        comptroller = _comptroller;\n    }\n\n    function getBlockNumber() private view returns (uint) {\n        return IController(comptroller).getBlockNumber();\n    }\n}",
  "sourcePath": "/Users/yanyichun/project/Savings/contracts/mocks/AccountsWithController.sol",
  "compiler": {
    "name": "solc",
    "version": "0.5.14+commit.01f1aaa4.Emscripten.clang"
  },
  "schemaVersion": "3.3.1",
  "updatedAt": "2020-11-09T00:44:03.343Z",
  "networkType": "ethereum",
  "devdoc": {
    "methods": {
      "getBorrowBalanceCurrent(address,address)": {
        "details": "This is an estimation. Add a new checkpoint first, if you want to derive the exact balance.",
        "params": {
          "_token": "token address"
        }
      },
      "getDepositETH(address)": {
        "details": "This is an estimation. Add a new checkpoint first, if you want to derive the exact balance."
      },
      "initialize(address)": {
        "params": {
          "_globalConfig": "the global configuration contract"
        }
      },
      "isAccountLiquidatable(address)": {
        "params": {
          "_borrower": "borrower's account"
        },
        "return": "true if the account is liquidatable"
      },
      "isUserHasAnyDeposits(address)": {
        "params": {
          "_account": "address of the user"
        },
        "return": "true if the user has positive deposit balance"
      },
      "isUserHasBorrows(address,uint8)": {
        "params": {
          "_account": "address of the user",
          "_index": "index of the token"
        },
        "return": "true if the user has borrowed the token"
      },
      "isUserHasDeposits(address,uint8)": {
        "params": {
          "_account": "address of the user",
          "_index": "index of the token"
        },
        "return": "true if the user has positive deposit balance for the token"
      }
    }
  },
  "userdoc": {
    "methods": {
      "deposit(address,address,uint256)": {
        "notice": "Update token info for deposit"
      },
      "getBorrowBalanceCurrent(address,address)": {
        "notice": "Get current borrow balance of a token"
      },
      "getBorrowETH(address)": {
        "notice": "Get borrowed balance of a token in the uint of Wei"
      },
      "getBorrowPower(address)": {
        "notice": "Calculate an account's borrow power based on token's LTV"
      },
      "getDepositETH(address)": {
        "notice": "Get current deposit balance of a token"
      },
      "initialize(address)": {
        "notice": "Initialize the Accounts"
      },
      "isAccountLiquidatable(address)": {
        "notice": "Check if the account is liquidatable"
      },
      "isUserHasAnyDeposits(address)": {
        "notice": "Check if the user has deposit for any tokens"
      },
      "isUserHasBorrows(address,uint8)": {
        "notice": "Check if the user has borrowed a token"
      },
      "isUserHasDeposits(address,uint8)": {
        "notice": "Check if the user has deposit for a token"
      },
      "withdraw(address,address,uint256)": {
        "notice": "Update token info for withdraw. The interest will be withdrawn with higher priority."
      }
    }
  }
}