{
  "contractName": "Accounts",
  "abi": [
    {
      "constant": true,
      "inputs": [],
      "name": "ACCURACY",
      "outputs": [
        {
          "internalType": "uint256",
          "name": "",
          "type": "uint256"
        }
      ],
      "payable": false,
      "stateMutability": "view",
      "type": "function"
    },
    {
      "constant": true,
      "inputs": [],
      "name": "BLOCKS_PER_YEAR",
      "outputs": [
        {
          "internalType": "uint256",
          "name": "",
          "type": "uint256"
        }
      ],
      "payable": false,
      "stateMutability": "view",
      "type": "function"
    },
    {
      "constant": true,
      "inputs": [],
      "name": "EMERGENCY_ADDR",
      "outputs": [
        {
          "internalType": "address payable",
          "name": "",
          "type": "address"
        }
      ],
      "payable": false,
      "stateMutability": "view",
      "type": "function"
    },
    {
      "constant": true,
      "inputs": [],
      "name": "ETH_ADDR",
      "outputs": [
        {
          "internalType": "address",
          "name": "",
          "type": "address"
        }
      ],
      "payable": false,
      "stateMutability": "view",
      "type": "function"
    },
    {
      "constant": true,
      "inputs": [],
      "name": "INT_UNIT",
      "outputs": [
        {
          "internalType": "uint256",
          "name": "",
          "type": "uint256"
        }
      ],
      "payable": false,
      "stateMutability": "view",
      "type": "function"
    },
    {
      "constant": true,
      "inputs": [
        {
          "internalType": "address",
          "name": "",
          "type": "address"
        }
      ],
      "name": "accounts",
      "outputs": [
        {
          "internalType": "uint128",
          "name": "depositBitmap",
          "type": "uint128"
        },
        {
          "internalType": "uint128",
          "name": "borrowBitmap",
          "type": "uint128"
        }
      ],
      "payable": false,
      "stateMutability": "view",
      "type": "function"
    },
    {
      "constant": false,
      "inputs": [
        {
          "internalType": "contract GlobalConfig",
          "name": "_globalConfig",
          "type": "address"
        }
      ],
      "name": "initialize",
      "outputs": [],
      "payable": false,
      "stateMutability": "nonpayable",
      "type": "function"
    },
    {
      "constant": true,
      "inputs": [
        {
          "internalType": "address",
          "name": "_account",
          "type": "address"
        }
      ],
      "name": "isUserHasAnyDeposits",
      "outputs": [
        {
          "internalType": "bool",
          "name": "",
          "type": "bool"
        }
      ],
      "payable": false,
      "stateMutability": "view",
      "type": "function"
    },
    {
      "constant": true,
      "inputs": [
        {
          "internalType": "address",
          "name": "_account",
          "type": "address"
        },
        {
          "internalType": "uint8",
          "name": "_index",
          "type": "uint8"
        }
      ],
      "name": "isUserHasDeposits",
      "outputs": [
        {
          "internalType": "bool",
          "name": "",
          "type": "bool"
        }
      ],
      "payable": false,
      "stateMutability": "view",
      "type": "function"
    },
    {
      "constant": true,
      "inputs": [
        {
          "internalType": "address",
          "name": "_account",
          "type": "address"
        },
        {
          "internalType": "uint8",
          "name": "_index",
          "type": "uint8"
        }
      ],
      "name": "isUserHasBorrows",
      "outputs": [
        {
          "internalType": "bool",
          "name": "",
          "type": "bool"
        }
      ],
      "payable": false,
      "stateMutability": "view",
      "type": "function"
    },
    {
      "constant": true,
      "inputs": [
        {
          "internalType": "address",
          "name": "_accountAddr",
          "type": "address"
        },
        {
          "internalType": "address",
          "name": "_token",
          "type": "address"
        }
      ],
      "name": "getDepositPrincipal",
      "outputs": [
        {
          "internalType": "uint256",
          "name": "",
          "type": "uint256"
        }
      ],
      "payable": false,
      "stateMutability": "view",
      "type": "function"
    },
    {
      "constant": true,
      "inputs": [
        {
          "internalType": "address",
          "name": "_accountAddr",
          "type": "address"
        },
        {
          "internalType": "address",
          "name": "_token",
          "type": "address"
        }
      ],
      "name": "getBorrowPrincipal",
      "outputs": [
        {
          "internalType": "uint256",
          "name": "",
          "type": "uint256"
        }
      ],
      "payable": false,
      "stateMutability": "view",
      "type": "function"
    },
    {
      "constant": true,
      "inputs": [
        {
          "internalType": "address",
          "name": "_accountAddr",
          "type": "address"
        },
        {
          "internalType": "address",
          "name": "_token",
          "type": "address"
        }
      ],
      "name": "getLastDepositBlock",
      "outputs": [
        {
          "internalType": "uint256",
          "name": "",
          "type": "uint256"
        }
      ],
      "payable": false,
      "stateMutability": "view",
      "type": "function"
    },
    {
      "constant": true,
      "inputs": [
        {
          "internalType": "address",
          "name": "_accountAddr",
          "type": "address"
        },
        {
          "internalType": "address",
          "name": "_token",
          "type": "address"
        }
      ],
      "name": "getLastBorrowBlock",
      "outputs": [
        {
          "internalType": "uint256",
          "name": "",
          "type": "uint256"
        }
      ],
      "payable": false,
      "stateMutability": "view",
      "type": "function"
    },
    {
      "constant": true,
      "inputs": [
        {
          "internalType": "address",
          "name": "_accountAddr",
          "type": "address"
        },
        {
          "internalType": "address",
          "name": "_token",
          "type": "address"
        }
      ],
      "name": "getDepositInterest",
      "outputs": [
        {
          "internalType": "uint256",
          "name": "",
          "type": "uint256"
        }
      ],
      "payable": false,
      "stateMutability": "view",
      "type": "function"
    },
    {
      "constant": true,
      "inputs": [
        {
          "internalType": "address",
          "name": "_accountAddr",
          "type": "address"
        },
        {
          "internalType": "address",
          "name": "_token",
          "type": "address"
        }
      ],
      "name": "getBorrowInterest",
      "outputs": [
        {
          "internalType": "uint256",
          "name": "",
          "type": "uint256"
        }
      ],
      "payable": false,
      "stateMutability": "view",
      "type": "function"
    },
    {
      "constant": false,
      "inputs": [
        {
          "internalType": "address",
          "name": "_accountAddr",
          "type": "address"
        },
        {
          "internalType": "address",
          "name": "_token",
          "type": "address"
        },
        {
          "internalType": "uint256",
          "name": "_amount",
          "type": "uint256"
        }
      ],
      "name": "borrow",
      "outputs": [],
      "payable": false,
      "stateMutability": "nonpayable",
      "type": "function"
    },
    {
      "constant": false,
      "inputs": [
        {
          "internalType": "address",
          "name": "_accountAddr",
          "type": "address"
        },
        {
          "internalType": "address",
          "name": "_token",
          "type": "address"
        },
        {
          "internalType": "uint256",
          "name": "_amount",
          "type": "uint256"
        }
      ],
      "name": "withdraw",
      "outputs": [
        {
          "internalType": "uint256",
          "name": "",
          "type": "uint256"
        }
      ],
      "payable": false,
      "stateMutability": "nonpayable",
      "type": "function"
    },
    {
      "constant": false,
      "inputs": [
        {
          "internalType": "address",
          "name": "_accountAddr",
          "type": "address"
        },
        {
          "internalType": "address",
          "name": "_token",
          "type": "address"
        },
        {
          "internalType": "uint256",
          "name": "_amount",
          "type": "uint256"
        }
      ],
      "name": "deposit",
      "outputs": [],
      "payable": false,
      "stateMutability": "nonpayable",
      "type": "function"
    },
    {
      "constant": false,
      "inputs": [
        {
          "internalType": "address",
          "name": "_accountAddr",
          "type": "address"
        },
        {
          "internalType": "address",
          "name": "_token",
          "type": "address"
        },
        {
          "internalType": "uint256",
          "name": "_amount",
          "type": "uint256"
        }
      ],
      "name": "repay",
      "outputs": [
        {
          "internalType": "uint256",
          "name": "",
          "type": "uint256"
        }
      ],
      "payable": false,
      "stateMutability": "nonpayable",
      "type": "function"
    },
    {
      "constant": true,
      "inputs": [
        {
          "internalType": "address",
          "name": "_token",
          "type": "address"
        },
        {
          "internalType": "address",
          "name": "_accountAddr",
          "type": "address"
        }
      ],
      "name": "getDepositBalanceCurrent",
      "outputs": [
        {
          "internalType": "uint256",
          "name": "depositBalance",
          "type": "uint256"
        }
      ],
      "payable": false,
      "stateMutability": "view",
      "type": "function"
    },
    {
      "constant": true,
      "inputs": [
        {
          "internalType": "address",
          "name": "_token",
          "type": "address"
        },
        {
          "internalType": "address",
          "name": "_accountAddr",
          "type": "address"
        }
      ],
      "name": "getBorrowBalanceCurrent",
      "outputs": [
        {
          "internalType": "uint256",
          "name": "borrowBalance",
          "type": "uint256"
        }
      ],
      "payable": false,
      "stateMutability": "view",
      "type": "function"
    },
    {
      "constant": true,
      "inputs": [
        {
          "internalType": "address",
          "name": "_borrower",
          "type": "address"
        }
      ],
      "name": "getBorrowPower",
      "outputs": [
        {
          "internalType": "uint256",
          "name": "power",
          "type": "uint256"
        }
      ],
      "payable": false,
      "stateMutability": "view",
      "type": "function"
    },
    {
      "constant": true,
      "inputs": [
        {
          "internalType": "address",
          "name": "_accountAddr",
          "type": "address"
        }
      ],
      "name": "getDepositETH",
      "outputs": [
        {
          "internalType": "uint256",
          "name": "depositETH",
          "type": "uint256"
        }
      ],
      "payable": false,
      "stateMutability": "view",
      "type": "function"
    },
    {
      "constant": true,
      "inputs": [
        {
          "internalType": "address",
          "name": "_accountAddr",
          "type": "address"
        }
      ],
      "name": "getBorrowETH",
      "outputs": [
        {
          "internalType": "uint256",
          "name": "borrowETH",
          "type": "uint256"
        }
      ],
      "payable": false,
      "stateMutability": "view",
      "type": "function"
    },
    {
      "constant": false,
      "inputs": [
        {
          "internalType": "address",
          "name": "_borrower",
          "type": "address"
        }
      ],
      "name": "isAccountLiquidatable",
      "outputs": [
        {
          "internalType": "bool",
          "name": "",
          "type": "bool"
        }
      ],
      "payable": false,
      "stateMutability": "nonpayable",
      "type": "function"
    }
  ],
  "bytecode": "0x608060405234801561001057600080fd5b50614c6d806100206000396000f3fe608060405234801561001057600080fd5b506004361061018e5760003560e01c8063c4d66de8116100de578063e21f0b5511610097578063edc337b411610071578063edc337b414610543578063f1debb9014610571578063fa78d59f1461059f578063fbcd9b051461042f5761018e565b8063e21f0b55146104c1578063e2a93dd9146104e7578063e94201c7146105155761018e565b8063c4d66de814610401578063d37db1d214610427578063d8c2d84c1461042f578063d9caed1214610437578063e0ed31941461046d578063e20672041461049b5761018e565b80637753f47b1161014b5780639c9dd88f116101255780639c9dd88f14610361578063b0fcd7a014610387578063b44d253d146103ad578063be2801b5146103db5761018e565b80637753f47b146102f55780638224b899146102fd5780638340f5491461032b5761018e565b80631da649cf1461019357806324e46eba146101db5780634b096f801461021e5780635224372c1461024d5780635467cec4146102855780635e5c06e2146102a9575b600080fd5b6101c9600480360360608110156101a957600080fd5b506001600160a01b038135811691602081013590911690604001356105cd565b60408051918252519081900360200190f35b61020a600480360360408110156101f157600080fd5b5080356001600160a01b0316906020013560ff16610bbb565b604080519115158252519081900360200190f35b61020a6004803603604081101561023457600080fd5b5080356001600160a01b0316906020013560ff16610bfc565b6102836004803603606081101561026357600080fd5b506001600160a01b03813581169160208101359091169060400135610c32565b005b61028d611314565b604080516001600160a01b039092168252519081900360200190f35b6102cf600480360360208110156102bf57600080fd5b50356001600160a01b031661132c565b604080516001600160801b03938416815291909216602082015281519081900390910190f35b61028d611355565b6101c96004803603604081101561031357600080fd5b506001600160a01b038135811691602001351661135a565b6102836004803603606081101561034157600080fd5b506001600160a01b03813581169160208101359091169060400135611405565b6101c96004803603602081101561037757600080fd5b50356001600160a01b03166118ea565b6101c96004803603602081101561039d57600080fd5b50356001600160a01b0316611d16565b6101c9600480360360408110156103c357600080fd5b506001600160a01b0381358116916020013516612123565b61020a600480360360208110156103f157600080fd5b50356001600160a01b031661267d565b6102836004803603602081101561041757600080fd5b50356001600160a01b0316612aea565b6101c9612ba8565b6101c9612baf565b6101c96004803603606081101561044d57600080fd5b506001600160a01b03813581169160208101359091169060400135612bbb565b6101c96004803603604081101561048357600080fd5b506001600160a01b03813581169160200135166136b5565b61020a600480360360208110156104b157600080fd5b50356001600160a01b031661372c565b6101c9600480360360208110156104d757600080fd5b50356001600160a01b0316613755565b6101c9600480360360408110156104fd57600080fd5b506001600160a01b0381358116916020013516613c56565b6101c96004803603604081101561052b57600080fd5b506001600160a01b0381358116916020013516613e82565b6101c96004803603604081101561055957600080fd5b506001600160a01b0381358116916020013516614370565b6101c96004803603604081101561058757600080fd5b506001600160a01b03813581169160200135166143e7565b6101c9600480360360408110156105b557600080fd5b506001600160a01b03813581169160200135166145de565b6034546040805163cc5738b560e01b815290516000926001600160a01b03169163cc5738b5916004808301926020929190829003018186803b15801561061257600080fd5b505afa158015610626573d6000803e3d6000fd5b505050506040513d602081101561063c57600080fd5b50516001600160a01b03163314806106d55750603460009054906101000a90046001600160a01b03166001600160a01b03166376cdb03b6040518163ffffffff1660e01b815260040160206040518083038186803b15801561069d57600080fd5b505afa1580156106b1573d6000803e3d6000fd5b505050506040513d60208110156106c757600080fd5b50516001600160a01b031633145b6107105760405162461bcd60e51b8152600401808060200182810382526038815260200180614bdb6038913960400191505060405180910390fd5b600061071c8486613e82565b9050600081841161072d578361072f565b815b90506000828511610741576000610751565b610751858463ffffffff61465316565b6001600160a01b038089166000908152603360209081526040808320938b16835292815282822083516343ae240160e11b815260048101829052935194955093919273__AccountTokenLib_______________________9263875c480292602480840193919291829003018186803b1580156107cc57600080fd5b505af41580156107e0573d6000803e3d6000fd5b505050506040513d60208110156107f657600080fd5b5051116108345760405162461bcd60e51b815260040180806020018281038252605c815260200180614a97605c913960600191505060405180910390fd5b603454604080516376cdb03b60e01b815290516000926001600160a01b0316916376cdb03b916004808301926020929190829003018186803b15801561087957600080fd5b505afa15801561088d573d6000803e3d6000fd5b505050506040513d60208110156108a357600080fd5b5051604080516301de24b560e51b81526004810185905290516001600160a01b0390921691632d6cb681918b9173__AccountTokenLib_______________________91633bc496a0916024808301926020929190829003018186803b15801561090b57600080fd5b505af415801561091f573d6000803e3d6000fd5b505050506040513d602081101561093557600080fd5b5051604080516001600160e01b031960e086901b1681526001600160a01b0390931660048401526024830191909152516044808301926020929190829003018186803b15801561098457600080fd5b505afa158015610998573d6000803e3d6000fd5b505050506040513d60208110156109ae57600080fd5b5051905073__AccountTokenLib_______________________63febc2fe38386846109d761469c565b6040518563ffffffff1660e01b81526004018085815260200184815260200183815260200182815260200194505050505060006040518083038186803b158015610a2057600080fd5b505af4158015610a34573d6000803e3d6000fd5b505050508173__AccountTokenLib_______________________63875c480290916040518263ffffffff1660e01b81526004018082815260200191505060206040518083038186803b158015610a8957600080fd5b505af4158015610a9d573d6000803e3d6000fd5b505050506040513d6020811015610ab357600080fd5b5051610bae5760345460408051639895880f60e01b815290516000926001600160a01b031691639895880f916004808301926020929190829003018186803b158015610afe57600080fd5b505afa158015610b12573d6000803e3d6000fd5b505050506040513d6020811015610b2857600080fd5b5051604080516319b02f4960e21b81526001600160a01b038c81166004830152915191909216916366c0bd24916024808301926020929190829003018186803b158015610b7457600080fd5b505afa158015610b88573d6000803e3d6000fd5b505050506040513d6020811015610b9e57600080fd5b50519050610bac8a826146a0565b505b5090979650505050505050565b6001600160a01b03821660009081526033602052604081206001810154610bf290600160801b90046001600160801b0316846146fb565b9150505b92915050565b6001600160a01b03821660009081526033602052604081206001810154610bf2906001600160801b03168463ffffffff6146fb16565b603460009054906101000a90046001600160a01b03166001600160a01b031663cc5738b56040518163ffffffff1660e01b815260040160206040518083038186803b158015610c8057600080fd5b505afa158015610c94573d6000803e3d6000fd5b505050506040513d6020811015610caa57600080fd5b50516001600160a01b0316331480610d435750603460009054906101000a90046001600160a01b03166001600160a01b03166376cdb03b6040518163ffffffff1660e01b815260040160206040518083038186803b158015610d0b57600080fd5b505afa158015610d1f573d6000803e3d6000fd5b505050506040513d6020811015610d3557600080fd5b50516001600160a01b031633145b610d7e5760405162461bcd60e51b8152600401808060200182810382526038815260200180614bdb6038913960400191505060405180910390fd5b80610dba5760405162461bcd60e51b815260040180806020018281038252602b815260200180614a6c602b913960400191505060405180910390fd5b610dc38361372c565b610dfe5760405162461bcd60e51b8152600401808060200182810382526023815260200180614bb86023913960400191505060405180910390fd5b610e0783613755565b6034546040805163d182f33560e01b81526001600160a01b039283166004820152918516602483015251610fb691610fa19173__Utils_________________________________9163d182f335916044808301926020929190829003018186803b158015610e7457600080fd5b505af4158015610e88573d6000803e3d6000fd5b505050506040513d6020811015610e9e57600080fd5b505160345460408051639895880f60e01b81529051610f95926001600160a01b031691639895880f916004808301926020929190829003018186803b158015610ee657600080fd5b505afa158015610efa573d6000803e3d6000fd5b505050506040513d6020811015610f1057600080fd5b505160408051636e9ecb0f60e11b81526001600160a01b038a811660048301529151919092169163dd3d961e916024808301926020929190829003018186803b158015610f5c57600080fd5b505afa158015610f70573d6000803e3d6000fd5b505050506040513d6020811015610f8657600080fd5b5051869063ffffffff61475a16565b9063ffffffff6147b316565b610faa86611d16565b9063ffffffff6147f516565b1115610ff35760405162461bcd60e51b8152600401808060200182810382526024815260200180614b946024913960400191505060405180910390fd5b6001600160a01b0380841660009081526033602090815260408083208685168452825280832060345482516376cdb03b60e01b81529251919516926376cdb03b9260048082019391829003018186803b15801561104f57600080fd5b505afa158015611063573d6000803e3d6000fd5b505050506040513d602081101561107957600080fd5b5051604080516301de24b560e51b81526004810185905290516001600160a01b0390921691632d6cb68191879173__AccountTokenLib_______________________91633bc496a0916024808301926020929190829003018186803b1580156110e157600080fd5b505af41580156110f5573d6000803e3d6000fd5b505050506040513d602081101561110b57600080fd5b5051604080516001600160e01b031960e086901b1681526001600160a01b0390931660048401526024830191909152516044808301926020929190829003018186803b15801561115a57600080fd5b505afa15801561116e573d6000803e3d6000fd5b505050506040513d602081101561118457600080fd5b5051905073__AccountTokenLib_______________________639efdc35c8385846111ad61469c565b6040518563ffffffff1660e01b81526004018085815260200184815260200183815260200182815260200194505050505060006040518083038186803b1580156111f657600080fd5b505af415801561120a573d6000803e3d6000fd5b505050506000603460009054906101000a90046001600160a01b03166001600160a01b0316639895880f6040518163ffffffff1660e01b815260040160206040518083038186803b15801561125e57600080fd5b505afa158015611272573d6000803e3d6000fd5b505050506040513d602081101561128857600080fd5b5051604080516319b02f4960e21b81526001600160a01b038881166004830152915191909216916366c0bd24916024808301926020929190829003018186803b1580156112d457600080fd5b505afa1580156112e8573d6000803e3d6000fd5b505050506040513d60208110156112fe57600080fd5b5051905061130c868261484f565b505050505050565b73c04158f7db6f9c9ffbd5593236a1a3d69f92167c81565b6033602052600090815260409020600101546001600160801b0380821691600160801b90041682565b600e81565b6001600160a01b038083166000908152603360209081526040808320938516835292815282822083516343ae240160e11b81526004810182905293519293909273__AccountTokenLib_______________________9263875c48029260248082019391829003018186803b1580156113d157600080fd5b505af41580156113e5573d6000803e3d6000fd5b505050506040513d60208110156113fb57600080fd5b5051949350505050565b603460009054906101000a90046001600160a01b03166001600160a01b031663cc5738b56040518163ffffffff1660e01b815260040160206040518083038186803b15801561145357600080fd5b505afa158015611467573d6000803e3d6000fd5b505050506040513d602081101561147d57600080fd5b50516001600160a01b03163314806115165750603460009054906101000a90046001600160a01b03166001600160a01b03166376cdb03b6040518163ffffffff1660e01b815260040160206040518083038186803b1580156114de57600080fd5b505afa1580156114f2573d6000803e3d6000fd5b505050506040513d602081101561150857600080fd5b50516001600160a01b031633145b6115515760405162461bcd60e51b8152600401808060200182810382526038815260200180614bdb6038913960400191505060405180910390fd5b6001600160a01b0380841660009081526033602090815260408083208685168452825280832060345482516376cdb03b60e01b81529251919516926376cdb03b9260048082019391829003018186803b1580156115ad57600080fd5b505afa1580156115c1573d6000803e3d6000fd5b505050506040513d60208110156115d757600080fd5b50516040805163b66b3ce960e01b81526004810185905290516001600160a01b0390921691635a80c49791879173__AccountTokenLib_______________________9163b66b3ce9916024808301926020929190829003018186803b15801561163f57600080fd5b505af4158015611653573d6000803e3d6000fd5b505050506040513d602081101561166957600080fd5b5051604080516001600160e01b031960e086901b1681526001600160a01b0390931660048401526024830191909152516044808301926020929190829003018186803b1580156116b857600080fd5b505afa1580156116cc573d6000803e3d6000fd5b505050506040513d60208110156116e257600080fd5b50516040805162b0b8a160e01b815260048101859052905191925073__AccountTokenLib_______________________9162b0b8a191602480820192602092909190829003018186803b15801561173857600080fd5b505af415801561174c573d6000803e3d6000fd5b505050506040513d602081101561176257600080fd5b505161185d5760345460408051639895880f60e01b815290516000926001600160a01b031691639895880f916004808301926020929190829003018186803b1580156117ad57600080fd5b505afa1580156117c1573d6000803e3d6000fd5b505050506040513d60208110156117d757600080fd5b5051604080516319b02f4960e21b81526001600160a01b038881166004830152915191909216916366c0bd24916024808301926020929190829003018186803b15801561182357600080fd5b505afa158015611837573d6000803e3d6000fd5b505050506040513d602081101561184d57600080fd5b5051905061185b8682614886565b505b73__AccountTokenLib_______________________631496a79783858461188261469c565b6040518563ffffffff1660e01b81526004018085815260200184815260200183815260200182815260200194505050505060006040518083038186803b1580156118cb57600080fd5b505af41580156118df573d6000803e3d6000fd5b505050505050505050565b6000805b603460009054906101000a90046001600160a01b03166001600160a01b0316639895880f6040518163ffffffff1660e01b815260040160206040518083038186803b15801561193c57600080fd5b505afa158015611950573d6000803e3d6000fd5b505050506040513d602081101561196657600080fd5b505160408051630463749760e51b815290516001600160a01b0390921691638c6e92e091600480820192602092909190829003018186803b1580156119aa57600080fd5b505afa1580156119be573d6000803e3d6000fd5b505050506040513d60208110156119d457600080fd5b5051811015611d10576119e78382610bfc565b15611d085760345460408051639895880f60e01b815290516000926001600160a01b031691639895880f916004808301926020929190829003018186803b158015611a3157600080fd5b505afa158015611a45573d6000803e3d6000fd5b505050506040513d6020811015611a5b57600080fd5b50516040805163021245b160e01b81526004810185905290516001600160a01b039092169163021245b191602480820192602092909190829003018186803b158015611aa657600080fd5b505afa158015611aba573d6000803e3d6000fd5b505050506040513d6020811015611ad057600080fd5b50519050670de0b6b3a76400006001600160a01b038216600e14611be757603460009054906101000a90046001600160a01b03166001600160a01b0316639895880f6040518163ffffffff1660e01b815260040160206040518083038186803b158015611b3c57600080fd5b505afa158015611b50573d6000803e3d6000fd5b505050506040513d6020811015611b6657600080fd5b505160408051633c2e3e7b60e11b81526001600160a01b0385811660048301529151919092169163785c7cf6916024808301926020929190829003018186803b158015611bb257600080fd5b505afa158015611bc6573d6000803e3d6000fd5b505050506040513d6020811015611bdc57600080fd5b505160ff16600a0a90505b611d03611cf682610f95603460009054906101000a90046001600160a01b03166001600160a01b0316639895880f6040518163ffffffff1660e01b815260040160206040518083038186803b158015611c3f57600080fd5b505afa158015611c53573d6000803e3d6000fd5b505050506040513d6020811015611c6957600080fd5b505160408051634af44fff60e11b8152600481018a905290516001600160a01b03909216916395e89ffe91602480820192602092909190829003018186803b158015611cb457600080fd5b505afa158015611cc8573d6000803e3d6000fd5b505050506040513d6020811015611cde57600080fd5b5051611cea878b612123565b9063ffffffff61475a16565b859063ffffffff6147f516565b935050505b6001016118ee565b50919050565b6000805b603460009054906101000a90046001600160a01b03166001600160a01b0316639895880f6040518163ffffffff1660e01b815260040160206040518083038186803b158015611d6857600080fd5b505afa158015611d7c573d6000803e3d6000fd5b505050506040513d6020811015611d9257600080fd5b505160408051630463749760e51b815290516001600160a01b0390921691638c6e92e091600480820192602092909190829003018186803b158015611dd657600080fd5b505afa158015611dea573d6000803e3d6000fd5b505050506040513d6020811015611e0057600080fd5b5051811015611d1057611e138382610bbb565b1561211b5760345460408051639895880f60e01b815290516000926001600160a01b031691639895880f916004808301926020929190829003018186803b158015611e5d57600080fd5b505afa158015611e71573d6000803e3d6000fd5b505050506040513d6020811015611e8757600080fd5b50516040805163021245b160e01b81526004810185905290516001600160a01b039092169163021245b191602480820192602092909190829003018186803b158015611ed257600080fd5b505afa158015611ee6573d6000803e3d6000fd5b505050506040513d6020811015611efc57600080fd5b50519050670de0b6b3a76400006001600160a01b038216600e1461201357603460009054906101000a90046001600160a01b03166001600160a01b0316639895880f6040518163ffffffff1660e01b815260040160206040518083038186803b158015611f6857600080fd5b505afa158015611f7c573d6000803e3d6000fd5b505050506040513d6020811015611f9257600080fd5b505160408051633c2e3e7b60e11b81526001600160a01b0385811660048301529151919092169163785c7cf6916024808301926020929190829003018186803b158015611fde57600080fd5b505afa158015611ff2573d6000803e3d6000fd5b505050506040513d602081101561200857600080fd5b505160ff16600a0a90505b612116611cf682610f95603460009054906101000a90046001600160a01b03166001600160a01b0316639895880f6040518163ffffffff1660e01b815260040160206040518083038186803b15801561206b57600080fd5b505afa15801561207f573d6000803e3d6000fd5b505050506040513d602081101561209557600080fd5b505160408051634af44fff60e11b8152600481018a905290516001600160a01b03909216916395e89ffe91602480820192602092909190829003018186803b1580156120e057600080fd5b505afa1580156120f4573d6000803e3d6000fd5b505050506040513d602081101561210a57600080fd5b5051611cea878b613e82565b935050505b600101611d1a565b6001600160a01b0380821660009081526033602090815260408083209386168352928152828220835162b0b8a160e01b815260048101829052935192939092849273__AccountTokenLib_______________________9262b0b8a19260248083019392829003018186803b15801561219a57600080fd5b505af41580156121ae573d6000803e3d6000fd5b505050506040513d60208110156121c457600080fd5b50516121d557600092505050610bf6565b603460009054906101000a90046001600160a01b03166001600160a01b03166376cdb03b6040518163ffffffff1660e01b815260040160206040518083038186803b15801561222357600080fd5b505afa158015612237573d6000803e3d6000fd5b505050506040513d602081101561224d57600080fd5b50516040805163b66b3ce960e01b81526004810185905290516001600160a01b0390921691631ff4443c91889173__AccountTokenLib_______________________9163b66b3ce9916024808301926020929190829003018186803b1580156122b557600080fd5b505af41580156122c9573d6000803e3d6000fd5b505050506040513d60208110156122df57600080fd5b5051604080516001600160e01b031960e086901b1681526001600160a01b0390931660048401526024830191909152516044808301926020929190829003018186803b15801561232e57600080fd5b505afa158015612342573d6000803e3d6000fd5b505050506040513d602081101561235857600080fd5b505161236d5750670de0b6b3a76400006125ee565b603454604080516376cdb03b60e01b815290516125eb926001600160a01b0316916376cdb03b916004808301926020929190829003018186803b1580156123b357600080fd5b505afa1580156123c7573d6000803e3d6000fd5b505050506040513d60208110156123dd57600080fd5b50516040805163b66b3ce960e01b81526004810186905290516001600160a01b0390921691631ff4443c91899173__AccountTokenLib_______________________9163b66b3ce9916024808301926020929190829003018186803b15801561244557600080fd5b505af4158015612459573d6000803e3d6000fd5b505050506040513d602081101561246f57600080fd5b5051604080516001600160e01b031960e086901b1681526001600160a01b0390931660048401526024830191909152516044808301926020929190829003018186803b1580156124be57600080fd5b505afa1580156124d2573d6000803e3d6000fd5b505050506040513d60208110156124e857600080fd5b5051603454604080516376cdb03b60e01b81529051610f9592670de0b6b3a7640000926001600160a01b03909116916376cdb03b91600480820192602092909190829003018186803b15801561253d57600080fd5b505afa158015612551573d6000803e3d6000fd5b505050506040513d602081101561256757600080fd5b505160408051637ebff3d560e01b81526001600160a01b038c8116600483015291519190921691637ebff3d5916024808301926020929190829003018186803b1580156125b357600080fd5b505afa1580156125c7573d6000803e3d6000fd5b505050506040513d60208110156125dd57600080fd5b50519063ffffffff61475a16565b90505b604080516313d973f760e01b81526004810184905260248101839052905173__AccountTokenLib_______________________916313d973f7916044808301926020929190829003018186803b15801561264757600080fd5b505af415801561265b573d6000803e3d6000fd5b505050506040513d602081101561267157600080fd5b50519250610bf6915050565b6000805b603460009054906101000a90046001600160a01b03166001600160a01b0316639895880f6040518163ffffffff1660e01b815260040160206040518083038186803b1580156126cf57600080fd5b505afa1580156126e3573d6000803e3d6000fd5b505050506040513d60208110156126f957600080fd5b505160408051630463749760e51b815290516001600160a01b0390921691638c6e92e091600480820192602092909190829003018186803b15801561273d57600080fd5b505afa158015612751573d6000803e3d6000fd5b505050506040513d602081101561276757600080fd5b505160ff8216101561295b5761277d8382610bfc565b8061278d575061278d8382610bbb565b156129535760345460408051639895880f60e01b815290516000926001600160a01b031691639895880f916004808301926020929190829003018186803b1580156127d757600080fd5b505afa1580156127eb573d6000803e3d6000fd5b505050506040513d602081101561280157600080fd5b50516040805163021245b160e01b815260ff8516600482015290516001600160a01b039092169163021245b191602480820192602092909190829003018186803b15801561284e57600080fd5b505afa158015612862573d6000803e3d6000fd5b505050506040513d602081101561287857600080fd5b5051603454604080516376cdb03b60e01b815290519293506001600160a01b03909116916376cdb03b91600480820192602092909190829003018186803b1580156128c257600080fd5b505afa1580156128d6573d6000803e3d6000fd5b505050506040513d60208110156128ec57600080fd5b50516040805163378d2c3d60e21b81526001600160a01b0384811660048301529151919092169163de34b0f491602480830192600092919082900301818387803b15801561293957600080fd5b505af115801561294d573d6000803e3d6000fd5b50505050505b600101612681565b506034546040805163100c48d360e21b815290516000926001600160a01b031691634031234c916004808301926020929190829003018186803b1580156129a157600080fd5b505afa1580156129b5573d6000803e3d6000fd5b505050506040513d60208110156129cb57600080fd5b505160345460408051634802b7c160e01b815290519293506000926001600160a01b0390921691634802b7c191600480820192602092909190829003018186803b158015612a1857600080fd5b505afa158015612a2c573d6000803e3d6000fd5b505050506040513d6020811015612a4257600080fd5b505190506000612a5185611d16565b90506000612a5e866118ea565b9050612a70818463ffffffff61475a16565b612a8183606463ffffffff61475a16565b1115612abe5760405162461bcd60e51b815260040180806020018281038252602e815260200180614b38602e913960400191505060405180910390fd5b612ace818563ffffffff61475a16565b612adf83606463ffffffff61475a16565b119695505050505050565b600054610100900460ff1680612b035750612b036148ec565b80612b11575060005460ff16155b612b4c5760405162461bcd60e51b815260040180806020018281038252602e815260200180614b66602e913960400191505060405180910390fd5b600054610100900460ff16158015612b77576000805460ff1961ff0019909116610100171660011790555b603480546001600160a01b0319166001600160a01b0384161790558015612ba4576000805461ff00191690555b5050565b6220148081565b670de0b6b3a764000081565b6034546040805163cc5738b560e01b815290516000926001600160a01b03169163cc5738b5916004808301926020929190829003018186803b158015612c0057600080fd5b505afa158015612c14573d6000803e3d6000fd5b505050506040513d6020811015612c2a57600080fd5b50516001600160a01b0316331480612cc35750603460009054906101000a90046001600160a01b03166001600160a01b03166376cdb03b6040518163ffffffff1660e01b815260040160206040518083038186803b158015612c8b57600080fd5b505afa158015612c9f573d6000803e3d6000fd5b505050506040513d6020811015612cb557600080fd5b50516001600160a01b031633145b612cfe5760405162461bcd60e51b8152600401808060200182810382526038815260200180614bdb6038913960400191505060405180910390fd5b612d088385612123565b821115612d54576040805162461bcd60e51b815260206004820152601560248201527424b739bab33334b1b4b2b73a103130b630b731b29760591b604482015290519081900360640190fd5b60345460408051639895880f60e01b815290516000926001600160a01b031691639895880f916004808301926020929190829003018186803b158015612d9957600080fd5b505afa158015612dad573d6000803e3d6000fd5b505050506040513d6020811015612dc357600080fd5b505160408051632418cd4960e21b81526001600160a01b038781166004830152915191909216916390633524916024808301926020929190829003018186803b158015612e0f57600080fd5b505afa158015612e23573d6000803e3d6000fd5b505050506040513d6020811015612e3957600080fd5b50519050612e4685613755565b612e4f86611d16565b1161304d576034546040805163d182f33560e01b81526001600160a01b03928316600482015291861660248301525161300791612ff291606491610f959173__Utils_________________________________9163d182f335916044808301926020929190829003018186803b158015612ec857600080fd5b505af4158015612edc573d6000803e3d6000fd5b505050506040513d6020811015612ef257600080fd5b505160345460408051639895880f60e01b81529051610f95928992611cea926001600160a01b0390921691639895880f91600480820192602092909190829003018186803b158015612f4357600080fd5b505afa158015612f57573d6000803e3d6000fd5b505050506040513d6020811015612f6d57600080fd5b505160408051636e9ecb0f60e11b81526001600160a01b038f811660048301529151919092169163dd3d961e916024808301926020929190829003018186803b158015612fb957600080fd5b505afa158015612fcd573d6000803e3d6000fd5b505050506040513d6020811015612fe357600080fd5b50518b9063ffffffff61475a16565b612ffb87613755565b9063ffffffff61465316565b61301086611d16565b111561304d5760405162461bcd60e51b8152600401808060200182810382526026815260200180614c136026913960400191505060405180910390fd5b6001600160a01b0380861660009081526033602090815260408083209388168352928152828220835162b0b8a160e01b8152600481018290529351909373__AccountTokenLib_______________________9262b0b8a192602480840193829003018186803b1580156130bf57600080fd5b505af41580156130d3573d6000803e3d6000fd5b505050506040513d60208110156130e957600080fd5b5051603454604080516376cdb03b60e01b815290519293506000926001600160a01b03909216916376cdb03b91600480820192602092909190829003018186803b15801561313657600080fd5b505afa15801561314a573d6000803e3d6000fd5b505050506040513d602081101561316057600080fd5b50516040805163b66b3ce960e01b81526004810186905290516001600160a01b0390921691635a80c497918a9173__AccountTokenLib_______________________9163b66b3ce9916024808301926020929190829003018186803b1580156131c857600080fd5b505af41580156131dc573d6000803e3d6000fd5b505050506040513d60208110156131f257600080fd5b5051604080516001600160e01b031960e086901b1681526001600160a01b0390931660048401526024830191909152516044808301926020929190829003018186803b15801561324157600080fd5b505afa158015613255573d6000803e3d6000fd5b505050506040513d602081101561326b57600080fd5b5051905073__AccountTokenLib_______________________63381cec4884888461329461469c565b6040518563ffffffff1660e01b81526004018085815260200184815260200183815260200182815260200194505050505060006040518083038186803b1580156132dd57600080fd5b505af41580156132f1573d6000803e3d6000fd5b5050505060008373__AccountTokenLib_______________________62b0b8a190916040518263ffffffff1660e01b81526004018082815260200191505060206040518083038186803b15801561334757600080fd5b505af415801561335b573d6000803e3d6000fd5b505050506040513d602081101561337157600080fd5b50516040805162b0b8a160e01b815260048101879052905191925073__AccountTokenLib_______________________9162b0b8a191602480820192602092909190829003018186803b1580156133c757600080fd5b505af41580156133db573d6000803e3d6000fd5b505050506040513d60208110156133f157600080fd5b50516134ec5760345460408051639895880f60e01b815290516000926001600160a01b031691639895880f916004808301926020929190829003018186803b15801561343c57600080fd5b505afa158015613450573d6000803e3d6000fd5b505050506040513d602081101561346657600080fd5b5051604080516319b02f4960e21b81526001600160a01b038c81166004830152915191909216916366c0bd24916024808301926020929190829003018186803b1580156134b257600080fd5b505afa1580156134c6573d6000803e3d6000fd5b505050506040513d60208110156134dc57600080fd5b505190506134ea8a826148f2565b505b60345460408051632fe24e4560e21b815290516000926001600160a01b03169163bf893914916004808301926020929190829003018186803b15801561353157600080fd5b505afa158015613545573d6000803e3d6000fd5b505050506040513d602081101561355b57600080fd5b50516001600160a01b038b8116911614613697576136116064610f95603460009054906101000a90046001600160a01b03166001600160a01b031663ace96d0e6040518163ffffffff1660e01b815260040160206040518083038186803b1580156135c557600080fd5b505afa1580156135d9573d6000803e3d6000fd5b505050506040513d60208110156135ef57600080fd5b5051611cea613604898863ffffffff61465316565b8d9063ffffffff61465316565b9050613697603460009054906101000a90046001600160a01b03166001600160a01b031663bf8939146040518163ffffffff1660e01b815260040160206040518083038186803b15801561366457600080fd5b505afa158015613678573d6000803e3d6000fd5b505050506040513d602081101561368e57600080fd5b50518a83611405565b6136a7888263ffffffff61465316565b9a9950505050505050505050565b6001600160a01b0380831660009081526033602090815260408083209385168352928152828220835163b66b3ce960e01b81526004810182905293519293909273__AccountTokenLib_______________________9263b66b3ce99260248082019391829003018186803b1580156113d157600080fd5b6001600160a01b03166000908152603360205260409020600101546001600160801b0316151590565b6000805b603460009054906101000a90046001600160a01b03166001600160a01b0316639895880f6040518163ffffffff1660e01b815260040160206040518083038186803b1580156137a757600080fd5b505afa1580156137bb573d6000803e3d6000fd5b505050506040513d60208110156137d157600080fd5b505160408051630463749760e51b815290516001600160a01b0390921691638c6e92e091600480820192602092909190829003018186803b15801561381557600080fd5b505afa158015613829573d6000803e3d6000fd5b505050506040513d602081101561383f57600080fd5b505160ff82161015611d10576138558382610bfc565b15613c4e5760345460408051639895880f60e01b815290516000926001600160a01b031691639895880f916004808301926020929190829003018186803b15801561389f57600080fd5b505afa1580156138b3573d6000803e3d6000fd5b505050506040513d60208110156138c957600080fd5b50516040805163021245b160e01b815260ff8516600482015290516001600160a01b039092169163021245b191602480820192602092909190829003018186803b15801561391657600080fd5b505afa15801561392a573d6000803e3d6000fd5b505050506040513d602081101561394057600080fd5b50519050670de0b6b3a76400006001600160a01b038216600e14613a5757603460009054906101000a90046001600160a01b03166001600160a01b0316639895880f6040518163ffffffff1660e01b815260040160206040518083038186803b1580156139ac57600080fd5b505afa1580156139c0573d6000803e3d6000fd5b505050506040513d60208110156139d657600080fd5b505160408051633c2e3e7b60e11b81526001600160a01b0385811660048301529151919092169163785c7cf6916024808301926020929190829003018186803b158015613a2257600080fd5b505afa158015613a36573d6000803e3d6000fd5b505050506040513d6020811015613a4c57600080fd5b505160ff16600a0a90505b613c49611cf682610f956064610f95603460009054906101000a90046001600160a01b03166001600160a01b0316639895880f6040518163ffffffff1660e01b815260040160206040518083038186803b158015613ab457600080fd5b505afa158015613ac8573d6000803e3d6000fd5b505050506040513d6020811015613ade57600080fd5b505160408051632418cd4960e21b81526001600160a01b038b81166004830152915191909216916390633524916024808301926020929190829003018186803b158015613b2a57600080fd5b505afa158015613b3e573d6000803e3d6000fd5b505050506040513d6020811015613b5457600080fd5b505160345460408051639895880f60e01b81529051611cea926001600160a01b031691639895880f916004808301926020929190829003018186803b158015613b9c57600080fd5b505afa158015613bb0573d6000803e3d6000fd5b505050506040513d6020811015613bc657600080fd5b505160408051634af44fff60e11b815260ff8e16600482015290516001600160a01b03909216916395e89ffe91602480820192602092909190829003018186803b158015613c1357600080fd5b505afa158015613c27573d6000803e3d6000fd5b505050506040513d6020811015613c3d57600080fd5b5051611cea8b8f612123565b935050505b600101613759565b6001600160a01b0380831660009081526033602090815260408083208585168452825280832060345482516376cdb03b60e01b8152925194959194869491909216926376cdb03b9260048083019392829003018186803b158015613cb957600080fd5b505afa158015613ccd573d6000803e3d6000fd5b505050506040513d6020811015613ce357600080fd5b5051604080516301de24b560e51b81526004810185905290516001600160a01b0390921691635a80c49791879173__AccountTokenLib_______________________91633bc496a0916024808301926020929190829003018186803b158015613d4b57600080fd5b505af4158015613d5f573d6000803e3d6000fd5b505050506040513d6020811015613d7557600080fd5b5051604080516001600160e01b031960e086901b1681526001600160a01b0390931660048401526024830191909152516044808301926020929190829003018186803b158015613dc457600080fd5b505afa158015613dd8573d6000803e3d6000fd5b505050506040513d6020811015613dee57600080fd5b5051604080516328648c6560e11b81526004810185905260248101839052905191925073__AccountTokenLib_______________________916350c918ca91604480820192602092909190829003018186803b158015613e4d57600080fd5b505af4158015613e61573d6000803e3d6000fd5b505050506040513d6020811015613e7757600080fd5b505195945050505050565b6001600160a01b038082166000908152603360209081526040808320938616835292815282822083516343ae240160e11b815260048101829052935192939092849273__AccountTokenLib_______________________9263875c48029260248083019392829003018186803b158015613efb57600080fd5b505af4158015613f0f573d6000803e3d6000fd5b505050506040513d6020811015613f2557600080fd5b5051613f3657600092505050610bf6565b603460009054906101000a90046001600160a01b03166001600160a01b03166376cdb03b6040518163ffffffff1660e01b815260040160206040518083038186803b158015613f8457600080fd5b505afa158015613f98573d6000803e3d6000fd5b505050506040513d6020811015613fae57600080fd5b5051604080516301de24b560e51b81526004810185905290516001600160a01b0390921691637aa473d191889173__AccountTokenLib_______________________91633bc496a0916024808301926020929190829003018186803b15801561401657600080fd5b505af415801561402a573d6000803e3d6000fd5b505050506040513d602081101561404057600080fd5b5051604080516001600160e01b031960e086901b1681526001600160a01b0390931660048401526024830191909152516044808301926020929190829003018186803b15801561408f57600080fd5b505afa1580156140a3573d6000803e3d6000fd5b505050506040513d60208110156140b957600080fd5b50516140ce5750670de0b6b3a7640000614317565b603454604080516376cdb03b60e01b81529051614314926001600160a01b0316916376cdb03b916004808301926020929190829003018186803b15801561411457600080fd5b505afa158015614128573d6000803e3d6000fd5b505050506040513d602081101561413e57600080fd5b5051604080516301de24b560e51b81526004810186905290516001600160a01b0390921691637aa473d191899173__AccountTokenLib_______________________91633bc496a0916024808301926020929190829003018186803b1580156141a657600080fd5b505af41580156141ba573d6000803e3d6000fd5b505050506040513d60208110156141d057600080fd5b5051604080516001600160e01b031960e086901b1681526001600160a01b0390931660048401526024830191909152516044808301926020929190829003018186803b15801561421f57600080fd5b505afa158015614233573d6000803e3d6000fd5b505050506040513d602081101561424957600080fd5b5051603454604080516376cdb03b60e01b81529051610f9592670de0b6b3a7640000926001600160a01b03909116916376cdb03b91600480820192602092909190829003018186803b15801561429e57600080fd5b505afa1580156142b2573d6000803e3d6000fd5b505050506040513d60208110156142c857600080fd5b505160408051630b57444360e01b81526001600160a01b038c8116600483015291519190921691630b574443916024808301926020929190829003018186803b1580156125b357600080fd5b90505b6040805163e8f2267360e01b81526004810184905260248101839052905173__AccountTokenLib_______________________9163e8f22673916044808301926020929190829003018186803b15801561264757600080fd5b6001600160a01b038083166000908152603360209081526040808320938516835292815282822083516301de24b560e51b81526004810182905293519293909273__AccountTokenLib_______________________92633bc496a09260248082019391829003018186803b1580156113d157600080fd5b6001600160a01b0380831660009081526033602090815260408083208585168452825280832060345482516376cdb03b60e01b8152925194959194869491909216926376cdb03b9260048083019392829003018186803b15801561444a57600080fd5b505afa15801561445e573d6000803e3d6000fd5b505050506040513d602081101561447457600080fd5b5051604080516301de24b560e51b81526004810185905290516001600160a01b0390921691632d6cb68191879173__AccountTokenLib_______________________91633bc496a0916024808301926020929190829003018186803b1580156144dc57600080fd5b505af41580156144f0573d6000803e3d6000fd5b505050506040513d602081101561450657600080fd5b5051604080516001600160e01b031960e086901b1681526001600160a01b0390931660048401526024830191909152516044808301926020929190829003018186803b15801561455557600080fd5b505afa158015614569573d6000803e3d6000fd5b505050506040513d602081101561457f57600080fd5b5051604080516315d7fef560e01b81526004810185905260248101839052905191925073__AccountTokenLib_______________________916315d7fef591604480820192602092909190829003018186803b158015613e4d57600080fd5b6001600160a01b0380831660009081526033602090815260408083209385168352928152828220835162b0b8a160e01b81526004810182905293519293909273__AccountTokenLib_______________________9262b0b8a19260248082019391829003018186803b1580156113d157600080fd5b600061469583836040518060400160405280601e81526020017f536166654d6174683a207375627472616374696f6e206f766572666c6f770000815250614928565b9392505050565b4390565b6001600160a01b038216600090815260336020526040902060018101546146d790600160801b90046001600160801b0316836149bf565b600190910180546001600160801b03928316600160801b0292169190911790555050565b600060808260ff161061473f5760405162461bcd60e51b8152600401808060200182810382526024815260200180614af36024913960400191505060405180910390fd5b50600160ff82161b82166001600160801b0316151592915050565b60008261476957506000610bf6565b8282028284828161477657fe5b04146146955760405162461bcd60e51b8152600401808060200182810382526021815260200180614b176021913960400191505060405180910390fd5b600061469583836040518060400160405280601a81526020017f536166654d6174683a206469766973696f6e206279207a65726f0000000000008152506149e7565b600082820183811015614695576040805162461bcd60e51b815260206004820152601b60248201527f536166654d6174683a206164646974696f6e206f766572666c6f770000000000604482015290519081900360640190fd5b6001600160a01b038216600090815260336020526040902060018101546146d790600160801b90046001600160801b031683614a4c565b6001600160a01b038216600090815260336020526040902060018101546148bc906001600160801b03168363ffffffff614a4c16565b60019190910180546fffffffffffffffffffffffffffffffff19166001600160801b039092169190911790555050565b303b1590565b6001600160a01b038216600090815260336020526040902060018101546148bc906001600160801b03168363ffffffff6149bf16565b600081848411156149b75760405162461bcd60e51b81526004018080602001828103825283818151815260200191508051906020019080838360005b8381101561497c578181015183820152602001614964565b50505050905090810190601f1680156149a95780820380516001836020036101000a031916815260200191505b509250505060405180910390fd5b505050900390565b60006149cb83836146fb565b156149e05750600160ff82161b198216610bf6565b5090919050565b60008183614a365760405162461bcd60e51b815260206004820181815283516024840152835190928392604490910191908501908083836000831561497c578181015183820152602001614964565b506000838581614a4257fe5b0495945050505050565b6000614a5883836146fb565b6149e05750600160ff82161b8217610bf656fe426f72726f77207a65726f20616d6f756e74206f6620746f6b656e206973206e6f7420616c6c6f7765642e546f6b656e20426f72726f775072696e636970616c206d7573742062652067726561746572207468616e20302e20546f206465706f7369742062616c616e63652c20706c6561736520757365206465706f73697420627574746f6e2e496e646578206f7574206f662072616e676520666f7220626974206f7065726174696f6e536166654d6174683a206d756c7469706c69636174696f6e206f766572666c6f77436f6c6c61746572616c206973206e6f742073756666696369656e7420746f206265206c6971756964617465642e436f6e747261637420696e7374616e63652068617320616c7265616479206265656e20696e697469616c697a6564496e73756666696369656e7420636f6c6c61746572616c207768656e20626f72726f772e546865207573657220646f65736e2774206861766520616e79206465706f736974732e4f6e6c7920617574686f72697a656420746f2063616c6c2066726f6d20446546696e657220696e7465726e616c20636f6e7472616374732e496e73756666696369656e7420636f6c6c61746572616c207768656e2077697468647261772ea265627a7a72315820af61781f3b9d3818ab5bab70646f1fc0facb5be1f6c903ef0a4e407fe46a4d6564736f6c634300050e0032",
  "source": "pragma solidity 0.5.14;\n\nimport \"./lib/AccountTokenLib.sol\";\nimport \"./lib/BitmapLib.sol\";\nimport \"./lib/Utils.sol\";\nimport \"./config/Constant.sol\";\nimport \"./config/GlobalConfig.sol\";\nimport \"openzeppelin-solidity/contracts/math/SafeMath.sol\";\nimport \"@openzeppelin/upgrades/contracts/Initializable.sol\";\n// import \"@nomiclabs/buidler/console.sol\";\n\ncontract Accounts is Constant, Initializable{\n    using AccountTokenLib for AccountTokenLib.TokenInfo;\n    using BitmapLib for uint128;\n    using SafeMath for uint256;\n\n    mapping(address => Account) public accounts;\n\n    GlobalConfig globalConfig;\n\n    modifier onlyInternal() {\n        require(msg.sender == address(globalConfig.savingAccount()) || msg.sender == address(globalConfig.bank()),\n            \"Only authorized to call from DeFiner internal contracts.\");\n        _;\n    }\n\n    struct Account {\n        // Note, it's best practice to use functions minusAmount, addAmount, totalAmount\n        // to operate tokenInfos instead of changing it directly.\n        mapping(address => AccountTokenLib.TokenInfo) tokenInfos;\n        uint128 depositBitmap;\n        uint128 borrowBitmap;\n    }\n\n    /**\n     * Initialize the Accounts\n     * @param _globalConfig the global configuration contract\n     */\n    function initialize(\n        GlobalConfig _globalConfig\n    ) public initializer {\n        globalConfig = _globalConfig;\n    }\n\n    /**\n     * Check if the user has deposit for any tokens\n     * @param _account address of the user\n     * @return true if the user has positive deposit balance\n     */\n    function isUserHasAnyDeposits(address _account) public view returns (bool) {\n        Account storage account = accounts[_account];\n        return account.depositBitmap > 0;\n    }\n\n    /**\n     * Check if the user has deposit for a token\n     * @param _account address of the user\n     * @param _index index of the token\n     * @return true if the user has positive deposit balance for the token\n     */\n    function isUserHasDeposits(address _account, uint8 _index) public view returns (bool) {\n        Account storage account = accounts[_account];\n        return account.depositBitmap.isBitSet(_index);\n    }\n\n    /**\n     * Check if the user has borrowed a token\n     * @param _account address of the user\n     * @param _index index of the token\n     * @return true if the user has borrowed the token\n     */\n    function isUserHasBorrows(address _account, uint8 _index) public view returns (bool) {\n        Account storage account = accounts[_account];\n        return account.borrowBitmap.isBitSet(_index);\n    }\n\n    /**\n     * Set the deposit bitmap for a token.\n     * @param _account address of the user\n     * @param _index index of the token\n     */\n    function setInDepositBitmap(address _account, uint8 _index) internal {\n        Account storage account = accounts[_account];\n        account.depositBitmap = account.depositBitmap.setBit(_index);\n    }\n\n    /**\n     * Unset the deposit bitmap for a token\n     * @param _account address of the user\n     * @param _index index of the token\n     */\n    function unsetFromDepositBitmap(address _account, uint8 _index) internal {\n        Account storage account = accounts[_account];\n        account.depositBitmap = account.depositBitmap.unsetBit(_index);\n    }\n\n    /**\n     * Set the borrow bitmap for a token.\n     * @param _account address of the user\n     * @param _index index of the token\n     */\n    function setInBorrowBitmap(address _account, uint8 _index) internal {\n        Account storage account = accounts[_account];\n        account.borrowBitmap = account.borrowBitmap.setBit(_index);\n    }\n\n    /**\n     * Unset the borrow bitmap for a token\n     * @param _account address of the user\n     * @param _index index of the token\n     */\n    function unsetFromBorrowBitmap(address _account, uint8 _index) internal {\n        Account storage account = accounts[_account];\n        account.borrowBitmap = account.borrowBitmap.unsetBit(_index);\n    }\n\n    function getDepositPrincipal(address _accountAddr, address _token) public view returns(uint256) {\n        AccountTokenLib.TokenInfo storage tokenInfo = accounts[_accountAddr].tokenInfos[_token];\n        return tokenInfo.getDepositPrincipal();\n    }\n\n    function getBorrowPrincipal(address _accountAddr, address _token) public view returns(uint256) {\n        AccountTokenLib.TokenInfo storage tokenInfo = accounts[_accountAddr].tokenInfos[_token];\n        return tokenInfo.getBorrowPrincipal();\n    }\n\n    function getLastDepositBlock(address _accountAddr, address _token) public view returns(uint256) {\n        AccountTokenLib.TokenInfo storage tokenInfo = accounts[_accountAddr].tokenInfos[_token];\n        return tokenInfo.getLastDepositBlock();\n    }\n\n    function getLastBorrowBlock(address _accountAddr, address _token) public view returns(uint256) {\n        AccountTokenLib.TokenInfo storage tokenInfo = accounts[_accountAddr].tokenInfos[_token];\n        return tokenInfo.getLastBorrowBlock();\n    }\n\n    function getDepositInterest(address _accountAddr, address _token) public view returns(uint256) {\n        AccountTokenLib.TokenInfo storage tokenInfo = accounts[_accountAddr].tokenInfos[_token];\n        uint256 accruedRate = globalConfig.bank().getDepositAccruedRate(_token, tokenInfo.getLastBorrowBlock());\n        return tokenInfo.calculateDepositInterest(accruedRate);\n    }\n\n    function getBorrowInterest(address _accountAddr, address _token) public view returns(uint256) {\n        AccountTokenLib.TokenInfo storage tokenInfo = accounts[_accountAddr].tokenInfos[_token];\n        uint256 accruedRate = globalConfig.bank().getBorrowAccruedRate(_token, tokenInfo.getLastBorrowBlock());\n        return tokenInfo.calculateBorrowInterest(accruedRate);\n    }\n\n    function borrow(address _accountAddr, address _token, uint256 _amount) public onlyInternal {\n        require(_amount != 0, \"Borrow zero amount of token is not allowed.\");\n        require(isUserHasAnyDeposits(_accountAddr), \"The user doesn't have any deposits.\");\n        require(\n            getBorrowETH(_accountAddr).add(\n                _amount.mul(globalConfig.tokenInfoRegistry().priceFromAddress(_token))\n                .div(Utils.getDivisor(address(globalConfig), _token))\n            )\n            <= getBorrowPower(_accountAddr), \"Insufficient collateral when borrow.\");\n\n        AccountTokenLib.TokenInfo storage tokenInfo = accounts[_accountAddr].tokenInfos[_token];\n        uint256 accruedRate = globalConfig.bank().getBorrowAccruedRate(_token, tokenInfo.getLastBorrowBlock());\n\n        // Update the token principla and interest\n        tokenInfo.borrow(_amount, accruedRate, getBlockNumber());\n        // Since we have checked that borrow amount is larget than zero. We can set the borrow\n        // map directly without checking the borrow balance.\n        uint8 tokenIndex = globalConfig.tokenInfoRegistry().getTokenIndex(_token);\n        setInBorrowBitmap(_accountAddr, tokenIndex);\n    }\n\n    /**\n     * Update token info for withdraw. The interest will be withdrawn with higher priority.\n     */\n    function withdraw(address _accountAddr, address _token, uint256 _amount) public onlyInternal returns(uint256) {\n\n        // Check if withdraw amount is less than user's balance\n        require(_amount <= getDepositBalanceCurrent(_token, _accountAddr), \"Insufficient balance.\");\n        uint256 borrowLTV = globalConfig.tokenInfoRegistry().getBorrowLTV(_token);\n\n        // This if condition is to deal with the withdraw of collateral token in liquidation.\n        // As the amount if borrowed asset is already large than the borrow power, we don't\n        // have to check the condition here.\n        if(getBorrowETH(_accountAddr) <= getBorrowPower(_accountAddr))\n            require(\n                getBorrowETH(_accountAddr) <= getBorrowPower(_accountAddr).sub(\n                    _amount.mul(globalConfig.tokenInfoRegistry().priceFromAddress(_token))\n                    .mul(borrowLTV).div(Utils.getDivisor(address(globalConfig), _token)).div(100)\n                ), \"Insufficient collateral when withdraw.\");\n\n        AccountTokenLib.TokenInfo storage tokenInfo = accounts[_accountAddr].tokenInfos[_token];\n        uint256 principalBeforeWithdraw = tokenInfo.getDepositPrincipal();\n        uint256 accruedRate = globalConfig.bank().getDepositAccruedRate(_token, tokenInfo.getLastDepositBlock());\n        tokenInfo.withdraw(_amount, accruedRate, getBlockNumber());\n        uint256 principalAfterWithdraw = tokenInfo.getDepositPrincipal();\n        if(tokenInfo.getDepositPrincipal() == 0) {\n            uint8 tokenIndex = globalConfig.tokenInfoRegistry().getTokenIndex(_token);\n            unsetFromDepositBitmap(_accountAddr, tokenIndex);\n        }\n\n        uint commission = 0;\n        if (_accountAddr != globalConfig.deFinerCommunityFund()) {\n            // DeFiner takes 10% commission on the interest a user earn\n            commission = _amount.sub(principalBeforeWithdraw.sub(principalAfterWithdraw)).mul(globalConfig.deFinerRate()).div(100);\n            deposit(globalConfig.deFinerCommunityFund(), _token, commission);\n        }\n\n        return _amount.sub(commission);\n    }\n\n    /**\n     * Update token info for deposit\n     */\n    function deposit(address _accountAddr, address _token, uint256 _amount) public onlyInternal {\n        AccountTokenLib.TokenInfo storage tokenInfo = accounts[_accountAddr].tokenInfos[_token];\n        uint accruedRate = globalConfig.bank().getDepositAccruedRate(_token, tokenInfo.getLastDepositBlock());\n        if(tokenInfo.getDepositPrincipal() == 0) {\n            uint8 tokenIndex = globalConfig.tokenInfoRegistry().getTokenIndex(_token);\n            setInDepositBitmap(_accountAddr, tokenIndex);\n        }\n        tokenInfo.deposit(_amount, accruedRate, getBlockNumber());\n    }\n\n    function repay(address _accountAddr, address _token, uint256 _amount) public onlyInternal returns(uint256){\n        // Update tokenInfo\n        uint256 amountOwedWithInterest = getBorrowBalanceCurrent(_token, _accountAddr);\n        uint amount = _amount > amountOwedWithInterest ? amountOwedWithInterest : _amount;\n        uint256 remain =  _amount > amountOwedWithInterest ? _amount.sub(amountOwedWithInterest) : 0;\n        AccountTokenLib.TokenInfo storage tokenInfo = accounts[_accountAddr].tokenInfos[_token];\n        // Sanity check\n        require(tokenInfo.getBorrowPrincipal() > 0, \"Token BorrowPrincipal must be greater than 0. To deposit balance, please use deposit button.\");\n        uint accruedRate = globalConfig.bank().getBorrowAccruedRate(_token, tokenInfo.getLastBorrowBlock());\n        tokenInfo.repay(amount, accruedRate, getBlockNumber());\n        if(tokenInfo.getBorrowPrincipal() == 0) {\n            uint8 tokenIndex = globalConfig.tokenInfoRegistry().getTokenIndex(_token);\n            unsetFromBorrowBitmap(_accountAddr, tokenIndex);\n        }\n        return remain;\n    }\n\n    function getDepositBalanceCurrent(\n        address _token,\n        address _accountAddr\n    ) public view returns (uint256 depositBalance) {\n        AccountTokenLib.TokenInfo storage tokenInfo = accounts[_accountAddr].tokenInfos[_token];\n        uint accruedRate;\n        if(tokenInfo.getDepositPrincipal() == 0) {\n            return 0;\n        } else {\n            if(globalConfig.bank().depositeRateIndex(_token, tokenInfo.getLastDepositBlock()) == 0) {\n                accruedRate = INT_UNIT;\n            } else {\n                accruedRate = globalConfig.bank().depositRateIndexNow(_token)\n                .mul(INT_UNIT)\n                .div(globalConfig.bank().depositeRateIndex(_token, tokenInfo.getLastDepositBlock()));\n            }\n            return tokenInfo.getDepositBalance(accruedRate);\n        }\n    }\n\n    /**\n     * Get current borrow balance of a token\n     * @param _token token address\n     * @dev This is an estimation. Add a new checkpoint first, if you want to derive the exact balance.\n     */\n    // sichaoy: What's the diff of getBorrowBalance with getBorrowAcruedRate?\n    function getBorrowBalanceCurrent(\n        address _token,\n        address _accountAddr\n    ) public view returns (uint256 borrowBalance) {\n        AccountTokenLib.TokenInfo storage tokenInfo = accounts[_accountAddr].tokenInfos[_token];\n        uint accruedRate;\n        if(tokenInfo.getBorrowPrincipal() == 0) {\n            return 0;\n        } else {\n            if(globalConfig.bank().borrowRateIndex(_token, tokenInfo.getLastBorrowBlock()) == 0) {\n                accruedRate = INT_UNIT;\n            } else {\n                accruedRate = globalConfig.bank().borrowRateIndexNow(_token)\n                .mul(INT_UNIT)\n                .div(globalConfig.bank().borrowRateIndex(_token, tokenInfo.getLastBorrowBlock()));\n            }\n            return tokenInfo.getBorrowBalance(accruedRate);\n        }\n    }\n\n    /**\n     * Calculate an account's borrow power based on token's LTV\n     */\n    function getBorrowPower(address _borrower) public view returns (uint256 power) {\n        for(uint8 i = 0; i < globalConfig.tokenInfoRegistry().getCoinLength(); i++) {\n            if (isUserHasDeposits(_borrower, i)) {\n                address token = globalConfig.tokenInfoRegistry().addressFromIndex(i);\n                uint divisor = INT_UNIT;\n                if(token != ETH_ADDR) {\n                    divisor = 10**uint256(globalConfig.tokenInfoRegistry().getTokenDecimals(token));\n                }\n                // globalConfig.bank().newRateIndexCheckpoint(token);\n                power = power.add(getDepositBalanceCurrent(token, _borrower)\n                    .mul(globalConfig.tokenInfoRegistry().priceFromIndex(i))\n                    .mul(globalConfig.tokenInfoRegistry().getBorrowLTV(token)).div(100)\n                    .div(divisor)\n                );\n            }\n        }\n        return power;\n    }\n\n    /**\n     * Get current deposit balance of a token\n     * @dev This is an estimation. Add a new checkpoint first, if you want to derive the exact balance.\n     */\n    function getDepositETH(\n        address _accountAddr\n    ) public view returns (uint256 depositETH) {\n        for(uint i = 0; i < globalConfig.tokenInfoRegistry().getCoinLength(); i++) {\n            if(isUserHasDeposits(_accountAddr, uint8(i))) {\n                address tokenAddress = globalConfig.tokenInfoRegistry().addressFromIndex(i);\n                uint divisor = INT_UNIT;\n                if(tokenAddress != ETH_ADDR) {\n                    divisor = 10**uint256(globalConfig.tokenInfoRegistry().getTokenDecimals(tokenAddress));\n                }\n                depositETH = depositETH.add(getDepositBalanceCurrent(tokenAddress, _accountAddr).mul(globalConfig.tokenInfoRegistry().priceFromIndex(i)).div(divisor));\n            }\n        }\n        return depositETH;\n    }\n\n    /**\n     * Get borrowed balance of a token in the uint of Wei\n     */\n    // sichaoy: change name to getTotalBorrowInETH()\n    function getBorrowETH(\n        address _accountAddr\n    ) public view returns (uint256 borrowETH) {\n        for(uint i = 0; i < globalConfig.tokenInfoRegistry().getCoinLength(); i++) {\n            if(isUserHasBorrows(_accountAddr, uint8(i))) {\n                address tokenAddress = globalConfig.tokenInfoRegistry().addressFromIndex(i);\n                uint divisor = INT_UNIT;\n                if(tokenAddress != ETH_ADDR) {\n                    divisor = 10 ** uint256(globalConfig.tokenInfoRegistry().getTokenDecimals(tokenAddress));\n                }\n                borrowETH = borrowETH.add(getBorrowBalanceCurrent(tokenAddress, _accountAddr).mul(globalConfig.tokenInfoRegistry().priceFromIndex(i)).div(divisor));\n            }\n        }\n        return borrowETH;\n    }\n\n    /**\n\t * Check if the account is liquidatable\n     * @param _borrower borrower's account\n     * @return true if the account is liquidatable\n\t */\n    function isAccountLiquidatable(address _borrower) public returns (bool) {\n\n        // Add new rate check points for all the collateral tokens from borrower in order to\n        // have accurate calculation of liquidation oppotunites.\n        for(uint8 i = 0; i < globalConfig.tokenInfoRegistry().getCoinLength(); i++) {\n            if (isUserHasDeposits(_borrower, i) || isUserHasBorrows(_borrower, i)) {\n                address token = globalConfig.tokenInfoRegistry().addressFromIndex(i);\n                globalConfig.bank().newRateIndexCheckpoint(token);\n            }\n        }\n\n        uint256 liquidationThreshold = globalConfig.liquidationThreshold();\n        uint256 liquidationDiscountRatio = globalConfig.liquidationDiscountRatio();\n\n        uint256 totalBorrow = getBorrowETH(_borrower);\n        uint256 totalCollateral = getDepositETH(_borrower);\n\n        // The value of discounted collateral should be never less than the borrow amount.\n        // We assume this will never happen as the market will not drop extreamly fast so that\n        // the LTV changes from 85% to 95%, an 10% drop within one block.\n        require(\n            totalBorrow.mul(100) <= totalCollateral.mul(liquidationDiscountRatio),\n            \"Collateral is not sufficient to be liquidated.\"\n        );\n\n        // It is required that LTV is larger than LIQUIDATE_THREADHOLD for liquidation\n        return totalBorrow.mul(100) > totalCollateral.mul(liquidationThreshold);\n    }\n\n    struct LiquidationVars {\n        uint256 totalBorrow;\n        uint256 totalCollateral;\n        uint256 msgTotalBorrow;\n        uint256 msgTotalCollateral;\n\n        uint256 targetTokenBalance;\n        uint256 liquidationDebtValue;\n        uint256 liquidationThreshold;\n        uint256 liquidationDiscountRatio;\n        uint256 borrowLTV;\n        uint256 paymentOfLiquidationValue;\n    }\n    /**\n     * Get current block number\n     * @return the current block number\n     */\n    function getBlockNumber() private view returns (uint) {\n        return block.number;\n    }\n}\n",
  "sourcePath": "/Users/yanyichun/project/Savings/contracts/Accounts.sol",
  "compiler": {
    "name": "solc",
    "version": "0.5.14+commit.01f1aaa4.Emscripten.clang"
  },
  "schemaVersion": "3.3.1",
  "updatedAt": "2020-11-09T00:44:13.882Z",
  "networkType": "ethereum",
  "devdoc": {
    "methods": {
      "getBorrowBalanceCurrent(address,address)": {
        "details": "This is an estimation. Add a new checkpoint first, if you want to derive the exact balance.",
        "params": {
          "_token": "token address"
        }
      },
      "getDepositETH(address)": {
        "details": "This is an estimation. Add a new checkpoint first, if you want to derive the exact balance."
      },
      "initialize(address)": {
        "params": {
          "_globalConfig": "the global configuration contract"
        }
      },
      "isAccountLiquidatable(address)": {
        "params": {
          "_borrower": "borrower's account"
        },
        "return": "true if the account is liquidatable"
      },
      "isUserHasAnyDeposits(address)": {
        "params": {
          "_account": "address of the user"
        },
        "return": "true if the user has positive deposit balance"
      },
      "isUserHasBorrows(address,uint8)": {
        "params": {
          "_account": "address of the user",
          "_index": "index of the token"
        },
        "return": "true if the user has borrowed the token"
      },
      "isUserHasDeposits(address,uint8)": {
        "params": {
          "_account": "address of the user",
          "_index": "index of the token"
        },
        "return": "true if the user has positive deposit balance for the token"
      }
    }
  },
  "userdoc": {
    "methods": {
      "deposit(address,address,uint256)": {
        "notice": "Update token info for deposit"
      },
      "getBorrowBalanceCurrent(address,address)": {
        "notice": "Get current borrow balance of a token"
      },
      "getBorrowETH(address)": {
        "notice": "Get borrowed balance of a token in the uint of Wei"
      },
      "getBorrowPower(address)": {
        "notice": "Calculate an account's borrow power based on token's LTV"
      },
      "getDepositETH(address)": {
        "notice": "Get current deposit balance of a token"
      },
      "initialize(address)": {
        "notice": "Initialize the Accounts"
      },
      "isAccountLiquidatable(address)": {
        "notice": "Check if the account is liquidatable"
      },
      "isUserHasAnyDeposits(address)": {
        "notice": "Check if the user has deposit for any tokens"
      },
      "isUserHasBorrows(address,uint8)": {
        "notice": "Check if the user has borrowed a token"
      },
      "isUserHasDeposits(address,uint8)": {
        "notice": "Check if the user has deposit for a token"
      },
      "withdraw(address,address,uint256)": {
        "notice": "Update token info for withdraw. The interest will be withdrawn with higher priority."
      }
    }
  }
}