{
  "contractName": "Bank",
  "abi": [
    {
      "anonymous": false,
      "inputs": [
        {
          "indexed": true,
          "internalType": "address",
          "name": "token",
          "type": "address"
        },
        {
          "indexed": false,
          "internalType": "uint256",
          "name": "depositeRateIndex",
          "type": "uint256"
        },
        {
          "indexed": false,
          "internalType": "uint256",
          "name": "borrowRateIndex",
          "type": "uint256"
        }
      ],
      "name": "UpdateIndex",
      "type": "event"
    },
    {
      "constant": true,
      "inputs": [],
      "name": "ACCURACY",
      "outputs": [
        {
          "internalType": "uint256",
          "name": "",
          "type": "uint256"
        }
      ],
      "payable": false,
      "stateMutability": "view",
      "type": "function"
    },
    {
      "constant": true,
      "inputs": [],
      "name": "BLOCKS_PER_YEAR",
      "outputs": [
        {
          "internalType": "uint256",
          "name": "",
          "type": "uint256"
        }
      ],
      "payable": false,
      "stateMutability": "view",
      "type": "function"
    },
    {
      "constant": true,
      "inputs": [],
      "name": "EMERGENCY_ADDR",
      "outputs": [
        {
          "internalType": "address payable",
          "name": "",
          "type": "address"
        }
      ],
      "payable": false,
      "stateMutability": "view",
      "type": "function"
    },
    {
      "constant": true,
      "inputs": [],
      "name": "ETH_ADDR",
      "outputs": [
        {
          "internalType": "address",
          "name": "",
          "type": "address"
        }
      ],
      "payable": false,
      "stateMutability": "view",
      "type": "function"
    },
    {
      "constant": true,
      "inputs": [],
      "name": "INT_UNIT",
      "outputs": [
        {
          "internalType": "uint256",
          "name": "",
          "type": "uint256"
        }
      ],
      "payable": false,
      "stateMutability": "view",
      "type": "function"
    },
    {
      "constant": true,
      "inputs": [
        {
          "internalType": "address",
          "name": "",
          "type": "address"
        },
        {
          "internalType": "uint256",
          "name": "",
          "type": "uint256"
        }
      ],
      "name": "borrowRateIndex",
      "outputs": [
        {
          "internalType": "uint256",
          "name": "",
          "type": "uint256"
        }
      ],
      "payable": false,
      "stateMutability": "view",
      "type": "function"
    },
    {
      "constant": true,
      "inputs": [
        {
          "internalType": "address",
          "name": "",
          "type": "address"
        },
        {
          "internalType": "uint256",
          "name": "",
          "type": "uint256"
        }
      ],
      "name": "depositeRateIndex",
      "outputs": [
        {
          "internalType": "uint256",
          "name": "",
          "type": "uint256"
        }
      ],
      "payable": false,
      "stateMutability": "view",
      "type": "function"
    },
    {
      "constant": true,
      "inputs": [
        {
          "internalType": "address",
          "name": "",
          "type": "address"
        }
      ],
      "name": "lastCTokenExchangeRate",
      "outputs": [
        {
          "internalType": "uint256",
          "name": "",
          "type": "uint256"
        }
      ],
      "payable": false,
      "stateMutability": "view",
      "type": "function"
    },
    {
      "constant": true,
      "inputs": [
        {
          "internalType": "address",
          "name": "",
          "type": "address"
        }
      ],
      "name": "lastCheckpoint",
      "outputs": [
        {
          "internalType": "uint256",
          "name": "",
          "type": "uint256"
        }
      ],
      "payable": false,
      "stateMutability": "view",
      "type": "function"
    },
    {
      "constant": true,
      "inputs": [
        {
          "internalType": "address",
          "name": "",
          "type": "address"
        }
      ],
      "name": "totalCompound",
      "outputs": [
        {
          "internalType": "uint256",
          "name": "",
          "type": "uint256"
        }
      ],
      "payable": false,
      "stateMutability": "view",
      "type": "function"
    },
    {
      "constant": true,
      "inputs": [
        {
          "internalType": "address",
          "name": "",
          "type": "address"
        }
      ],
      "name": "totalLoans",
      "outputs": [
        {
          "internalType": "uint256",
          "name": "",
          "type": "uint256"
        }
      ],
      "payable": false,
      "stateMutability": "view",
      "type": "function"
    },
    {
      "constant": true,
      "inputs": [
        {
          "internalType": "address",
          "name": "",
          "type": "address"
        }
      ],
      "name": "totalReserve",
      "outputs": [
        {
          "internalType": "uint256",
          "name": "",
          "type": "uint256"
        }
      ],
      "payable": false,
      "stateMutability": "view",
      "type": "function"
    },
    {
      "constant": false,
      "inputs": [
        {
          "internalType": "contract GlobalConfig",
          "name": "_globalConfig",
          "type": "address"
        }
      ],
      "name": "initialize",
      "outputs": [],
      "payable": false,
      "stateMutability": "nonpayable",
      "type": "function"
    },
    {
      "constant": true,
      "inputs": [
        {
          "internalType": "address",
          "name": "_token",
          "type": "address"
        }
      ],
      "name": "getTotalDepositStore",
      "outputs": [
        {
          "internalType": "uint256",
          "name": "",
          "type": "uint256"
        }
      ],
      "payable": false,
      "stateMutability": "view",
      "type": "function"
    },
    {
      "constant": false,
      "inputs": [
        {
          "internalType": "address",
          "name": "_token",
          "type": "address"
        },
        {
          "internalType": "uint256",
          "name": "_amount",
          "type": "uint256"
        },
        {
          "internalType": "uint8",
          "name": "_action",
          "type": "uint8"
        }
      ],
      "name": "update",
      "outputs": [
        {
          "internalType": "uint256",
          "name": "compoundAmount",
          "type": "uint256"
        }
      ],
      "payable": false,
      "stateMutability": "nonpayable",
      "type": "function"
    },
    {
      "constant": true,
      "inputs": [
        {
          "internalType": "address",
          "name": "_token",
          "type": "address"
        }
      ],
      "name": "getBorrowRatePerBlock",
      "outputs": [
        {
          "internalType": "uint256",
          "name": "",
          "type": "uint256"
        }
      ],
      "payable": false,
      "stateMutability": "view",
      "type": "function"
    },
    {
      "constant": true,
      "inputs": [
        {
          "internalType": "address",
          "name": "_token",
          "type": "address"
        }
      ],
      "name": "getDepositRatePerBlock",
      "outputs": [
        {
          "internalType": "uint256",
          "name": "",
          "type": "uint256"
        }
      ],
      "payable": false,
      "stateMutability": "view",
      "type": "function"
    },
    {
      "constant": true,
      "inputs": [
        {
          "internalType": "address",
          "name": "_token",
          "type": "address"
        }
      ],
      "name": "getCapitalUtilizationRatio",
      "outputs": [
        {
          "internalType": "uint256",
          "name": "",
          "type": "uint256"
        }
      ],
      "payable": false,
      "stateMutability": "view",
      "type": "function"
    },
    {
      "constant": true,
      "inputs": [
        {
          "internalType": "address",
          "name": "_token",
          "type": "address"
        }
      ],
      "name": "getCapitalCompoundRatio",
      "outputs": [
        {
          "internalType": "uint256",
          "name": "",
          "type": "uint256"
        }
      ],
      "payable": false,
      "stateMutability": "view",
      "type": "function"
    },
    {
      "constant": true,
      "inputs": [
        {
          "internalType": "address",
          "name": "_token",
          "type": "address"
        },
        {
          "internalType": "uint256",
          "name": "_depositRateRecordStart",
          "type": "uint256"
        }
      ],
      "name": "getDepositAccruedRate",
      "outputs": [
        {
          "internalType": "uint256",
          "name": "",
          "type": "uint256"
        }
      ],
      "payable": false,
      "stateMutability": "view",
      "type": "function"
    },
    {
      "constant": true,
      "inputs": [
        {
          "internalType": "address",
          "name": "_token",
          "type": "address"
        },
        {
          "internalType": "uint256",
          "name": "_borrowRateRecordStart",
          "type": "uint256"
        }
      ],
      "name": "getBorrowAccruedRate",
      "outputs": [
        {
          "internalType": "uint256",
          "name": "",
          "type": "uint256"
        }
      ],
      "payable": false,
      "stateMutability": "view",
      "type": "function"
    },
    {
      "constant": false,
      "inputs": [
        {
          "internalType": "address",
          "name": "_token",
          "type": "address"
        }
      ],
      "name": "newRateIndexCheckpoint",
      "outputs": [],
      "payable": false,
      "stateMutability": "nonpayable",
      "type": "function"
    },
    {
      "constant": true,
      "inputs": [
        {
          "internalType": "address",
          "name": "_token",
          "type": "address"
        }
      ],
      "name": "depositRateIndexNow",
      "outputs": [
        {
          "internalType": "uint256",
          "name": "",
          "type": "uint256"
        }
      ],
      "payable": false,
      "stateMutability": "view",
      "type": "function"
    },
    {
      "constant": true,
      "inputs": [
        {
          "internalType": "address",
          "name": "_token",
          "type": "address"
        }
      ],
      "name": "borrowRateIndexNow",
      "outputs": [
        {
          "internalType": "uint256",
          "name": "",
          "type": "uint256"
        }
      ],
      "payable": false,
      "stateMutability": "view",
      "type": "function"
    },
    {
      "constant": true,
      "inputs": [
        {
          "internalType": "address",
          "name": "_token",
          "type": "address"
        }
      ],
      "name": "getTokenState",
      "outputs": [
        {
          "internalType": "uint256",
          "name": "deposits",
          "type": "uint256"
        },
        {
          "internalType": "uint256",
          "name": "loans",
          "type": "uint256"
        },
        {
          "internalType": "uint256",
          "name": "reserveBalance",
          "type": "uint256"
        },
        {
          "internalType": "uint256",
          "name": "remainingAssets",
          "type": "uint256"
        }
      ],
      "payable": false,
      "stateMutability": "view",
      "type": "function"
    },
    {
      "constant": true,
      "inputs": [
        {
          "internalType": "address",
          "name": "_token",
          "type": "address"
        }
      ],
      "name": "getPoolAmount",
      "outputs": [
        {
          "internalType": "uint256",
          "name": "",
          "type": "uint256"
        }
      ],
      "payable": false,
      "stateMutability": "view",
      "type": "function"
    },
    {
      "constant": false,
      "inputs": [
        {
          "internalType": "address",
          "name": "_to",
          "type": "address"
        },
        {
          "internalType": "address",
          "name": "_token",
          "type": "address"
        },
        {
          "internalType": "uint256",
          "name": "_amount",
          "type": "uint256"
        }
      ],
      "name": "deposit",
      "outputs": [],
      "payable": false,
      "stateMutability": "nonpayable",
      "type": "function"
    },
    {
      "constant": false,
      "inputs": [
        {
          "internalType": "address",
          "name": "_from",
          "type": "address"
        },
        {
          "internalType": "address",
          "name": "_token",
          "type": "address"
        },
        {
          "internalType": "uint256",
          "name": "_amount",
          "type": "uint256"
        }
      ],
      "name": "borrow",
      "outputs": [],
      "payable": false,
      "stateMutability": "nonpayable",
      "type": "function"
    },
    {
      "constant": false,
      "inputs": [
        {
          "internalType": "address",
          "name": "_to",
          "type": "address"
        },
        {
          "internalType": "address",
          "name": "_token",
          "type": "address"
        },
        {
          "internalType": "uint256",
          "name": "_amount",
          "type": "uint256"
        }
      ],
      "name": "repay",
      "outputs": [
        {
          "internalType": "uint256",
          "name": "",
          "type": "uint256"
        }
      ],
      "payable": false,
      "stateMutability": "nonpayable",
      "type": "function"
    },
    {
      "constant": false,
      "inputs": [
        {
          "internalType": "address",
          "name": "_from",
          "type": "address"
        },
        {
          "internalType": "address",
          "name": "_token",
          "type": "address"
        },
        {
          "internalType": "uint256",
          "name": "_amount",
          "type": "uint256"
        }
      ],
      "name": "withdraw",
      "outputs": [
        {
          "internalType": "uint256",
          "name": "",
          "type": "uint256"
        }
      ],
      "payable": false,
      "stateMutability": "nonpayable",
      "type": "function"
    }
  ],
  "bytecode": "0x608060405234801561001057600080fd5b50613bc1806100206000396000f3fe608060405234801561001057600080fd5b50600436106101da5760003560e01c806374a2384311610104578063c9ca7d31116100a2578063de34b0f411610071578063de34b0f414610600578063e9ace6d914610626578063f48719661461064c578063fbcd9b05146105c2576101da565b8063c9ca7d3114610594578063d37db1d2146105ba578063d8c2d84c146105c2578063d9caed12146105ca576101da565b80637ebff3d5116100de5780637ebff3d5146104ec5780638340f54914610512578063945eb76414610548578063c4d66de81461056e576101da565b806374a23843146104925780637753f47b146104b85780637aa473d1146104c0576101da565b80634d7705701161017c5780635a80c4971161014b5780635a80c497146103e557806362e4a78c146104115780636dae2fa5146104465780636e5d84ba1461046c576101da565b80634d7705701461033d5780634e7e36e2146103635780635224372c146103895780635467cec4146103c1576101da565b80631ff4443c116101b85780631ff4443c146102995780632d6cb681146102c5578063343340f4146102f157806337a58b1514610317576101da565b80630b3eb970146101df5780630b5744431461022b5780631da649cf14610263575b600080fd5b610205600480360360208110156101f557600080fd5b50356001600160a01b0316610672565b604080519485526020850193909352838301919091526060830152519081900360800190f35b6102516004803603602081101561024157600080fd5b50356001600160a01b03166107d4565b60408051918252519081900360200190f35b6102516004803603606081101561027957600080fd5b506001600160a01b03813581169160208101359091169060400135610898565b610251600480360360408110156102af57600080fd5b506001600160a01b038135169060200135610d2d565b610251600480360360408110156102db57600080fd5b506001600160a01b038135169060200135610d4a565b6102516004803603602081101561030757600080fd5b50356001600160a01b0316610dda565b6102516004803603602081101561032d57600080fd5b50356001600160a01b0316610dec565b6102516004803603602081101561035357600080fd5b50356001600160a01b0316610dfe565b6102516004803603602081101561037957600080fd5b50356001600160a01b0316610e5a565b6103bf6004803603606081101561039f57600080fd5b506001600160a01b03813581169160208101359091169060400135610e6c565b005b6103c96111ae565b604080516001600160a01b039092168252519081900360200190f35b610251600480360360408110156103fb57600080fd5b506001600160a01b0381351690602001356111c6565b6102516004803603606081101561042757600080fd5b5080356001600160a01b0316906020810135906040013560ff1661122e565b6102516004803603602081101561045c57600080fd5b50356001600160a01b031661138d565b6102516004803603602081101561048257600080fd5b50356001600160a01b0316611516565b610251600480360360208110156104a857600080fd5b50356001600160a01b031661165c565b6103c961166e565b610251600480360360408110156104d657600080fd5b506001600160a01b038135169060200135611673565b6102516004803603602081101561050257600080fd5b50356001600160a01b0316611690565b6103bf6004803603606081101561052857600080fd5b506001600160a01b038135811691602081013590911690604001356116ee565b6102516004803603602081101561055e57600080fd5b50356001600160a01b0316611a54565b6103bf6004803603602081101561058457600080fd5b50356001600160a01b0316611b87565b610251600480360360208110156105aa57600080fd5b50356001600160a01b0316611c45565b610251611f8e565b610251611f95565b610251600480360360608110156105e057600080fd5b506001600160a01b03813581169160208101359091169060400135611fa1565b6103bf6004803603602081101561061657600080fd5b50356001600160a01b031661232e565b6102516004803603602081101561063c57600080fd5b50356001600160a01b0316612c39565b6102516004803603602081101561066257600080fd5b50356001600160a01b0316612c4b565b60008060008061068185611516565b6001600160a01b038087166000908152603360209081526040808320546034835281842054603b548351639895880f60e01b81529351929691956107c59560359591949290931692639895880f92600480840193829003018186803b1580156106e957600080fd5b505afa1580156106fd573d6000803e3d6000fd5b505050506040513d602081101561071357600080fd5b505160408051637e5a4eb960e01b81526001600160a01b038e8116600483015291519190921691637e5a4eb9916024808301926020929190829003018186803b15801561075f57600080fd5b505afa158015610773573d6000803e3d6000fd5b505050506040513d602081101561078957600080fd5b50516001600160a01b0390811682526020828101939093526040918201600090812054918d16815260349093529120549063ffffffff612da516565b93509350935093509193509193565b6001600160a01b038116600090815260386020526040812054670de0b6b3a7640000816108045791506108939050565b6001600160a01b03841660009081526037602090815260408083208584529091528120549061083286611c45565b905061088c83610880610873866108678661085b8b61084f612dff565b9063ffffffff612e0316565b9063ffffffff612e4516565b9063ffffffff612da516565b859063ffffffff612e4516565b9063ffffffff612e9e16565b9450505050505b919050565b603b546040805163cc5738b560e01b815290516000926001600160a01b03169163cc5738b5916004808301926020929190829003018186803b1580156108dd57600080fd5b505afa1580156108f1573d6000803e3d6000fd5b505050506040513d602081101561090757600080fd5b50516001600160a01b03163314806109a05750603b60009054906101000a90046001600160a01b03166001600160a01b03166368cd03f66040518163ffffffff1660e01b815260040160206040518083038186803b15801561096857600080fd5b505afa15801561097c573d6000803e3d6000fd5b505050506040513d602081101561099257600080fd5b50516001600160a01b031633145b6109db5760405162461bcd60e51b8152600401808060200182810382526038815260200180613b556038913960400191505060405180910390fd5b6109e48361232e565b603b546040805163346681fb60e11b815290516000926001600160a01b0316916368cd03f6916004808301926020929190829003018186803b158015610a2957600080fd5b505afa158015610a3d573d6000803e3d6000fd5b505050506040513d6020811015610a5357600080fd5b505160408051638224b89960e01b81526001600160a01b038881166004830152878116602483015291519190921691638224b899916044808301926020929190829003018186803b158015610aa757600080fd5b505afa158015610abb573d6000803e3d6000fd5b505050506040513d6020811015610ad157600080fd5b505111610b0f5760405162461bcd60e51b815260040180806020018281038252605c815260200180613aaa605c913960600191505060405180910390fd5b603b546040805163346681fb60e11b815290516000926001600160a01b0316916368cd03f6916004808301926020929190829003018186803b158015610b5457600080fd5b505afa158015610b68573d6000803e3d6000fd5b505050506040513d6020811015610b7e57600080fd5b505160408051631da649cf60e01b81526001600160a01b03888116600483015287811660248301526044820187905291519190921691631da649cf9160648083019260209291908290030181600087803b158015610bdb57600080fd5b505af1158015610bef573d6000803e3d6000fd5b505050506040513d6020811015610c0557600080fd5b505190506000610c2685610c1f868563ffffffff612e0316565b600361122e565b90508015610d1357603b60009054906101000a90046001600160a01b03166001600160a01b031663cc5738b56040518163ffffffff1660e01b815260040160206040518083038186803b158015610c7c57600080fd5b505afa158015610c90573d6000803e3d6000fd5b505050506040513d6020811015610ca657600080fd5b505160408051638280e5a960e01b81526001600160a01b0388811660048301526024820185905291519190921691638280e5a991604480830192600092919082900301818387803b158015610cfa57600080fd5b505af1158015610d0e573d6000803e3d6000fd5b505050505b610d23848363ffffffff612e0316565b9695505050505050565b603660209081526000928352604080842090915290825290205481565b6001600160a01b0382166000908152603760209081526040808320848452909152812054670de0b6b3a764000081610d85579150610dd49050565b6001600160a01b0385166000908152603760205260408120610dcf91849161088091859190610db2612dff565b815260200190815260200160002054612e4590919063ffffffff16565b925050505b92915050565b60336020526000908152604090205481565b60356020526000908152604090205481565b600080610e0a83611516565b905080610e1b576000915050610893565b6001600160a01b038316600090815260336020526040902054610e5290829061088090670de0b6b3a764000063ffffffff612e4516565b915050610893565b60346020526000908152604090205481565b603b60009054906101000a90046001600160a01b03166001600160a01b031663cc5738b56040518163ffffffff1660e01b815260040160206040518083038186803b158015610eba57600080fd5b505afa158015610ece573d6000803e3d6000fd5b505050506040513d6020811015610ee457600080fd5b50516001600160a01b0316331480610f7d5750603b60009054906101000a90046001600160a01b03166001600160a01b03166368cd03f66040518163ffffffff1660e01b815260040160206040518083038186803b158015610f4557600080fd5b505afa158015610f59573d6000803e3d6000fd5b505050506040513d6020811015610f6f57600080fd5b50516001600160a01b031633145b610fb85760405162461bcd60e51b8152600401808060200182810382526038815260200180613b556038913960400191505060405180910390fd5b610fc18261232e565b603b60009054906101000a90046001600160a01b03166001600160a01b03166368cd03f66040518163ffffffff1660e01b815260040160206040518083038186803b15801561100f57600080fd5b505afa158015611023573d6000803e3d6000fd5b505050506040513d602081101561103957600080fd5b5051604080516314890dcb60e21b81526001600160a01b03868116600483015285811660248301526044820185905291519190921691635224372c91606480830192600092919082900301818387803b15801561109557600080fd5b505af11580156110a9573d6000803e3d6000fd5b5050505060006110bb8383600261122e565b905080156111a857603b60009054906101000a90046001600160a01b03166001600160a01b031663cc5738b56040518163ffffffff1660e01b815260040160206040518083038186803b15801561111157600080fd5b505afa158015611125573d6000803e3d6000fd5b505050506040513d602081101561113b57600080fd5b50516040805163526e93cb60e01b81526001600160a01b038681166004830152602482018590529151919092169163526e93cb91604480830192600092919082900301818387803b15801561118f57600080fd5b505af11580156111a3573d6000803e3d6000fd5b505050505b50505050565b73c04158f7db6f9c9ffbd5593236a1a3d69f92167c81565b6001600160a01b0382166000908152603660209081526040808320848452909152812054670de0b6b3a764000081611201579150610dd49050565b6001600160a01b0385166000908152603660205260408120610dcf91849161088091859190610db2612dff565b603b546040805163cc5738b560e01b815290516000926001600160a01b03169163cc5738b5916004808301926020929190829003018186803b15801561127357600080fd5b505afa158015611287573d6000803e3d6000fd5b505050506040513d602081101561129d57600080fd5b50516001600160a01b03163314806113365750603b60009054906101000a90046001600160a01b03166001600160a01b03166368cd03f66040518163ffffffff1660e01b815260040160206040518083038186803b1580156112fe57600080fd5b505afa158015611312573d6000803e3d6000fd5b505050506040513d602081101561132857600080fd5b50516001600160a01b031633145b6113715760405162461bcd60e51b8152600401808060200182810382526038815260200180613b556038913960400191505060405180910390fd5b61137a84612ee0565b6113858484846130f1565b949350505050565b60008061139983611c45565b905060006113a684610dfe565b9050603b60009054906101000a90046001600160a01b03166001600160a01b0316639895880f6040518163ffffffff1660e01b815260040160206040518083038186803b1580156113f657600080fd5b505afa15801561140a573d6000803e3d6000fd5b505050506040513d602081101561142057600080fd5b505160408051630e525ed960e21b81526001600160a01b038781166004830152915191909216916339497b64916024808301926020929190829003018186803b15801561146c57600080fd5b505afa158015611480573d6000803e3d6000fd5b505050506040513d602081101561149657600080fd5b50516114c1576114b8670de0b6b3a7640000610880848463ffffffff612e4516565b92505050610893565b6001600160a01b0384166000908152603a60205260409020600181015460029091015461138591670de0b6b3a76400009161088091611506919063ffffffff612e4516565b610867868663ffffffff612e4516565b600080603b60009054906101000a90046001600160a01b03166001600160a01b0316639895880f6040518163ffffffff1660e01b815260040160206040518083038186803b15801561156757600080fd5b505afa15801561157b573d6000803e3d6000fd5b505050506040513d602081101561159157600080fd5b505160408051637e5a4eb960e01b81526001600160a01b03868116600483015291519190921691637e5a4eb9916024808301926020929190829003018186803b1580156115dd57600080fd5b505afa1580156115f1573d6000803e3d6000fd5b505050506040513d602081101561160757600080fd5b50516001600160a01b0380851660009081526034602090815260408083205460338352818420549486168452603590925290912054929350611655929091610867919063ffffffff612da516565b9392505050565b60386020526000908152604090205481565b600e81565b603760209081526000928352604080842090915290825290205481565b6001600160a01b038116600090815260386020526040812054670de0b6b3a7640000816116c05791506108939050565b6001600160a01b0384166000908152603660209081526040808320858452909152812054906108328661138d565b603b60009054906101000a90046001600160a01b03166001600160a01b031663cc5738b56040518163ffffffff1660e01b815260040160206040518083038186803b15801561173c57600080fd5b505afa158015611750573d6000803e3d6000fd5b505050506040513d602081101561176657600080fd5b50516001600160a01b03163314806117ff5750603b60009054906101000a90046001600160a01b03166001600160a01b03166368cd03f66040518163ffffffff1660e01b815260040160206040518083038186803b1580156117c757600080fd5b505afa1580156117db573d6000803e3d6000fd5b505050506040513d60208110156117f157600080fd5b50516001600160a01b031633145b61183a5760405162461bcd60e51b8152600401808060200182810382526038815260200180613b556038913960400191505060405180910390fd5b8061187d576040805162461bcd60e51b815260206004820152600e60248201526d416d6f756e74206973207a65726f60901b604482015290519081900360640190fd5b6118868261232e565b603b60009054906101000a90046001600160a01b03166001600160a01b03166368cd03f66040518163ffffffff1660e01b815260040160206040518083038186803b1580156118d457600080fd5b505afa1580156118e8573d6000803e3d6000fd5b505050506040513d60208110156118fe57600080fd5b505160408051638340f54960e01b81526001600160a01b03868116600483015285811660248301526044820185905291519190921691638340f54991606480830192600092919082900301818387803b15801561195a57600080fd5b505af115801561196e573d6000803e3d6000fd5b5050505060006119808383600061122e565b905080156111a857603b60009054906101000a90046001600160a01b03166001600160a01b031663cc5738b56040518163ffffffff1660e01b815260040160206040518083038186803b1580156119d657600080fd5b505afa1580156119ea573d6000803e3d6000fd5b505050506040513d6020811015611a0057600080fd5b505160408051638280e5a960e01b81526001600160a01b0386811660048301526024820185905291519190921691638280e5a991604480830192600092919082900301818387803b15801561118f57600080fd5b6000610dd460356000603b60009054906101000a90046001600160a01b03166001600160a01b0316639895880f6040518163ffffffff1660e01b815260040160206040518083038186803b158015611aab57600080fd5b505afa158015611abf573d6000803e3d6000fd5b505050506040513d6020811015611ad557600080fd5b505160408051637e5a4eb960e01b81526001600160a01b03888116600483015291519190921691637e5a4eb9916024808301926020929190829003018186803b158015611b2157600080fd5b505afa158015611b35573d6000803e3d6000fd5b505050506040513d6020811015611b4b57600080fd5b50516001600160a01b0390811682526020828101939093526040918201600090812054918716815260349093529120549063ffffffff612da516565b600054610100900460ff1680611ba05750611ba06139a7565b80611bae575060005460ff16155b611be95760405162461bcd60e51b815260040180806020018281038252602e815260200180613b27602e913960400191505060405180910390fd5b600054610100900460ff16158015611c14576000805460ff1961ff0019909116610100171660011790555b603b80546001600160a01b0319166001600160a01b0384161790558015611c41576000805461ff00191690555b5050565b603b5460408051639895880f60e01b815290516000926001600160a01b031691639895880f916004808301926020929190829003018186803b158015611c8a57600080fd5b505afa158015611c9e573d6000803e3d6000fd5b505050506040513d6020811015611cb457600080fd5b505160408051630e525ed960e21b81526001600160a01b038581166004830152915191909216916339497b64916024808301926020929190829003018186803b158015611d0057600080fd5b505afa158015611d14573d6000803e3d6000fd5b505050506040513d6020811015611d2a57600080fd5b5051611e4757611e4062201480610880603b60009054906101000a90046001600160a01b03166001600160a01b031663b442a2066040518163ffffffff1660e01b815260040160206040518083038186803b158015611d8857600080fd5b505afa158015611d9c573d6000803e3d6000fd5b505050506040513d6020811015611db257600080fd5b5051603b5460408051637664c38560e11b8152905161086792670de0b6b3a764000092610880926001600160a01b039092169163ecc9870a91600480820192602092909190829003018186803b158015611e0b57600080fd5b505afa158015611e1f573d6000803e3d6000fd5b505050506040513d6020811015611e3557600080fd5b505161085b8a610dfe565b9050610893565b610dd4600a610880611ef4603b60009054906101000a90046001600160a01b03166001600160a01b03166313afb8ef6040518163ffffffff1660e01b815260040160206040518083038186803b158015611ea057600080fd5b505afa158015611eb4573d6000803e3d6000fd5b505050506040513d6020811015611eca57600080fd5b50516001600160a01b0387166000908152603a60205260409020600301549063ffffffff612e4516565b603b54604080516308fafb8d60e01b81529051610867926001600160a01b0316916308fafb8d916004808301926020929190829003018186803b158015611f3a57600080fd5b505afa158015611f4e573d6000803e3d6000fd5b505050506040513d6020811015611f6457600080fd5b50516001600160a01b0388166000908152603a60205260409020600201549063ffffffff612e4516565b6220148081565b670de0b6b3a764000081565b603b546040805163cc5738b560e01b815290516000926001600160a01b03169163cc5738b5916004808301926020929190829003018186803b158015611fe657600080fd5b505afa158015611ffa573d6000803e3d6000fd5b505050506040513d602081101561201057600080fd5b50516001600160a01b03163314806120a95750603b60009054906101000a90046001600160a01b03166001600160a01b03166368cd03f66040518163ffffffff1660e01b815260040160206040518083038186803b15801561207157600080fd5b505afa158015612085573d6000803e3d6000fd5b505050506040513d602081101561209b57600080fd5b50516001600160a01b031633145b6120e45760405162461bcd60e51b8152600401808060200182810382526038815260200180613b556038913960400191505060405180910390fd5b81612127576040805162461bcd60e51b815260206004820152600e60248201526d416d6f756e74206973207a65726f60901b604482015290519081900360640190fd5b6121308361232e565b603b546040805163346681fb60e11b815290516000926001600160a01b0316916368cd03f6916004808301926020929190829003018186803b15801561217557600080fd5b505afa158015612189573d6000803e3d6000fd5b505050506040513d602081101561219f57600080fd5b505160408051636ce5768960e11b81526001600160a01b0388811660048301528781166024830152604482018790529151919092169163d9caed129160648083019260209291908290030181600087803b1580156121fc57600080fd5b505af1158015612210573d6000803e3d6000fd5b505050506040513d602081101561222657600080fd5b5051905060006122388583600161122e565b9050801561232557603b60009054906101000a90046001600160a01b03166001600160a01b031663cc5738b56040518163ffffffff1660e01b815260040160206040518083038186803b15801561228e57600080fd5b505afa1580156122a2573d6000803e3d6000fd5b505050506040513d60208110156122b857600080fd5b50516040805163526e93cb60e01b81526001600160a01b038881166004830152602482018590529151919092169163526e93cb91604480830192600092919082900301818387803b15801561230c57600080fd5b505af1158015612320573d6000803e3d6000fd5b505050505b50949350505050565b603b60009054906101000a90046001600160a01b03166001600160a01b031663cc5738b56040518163ffffffff1660e01b815260040160206040518083038186803b15801561237c57600080fd5b505afa158015612390573d6000803e3d6000fd5b505050506040513d60208110156123a657600080fd5b50516001600160a01b031633148061243f5750603b60009054906101000a90046001600160a01b03166001600160a01b03166368cd03f66040518163ffffffff1660e01b815260040160206040518083038186803b15801561240757600080fd5b505afa15801561241b573d6000803e3d6000fd5b505050506040513d602081101561243157600080fd5b50516001600160a01b031633145b61247a5760405162461bcd60e51b8152600401808060200182810382526038815260200180613b556038913960400191505060405180910390fd5b6000612484612dff565b6001600160a01b0383166000908152603860205260409020549091508114156124ad5750612c36565b603b5460408051639895880f60e01b81529051670de0b6b3a7640000926000926001600160a01b0390911691639895880f91600480820192602092909190829003018186803b1580156124ff57600080fd5b505afa158015612513573d6000803e3d6000fd5b505050506040513d602081101561252957600080fd5b505160408051637e5a4eb960e01b81526001600160a01b03878116600483015291519190921691637e5a4eb9916024808301926020929190829003018186803b15801561257557600080fd5b505afa158015612589573d6000803e3d6000fd5b505050506040513d602081101561259f57600080fd5b50516001600160a01b0385166000908152603860205260409020549091508061283a576001600160a01b03821661262a576001600160a01b0385166000818152603a60209081526040808320805460ff191690556037825280832088845282528083208790558383526036825280832088845282528083208790559282526038905220849055612835565b6001600160a01b038086166000908152603a60209081526040808320805460ff19166001179055805163bd6d894d60e01b81529051929386169263bd6d894d9260048084019391929182900301818787803b15801561268857600080fd5b505af115801561269c573d6000803e3d6000fd5b505050506040513d60208110156126b257600080fd5b505190506126bf86612c4b565b603a6000886001600160a01b03166001600160a01b0316815260200190815260200160002060010181905550826001600160a01b031663f8f9da286040518163ffffffff1660e01b815260040160206040518083038186803b15801561272457600080fd5b505afa158015612738573d6000803e3d6000fd5b505050506040513d602081101561274e57600080fd5b50516001600160a01b038088166000908152603a6020908152604091829020600301939093558051630ae9d70b60e41b815290519186169263ae9d70b092600480840193829003018186803b1580156127a657600080fd5b505afa1580156127ba573d6000803e3d6000fd5b505050506040513d60208110156127d057600080fd5b50516001600160a01b038088166000818152603a6020908152604080832060020195909555603781528482208a83528152848220899055828252603681528482208a835281528482208990559181526038825283812089905591861682526039905220555b612afd565b6001600160a01b0382166128d6576001600160a01b0385166000908152603a60205260409020805460ff19169055612871856107d4565b6001600160a01b038616600090815260376020908152604080832088845290915290205561289e85611690565b6001600160a01b0386166000818152603660209081526040808320898452825280832094909455918152603890915220849055612afd565b6001600160a01b038086166000908152603a60209081526040808320805460ff19166001179055805163bd6d894d60e01b81529051929386169263bd6d894d9260048084019391929182900301818787803b15801561293457600080fd5b505af1158015612948573d6000803e3d6000fd5b505050506040513d602081101561295e57600080fd5b5051905061296b86612c4b565b603a6000886001600160a01b03166001600160a01b0316815260200190815260200160002060010181905550826001600160a01b031663f8f9da286040518163ffffffff1660e01b815260040160206040518083038186803b1580156129d057600080fd5b505afa1580156129e4573d6000803e3d6000fd5b505050506040513d60208110156129fa57600080fd5b50516001600160a01b0387166000908152603a6020908152604080832060030193909355603890522054612a6a90612a3990879063ffffffff612e0316565b6001600160a01b03851660009081526039602052604090205461088090879061084f9083878463ffffffff612e4516565b6001600160a01b0387166000908152603a6020526040902060020155612a8f866107d4565b6001600160a01b0387166000908152603760209081526040808320898452909152902055612abc86611690565b6001600160a01b0380881660008181526036602090815260408083208b84528252808320959095559181526038825283812089905591861682526039905220555b6001600160a01b03851660009081526037602090815260408083208784529091529020548314612b86576001600160a01b038516600081815260376020908152604080832085845282528083205488845281842054948452603390925290912054612b6c926108809190612e45565b6001600160a01b0386166000908152603360205260409020555b6001600160a01b03851660008181526036602052604081207f1cc14bf94d8329e459fdcf4f38c293236b70411487793b5c07ac7448c788c25291612bc8612dff565b81526020019081526020016000205460376000896001600160a01b03166001600160a01b031681526020019081526020016000206000612c06612dff565b815260200190815260200160002054604051808381526020018281526020019250505060405180910390a2505050505b50565b60396020526000908152604090205481565b600080603b60009054906101000a90046001600160a01b03166001600160a01b0316639895880f6040518163ffffffff1660e01b815260040160206040518083038186803b158015612c9c57600080fd5b505afa158015612cb0573d6000803e3d6000fd5b505050506040513d6020811015612cc657600080fd5b505160408051637e5a4eb960e01b81526001600160a01b03868116600483015291519190921691637e5a4eb9916024808301926020929190829003018186803b158015612d1257600080fd5b505afa158015612d26573d6000803e3d6000fd5b505050506040513d6020811015612d3c57600080fd5b50516001600160a01b038116600090815260356020526040902054909150612d68576000915050610893565b610e52612d7484611516565b6001600160a01b03831660009081526035602052604090205461088090670de0b6b3a764000063ffffffff612e4516565b600082820183811015611655576040805162461bcd60e51b815260206004820152601b60248201527f536166654d6174683a206164646974696f6e206f766572666c6f770000000000604482015290519081900360640190fd5b4390565b600061165583836040518060400160405280601e81526020017f536166654d6174683a207375627472616374696f6e206f766572666c6f7700008152506139ad565b600082612e5457506000610dd4565b82820282848281612e6157fe5b04146116555760405162461bcd60e51b8152600401808060200182810382526021815260200180613b066021913960400191505060405180910390fd5b600061165583836040518060400160405280601a81526020017f536166654d6174683a206469766973696f6e206279207a65726f000000000000815250613a44565b603b5460408051639895880f60e01b815290516000926001600160a01b031691639895880f916004808301926020929190829003018186803b158015612f2557600080fd5b505afa158015612f39573d6000803e3d6000fd5b505050506040513d6020811015612f4f57600080fd5b505160408051637e5a4eb960e01b81526001600160a01b03858116600483015291519190921691637e5a4eb9916024808301926020929190829003018186803b158015612f9b57600080fd5b505afa158015612faf573d6000803e3d6000fd5b505050506040513d6020811015612fc557600080fd5b505190506001600160a01b03811615611c4157806001600160a01b0316633af9e669603b60009054906101000a90046001600160a01b03166001600160a01b031663cc5738b56040518163ffffffff1660e01b815260040160206040518083038186803b15801561303557600080fd5b505afa158015613049573d6000803e3d6000fd5b505050506040513d602081101561305f57600080fd5b5051604080516001600160e01b031960e085901b1681526001600160a01b0390921660048301525160248083019260209291908290030181600087803b1580156130a857600080fd5b505af11580156130bc573d6000803e3d6000fd5b505050506040513d60208110156130d257600080fd5b50516001600160a01b0382166000908152603560205260409020555050565b600080603b60009054906101000a90046001600160a01b03166001600160a01b0316639895880f6040518163ffffffff1660e01b815260040160206040518083038186803b15801561314257600080fd5b505afa158015613156573d6000803e3d6000fd5b505050506040513d602081101561316c57600080fd5b505160408051637e5a4eb960e01b81526001600160a01b03888116600483015291519190921691637e5a4eb9916024808301926020929190829003018186803b1580156131b857600080fd5b505afa1580156131cc573d6000803e3d6000fd5b505050506040513d60208110156131e257600080fd5b5051905060006131f186611516565b905060ff84161580613206575060ff84166003145b156134bc5760ff841661322a57613223818663ffffffff612da516565b905061326d565b6001600160a01b038616600090815260336020526040902054613253908663ffffffff612e0316565b6001600160a01b0387166000908152603360205260409020555b6001600160a01b038616600090815260346020526040812054613296908763ffffffff612da516565b90506001600160a01b0383161580159061333d575061333a6064610880603b60009054906101000a90046001600160a01b03166001600160a01b031663268c74e46040518163ffffffff1660e01b815260040160206040518083038186803b15801561330157600080fd5b505afa158015613315573d6000803e3d6000fd5b505050506040513d602081101561332b57600080fd5b5051859063ffffffff612e4516565b81115b156134735760006133e36133d66064610880603b60009054906101000a90046001600160a01b03166001600160a01b031663c36938966040518163ffffffff1660e01b815260040160206040518083038186803b15801561339d57600080fd5b505afa1580156133b1573d6000803e3d6000fd5b505050506040513d60208110156133c757600080fd5b5051879063ffffffff612e4516565b839063ffffffff612e0316565b6001600160a01b038516600090815260356020526040902054909550859150613412908263ffffffff612da516565b6001600160a01b03808616600090815260356020908152604080832094909455918b1681526034909152205461345490829061084f908a63ffffffff612da516565b6001600160a01b038916600090815260346020526040902055506134b6565b6001600160a01b03871660009081526034602052604090205461349c908763ffffffff612da516565b6001600160a01b0388166000908152603460205260409020555b5061399e565b60ff8416600114156135ac576001600160a01b0386166000908152603360205260409020541561354857846134f087611a54565b1015613543576040805162461bcd60e51b815260206004820181905260248201527f4c61636b206f66206c6971756964697479207768656e2077697468647261772e604482015290519081900360640190fd5b61359c565b8461355287611a54565b101561359c576001600160a01b03821660009081526035602052604090205461358290869063ffffffff612e0316565b6001600160a01b0387166000908152603460205260409020555b6135a586611516565b9050613609565b846135b687611a54565b1015613609576040805162461bcd60e51b815260206004820152601e60248201527f4c61636b206f66206c6971756964697479207768656e20626f72726f772e0000604482015290519081900360640190fd5b60ff84166001141561362c57613625818663ffffffff612e0316565b905061366f565b6001600160a01b038616600090815260336020526040902054613655908663ffffffff612da516565b6001600160a01b0387166000908152603360205260409020555b6001600160a01b03861660009081526034602052604081205486106136955760006136be565b6001600160a01b0387166000908152603460205260409020546136be908763ffffffff612e0316565b90506001600160a01b03831615801590613734575081158061373457506137316064610880603b60009054906101000a90046001600160a01b03166001600160a01b0316635a596d1c6040518163ffffffff1660e01b815260040160206040518083038186803b15801561330157600080fd5b81105b15613959576001600160a01b03808416600090815260356020908152604080832054938b1683526034909152812054909161377b91899161084f919063ffffffff612da516565b905061380c6064610880603b60009054906101000a90046001600160a01b03166001600160a01b031663c36938966040518163ffffffff1660e01b815260040160206040518083038186803b1580156137d357600080fd5b505afa1580156137e7573d6000803e3d6000fd5b505050506040513d60208110156137fd57600080fd5b5051869063ffffffff612e4516565b81101561384b576001600160a01b038085166000908152603560209081526040808320805490849055938c168352603490915290208290559450613953565b60006138df6133d66064610880603b60009054906101000a90046001600160a01b03166001600160a01b031663c36938966040518163ffffffff1660e01b815260040160206040518083038186803b1580156138a657600080fd5b505afa1580156138ba573d6000803e3d6000fd5b505050506040513d60208110156138d057600080fd5b5051889063ffffffff612e4516565b6001600160a01b03861660009081526035602052604090205490915061390b908263ffffffff612e0316565b6001600160a01b03861660009081526035602052604090208290559550613938828263ffffffff612e0316565b6001600160a01b038a16600090815260346020526040902055505b5061399c565b6001600160a01b038716600090815260346020526040902054613982908763ffffffff612e0316565b6001600160a01b0388166000908152603460205260409020555b505b50509392505050565b303b1590565b60008184841115613a3c5760405162461bcd60e51b81526004018080602001828103825283818151815260200191508051906020019080838360005b83811015613a015781810151838201526020016139e9565b50505050905090810190601f168015613a2e5780820380516001836020036101000a031916815260200191505b509250505060405180910390fd5b505050900390565b60008183613a935760405162461bcd60e51b8152602060048201818152835160248401528351909283926044909101919085019080838360008315613a015781810151838201526020016139e9565b506000838581613a9f57fe5b049594505050505056fe546f6b656e20426f72726f775072696e636970616c206d7573742062652067726561746572207468616e20302e20546f206465706f7369742062616c616e63652c20706c6561736520757365206465706f73697420627574746f6e2e536166654d6174683a206d756c7469706c69636174696f6e206f766572666c6f77436f6e747261637420696e7374616e63652068617320616c7265616479206265656e20696e697469616c697a65644f6e6c7920617574686f72697a656420746f2063616c6c2066726f6d20446546696e657220696e7465726e616c20636f6e7472616374732ea265627a7a723158206571ce42034e7d25bab0dd6558d5416b32e8652accf217a979d0b115b87abd3264736f6c634300050e0032",
  "source": "pragma solidity 0.5.14;\n\nimport \"openzeppelin-solidity/contracts/math/SafeMath.sol\";\nimport \"./config/Constant.sol\";\nimport \"./config/GlobalConfig.sol\";\nimport { ICToken } from \"./compound/ICompound.sol\";\nimport { ICETH } from \"./compound/ICompound.sol\";\nimport \"@openzeppelin/upgrades/contracts/Initializable.sol\";\n// import \"@nomiclabs/buidler/console.sol\";\n\ncontract Bank is Constant, Initializable{\n    using SafeMath for uint256;\n\n    mapping(address => uint256) public totalLoans;     // amount of lended tokens\n    mapping(address => uint256) public totalReserve;   // amount of tokens in reservation\n    mapping(address => uint256) public totalCompound;  // amount of tokens in compound\n    // Token => block-num => rate\n    mapping(address => mapping(uint => uint)) public depositeRateIndex; // the index curve of deposit rate\n    // Token => block-num => rate\n    mapping(address => mapping(uint => uint)) public borrowRateIndex;   // the index curve of borrow rate\n    // token address => block number\n    mapping(address => uint) public lastCheckpoint;            // last checkpoint on the index curve\n    // cToken address => rate\n    mapping(address => uint) public lastCTokenExchangeRate;    // last compound cToken exchange rate\n    mapping(address => ThirdPartyPool) compoundPool;    // the compound pool\n\n    GlobalConfig globalConfig;            // global configuration contract address\n\n    modifier onlyInternal() {\n        require(msg.sender == address(globalConfig.savingAccount()) || msg.sender == address(globalConfig.accounts()),\n            \"Only authorized to call from DeFiner internal contracts.\");\n        _;\n    }\n\n    struct ThirdPartyPool {\n        bool supported;             // if the token is supported by the third party platforms such as Compound\n        uint capitalRatio;          // the ratio of the capital in third party to the total asset\n        uint depositRatePerBlock;   // the deposit rate of the token in third party\n        uint borrowRatePerBlock;    // the borrow rate of the token in third party\n    }\n\n    event UpdateIndex(address indexed token, uint256 depositeRateIndex, uint256 borrowRateIndex);\n\n    /**\n     * Initialize the Bank\n     * @param _globalConfig the global configuration contract\n     */\n    function initialize(\n        GlobalConfig _globalConfig\n    ) public initializer {\n        globalConfig = _globalConfig;\n    }\n\n    /**\n     * Total amount of the token in Saving account\n     * @param _token token address\n     */\n    function getTotalDepositStore(address _token) public view returns(uint) {\n        address cToken = globalConfig.tokenInfoRegistry().getCToken(_token);\n        // totalLoans[_token] = U   totalReserve[_token] = R\n        return totalCompound[cToken].add(totalLoans[_token]).add(totalReserve[_token]); // return totalAmount = C + U + R\n    }\n\n    /**\n     * Update total amount of token in Compound as the cToken price changed\n     * @param _token token address\n     */\n    function updateTotalCompound(address _token) internal {\n        address cToken = globalConfig.tokenInfoRegistry().getCToken(_token);\n        if(cToken != address(0)) {\n            totalCompound[cToken] = ICToken(cToken).balanceOfUnderlying(address(globalConfig.savingAccount()));\n        }\n    }\n\n    /**\n     * Update the total reservation. Before run this function, make sure that totalCompound has been updated\n     * by calling updateTotalCompound. Otherwise, totalCompound may not equal to the exact amount of the\n     * token in Compound.\n     * @param _token token address\n     * @param _action indicate if user's operation is deposit or withdraw, and borrow or repay.\n     * @return the actuall amount deposit/withdraw from the saving pool\n     */\n    function updateTotalReserve(address _token, uint _amount, uint8 _action) internal returns(uint256 compoundAmount){\n        address cToken = globalConfig.tokenInfoRegistry().getCToken(_token);\n        uint totalAmount = getTotalDepositStore(_token);\n        if (_action == uint8(0) || _action == uint8(3)) {\n            // Total amount of token after deposit or repay\n            if (_action == uint8(0))\n                totalAmount = totalAmount.add(_amount);\n            else\n                totalLoans[_token] = totalLoans[_token].sub(_amount);\n\n            // Expected total amount of token in reservation after deposit or repay\n            uint totalReserveBeforeAdjust = totalReserve[_token].add(_amount);\n\n            if (cToken != address(0) &&\n            totalReserveBeforeAdjust > totalAmount.mul(globalConfig.maxReserveRatio()).div(100)) {\n                uint toCompoundAmount = totalReserveBeforeAdjust.sub(totalAmount.mul(globalConfig.midReserveRatio()).div(100));\n                //toCompound(_token, toCompoundAmount);\n                compoundAmount = toCompoundAmount;\n                totalCompound[cToken] = totalCompound[cToken].add(toCompoundAmount);\n                totalReserve[_token] = totalReserve[_token].add(_amount).sub(toCompoundAmount);\n            }\n            else {\n                totalReserve[_token] = totalReserve[_token].add(_amount);\n            }\n        } else {\n            // The lack of liquidity exception happens when the pool doesn't have enough tokens for borrow/withdraw\n            // It happens when part of the token has lended to the other accounts.\n            // However in case of withdrawAll, even if the token has no loan, this requirment may still false because\n            // of the precision loss in the rate calcuation. So we put a logic here to deal with this case: in case\n            // of withdrawAll and there is no loans for the token, we just adjust the balance in bank contract to the\n            // to the balance of that individual account.\n            if(_action == uint8(1)) {\n                if(totalLoans[_token] != 0)\n                    require(getPoolAmount(_token) >= _amount, \"Lack of liquidity when withdraw.\");\n                else if (getPoolAmount(_token) < _amount)\n                    totalReserve[_token] = _amount.sub(totalCompound[cToken]);\n                totalAmount = getTotalDepositStore(_token);\n            }\n            else\n                require(getPoolAmount(_token) >= _amount, \"Lack of liquidity when borrow.\");\n\n            // Total amount of token after withdraw or borrow\n            if (_action == uint8(1))\n                totalAmount = totalAmount.sub(_amount);\n            else\n                totalLoans[_token] = totalLoans[_token].add(_amount);\n\n            // Expected total amount of token in reservation after deposit or repay\n            uint totalReserveBeforeAdjust = totalReserve[_token] > _amount ? totalReserve[_token].sub(_amount) : 0;\n\n            // Trigger fromCompound if the new reservation ratio is less than 10%\n            if(cToken != address(0) &&\n            (totalAmount == 0 || totalReserveBeforeAdjust < totalAmount.mul(globalConfig.minReserveRatio()).div(100))) {\n\n                uint totalAvailable = totalReserve[_token].add(totalCompound[cToken]).sub(_amount);\n                if (totalAvailable < totalAmount.mul(globalConfig.midReserveRatio()).div(100)){\n                    // Withdraw all the tokens from Compound\n                    compoundAmount = totalCompound[cToken];\n                    totalCompound[cToken] = 0;\n                    totalReserve[_token] = totalAvailable;\n                } else {\n                    // Withdraw partial tokens from Compound\n                    uint totalInCompound = totalAvailable.sub(totalAmount.mul(globalConfig.midReserveRatio()).div(100));\n                    compoundAmount = totalCompound[cToken].sub(totalInCompound);\n                    totalCompound[cToken] = totalInCompound;\n                    totalReserve[_token] = totalAvailable.sub(totalInCompound);\n                }\n            }\n            else {\n                totalReserve[_token] = totalReserve[_token].sub(_amount);\n            }\n        }\n        return compoundAmount;\n    }\n\n     function update(address _token, uint _amount, uint8 _action) public onlyInternal returns(uint256 compoundAmount) {\n        updateTotalCompound(_token);\n        // updateTotalLoan(_token);\n        compoundAmount = updateTotalReserve(_token, _amount, _action);\n        return compoundAmount;\n    }\n\n    /**\n     * Get the borrowing interest rate Borrowing interest rate.\n     * @param _token token address\n     * @return the borrow rate for the current block\n     */\n    function getBorrowRatePerBlock(address _token) public view returns(uint) {\n        if(!globalConfig.tokenInfoRegistry().isSupportedOnCompound(_token))\n        // If the token is NOT supported by the third party, borrowing rate = 3% + U * 15%.\n            return getCapitalUtilizationRatio(_token).mul(globalConfig.rateCurveSlope()).div(INT_UNIT).add(globalConfig.rateCurveConstant()).div(BLOCKS_PER_YEAR);\n\n        // if the token is suppored in third party, borrowing rate = Compound Supply Rate * 0.4 + Compound Borrow Rate * 0.6\n        return (compoundPool[_token].depositRatePerBlock).mul(globalConfig.compoundSupplyRateWeights()).\n            add((compoundPool[_token].borrowRatePerBlock).mul(globalConfig.compoundBorrowRateWeights())).div(10);\n    }\n\n    /**\n    * Get Deposit Rate.  Deposit APR = (Borrow APR * Utilization Rate (U) +  Compound Supply Rate *\n    * Capital Compound Ratio (C) )* (1- DeFiner Community Fund Ratio (D)). The scaling is 10 ** 18\n    * sichaoy: make sure the ratePerBlock is zero if both U and C are zero.\n    * @param _token token address\n    * @return deposite rate of blocks before the current block\n    */\n    function getDepositRatePerBlock(address _token) public view returns(uint) {\n        uint256 borrowRatePerBlock = getBorrowRatePerBlock(_token);\n        uint256 capitalUtilRatio = getCapitalUtilizationRatio(_token);\n        if(!globalConfig.tokenInfoRegistry().isSupportedOnCompound(_token))\n            return borrowRatePerBlock.mul(capitalUtilRatio).div(INT_UNIT);\n\n        return borrowRatePerBlock.mul(capitalUtilRatio).add(compoundPool[_token].depositRatePerBlock\n            .mul(compoundPool[_token].capitalRatio)).div(INT_UNIT);\n    }\n\n    /**\n     * Get capital utilization. Capital Utilization Rate (U )= total loan outstanding / Total market deposit\n     * @param _token token address\n     */\n    function getCapitalUtilizationRatio(address _token) public view returns(uint) {\n        uint256 totalDepositsNow = getTotalDepositStore(_token);\n        if(totalDepositsNow == 0) {\n            return 0;\n        } else {\n            return totalLoans[_token].mul(INT_UNIT).div(totalDepositsNow);\n        }\n    }\n\n    /**\n     * Ratio of the capital in Compound\n     * @param _token token address\n     */\n    function getCapitalCompoundRatio(address _token) public view returns(uint) {\n        address cToken = globalConfig.tokenInfoRegistry().getCToken(_token);\n        if(totalCompound[cToken] == 0 ) {\n            return 0;\n        } else {\n            return uint(totalCompound[cToken].mul(INT_UNIT).div(getTotalDepositStore(_token)));\n        }\n    }\n\n    /**\n     * Get the cummulative deposit rate in a block interval ending in current block\n     * @param _token token address\n     * @param _depositRateRecordStart the start block of the interval\n     * @dev This function should always be called after current block is set as a new rateIndex point.\n     */\n    // sichaoy: this function could be more general to have an end checkpoit as a parameter.\n    // sichaoy: require:what if a index point doesn't exist?\n    function getDepositAccruedRate(address _token, uint _depositRateRecordStart) public view returns (uint256) {\n        uint256 depositRate = depositeRateIndex[_token][_depositRateRecordStart];\n        uint256 UNIT = INT_UNIT;\n        if (depositRate == 0) {\n            return UNIT;    // return UNIT if the checkpoint doesn't exist\n        } else {\n            // sichaoy: to check that the current block rate index already exist\n            return depositeRateIndex[_token][getBlockNumber()].mul(UNIT).div(depositRate); // index(current block)/index(start block)\n        }\n    }\n\n    /**\n     * Get the cummulative borrow rate in a block interval ending in current block\n     * @param _token token address\n     * @param _borrowRateRecordStart the start block of the interval\n     * @dev This function should always be called after current block is set as a new rateIndex point.\n     */\n    // sichaoy: actually the rate + 1, add a require statement here to make sure\n    // the checkpoint for current block exists.\n    function getBorrowAccruedRate(address _token, uint _borrowRateRecordStart) public view returns (uint256) {\n        uint256 borrowRate = borrowRateIndex[_token][_borrowRateRecordStart];\n        uint256 UNIT = INT_UNIT;\n        if (borrowRate == 0) {\n            // when block is same\n            return UNIT;\n        } else {\n            // rate change\n            return borrowRateIndex[_token][getBlockNumber()].mul(UNIT).div(borrowRate);\n        }\n    }\n\n    /**\n     * Set a new rate index checkpoint.\n     * @param _token token address\n     * @dev The rate set at the checkpoint is the rate from the last checkpoint to this checkpoint\n     */\n    function newRateIndexCheckpoint(address _token) public onlyInternal {\n\n        // return if the rate check point already exists\n        uint blockNumber = getBlockNumber();\n        if (blockNumber == lastCheckpoint[_token])\n            return;\n\n        uint256 UNIT = INT_UNIT;\n        address cToken = globalConfig.tokenInfoRegistry().getCToken(_token);\n\n        // If it is the first check point, initialize the rate index\n        uint256 previousCheckpoint = lastCheckpoint[_token];\n        if (lastCheckpoint[_token] == 0) {\n            if(cToken == address(0)) {\n                compoundPool[_token].supported = false;\n                borrowRateIndex[_token][blockNumber] = UNIT;\n                depositeRateIndex[_token][blockNumber] = UNIT;\n                // Update the last checkpoint\n                lastCheckpoint[_token] = blockNumber;\n            }\n            else {\n                compoundPool[_token].supported = true;\n                uint cTokenExchangeRate = ICToken(cToken).exchangeRateCurrent();\n                // Get the curretn cToken exchange rate in Compound, which is need to calculate DeFiner's rate\n                // sichaoy: How to deal with the issue capitalRatio is zero if looking forward (An estimation)\n                compoundPool[_token].capitalRatio = getCapitalCompoundRatio(_token);\n                compoundPool[_token].borrowRatePerBlock = ICToken(cToken).borrowRatePerBlock();  // initial value\n                compoundPool[_token].depositRatePerBlock = ICToken(cToken).supplyRatePerBlock(); // initial value\n                borrowRateIndex[_token][blockNumber] = UNIT;\n                depositeRateIndex[_token][blockNumber] = UNIT;\n                // Update the last checkpoint\n                lastCheckpoint[_token] = blockNumber;\n                lastCTokenExchangeRate[cToken] = cTokenExchangeRate;\n            }\n\n        } else {\n            if(cToken == address(0)) {\n                compoundPool[_token].supported = false;\n                borrowRateIndex[_token][blockNumber] = borrowRateIndexNow(_token);\n                depositeRateIndex[_token][blockNumber] = depositRateIndexNow(_token);\n                // Update the last checkpoint\n                lastCheckpoint[_token] = blockNumber;\n            } else {\n                compoundPool[_token].supported = true;\n                uint cTokenExchangeRate = ICToken(cToken).exchangeRateCurrent();\n                // Get the curretn cToken exchange rate in Compound, which is need to calculate DeFiner's rate\n                compoundPool[_token].capitalRatio = getCapitalCompoundRatio(_token);\n                compoundPool[_token].borrowRatePerBlock = ICToken(cToken).borrowRatePerBlock();\n                compoundPool[_token].depositRatePerBlock = cTokenExchangeRate.mul(UNIT).div(lastCTokenExchangeRate[cToken])\n                    .sub(UNIT).div(blockNumber.sub(lastCheckpoint[_token]));\n                borrowRateIndex[_token][blockNumber] = borrowRateIndexNow(_token);\n                depositeRateIndex[_token][blockNumber] = depositRateIndexNow(_token);\n                // Update the last checkpoint\n                lastCheckpoint[_token] = blockNumber;\n                lastCTokenExchangeRate[cToken] = cTokenExchangeRate;\n            }\n        }\n\n        // Update the total loan\n        if(borrowRateIndex[_token][blockNumber] != UNIT) {\n            totalLoans[_token] = totalLoans[_token].mul(borrowRateIndex[_token][blockNumber])\n                .div(borrowRateIndex[_token][previousCheckpoint]);\n        }\n\n        emit UpdateIndex(_token, depositeRateIndex[_token][getBlockNumber()], borrowRateIndex[_token][getBlockNumber()]);\n    }\n\n    /**\n     * Calculate a token deposite rate of current block\n     * @param _token token address\n     * @dev This is an looking forward estimation from last checkpoint and not the exactly rate that the user will pay or earn.\n     * change name to depositRateIndexForward? or EstimateDepositRateIndex?\n     */\n    function depositRateIndexNow(address _token) public view returns(uint) {\n        uint256 lcp = lastCheckpoint[_token];\n        uint256 UNIT = INT_UNIT;\n        // If this is the first checkpoint, set the index be 1.\n        if(lcp == 0)\n            return UNIT;\n\n        uint256 lastDepositeRateIndex = depositeRateIndex[_token][lcp];\n        uint256 depositRatePerBlock = getDepositRatePerBlock(_token);\n        // newIndex = oldIndex*(1+r*delta_block). If delta_block = 0, i.e. the last checkpoint is current block, index doesn't change.\n        return lastDepositeRateIndex.mul(getBlockNumber().sub(lcp).mul(depositRatePerBlock).add(UNIT)).div(UNIT);\n    }\n\n    /**\n     * Calculate a token borrow rate of current block\n     * @param _token token address\n     */\n    function borrowRateIndexNow(address _token) public view returns(uint) {\n        uint256 lcp = lastCheckpoint[_token];\n        uint256 UNIT = INT_UNIT;\n        // If this is the first checkpoint, set the index be 1.\n        if(lcp == 0)\n            return UNIT;\n        uint256 lastBorrowRateIndex = borrowRateIndex[_token][lcp];\n        uint256 borrowRatePerBlock = getBorrowRatePerBlock(_token);\n        return lastBorrowRateIndex.mul(getBlockNumber().sub(lcp).mul(borrowRatePerBlock).add(UNIT)).div(UNIT);\n    }\n\n    /**\n\t * Get the state of the given token\n     * @param _token token address\n\t */\n    function getTokenState(address _token) public view returns (uint256 deposits, uint256 loans, uint256 reserveBalance, uint256 remainingAssets){\n        return (\n        getTotalDepositStore(_token),\n        totalLoans[_token],\n        totalReserve[_token],\n        totalReserve[_token].add(totalCompound[globalConfig.tokenInfoRegistry().getCToken(_token)])\n        );\n    }\n\n    function getPoolAmount(address _token) public view returns(uint) {\n        return totalReserve[_token].add(totalCompound[globalConfig.tokenInfoRegistry().getCToken(_token)]);\n    }\n // sichaoy: should not be public, why cannot we find _tokenIndex from token address?\n    function deposit(address _to, address _token, uint256 _amount) public onlyInternal {\n\n        require(_amount != 0, \"Amount is zero\");\n\n        // Add a new checkpoint on the index curve.\n        newRateIndexCheckpoint(_token);\n\n        // Update tokenInfo. Add the _amount to principal, and update the last deposit block in tokenInfo\n        globalConfig.accounts().deposit(_to, _token, _amount);\n\n        // Update the amount of tokens in compound and loans, i.e. derive the new values\n        // of C (Compound Ratio) and U (Utilization Ratio).\n        uint compoundAmount = update(_token, _amount, uint8(0));\n\n        if(compoundAmount > 0) {\n            globalConfig.savingAccount().toCompound(_token, compoundAmount);\n        }\n    }\n\n    function borrow(address _from, address _token, uint256 _amount) public onlyInternal {\n\n        // Add a new checkpoint on the index curve.\n        newRateIndexCheckpoint(_token);\n\n        // Update tokenInfo for the user\n        globalConfig.accounts().borrow(_from, _token, _amount);\n\n        // Update pool balance\n        // Update the amount of tokens in compound and loans, i.e. derive the new values\n        // of C (Compound Ratio) and U (Utilization Ratio).\n        uint compoundAmount = update(_token, _amount, uint8(2));\n\n        if(compoundAmount > 0) {\n            globalConfig.savingAccount().fromCompound(_token, compoundAmount);\n        }\n    }\n\n    function repay(address _to, address _token, uint256 _amount) public onlyInternal returns(uint) {\n\n        // Add a new checkpoint on the index curve.\n        newRateIndexCheckpoint(_token);\n\n        // Sanity check\n        require(globalConfig.accounts().getBorrowPrincipal(_to, _token) > 0,\n            \"Token BorrowPrincipal must be greater than 0. To deposit balance, please use deposit button.\"\n        );\n\n        // Update tokenInfo\n        uint256 remain = globalConfig.accounts().repay(_to, _token, _amount);\n\n        // Update the amount of tokens in compound and loans, i.e. derive the new values\n        // of C (Compound Ratio) and U (Utilization Ratio).\n        uint compoundAmount = update(_token, _amount.sub(remain), uint8(3));\n        if(compoundAmount > 0) {\n           globalConfig.savingAccount().toCompound(_token, compoundAmount);\n        }\n\n        // Return actual amount repaid\n        return _amount.sub(remain);\n    }\n\n    /**\n     * Withdraw a token from an address\n     * @param _from address to be withdrawn from\n     * @param _token token address\n     * @param _amount amount to be withdrawn\n     * @return The actually amount withdrawed, which will be the amount requested minus the commission fee.\n     */\n    function withdraw(address _from, address _token, uint256 _amount) public onlyInternal returns(uint) {\n\n        require(_amount != 0, \"Amount is zero\");\n\n        // Add a new checkpoint on the index curve.\n        newRateIndexCheckpoint(_token);\n\n        // Withdraw from the account\n        uint amount = globalConfig.accounts().withdraw(_from, _token, _amount);\n\n        // Update pool balance\n        // Update the amount of tokens in compound and loans, i.e. derive the new values\n        // of C (Compound Ratio) and U (Utilization Ratio).\n        uint compoundAmount = update(_token, amount, uint8(1));\n\n        // Check if there are enough tokens in the pool.\n        if(compoundAmount > 0) {\n            globalConfig.savingAccount().fromCompound(_token, compoundAmount);\n        }\n\n        return amount;\n    }\n\n    /**\n     * Get current block number\n     * @return the current block number\n     */\n    function getBlockNumber() private view returns (uint) {\n        return block.number;\n    }\n}\n",
  "sourcePath": "/Users/yanyichun/project/Savings/contracts/Bank.sol",
  "compiler": {
    "name": "solc",
    "version": "0.5.14+commit.01f1aaa4.Emscripten.clang"
  },
  "schemaVersion": "3.3.1",
  "updatedAt": "2020-11-09T00:44:13.901Z",
  "networkType": "ethereum",
  "devdoc": {
    "methods": {
      "borrowRateIndexNow(address)": {
        "params": {
          "_token": "token address"
        }
      },
      "depositRateIndexNow(address)": {
        "details": "This is an looking forward estimation from last checkpoint and not the exactly rate that the user will pay or earn. change name to depositRateIndexForward? or EstimateDepositRateIndex?",
        "params": {
          "_token": "token address"
        }
      },
      "getBorrowAccruedRate(address,uint256)": {
        "details": "This function should always be called after current block is set as a new rateIndex point.",
        "params": {
          "_borrowRateRecordStart": "the start block of the interval",
          "_token": "token address"
        }
      },
      "getBorrowRatePerBlock(address)": {
        "params": {
          "_token": "token address"
        },
        "return": "the borrow rate for the current block"
      },
      "getCapitalCompoundRatio(address)": {
        "params": {
          "_token": "token address"
        }
      },
      "getCapitalUtilizationRatio(address)": {
        "params": {
          "_token": "token address"
        }
      },
      "getDepositAccruedRate(address,uint256)": {
        "details": "This function should always be called after current block is set as a new rateIndex point.",
        "params": {
          "_depositRateRecordStart": "the start block of the interval",
          "_token": "token address"
        }
      },
      "getDepositRatePerBlock(address)": {
        "params": {
          "_token": "token address"
        },
        "return": "deposite rate of blocks before the current block"
      },
      "getTokenState(address)": {
        "params": {
          "_token": "token address"
        }
      },
      "getTotalDepositStore(address)": {
        "params": {
          "_token": "token address"
        }
      },
      "initialize(address)": {
        "params": {
          "_globalConfig": "the global configuration contract"
        }
      },
      "newRateIndexCheckpoint(address)": {
        "details": "The rate set at the checkpoint is the rate from the last checkpoint to this checkpoint",
        "params": {
          "_token": "token address"
        }
      },
      "withdraw(address,address,uint256)": {
        "params": {
          "_amount": "amount to be withdrawn",
          "_from": "address to be withdrawn from",
          "_token": "token address"
        },
        "return": "The actually amount withdrawed, which will be the amount requested minus the commission fee."
      }
    }
  },
  "userdoc": {
    "methods": {
      "borrowRateIndexNow(address)": {
        "notice": "Calculate a token borrow rate of current block"
      },
      "depositRateIndexNow(address)": {
        "notice": "Calculate a token deposite rate of current block"
      },
      "getBorrowAccruedRate(address,uint256)": {
        "notice": "Get the cummulative borrow rate in a block interval ending in current block"
      },
      "getBorrowRatePerBlock(address)": {
        "notice": "Get the borrowing interest rate Borrowing interest rate."
      },
      "getCapitalCompoundRatio(address)": {
        "notice": "Ratio of the capital in Compound"
      },
      "getCapitalUtilizationRatio(address)": {
        "notice": "Get capital utilization. Capital Utilization Rate (U )= total loan outstanding / Total market deposit"
      },
      "getDepositAccruedRate(address,uint256)": {
        "notice": "Get the cummulative deposit rate in a block interval ending in current block"
      },
      "getDepositRatePerBlock(address)": {
        "notice": "Get Deposit Rate.  Deposit APR = (Borrow APR * Utilization Rate (U) +  Compound Supply Rate * Capital Compound Ratio (C) )* (1- DeFiner Community Fund Ratio (D)). The scaling is 10 ** 18 sichaoy: make sure the ratePerBlock is zero if both U and C are zero."
      },
      "getTokenState(address)": {
        "notice": "Get the state of the given token"
      },
      "getTotalDepositStore(address)": {
        "notice": "Total amount of the token in Saving account"
      },
      "initialize(address)": {
        "notice": "Initialize the Bank"
      },
      "newRateIndexCheckpoint(address)": {
        "notice": "Set a new rate index checkpoint."
      },
      "withdraw(address,address,uint256)": {
        "notice": "Withdraw a token from an address"
      }
    }
  }
}