{
  "contractName": "BankWithController",
  "abi": [
    {
      "anonymous": false,
      "inputs": [
        {
          "indexed": true,
          "internalType": "address",
          "name": "token",
          "type": "address"
        },
        {
          "indexed": false,
          "internalType": "uint256",
          "name": "depositeRateIndex",
          "type": "uint256"
        },
        {
          "indexed": false,
          "internalType": "uint256",
          "name": "borrowRateIndex",
          "type": "uint256"
        }
      ],
      "name": "UpdateIndex",
      "type": "event"
    },
    {
      "constant": true,
      "inputs": [],
      "name": "ACCURACY",
      "outputs": [
        {
          "internalType": "uint256",
          "name": "",
          "type": "uint256"
        }
      ],
      "payable": false,
      "stateMutability": "view",
      "type": "function"
    },
    {
      "constant": true,
      "inputs": [],
      "name": "BLOCKS_PER_YEAR",
      "outputs": [
        {
          "internalType": "uint256",
          "name": "",
          "type": "uint256"
        }
      ],
      "payable": false,
      "stateMutability": "view",
      "type": "function"
    },
    {
      "constant": true,
      "inputs": [],
      "name": "EMERGENCY_ADDR",
      "outputs": [
        {
          "internalType": "address payable",
          "name": "",
          "type": "address"
        }
      ],
      "payable": false,
      "stateMutability": "view",
      "type": "function"
    },
    {
      "constant": true,
      "inputs": [],
      "name": "ETH_ADDR",
      "outputs": [
        {
          "internalType": "address",
          "name": "",
          "type": "address"
        }
      ],
      "payable": false,
      "stateMutability": "view",
      "type": "function"
    },
    {
      "constant": true,
      "inputs": [],
      "name": "INT_UNIT",
      "outputs": [
        {
          "internalType": "uint256",
          "name": "",
          "type": "uint256"
        }
      ],
      "payable": false,
      "stateMutability": "view",
      "type": "function"
    },
    {
      "constant": false,
      "inputs": [
        {
          "internalType": "address",
          "name": "_from",
          "type": "address"
        },
        {
          "internalType": "address",
          "name": "_token",
          "type": "address"
        },
        {
          "internalType": "uint256",
          "name": "_amount",
          "type": "uint256"
        }
      ],
      "name": "borrow",
      "outputs": [],
      "payable": false,
      "stateMutability": "nonpayable",
      "type": "function"
    },
    {
      "constant": true,
      "inputs": [
        {
          "internalType": "address",
          "name": "",
          "type": "address"
        },
        {
          "internalType": "uint256",
          "name": "",
          "type": "uint256"
        }
      ],
      "name": "borrowRateIndex",
      "outputs": [
        {
          "internalType": "uint256",
          "name": "",
          "type": "uint256"
        }
      ],
      "payable": false,
      "stateMutability": "view",
      "type": "function"
    },
    {
      "constant": true,
      "inputs": [
        {
          "internalType": "address",
          "name": "_token",
          "type": "address"
        }
      ],
      "name": "borrowRateIndexNow",
      "outputs": [
        {
          "internalType": "uint256",
          "name": "",
          "type": "uint256"
        }
      ],
      "payable": false,
      "stateMutability": "view",
      "type": "function"
    },
    {
      "constant": false,
      "inputs": [
        {
          "internalType": "address",
          "name": "_to",
          "type": "address"
        },
        {
          "internalType": "address",
          "name": "_token",
          "type": "address"
        },
        {
          "internalType": "uint256",
          "name": "_amount",
          "type": "uint256"
        }
      ],
      "name": "deposit",
      "outputs": [],
      "payable": false,
      "stateMutability": "nonpayable",
      "type": "function"
    },
    {
      "constant": true,
      "inputs": [
        {
          "internalType": "address",
          "name": "_token",
          "type": "address"
        }
      ],
      "name": "depositRateIndexNow",
      "outputs": [
        {
          "internalType": "uint256",
          "name": "",
          "type": "uint256"
        }
      ],
      "payable": false,
      "stateMutability": "view",
      "type": "function"
    },
    {
      "constant": true,
      "inputs": [
        {
          "internalType": "address",
          "name": "",
          "type": "address"
        },
        {
          "internalType": "uint256",
          "name": "",
          "type": "uint256"
        }
      ],
      "name": "depositeRateIndex",
      "outputs": [
        {
          "internalType": "uint256",
          "name": "",
          "type": "uint256"
        }
      ],
      "payable": false,
      "stateMutability": "view",
      "type": "function"
    },
    {
      "constant": true,
      "inputs": [
        {
          "internalType": "address",
          "name": "_token",
          "type": "address"
        },
        {
          "internalType": "uint256",
          "name": "_borrowRateRecordStart",
          "type": "uint256"
        }
      ],
      "name": "getBorrowAccruedRate",
      "outputs": [
        {
          "internalType": "uint256",
          "name": "",
          "type": "uint256"
        }
      ],
      "payable": false,
      "stateMutability": "view",
      "type": "function"
    },
    {
      "constant": true,
      "inputs": [
        {
          "internalType": "address",
          "name": "_token",
          "type": "address"
        }
      ],
      "name": "getBorrowRatePerBlock",
      "outputs": [
        {
          "internalType": "uint256",
          "name": "",
          "type": "uint256"
        }
      ],
      "payable": false,
      "stateMutability": "view",
      "type": "function"
    },
    {
      "constant": true,
      "inputs": [
        {
          "internalType": "address",
          "name": "_token",
          "type": "address"
        }
      ],
      "name": "getCapitalCompoundRatio",
      "outputs": [
        {
          "internalType": "uint256",
          "name": "",
          "type": "uint256"
        }
      ],
      "payable": false,
      "stateMutability": "view",
      "type": "function"
    },
    {
      "constant": true,
      "inputs": [
        {
          "internalType": "address",
          "name": "_token",
          "type": "address"
        }
      ],
      "name": "getCapitalUtilizationRatio",
      "outputs": [
        {
          "internalType": "uint256",
          "name": "",
          "type": "uint256"
        }
      ],
      "payable": false,
      "stateMutability": "view",
      "type": "function"
    },
    {
      "constant": true,
      "inputs": [
        {
          "internalType": "address",
          "name": "_token",
          "type": "address"
        },
        {
          "internalType": "uint256",
          "name": "_depositRateRecordStart",
          "type": "uint256"
        }
      ],
      "name": "getDepositAccruedRate",
      "outputs": [
        {
          "internalType": "uint256",
          "name": "",
          "type": "uint256"
        }
      ],
      "payable": false,
      "stateMutability": "view",
      "type": "function"
    },
    {
      "constant": true,
      "inputs": [
        {
          "internalType": "address",
          "name": "_token",
          "type": "address"
        }
      ],
      "name": "getDepositRatePerBlock",
      "outputs": [
        {
          "internalType": "uint256",
          "name": "",
          "type": "uint256"
        }
      ],
      "payable": false,
      "stateMutability": "view",
      "type": "function"
    },
    {
      "constant": true,
      "inputs": [
        {
          "internalType": "address",
          "name": "_token",
          "type": "address"
        }
      ],
      "name": "getPoolAmount",
      "outputs": [
        {
          "internalType": "uint256",
          "name": "",
          "type": "uint256"
        }
      ],
      "payable": false,
      "stateMutability": "view",
      "type": "function"
    },
    {
      "constant": true,
      "inputs": [
        {
          "internalType": "address",
          "name": "_token",
          "type": "address"
        }
      ],
      "name": "getTokenState",
      "outputs": [
        {
          "internalType": "uint256",
          "name": "deposits",
          "type": "uint256"
        },
        {
          "internalType": "uint256",
          "name": "loans",
          "type": "uint256"
        },
        {
          "internalType": "uint256",
          "name": "reserveBalance",
          "type": "uint256"
        },
        {
          "internalType": "uint256",
          "name": "remainingAssets",
          "type": "uint256"
        }
      ],
      "payable": false,
      "stateMutability": "view",
      "type": "function"
    },
    {
      "constant": true,
      "inputs": [
        {
          "internalType": "address",
          "name": "_token",
          "type": "address"
        }
      ],
      "name": "getTotalDepositStore",
      "outputs": [
        {
          "internalType": "uint256",
          "name": "",
          "type": "uint256"
        }
      ],
      "payable": false,
      "stateMutability": "view",
      "type": "function"
    },
    {
      "constant": true,
      "inputs": [
        {
          "internalType": "address",
          "name": "",
          "type": "address"
        }
      ],
      "name": "lastCTokenExchangeRate",
      "outputs": [
        {
          "internalType": "uint256",
          "name": "",
          "type": "uint256"
        }
      ],
      "payable": false,
      "stateMutability": "view",
      "type": "function"
    },
    {
      "constant": true,
      "inputs": [
        {
          "internalType": "address",
          "name": "",
          "type": "address"
        }
      ],
      "name": "lastCheckpoint",
      "outputs": [
        {
          "internalType": "uint256",
          "name": "",
          "type": "uint256"
        }
      ],
      "payable": false,
      "stateMutability": "view",
      "type": "function"
    },
    {
      "constant": false,
      "inputs": [
        {
          "internalType": "address",
          "name": "_token",
          "type": "address"
        }
      ],
      "name": "newRateIndexCheckpoint",
      "outputs": [],
      "payable": false,
      "stateMutability": "nonpayable",
      "type": "function"
    },
    {
      "constant": false,
      "inputs": [
        {
          "internalType": "address",
          "name": "_to",
          "type": "address"
        },
        {
          "internalType": "address",
          "name": "_token",
          "type": "address"
        },
        {
          "internalType": "uint256",
          "name": "_amount",
          "type": "uint256"
        }
      ],
      "name": "repay",
      "outputs": [
        {
          "internalType": "uint256",
          "name": "",
          "type": "uint256"
        }
      ],
      "payable": false,
      "stateMutability": "nonpayable",
      "type": "function"
    },
    {
      "constant": true,
      "inputs": [
        {
          "internalType": "address",
          "name": "",
          "type": "address"
        }
      ],
      "name": "totalCompound",
      "outputs": [
        {
          "internalType": "uint256",
          "name": "",
          "type": "uint256"
        }
      ],
      "payable": false,
      "stateMutability": "view",
      "type": "function"
    },
    {
      "constant": true,
      "inputs": [
        {
          "internalType": "address",
          "name": "",
          "type": "address"
        }
      ],
      "name": "totalLoans",
      "outputs": [
        {
          "internalType": "uint256",
          "name": "",
          "type": "uint256"
        }
      ],
      "payable": false,
      "stateMutability": "view",
      "type": "function"
    },
    {
      "constant": true,
      "inputs": [
        {
          "internalType": "address",
          "name": "",
          "type": "address"
        }
      ],
      "name": "totalReserve",
      "outputs": [
        {
          "internalType": "uint256",
          "name": "",
          "type": "uint256"
        }
      ],
      "payable": false,
      "stateMutability": "view",
      "type": "function"
    },
    {
      "constant": false,
      "inputs": [
        {
          "internalType": "address",
          "name": "_token",
          "type": "address"
        },
        {
          "internalType": "uint256",
          "name": "_amount",
          "type": "uint256"
        },
        {
          "internalType": "uint8",
          "name": "_action",
          "type": "uint8"
        }
      ],
      "name": "update",
      "outputs": [
        {
          "internalType": "uint256",
          "name": "compoundAmount",
          "type": "uint256"
        }
      ],
      "payable": false,
      "stateMutability": "nonpayable",
      "type": "function"
    },
    {
      "constant": false,
      "inputs": [
        {
          "internalType": "address",
          "name": "_from",
          "type": "address"
        },
        {
          "internalType": "address",
          "name": "_token",
          "type": "address"
        },
        {
          "internalType": "uint256",
          "name": "_amount",
          "type": "uint256"
        }
      ],
      "name": "withdraw",
      "outputs": [
        {
          "internalType": "uint256",
          "name": "",
          "type": "uint256"
        }
      ],
      "payable": false,
      "stateMutability": "nonpayable",
      "type": "function"
    },
    {
      "constant": false,
      "inputs": [
        {
          "internalType": "contract GlobalConfig",
          "name": "_globalConfig",
          "type": "address"
        },
        {
          "internalType": "address",
          "name": "_comptroller",
          "type": "address"
        }
      ],
      "name": "initialize",
      "outputs": [],
      "payable": false,
      "stateMutability": "nonpayable",
      "type": "function"
    },
    {
      "constant": false,
      "inputs": [
        {
          "internalType": "contract GlobalConfig",
          "name": "_globalConfig",
          "type": "address"
        }
      ],
      "name": "initialize",
      "outputs": [],
      "payable": false,
      "stateMutability": "nonpayable",
      "type": "function"
    }
  ],
  "bytecode": "0x608060405234801561001057600080fd5b50613d34806100206000396000f3fe608060405234801561001057600080fd5b50600436106101e55760003560e01c80636e5d84ba1161010f578063c9ca7d31116100a2578063de34b0f411610071578063de34b0f414610639578063e9ace6d91461065f578063f487196614610685578063fbcd9b05146105fb576101e5565b8063c9ca7d31146105cd578063d37db1d2146105f3578063d8c2d84c146105fb578063d9caed1214610603576101e5565b80637ebff3d5116100de5780637ebff3d5146105255780638340f5491461054b578063945eb76414610581578063c4d66de8146105a7576101e5565b80636e5d84ba146104a557806374a23843146104cb5780637753f47b146104f15780637aa473d1146104f9576101e5565b8063485cc955116101875780635467cec4116101565780635467cec4146103fa5780635a80c4971461041e57806362e4a78c1461044a5780636dae2fa51461047f576101e5565b8063485cc955146103485780634d770570146103785780634e7e36e21461039e5780635224372c146103c4576101e5565b80631ff4443c116101c35780631ff4443c146102a45780632d6cb681146102d0578063343340f4146102fc57806337a58b1514610322576101e5565b80630b3eb970146101ea5780630b574443146102365780631da649cf1461026e575b600080fd5b6102106004803603602081101561020057600080fd5b50356001600160a01b03166106ab565b604080519485526020850193909352838301919091526060830152519081900360800190f35b61025c6004803603602081101561024c57600080fd5b50356001600160a01b031661080d565b60408051918252519081900360200190f35b61025c6004803603606081101561028457600080fd5b506001600160a01b038135811691602081013590911690604001356108d1565b61025c600480360360408110156102ba57600080fd5b506001600160a01b038135169060200135610d66565b61025c600480360360408110156102e657600080fd5b506001600160a01b038135169060200135610d83565b61025c6004803603602081101561031257600080fd5b50356001600160a01b0316610e13565b61025c6004803603602081101561033857600080fd5b50356001600160a01b0316610e25565b6103766004803603604081101561035e57600080fd5b506001600160a01b0381358116916020013516610e37565b005b61025c6004803603602081101561038e57600080fd5b50356001600160a01b0316610eff565b61025c600480360360208110156103b457600080fd5b50356001600160a01b0316610f5b565b610376600480360360608110156103da57600080fd5b506001600160a01b03813581169160208101359091169060400135610f6d565b6104026112af565b604080516001600160a01b039092168252519081900360200190f35b61025c6004803603604081101561043457600080fd5b506001600160a01b0381351690602001356112c7565b61025c6004803603606081101561046057600080fd5b5080356001600160a01b0316906020810135906040013560ff1661132f565b61025c6004803603602081101561049557600080fd5b50356001600160a01b031661148e565b61025c600480360360208110156104bb57600080fd5b50356001600160a01b0316611617565b61025c600480360360208110156104e157600080fd5b50356001600160a01b031661175d565b61040261176f565b61025c6004803603604081101561050f57600080fd5b506001600160a01b038135169060200135611774565b61025c6004803603602081101561053b57600080fd5b50356001600160a01b0316611791565b6103766004803603606081101561056157600080fd5b506001600160a01b038135811691602081013590911690604001356117ef565b61025c6004803603602081101561059757600080fd5b50356001600160a01b0316611b55565b610376600480360360208110156105bd57600080fd5b50356001600160a01b0316611c88565b61025c600480360360208110156105e357600080fd5b50356001600160a01b0316611d46565b61025c61208f565b61025c612096565b61025c6004803603606081101561061957600080fd5b506001600160a01b038135811691602081013590911690604001356120a2565b6103766004803603602081101561064f57600080fd5b50356001600160a01b031661242f565b61025c6004803603602081101561067557600080fd5b50356001600160a01b0316612d3a565b61025c6004803603602081101561069b57600080fd5b50356001600160a01b0316612d4c565b6000806000806106ba85611617565b6001600160a01b038087166000908152603360209081526040808320546034835281842054603b548351639895880f60e01b81529351929691956107fe9560359591949290931692639895880f92600480840193829003018186803b15801561072257600080fd5b505afa158015610736573d6000803e3d6000fd5b505050506040513d602081101561074c57600080fd5b505160408051637e5a4eb960e01b81526001600160a01b038e8116600483015291519190921691637e5a4eb9916024808301926020929190829003018186803b15801561079857600080fd5b505afa1580156107ac573d6000803e3d6000fd5b505050506040513d60208110156107c257600080fd5b50516001600160a01b0390811682526020828101939093526040918201600090812054918d16815260349093529120549063ffffffff612ea616565b93509350935093509193509193565b6001600160a01b038116600090815260386020526040812054670de0b6b3a76400008161083d5791506108cc9050565b6001600160a01b03841660009081526037602090815260408083208584529091528120549061086b86611d46565b90506108c5836108b96108ac866108a0866108948b610888612f00565b9063ffffffff612f7616565b9063ffffffff612fb816565b9063ffffffff612ea616565b859063ffffffff612fb816565b9063ffffffff61301116565b9450505050505b919050565b603b546040805163cc5738b560e01b815290516000926001600160a01b03169163cc5738b5916004808301926020929190829003018186803b15801561091657600080fd5b505afa15801561092a573d6000803e3d6000fd5b505050506040513d602081101561094057600080fd5b50516001600160a01b03163314806109d95750603b60009054906101000a90046001600160a01b03166001600160a01b03166368cd03f66040518163ffffffff1660e01b815260040160206040518083038186803b1580156109a157600080fd5b505afa1580156109b5573d6000803e3d6000fd5b505050506040513d60208110156109cb57600080fd5b50516001600160a01b031633145b610a145760405162461bcd60e51b8152600401808060200182810382526038815260200180613cc86038913960400191505060405180910390fd5b610a1d8361242f565b603b546040805163346681fb60e11b815290516000926001600160a01b0316916368cd03f6916004808301926020929190829003018186803b158015610a6257600080fd5b505afa158015610a76573d6000803e3d6000fd5b505050506040513d6020811015610a8c57600080fd5b505160408051638224b89960e01b81526001600160a01b038881166004830152878116602483015291519190921691638224b899916044808301926020929190829003018186803b158015610ae057600080fd5b505afa158015610af4573d6000803e3d6000fd5b505050506040513d6020811015610b0a57600080fd5b505111610b485760405162461bcd60e51b815260040180806020018281038252605c815260200180613c1d605c913960600191505060405180910390fd5b603b546040805163346681fb60e11b815290516000926001600160a01b0316916368cd03f6916004808301926020929190829003018186803b158015610b8d57600080fd5b505afa158015610ba1573d6000803e3d6000fd5b505050506040513d6020811015610bb757600080fd5b505160408051631da649cf60e01b81526001600160a01b03888116600483015287811660248301526044820187905291519190921691631da649cf9160648083019260209291908290030181600087803b158015610c1457600080fd5b505af1158015610c28573d6000803e3d6000fd5b505050506040513d6020811015610c3e57600080fd5b505190506000610c5f85610c58868563ffffffff612f7616565b600361132f565b90508015610d4c57603b60009054906101000a90046001600160a01b03166001600160a01b031663cc5738b56040518163ffffffff1660e01b815260040160206040518083038186803b158015610cb557600080fd5b505afa158015610cc9573d6000803e3d6000fd5b505050506040513d6020811015610cdf57600080fd5b505160408051638280e5a960e01b81526001600160a01b0388811660048301526024820185905291519190921691638280e5a991604480830192600092919082900301818387803b158015610d3357600080fd5b505af1158015610d47573d6000803e3d6000fd5b505050505b610d5c848363ffffffff612f7616565b9695505050505050565b603660209081526000928352604080842090915290825290205481565b6001600160a01b0382166000908152603760209081526040808320848452909152812054670de0b6b3a764000081610dbe579150610e0d9050565b6001600160a01b0385166000908152603760205260408120610e089184916108b991859190610deb612f00565b815260200190815260200160002054612fb890919063ffffffff16565b925050505b92915050565b60336020526000908152604090205481565b60356020526000908152604090205481565b600054610100900460ff1680610e505750610e50613053565b80610e5e575060005460ff16155b610e995760405162461bcd60e51b815260040180806020018281038252602e815260200180613c9a602e913960400191505060405180910390fd5b600054610100900460ff16158015610ec4576000805460ff1961ff0019909116610100171660011790555b610ecd83611c88565b603c80546001600160a01b0319166001600160a01b0384161790558015610efa576000805461ff00191690555b505050565b600080610f0b83611617565b905080610f1c5760009150506108cc565b6001600160a01b038316600090815260336020526040902054610f539082906108b990670de0b6b3a764000063ffffffff612fb816565b9150506108cc565b60346020526000908152604090205481565b603b60009054906101000a90046001600160a01b03166001600160a01b031663cc5738b56040518163ffffffff1660e01b815260040160206040518083038186803b158015610fbb57600080fd5b505afa158015610fcf573d6000803e3d6000fd5b505050506040513d6020811015610fe557600080fd5b50516001600160a01b031633148061107e5750603b60009054906101000a90046001600160a01b03166001600160a01b03166368cd03f66040518163ffffffff1660e01b815260040160206040518083038186803b15801561104657600080fd5b505afa15801561105a573d6000803e3d6000fd5b505050506040513d602081101561107057600080fd5b50516001600160a01b031633145b6110b95760405162461bcd60e51b8152600401808060200182810382526038815260200180613cc86038913960400191505060405180910390fd5b6110c28261242f565b603b60009054906101000a90046001600160a01b03166001600160a01b03166368cd03f66040518163ffffffff1660e01b815260040160206040518083038186803b15801561111057600080fd5b505afa158015611124573d6000803e3d6000fd5b505050506040513d602081101561113a57600080fd5b5051604080516314890dcb60e21b81526001600160a01b03868116600483015285811660248301526044820185905291519190921691635224372c91606480830192600092919082900301818387803b15801561119657600080fd5b505af11580156111aa573d6000803e3d6000fd5b5050505060006111bc8383600261132f565b905080156112a957603b60009054906101000a90046001600160a01b03166001600160a01b031663cc5738b56040518163ffffffff1660e01b815260040160206040518083038186803b15801561121257600080fd5b505afa158015611226573d6000803e3d6000fd5b505050506040513d602081101561123c57600080fd5b50516040805163526e93cb60e01b81526001600160a01b038681166004830152602482018590529151919092169163526e93cb91604480830192600092919082900301818387803b15801561129057600080fd5b505af11580156112a4573d6000803e3d6000fd5b505050505b50505050565b73c04158f7db6f9c9ffbd5593236a1a3d69f92167c81565b6001600160a01b0382166000908152603660209081526040808320848452909152812054670de0b6b3a764000081611302579150610e0d9050565b6001600160a01b0385166000908152603660205260408120610e089184916108b991859190610deb612f00565b603b546040805163cc5738b560e01b815290516000926001600160a01b03169163cc5738b5916004808301926020929190829003018186803b15801561137457600080fd5b505afa158015611388573d6000803e3d6000fd5b505050506040513d602081101561139e57600080fd5b50516001600160a01b03163314806114375750603b60009054906101000a90046001600160a01b03166001600160a01b03166368cd03f66040518163ffffffff1660e01b815260040160206040518083038186803b1580156113ff57600080fd5b505afa158015611413573d6000803e3d6000fd5b505050506040513d602081101561142957600080fd5b50516001600160a01b031633145b6114725760405162461bcd60e51b8152600401808060200182810382526038815260200180613cc86038913960400191505060405180910390fd5b61147b84613059565b61148684848461326a565b949350505050565b60008061149a83611d46565b905060006114a784610eff565b9050603b60009054906101000a90046001600160a01b03166001600160a01b0316639895880f6040518163ffffffff1660e01b815260040160206040518083038186803b1580156114f757600080fd5b505afa15801561150b573d6000803e3d6000fd5b505050506040513d602081101561152157600080fd5b505160408051630e525ed960e21b81526001600160a01b038781166004830152915191909216916339497b64916024808301926020929190829003018186803b15801561156d57600080fd5b505afa158015611581573d6000803e3d6000fd5b505050506040513d602081101561159757600080fd5b50516115c2576115b9670de0b6b3a76400006108b9848463ffffffff612fb816565b925050506108cc565b6001600160a01b0384166000908152603a60205260409020600181015460029091015461148691670de0b6b3a7640000916108b991611607919063ffffffff612fb816565b6108a0868663ffffffff612fb816565b600080603b60009054906101000a90046001600160a01b03166001600160a01b0316639895880f6040518163ffffffff1660e01b815260040160206040518083038186803b15801561166857600080fd5b505afa15801561167c573d6000803e3d6000fd5b505050506040513d602081101561169257600080fd5b505160408051637e5a4eb960e01b81526001600160a01b03868116600483015291519190921691637e5a4eb9916024808301926020929190829003018186803b1580156116de57600080fd5b505afa1580156116f2573d6000803e3d6000fd5b505050506040513d602081101561170857600080fd5b50516001600160a01b03808516600090815260346020908152604080832054603383528184205494861684526035909252909120549293506117569290916108a0919063ffffffff612ea616565b9392505050565b60386020526000908152604090205481565b600e81565b603760209081526000928352604080842090915290825290205481565b6001600160a01b038116600090815260386020526040812054670de0b6b3a7640000816117c15791506108cc9050565b6001600160a01b03841660009081526036602090815260408083208584529091528120549061086b8661148e565b603b60009054906101000a90046001600160a01b03166001600160a01b031663cc5738b56040518163ffffffff1660e01b815260040160206040518083038186803b15801561183d57600080fd5b505afa158015611851573d6000803e3d6000fd5b505050506040513d602081101561186757600080fd5b50516001600160a01b03163314806119005750603b60009054906101000a90046001600160a01b03166001600160a01b03166368cd03f66040518163ffffffff1660e01b815260040160206040518083038186803b1580156118c857600080fd5b505afa1580156118dc573d6000803e3d6000fd5b505050506040513d60208110156118f257600080fd5b50516001600160a01b031633145b61193b5760405162461bcd60e51b8152600401808060200182810382526038815260200180613cc86038913960400191505060405180910390fd5b8061197e576040805162461bcd60e51b815260206004820152600e60248201526d416d6f756e74206973207a65726f60901b604482015290519081900360640190fd5b6119878261242f565b603b60009054906101000a90046001600160a01b03166001600160a01b03166368cd03f66040518163ffffffff1660e01b815260040160206040518083038186803b1580156119d557600080fd5b505afa1580156119e9573d6000803e3d6000fd5b505050506040513d60208110156119ff57600080fd5b505160408051638340f54960e01b81526001600160a01b03868116600483015285811660248301526044820185905291519190921691638340f54991606480830192600092919082900301818387803b158015611a5b57600080fd5b505af1158015611a6f573d6000803e3d6000fd5b505050506000611a818383600061132f565b905080156112a957603b60009054906101000a90046001600160a01b03166001600160a01b031663cc5738b56040518163ffffffff1660e01b815260040160206040518083038186803b158015611ad757600080fd5b505afa158015611aeb573d6000803e3d6000fd5b505050506040513d6020811015611b0157600080fd5b505160408051638280e5a960e01b81526001600160a01b0386811660048301526024820185905291519190921691638280e5a991604480830192600092919082900301818387803b15801561129057600080fd5b6000610e0d60356000603b60009054906101000a90046001600160a01b03166001600160a01b0316639895880f6040518163ffffffff1660e01b815260040160206040518083038186803b158015611bac57600080fd5b505afa158015611bc0573d6000803e3d6000fd5b505050506040513d6020811015611bd657600080fd5b505160408051637e5a4eb960e01b81526001600160a01b03888116600483015291519190921691637e5a4eb9916024808301926020929190829003018186803b158015611c2257600080fd5b505afa158015611c36573d6000803e3d6000fd5b505050506040513d6020811015611c4c57600080fd5b50516001600160a01b0390811682526020828101939093526040918201600090812054918716815260349093529120549063ffffffff612ea616565b600054610100900460ff1680611ca15750611ca1613053565b80611caf575060005460ff16155b611cea5760405162461bcd60e51b815260040180806020018281038252602e815260200180613c9a602e913960400191505060405180910390fd5b600054610100900460ff16158015611d15576000805460ff1961ff0019909116610100171660011790555b603b80546001600160a01b0319166001600160a01b0384161790558015611d42576000805461ff00191690555b5050565b603b5460408051639895880f60e01b815290516000926001600160a01b031691639895880f916004808301926020929190829003018186803b158015611d8b57600080fd5b505afa158015611d9f573d6000803e3d6000fd5b505050506040513d6020811015611db557600080fd5b505160408051630e525ed960e21b81526001600160a01b038581166004830152915191909216916339497b64916024808301926020929190829003018186803b158015611e0157600080fd5b505afa158015611e15573d6000803e3d6000fd5b505050506040513d6020811015611e2b57600080fd5b5051611f4857611f41622014806108b9603b60009054906101000a90046001600160a01b03166001600160a01b031663b442a2066040518163ffffffff1660e01b815260040160206040518083038186803b158015611e8957600080fd5b505afa158015611e9d573d6000803e3d6000fd5b505050506040513d6020811015611eb357600080fd5b5051603b5460408051637664c38560e11b815290516108a092670de0b6b3a7640000926108b9926001600160a01b039092169163ecc9870a91600480820192602092909190829003018186803b158015611f0c57600080fd5b505afa158015611f20573d6000803e3d6000fd5b505050506040513d6020811015611f3657600080fd5b50516108948a610eff565b90506108cc565b610e0d600a6108b9611ff5603b60009054906101000a90046001600160a01b03166001600160a01b03166313afb8ef6040518163ffffffff1660e01b815260040160206040518083038186803b158015611fa157600080fd5b505afa158015611fb5573d6000803e3d6000fd5b505050506040513d6020811015611fcb57600080fd5b50516001600160a01b0387166000908152603a60205260409020600301549063ffffffff612fb816565b603b54604080516308fafb8d60e01b815290516108a0926001600160a01b0316916308fafb8d916004808301926020929190829003018186803b15801561203b57600080fd5b505afa15801561204f573d6000803e3d6000fd5b505050506040513d602081101561206557600080fd5b50516001600160a01b0388166000908152603a60205260409020600201549063ffffffff612fb816565b6220148081565b670de0b6b3a764000081565b603b546040805163cc5738b560e01b815290516000926001600160a01b03169163cc5738b5916004808301926020929190829003018186803b1580156120e757600080fd5b505afa1580156120fb573d6000803e3d6000fd5b505050506040513d602081101561211157600080fd5b50516001600160a01b03163314806121aa5750603b60009054906101000a90046001600160a01b03166001600160a01b03166368cd03f66040518163ffffffff1660e01b815260040160206040518083038186803b15801561217257600080fd5b505afa158015612186573d6000803e3d6000fd5b505050506040513d602081101561219c57600080fd5b50516001600160a01b031633145b6121e55760405162461bcd60e51b8152600401808060200182810382526038815260200180613cc86038913960400191505060405180910390fd5b81612228576040805162461bcd60e51b815260206004820152600e60248201526d416d6f756e74206973207a65726f60901b604482015290519081900360640190fd5b6122318361242f565b603b546040805163346681fb60e11b815290516000926001600160a01b0316916368cd03f6916004808301926020929190829003018186803b15801561227657600080fd5b505afa15801561228a573d6000803e3d6000fd5b505050506040513d60208110156122a057600080fd5b505160408051636ce5768960e11b81526001600160a01b0388811660048301528781166024830152604482018790529151919092169163d9caed129160648083019260209291908290030181600087803b1580156122fd57600080fd5b505af1158015612311573d6000803e3d6000fd5b505050506040513d602081101561232757600080fd5b5051905060006123398583600161132f565b9050801561242657603b60009054906101000a90046001600160a01b03166001600160a01b031663cc5738b56040518163ffffffff1660e01b815260040160206040518083038186803b15801561238f57600080fd5b505afa1580156123a3573d6000803e3d6000fd5b505050506040513d60208110156123b957600080fd5b50516040805163526e93cb60e01b81526001600160a01b038881166004830152602482018590529151919092169163526e93cb91604480830192600092919082900301818387803b15801561240d57600080fd5b505af1158015612421573d6000803e3d6000fd5b505050505b50949350505050565b603b60009054906101000a90046001600160a01b03166001600160a01b031663cc5738b56040518163ffffffff1660e01b815260040160206040518083038186803b15801561247d57600080fd5b505afa158015612491573d6000803e3d6000fd5b505050506040513d60208110156124a757600080fd5b50516001600160a01b03163314806125405750603b60009054906101000a90046001600160a01b03166001600160a01b03166368cd03f66040518163ffffffff1660e01b815260040160206040518083038186803b15801561250857600080fd5b505afa15801561251c573d6000803e3d6000fd5b505050506040513d602081101561253257600080fd5b50516001600160a01b031633145b61257b5760405162461bcd60e51b8152600401808060200182810382526038815260200180613cc86038913960400191505060405180910390fd5b6000612585612f00565b6001600160a01b0383166000908152603860205260409020549091508114156125ae5750612d37565b603b5460408051639895880f60e01b81529051670de0b6b3a7640000926000926001600160a01b0390911691639895880f91600480820192602092909190829003018186803b15801561260057600080fd5b505afa158015612614573d6000803e3d6000fd5b505050506040513d602081101561262a57600080fd5b505160408051637e5a4eb960e01b81526001600160a01b03878116600483015291519190921691637e5a4eb9916024808301926020929190829003018186803b15801561267657600080fd5b505afa15801561268a573d6000803e3d6000fd5b505050506040513d60208110156126a057600080fd5b50516001600160a01b0385166000908152603860205260409020549091508061293b576001600160a01b03821661272b576001600160a01b0385166000818152603a60209081526040808320805460ff191690556037825280832088845282528083208790558383526036825280832088845282528083208790559282526038905220849055612936565b6001600160a01b038086166000908152603a60209081526040808320805460ff19166001179055805163bd6d894d60e01b81529051929386169263bd6d894d9260048084019391929182900301818787803b15801561278957600080fd5b505af115801561279d573d6000803e3d6000fd5b505050506040513d60208110156127b357600080fd5b505190506127c086612d4c565b603a6000886001600160a01b03166001600160a01b0316815260200190815260200160002060010181905550826001600160a01b031663f8f9da286040518163ffffffff1660e01b815260040160206040518083038186803b15801561282557600080fd5b505afa158015612839573d6000803e3d6000fd5b505050506040513d602081101561284f57600080fd5b50516001600160a01b038088166000908152603a6020908152604091829020600301939093558051630ae9d70b60e41b815290519186169263ae9d70b092600480840193829003018186803b1580156128a757600080fd5b505afa1580156128bb573d6000803e3d6000fd5b505050506040513d60208110156128d157600080fd5b50516001600160a01b038088166000818152603a6020908152604080832060020195909555603781528482208a83528152848220899055828252603681528482208a835281528482208990559181526038825283812089905591861682526039905220555b612bfe565b6001600160a01b0382166129d7576001600160a01b0385166000908152603a60205260409020805460ff191690556129728561080d565b6001600160a01b038616600090815260376020908152604080832088845290915290205561299f85611791565b6001600160a01b0386166000818152603660209081526040808320898452825280832094909455918152603890915220849055612bfe565b6001600160a01b038086166000908152603a60209081526040808320805460ff19166001179055805163bd6d894d60e01b81529051929386169263bd6d894d9260048084019391929182900301818787803b158015612a3557600080fd5b505af1158015612a49573d6000803e3d6000fd5b505050506040513d6020811015612a5f57600080fd5b50519050612a6c86612d4c565b603a6000886001600160a01b03166001600160a01b0316815260200190815260200160002060010181905550826001600160a01b031663f8f9da286040518163ffffffff1660e01b815260040160206040518083038186803b158015612ad157600080fd5b505afa158015612ae5573d6000803e3d6000fd5b505050506040513d6020811015612afb57600080fd5b50516001600160a01b0387166000908152603a6020908152604080832060030193909355603890522054612b6b90612b3a90879063ffffffff612f7616565b6001600160a01b0385166000908152603960205260409020546108b99087906108889083878463ffffffff612fb816565b6001600160a01b0387166000908152603a6020526040902060020155612b908661080d565b6001600160a01b0387166000908152603760209081526040808320898452909152902055612bbd86611791565b6001600160a01b0380881660008181526036602090815260408083208b84528252808320959095559181526038825283812089905591861682526039905220555b6001600160a01b03851660009081526037602090815260408083208784529091529020548314612c87576001600160a01b038516600081815260376020908152604080832085845282528083205488845281842054948452603390925290912054612c6d926108b99190612fb8565b6001600160a01b0386166000908152603360205260409020555b6001600160a01b03851660008181526036602052604081207f1cc14bf94d8329e459fdcf4f38c293236b70411487793b5c07ac7448c788c25291612cc9612f00565b81526020019081526020016000205460376000896001600160a01b03166001600160a01b031681526020019081526020016000206000612d07612f00565b815260200190815260200160002054604051808381526020018281526020019250505060405180910390a2505050505b50565b60396020526000908152604090205481565b600080603b60009054906101000a90046001600160a01b03166001600160a01b0316639895880f6040518163ffffffff1660e01b815260040160206040518083038186803b158015612d9d57600080fd5b505afa158015612db1573d6000803e3d6000fd5b505050506040513d6020811015612dc757600080fd5b505160408051637e5a4eb960e01b81526001600160a01b03868116600483015291519190921691637e5a4eb9916024808301926020929190829003018186803b158015612e1357600080fd5b505afa158015612e27573d6000803e3d6000fd5b505050506040513d6020811015612e3d57600080fd5b50516001600160a01b038116600090815260356020526040902054909150612e695760009150506108cc565b610f53612e7584611617565b6001600160a01b0383166000908152603560205260409020546108b990670de0b6b3a764000063ffffffff612fb816565b600082820183811015611756576040805162461bcd60e51b815260206004820152601b60248201527f536166654d6174683a206164646974696f6e206f766572666c6f770000000000604482015290519081900360640190fd5b603c54604080516310b2ec5760e21b815290516000926001600160a01b0316916342cbb15c916004808301926020929190829003018186803b158015612f4557600080fd5b505afa158015612f59573d6000803e3d6000fd5b505050506040513d6020811015612f6f57600080fd5b5051905090565b600061175683836040518060400160405280601e81526020017f536166654d6174683a207375627472616374696f6e206f766572666c6f770000815250613b20565b600082612fc757506000610e0d565b82820282848281612fd457fe5b04146117565760405162461bcd60e51b8152600401808060200182810382526021815260200180613c796021913960400191505060405180910390fd5b600061175683836040518060400160405280601a81526020017f536166654d6174683a206469766973696f6e206279207a65726f000000000000815250613bb7565b303b1590565b603b5460408051639895880f60e01b815290516000926001600160a01b031691639895880f916004808301926020929190829003018186803b15801561309e57600080fd5b505afa1580156130b2573d6000803e3d6000fd5b505050506040513d60208110156130c857600080fd5b505160408051637e5a4eb960e01b81526001600160a01b03858116600483015291519190921691637e5a4eb9916024808301926020929190829003018186803b15801561311457600080fd5b505afa158015613128573d6000803e3d6000fd5b505050506040513d602081101561313e57600080fd5b505190506001600160a01b03811615611d4257806001600160a01b0316633af9e669603b60009054906101000a90046001600160a01b03166001600160a01b031663cc5738b56040518163ffffffff1660e01b815260040160206040518083038186803b1580156131ae57600080fd5b505afa1580156131c2573d6000803e3d6000fd5b505050506040513d60208110156131d857600080fd5b5051604080516001600160e01b031960e085901b1681526001600160a01b0390921660048301525160248083019260209291908290030181600087803b15801561322157600080fd5b505af1158015613235573d6000803e3d6000fd5b505050506040513d602081101561324b57600080fd5b50516001600160a01b0382166000908152603560205260409020555050565b600080603b60009054906101000a90046001600160a01b03166001600160a01b0316639895880f6040518163ffffffff1660e01b815260040160206040518083038186803b1580156132bb57600080fd5b505afa1580156132cf573d6000803e3d6000fd5b505050506040513d60208110156132e557600080fd5b505160408051637e5a4eb960e01b81526001600160a01b03888116600483015291519190921691637e5a4eb9916024808301926020929190829003018186803b15801561333157600080fd5b505afa158015613345573d6000803e3d6000fd5b505050506040513d602081101561335b57600080fd5b50519050600061336a86611617565b905060ff8416158061337f575060ff84166003145b156136355760ff84166133a35761339c818663ffffffff612ea616565b90506133e6565b6001600160a01b0386166000908152603360205260409020546133cc908663ffffffff612f7616565b6001600160a01b0387166000908152603360205260409020555b6001600160a01b03861660009081526034602052604081205461340f908763ffffffff612ea616565b90506001600160a01b038316158015906134b657506134b360646108b9603b60009054906101000a90046001600160a01b03166001600160a01b031663268c74e46040518163ffffffff1660e01b815260040160206040518083038186803b15801561347a57600080fd5b505afa15801561348e573d6000803e3d6000fd5b505050506040513d60208110156134a457600080fd5b5051859063ffffffff612fb816565b81115b156135ec57600061355c61354f60646108b9603b60009054906101000a90046001600160a01b03166001600160a01b031663c36938966040518163ffffffff1660e01b815260040160206040518083038186803b15801561351657600080fd5b505afa15801561352a573d6000803e3d6000fd5b505050506040513d602081101561354057600080fd5b5051879063ffffffff612fb816565b839063ffffffff612f7616565b6001600160a01b03851660009081526035602052604090205490955085915061358b908263ffffffff612ea616565b6001600160a01b03808616600090815260356020908152604080832094909455918b168152603490915220546135cd908290610888908a63ffffffff612ea616565b6001600160a01b0389166000908152603460205260409020555061362f565b6001600160a01b038716600090815260346020526040902054613615908763ffffffff612ea616565b6001600160a01b0388166000908152603460205260409020555b50613b17565b60ff841660011415613725576001600160a01b038616600090815260336020526040902054156136c1578461366987611b55565b10156136bc576040805162461bcd60e51b815260206004820181905260248201527f4c61636b206f66206c6971756964697479207768656e2077697468647261772e604482015290519081900360640190fd5b613715565b846136cb87611b55565b1015613715576001600160a01b0382166000908152603560205260409020546136fb90869063ffffffff612f7616565b6001600160a01b0387166000908152603460205260409020555b61371e86611617565b9050613782565b8461372f87611b55565b1015613782576040805162461bcd60e51b815260206004820152601e60248201527f4c61636b206f66206c6971756964697479207768656e20626f72726f772e0000604482015290519081900360640190fd5b60ff8416600114156137a55761379e818663ffffffff612f7616565b90506137e8565b6001600160a01b0386166000908152603360205260409020546137ce908663ffffffff612ea616565b6001600160a01b0387166000908152603360205260409020555b6001600160a01b038616600090815260346020526040812054861061380e576000613837565b6001600160a01b038716600090815260346020526040902054613837908763ffffffff612f7616565b90506001600160a01b038316158015906138ad57508115806138ad57506138aa60646108b9603b60009054906101000a90046001600160a01b03166001600160a01b0316635a596d1c6040518163ffffffff1660e01b815260040160206040518083038186803b15801561347a57600080fd5b81105b15613ad2576001600160a01b03808416600090815260356020908152604080832054938b168352603490915281205490916138f4918991610888919063ffffffff612ea616565b905061398560646108b9603b60009054906101000a90046001600160a01b03166001600160a01b031663c36938966040518163ffffffff1660e01b815260040160206040518083038186803b15801561394c57600080fd5b505afa158015613960573d6000803e3d6000fd5b505050506040513d602081101561397657600080fd5b5051869063ffffffff612fb816565b8110156139c4576001600160a01b038085166000908152603560209081526040808320805490849055938c168352603490915290208290559450613acc565b6000613a5861354f60646108b9603b60009054906101000a90046001600160a01b03166001600160a01b031663c36938966040518163ffffffff1660e01b815260040160206040518083038186803b158015613a1f57600080fd5b505afa158015613a33573d6000803e3d6000fd5b505050506040513d6020811015613a4957600080fd5b5051889063ffffffff612fb816565b6001600160a01b038616600090815260356020526040902054909150613a84908263ffffffff612f7616565b6001600160a01b03861660009081526035602052604090208290559550613ab1828263ffffffff612f7616565b6001600160a01b038a16600090815260346020526040902055505b50613b15565b6001600160a01b038716600090815260346020526040902054613afb908763ffffffff612f7616565b6001600160a01b0388166000908152603460205260409020555b505b50509392505050565b60008184841115613baf5760405162461bcd60e51b81526004018080602001828103825283818151815260200191508051906020019080838360005b83811015613b74578181015183820152602001613b5c565b50505050905090810190601f168015613ba15780820380516001836020036101000a031916815260200191505b509250505060405180910390fd5b505050900390565b60008183613c065760405162461bcd60e51b8152602060048201818152835160248401528351909283926044909101919085019080838360008315613b74578181015183820152602001613b5c565b506000838581613c1257fe5b049594505050505056fe546f6b656e20426f72726f775072696e636970616c206d7573742062652067726561746572207468616e20302e20546f206465706f7369742062616c616e63652c20706c6561736520757365206465706f73697420627574746f6e2e536166654d6174683a206d756c7469706c69636174696f6e206f766572666c6f77436f6e747261637420696e7374616e63652068617320616c7265616479206265656e20696e697469616c697a65644f6e6c7920617574686f72697a656420746f2063616c6c2066726f6d20446546696e657220696e7465726e616c20636f6e7472616374732ea265627a7a72315820b5805a90e933b050cdbbd639e4057bcc49710f7a14874307c0d8d23b7099e60064736f6c634300050e0032",
  "source": "pragma solidity 0.5.14;\n\nimport \"../Bank.sol\";\nimport { IController } from \"../compound/ICompound.sol\";\n\ncontract BankWithController is Bank {\n\n    address comptroller;\n\n    function initialize(\n        GlobalConfig _globalConfig,\n        address _comptroller\n    ) public initializer {\n        super.initialize(_globalConfig); // expected 3 passed 5 args\n        comptroller = _comptroller;\n    }\n\n    function getBlockNumber() private view returns (uint) {\n        return IController(comptroller).getBlockNumber();\n    }\n}",
  "sourcePath": "/Users/yanyichun/project/Savings/contracts/mocks/BankWithController.sol",
  "compiler": {
    "name": "solc",
    "version": "0.5.14+commit.01f1aaa4.Emscripten.clang"
  },
  "schemaVersion": "3.3.1",
  "updatedAt": "2020-11-08T23:23:52.380Z",
  "devdoc": {
    "methods": {
      "borrowRateIndexNow(address)": {
        "params": {
          "_token": "token address"
        }
      },
      "depositRateIndexNow(address)": {
        "details": "This is an looking forward estimation from last checkpoint and not the exactly rate that the user will pay or earn. change name to depositRateIndexForward? or EstimateDepositRateIndex?",
        "params": {
          "_token": "token address"
        }
      },
      "getBorrowAccruedRate(address,uint256)": {
        "details": "This function should always be called after current block is set as a new rateIndex point.",
        "params": {
          "_borrowRateRecordStart": "the start block of the interval",
          "_token": "token address"
        }
      },
      "getBorrowRatePerBlock(address)": {
        "params": {
          "_token": "token address"
        },
        "return": "the borrow rate for the current block"
      },
      "getCapitalCompoundRatio(address)": {
        "params": {
          "_token": "token address"
        }
      },
      "getCapitalUtilizationRatio(address)": {
        "params": {
          "_token": "token address"
        }
      },
      "getDepositAccruedRate(address,uint256)": {
        "details": "This function should always be called after current block is set as a new rateIndex point.",
        "params": {
          "_depositRateRecordStart": "the start block of the interval",
          "_token": "token address"
        }
      },
      "getDepositRatePerBlock(address)": {
        "params": {
          "_token": "token address"
        },
        "return": "deposite rate of blocks before the current block"
      },
      "getTokenState(address)": {
        "params": {
          "_token": "token address"
        }
      },
      "getTotalDepositStore(address)": {
        "params": {
          "_token": "token address"
        }
      },
      "initialize(address)": {
        "params": {
          "_globalConfig": "the global configuration contract"
        }
      },
      "newRateIndexCheckpoint(address)": {
        "details": "The rate set at the checkpoint is the rate from the last checkpoint to this checkpoint",
        "params": {
          "_token": "token address"
        }
      },
      "withdraw(address,address,uint256)": {
        "params": {
          "_amount": "amount to be withdrawn",
          "_from": "address to be withdrawn from",
          "_token": "token address"
        },
        "return": "The actually amount withdrawed, which will be the amount requested minus the commission fee."
      }
    }
  },
  "userdoc": {
    "methods": {
      "borrowRateIndexNow(address)": {
        "notice": "Calculate a token borrow rate of current block"
      },
      "depositRateIndexNow(address)": {
        "notice": "Calculate a token deposite rate of current block"
      },
      "getBorrowAccruedRate(address,uint256)": {
        "notice": "Get the cummulative borrow rate in a block interval ending in current block"
      },
      "getBorrowRatePerBlock(address)": {
        "notice": "Get the borrowing interest rate Borrowing interest rate."
      },
      "getCapitalCompoundRatio(address)": {
        "notice": "Ratio of the capital in Compound"
      },
      "getCapitalUtilizationRatio(address)": {
        "notice": "Get capital utilization. Capital Utilization Rate (U )= total loan outstanding / Total market deposit"
      },
      "getDepositAccruedRate(address,uint256)": {
        "notice": "Get the cummulative deposit rate in a block interval ending in current block"
      },
      "getDepositRatePerBlock(address)": {
        "notice": "Get Deposit Rate.  Deposit APR = (Borrow APR * Utilization Rate (U) +  Compound Supply Rate * Capital Compound Ratio (C) )* (1- DeFiner Community Fund Ratio (D)). The scaling is 10 ** 18 sichaoy: make sure the ratePerBlock is zero if both U and C are zero."
      },
      "getTokenState(address)": {
        "notice": "Get the state of the given token"
      },
      "getTotalDepositStore(address)": {
        "notice": "Total amount of the token in Saving account"
      },
      "initialize(address)": {
        "notice": "Initialize the Bank"
      },
      "newRateIndexCheckpoint(address)": {
        "notice": "Set a new rate index checkpoint."
      },
      "withdraw(address,address,uint256)": {
        "notice": "Withdraw a token from an address"
      }
    }
  }
}