{
  "contractName": "ChainLinkAggregator",
  "abi": [
    {
      "anonymous": false,
      "inputs": [
        {
          "indexed": true,
          "internalType": "address",
          "name": "previousOwner",
          "type": "address"
        },
        {
          "indexed": true,
          "internalType": "address",
          "name": "newOwner",
          "type": "address"
        }
      ],
      "name": "OwnershipTransferred",
      "type": "event"
    },
    {
      "constant": true,
      "inputs": [],
      "name": "globalConfig",
      "outputs": [
        {
          "internalType": "contract GlobalConfig",
          "name": "",
          "type": "address"
        }
      ],
      "payable": false,
      "stateMutability": "view",
      "type": "function"
    },
    {
      "constant": true,
      "inputs": [],
      "name": "isOwner",
      "outputs": [
        {
          "internalType": "bool",
          "name": "",
          "type": "bool"
        }
      ],
      "payable": false,
      "stateMutability": "view",
      "type": "function"
    },
    {
      "constant": true,
      "inputs": [],
      "name": "owner",
      "outputs": [
        {
          "internalType": "address",
          "name": "",
          "type": "address"
        }
      ],
      "payable": false,
      "stateMutability": "view",
      "type": "function"
    },
    {
      "constant": false,
      "inputs": [],
      "name": "renounceOwnership",
      "outputs": [],
      "payable": false,
      "stateMutability": "nonpayable",
      "type": "function"
    },
    {
      "constant": false,
      "inputs": [
        {
          "internalType": "address",
          "name": "newOwner",
          "type": "address"
        }
      ],
      "name": "transferOwnership",
      "outputs": [],
      "payable": false,
      "stateMutability": "nonpayable",
      "type": "function"
    },
    {
      "constant": false,
      "inputs": [
        {
          "internalType": "contract GlobalConfig",
          "name": "_globalConfig",
          "type": "address"
        }
      ],
      "name": "initialize",
      "outputs": [],
      "payable": false,
      "stateMutability": "nonpayable",
      "type": "function"
    },
    {
      "constant": true,
      "inputs": [
        {
          "internalType": "address",
          "name": "_token",
          "type": "address"
        }
      ],
      "name": "getLatestAnswer",
      "outputs": [
        {
          "internalType": "int256",
          "name": "",
          "type": "int256"
        }
      ],
      "payable": false,
      "stateMutability": "view",
      "type": "function"
    },
    {
      "constant": true,
      "inputs": [
        {
          "internalType": "address",
          "name": "_token",
          "type": "address"
        }
      ],
      "name": "getLatestTimestamp",
      "outputs": [
        {
          "internalType": "uint256",
          "name": "",
          "type": "uint256"
        }
      ],
      "payable": false,
      "stateMutability": "view",
      "type": "function"
    },
    {
      "constant": true,
      "inputs": [
        {
          "internalType": "address",
          "name": "_token",
          "type": "address"
        },
        {
          "internalType": "uint256",
          "name": "_back",
          "type": "uint256"
        }
      ],
      "name": "getPreviousAnswer",
      "outputs": [
        {
          "internalType": "int256",
          "name": "",
          "type": "int256"
        }
      ],
      "payable": false,
      "stateMutability": "view",
      "type": "function"
    },
    {
      "constant": true,
      "inputs": [
        {
          "internalType": "address",
          "name": "_token",
          "type": "address"
        },
        {
          "internalType": "uint256",
          "name": "_back",
          "type": "uint256"
        }
      ],
      "name": "getPreviousTimestamp",
      "outputs": [
        {
          "internalType": "uint256",
          "name": "",
          "type": "uint256"
        }
      ],
      "payable": false,
      "stateMutability": "view",
      "type": "function"
    }
  ],
  "bytecode": "0x608060405260006100176001600160e01b0361006616565b600080546001600160a01b0319166001600160a01b0383169081178255604051929350917f8be0079c531659141344cd1fd0a4f28419497f9722a3daafe3b4186f6b6457e0908290a35061006a565b3390565b610871806100796000396000f3fe608060405234801561001057600080fd5b506004361061009e5760003560e01c8063a7c1abe011610066578063a7c1abe01461014b578063bb9d9ef514610153578063c4d66de81461017f578063d84f885a146101a5578063f2fde38b146101d15761009e565b806341a6990f146100a35780636849a3ba146100db578063715018a6146101015780638da5cb5b1461010b5780638f32d59b1461012f575b600080fd5b6100c9600480360360208110156100b957600080fd5b50356001600160a01b03166101f7565b60408051918252519081900360200190f35b6100c9600480360360208110156100f157600080fd5b50356001600160a01b031661026c565b6101096102af565b005b610113610352565b604080516001600160a01b039092168252519081900360200190f35b610137610361565b604080519115158252519081900360200190f35b610113610385565b6100c96004803603604081101561016957600080fd5b506001600160a01b038135169060200135610394565b6101096004803603602081101561019557600080fd5b50356001600160a01b03166104d0565b6100c9600480360360408110156101bb57600080fd5b506001600160a01b03813516906020013561054b565b610109600480360360208110156101e757600080fd5b50356001600160a01b0316610652565b6000610202826106b7565b6001600160a01b0316638205bf6a6040518163ffffffff1660e01b815260040160206040518083038186803b15801561023a57600080fd5b505afa15801561024e573d6000803e3d6000fd5b505050506040513d602081101561026457600080fd5b505192915050565b6000610277826106b7565b6001600160a01b03166350d25bcd6040518163ffffffff1660e01b815260040160206040518083038186803b15801561023a57600080fd5b6102b7610361565b610308576040805162461bcd60e51b815260206004820181905260248201527f4f776e61626c653a2063616c6c6572206973206e6f7420746865206f776e6572604482015290519081900360640190fd5b600080546040516001600160a01b03909116907f8be0079c531659141344cd1fd0a4f28419497f9722a3daafe3b4186f6b6457e0908390a3600080546001600160a01b0319169055565b6000546001600160a01b031690565b600080546001600160a01b0316610376610772565b6001600160a01b031614905090565b6001546001600160a01b031681565b6000806103a0846106b7565b90506000816001600160a01b031663668a0f026040518163ffffffff1660e01b815260040160206040518083038186803b1580156103dd57600080fd5b505afa1580156103f1573d6000803e3d6000fd5b505050506040513d602081101561040757600080fd5b5051905080841115610455576040805162461bcd60e51b81526020600482015260126024820152714e6f7420656e6f75676820686973746f727960701b604482015290519081900360640190fd5b816001600160a01b031663b5ab58dc8583036040518263ffffffff1660e01b81526004018082815260200191505060206040518083038186803b15801561049b57600080fd5b505afa1580156104af573d6000803e3d6000fd5b505050506040513d60208110156104c557600080fd5b505195945050505050565b6104d8610361565b610529576040805162461bcd60e51b815260206004820181905260248201527f4f776e61626c653a2063616c6c6572206973206e6f7420746865206f776e6572604482015290519081900360640190fd5b600180546001600160a01b0319166001600160a01b0392909216919091179055565b600080610557846106b7565b90506000816001600160a01b031663668a0f026040518163ffffffff1660e01b815260040160206040518083038186803b15801561059457600080fd5b505afa1580156105a8573d6000803e3d6000fd5b505050506040513d60208110156105be57600080fd5b505190508084111561060c576040805162461bcd60e51b81526020600482015260126024820152714e6f7420656e6f75676820686973746f727960701b604482015290519081900360640190fd5b816001600160a01b031663b633620c8583036040518263ffffffff1660e01b81526004018082815260200191505060206040518083038186803b15801561049b57600080fd5b61065a610361565b6106ab576040805162461bcd60e51b815260206004820181905260248201527f4f776e61626c653a2063616c6c6572206973206e6f7420746865206f776e6572604482015290519081900360640190fd5b6106b481610776565b50565b60015460408051639895880f60e01b815290516000926001600160a01b031691639895880f916004808301926020929190829003018186803b1580156106fc57600080fd5b505afa158015610710573d6000803e3d6000fd5b505050506040513d602081101561072657600080fd5b505160408051633991394d60e21b81526001600160a01b0385811660048301529151919092169163e644e534916024808301926020929190829003018186803b15801561023a57600080fd5b3390565b6001600160a01b0381166107bb5760405162461bcd60e51b81526004018080602001828103825260268152602001806108176026913960400191505060405180910390fd5b600080546040516001600160a01b03808516939216917f8be0079c531659141344cd1fd0a4f28419497f9722a3daafe3b4186f6b6457e091a3600080546001600160a01b0319166001600160a01b039290921691909117905556fe4f776e61626c653a206e6577206f776e657220697320746865207a65726f2061646472657373a265627a7a72315820f053e9200eda22d74b7d9285e7e7d625fcf9ba51b7197306c3d8c6e6bd1d58cf64736f6c634300050e0032",
  "source": "pragma solidity 0.5.14;\n\nimport \"@chainlink/contracts/src/v0.5/dev/AggregatorInterface.sol\";\nimport \"openzeppelin-solidity/contracts/ownership/Ownable.sol\";\nimport \"../config/GlobalConfig.sol\";\n// import \"../registry/TokenRegistry.sol\";\n\n/**\n */\ncontract ChainLinkAggregator is Ownable{\n\n    // TokenRegistry public import \"../config/GlobalConfig.sol\";;\n    GlobalConfig public globalConfig;\n\n    /**\n     * Constructor\n     */\n    // constructor(TokenRegistry _tokenRegistry) public {\n    //     require(address(_tokenRegistry) != address(0), \"TokenRegistry address is zero\");\n    //     tokenRegistry = _tokenRegistry;\n    // }\n\n    /**\n     *  initializes the symbols structure\n     */\n    function initialize(GlobalConfig _globalConfig) public onlyOwner{\n        globalConfig = _globalConfig;\n    }\n\n    /**\n     * Get latest update from the aggregator\n     * @param _token token address\n     */\n    function getLatestAnswer(address _token) public view returns (int256) {\n        return getAggregator(_token).latestAnswer();\n    }\n\n    /**\n     * Get the timestamp of the latest update\n     * @param _token token address\n     */\n    function getLatestTimestamp(address _token) public view returns (uint256) {\n        return getAggregator(_token).latestTimestamp();\n    }\n\n    /**\n     * Get the previous update\n     * @param _token token address\n     * @param _back the position of the answer if counting back from the latest\n     */\n    function getPreviousAnswer(address _token, uint256 _back) public view returns (int256) {\n        AggregatorInterface aggregator = getAggregator(_token);\n        uint256 latest = aggregator.latestRound();\n        require(_back <= latest, \"Not enough history\");\n        return aggregator.getAnswer(latest - _back);\n    }\n\n    /**\n     * Get the timestamp of the previous update\n     * @param _token token address\n     * @param _back the position of the answer if counting back from the latest\n     */\n    function getPreviousTimestamp(address _token, uint256 _back) public view returns (uint256) {\n        AggregatorInterface aggregator = getAggregator(_token);\n        uint256 latest = aggregator.latestRound();\n        require(_back <= latest, \"Not enough history\");\n        return aggregator.getTimestamp(latest - _back);\n    }\n\n    /**\n     * Get the aggregator address\n     * @param _token token address\n     */\n    function getAggregator(address _token) internal view returns (AggregatorInterface) {\n        // return AggregatorInterface(tokenRegistry.getChainLinkAggregator(_token));\n        return AggregatorInterface(globalConfig.tokenInfoRegistry().getChainLinkAggregator(_token));\n    }\n}\n",
  "sourcePath": "/Users/yanyichun/project/Savings/contracts/oracle/ChainLinkAggregator.sol",
  "compiler": {
    "name": "solc",
    "version": "0.5.14+commit.01f1aaa4.Emscripten.clang"
  },
  "schemaVersion": "3.3.1",
  "updatedAt": "2020-11-09T00:44:13.931Z",
  "networkType": "ethereum",
  "devdoc": {
    "methods": {
      "getLatestAnswer(address)": {
        "params": {
          "_token": "token address"
        }
      },
      "getLatestTimestamp(address)": {
        "params": {
          "_token": "token address"
        }
      },
      "getPreviousAnswer(address,uint256)": {
        "params": {
          "_back": "the position of the answer if counting back from the latest",
          "_token": "token address"
        }
      },
      "getPreviousTimestamp(address,uint256)": {
        "params": {
          "_back": "the position of the answer if counting back from the latest",
          "_token": "token address"
        }
      },
      "isOwner()": {
        "details": "Returns true if the caller is the current owner."
      },
      "owner()": {
        "details": "Returns the address of the current owner."
      },
      "renounceOwnership()": {
        "details": "Leaves the contract without owner. It will not be possible to call `onlyOwner` functions anymore. Can only be called by the current owner.     * NOTE: Renouncing ownership will leave the contract without an owner, thereby removing any functionality that is only available to the owner."
      },
      "transferOwnership(address)": {
        "details": "Transfers ownership of the contract to a new account (`newOwner`). Can only be called by the current owner."
      }
    }
  },
  "userdoc": {
    "methods": {
      "getLatestAnswer(address)": {
        "notice": "Get latest update from the aggregator"
      },
      "getLatestTimestamp(address)": {
        "notice": "Get the timestamp of the latest update"
      },
      "getPreviousAnswer(address,uint256)": {
        "notice": "Get the previous update"
      },
      "getPreviousTimestamp(address,uint256)": {
        "notice": "Get the timestamp of the previous update"
      },
      "initialize(address)": {
        "notice": "initializes the symbols structure"
      }
    }
  }
}