{
  "contractName": "Constant",
  "abi": [
    {
      "constant": true,
      "inputs": [],
      "name": "ACCURACY",
      "outputs": [
        {
          "internalType": "uint256",
          "name": "",
          "type": "uint256"
        }
      ],
      "payable": false,
      "stateMutability": "view",
      "type": "function"
    },
    {
      "constant": true,
      "inputs": [],
      "name": "BLOCKS_PER_YEAR",
      "outputs": [
        {
          "internalType": "uint256",
          "name": "",
          "type": "uint256"
        }
      ],
      "payable": false,
      "stateMutability": "view",
      "type": "function"
    },
    {
      "constant": true,
      "inputs": [],
      "name": "EMERGENCY_ADDR",
      "outputs": [
        {
          "internalType": "address payable",
          "name": "",
          "type": "address"
        }
      ],
      "payable": false,
      "stateMutability": "view",
      "type": "function"
    },
    {
      "constant": true,
      "inputs": [],
      "name": "ETH_ADDR",
      "outputs": [
        {
          "internalType": "address",
          "name": "",
          "type": "address"
        }
      ],
      "payable": false,
      "stateMutability": "view",
      "type": "function"
    },
    {
      "constant": true,
      "inputs": [],
      "name": "INT_UNIT",
      "outputs": [
        {
          "internalType": "uint256",
          "name": "",
          "type": "uint256"
        }
      ],
      "payable": false,
      "stateMutability": "view",
      "type": "function"
    }
  ],
  "bytecode": "0x608060405234801561001057600080fd5b50610100806100206000396000f3fe6080604052348015600f57600080fd5b506004361060505760003560e01c80635467cec41460555780637753f47b146077578063d37db1d214607d578063d8c2d84c146095578063fbcd9b05146095575b600080fd5b605b609b565b604080516001600160a01b039092168252519081900360200190f35b605b60b3565b608360b8565b60408051918252519081900360200190f35b608360bf565b73c04158f7db6f9c9ffbd5593236a1a3d69f92167c81565b600e81565b6220148081565b670de0b6b3a76400008156fea265627a7a723158203704dcfee3d0f0d29a08078a6595361ca2f44be74750e89931ff4e70d3605a2064736f6c634300050e0032",
  "source": "pragma solidity 0.5.14;\n\ncontract Constant {\n\n    address public constant ETH_ADDR = 0x000000000000000000000000000000000000000E;\n    uint256 public constant INT_UNIT = 10 ** uint256(18);\n    address payable public constant EMERGENCY_ADDR = 0xc04158f7dB6F9c9fFbD5593236a1a3D69F92167c;\n    uint256 public constant ACCURACY = 10 ** 18;\n    uint256 public constant BLOCKS_PER_YEAR = 2102400;\n\n}\n",
  "sourcePath": "/Users/yanyichun/project/Savings/contracts/config/Constant.sol",
  "compiler": {
    "name": "solc",
    "version": "0.5.14+commit.01f1aaa4.Emscripten.clang"
  },
  "schemaVersion": "3.3.1",
  "updatedAt": "2020-11-09T00:44:13.947Z",
  "networkType": "ethereum",
  "devdoc": {
    "methods": {}
  },
  "userdoc": {
    "methods": {}
  }
}