{
  "contractName": "GlobalConfig",
  "abi": [
    {
      "anonymous": false,
      "inputs": [
        {
          "indexed": true,
          "internalType": "address",
          "name": "accounts",
          "type": "address"
        }
      ],
      "name": "AccountsUpdated",
      "type": "event"
    },
    {
      "anonymous": false,
      "inputs": [
        {
          "indexed": true,
          "internalType": "address",
          "name": "bank",
          "type": "address"
        }
      ],
      "name": "BankUpdated",
      "type": "event"
    },
    {
      "anonymous": false,
      "inputs": [
        {
          "indexed": true,
          "internalType": "address",
          "name": "chainLink",
          "type": "address"
        }
      ],
      "name": "ChainLinkUpdated",
      "type": "event"
    },
    {
      "anonymous": false,
      "inputs": [
        {
          "indexed": true,
          "internalType": "uint256",
          "name": "communityFundRatio",
          "type": "uint256"
        }
      ],
      "name": "CommunityFundRatioUpdated",
      "type": "event"
    },
    {
      "anonymous": false,
      "inputs": [
        {
          "indexed": true,
          "internalType": "uint256",
          "name": "compoundBorrowRateWeights",
          "type": "uint256"
        }
      ],
      "name": "CompoundBorrowRateWeightsUpdated",
      "type": "event"
    },
    {
      "anonymous": false,
      "inputs": [
        {
          "indexed": true,
          "internalType": "uint256",
          "name": "compoundSupplyRateWeights",
          "type": "uint256"
        }
      ],
      "name": "CompoundSupplyRateWeightsUpdated",
      "type": "event"
    },
    {
      "anonymous": false,
      "inputs": [
        {
          "indexed": true,
          "internalType": "address",
          "name": "constants",
          "type": "address"
        }
      ],
      "name": "ConstantUpdated",
      "type": "event"
    },
    {
      "anonymous": false,
      "inputs": [
        {
          "indexed": true,
          "internalType": "address",
          "name": "deFinerCommunityFund",
          "type": "address"
        }
      ],
      "name": "DeFinerCommunityFundUpdated",
      "type": "event"
    },
    {
      "anonymous": false,
      "inputs": [
        {
          "indexed": true,
          "internalType": "uint256",
          "name": "deFinerRate",
          "type": "uint256"
        }
      ],
      "name": "DeFinerRateUpdated",
      "type": "event"
    },
    {
      "anonymous": false,
      "inputs": [
        {
          "indexed": true,
          "internalType": "uint256",
          "name": "liquidationDiscountRatio",
          "type": "uint256"
        }
      ],
      "name": "LiquidationDiscountRatioUpdated",
      "type": "event"
    },
    {
      "anonymous": false,
      "inputs": [
        {
          "indexed": true,
          "internalType": "uint256",
          "name": "liquidationThreshold",
          "type": "uint256"
        }
      ],
      "name": "LiquidationThresholdUpdated",
      "type": "event"
    },
    {
      "anonymous": false,
      "inputs": [
        {
          "indexed": true,
          "internalType": "uint256",
          "name": "maxReserveRatio",
          "type": "uint256"
        }
      ],
      "name": "MaxReserveRatioUpdated",
      "type": "event"
    },
    {
      "anonymous": false,
      "inputs": [
        {
          "indexed": true,
          "internalType": "uint256",
          "name": "minReserveRatio",
          "type": "uint256"
        }
      ],
      "name": "MinReserveRatioUpdated",
      "type": "event"
    },
    {
      "anonymous": false,
      "inputs": [
        {
          "indexed": true,
          "internalType": "address",
          "name": "previousOwner",
          "type": "address"
        },
        {
          "indexed": true,
          "internalType": "address",
          "name": "newOwner",
          "type": "address"
        }
      ],
      "name": "OwnershipTransferred",
      "type": "event"
    },
    {
      "anonymous": false,
      "inputs": [
        {
          "indexed": true,
          "internalType": "address",
          "name": "savingAccount",
          "type": "address"
        }
      ],
      "name": "SavingAccountUpdated",
      "type": "event"
    },
    {
      "anonymous": false,
      "inputs": [
        {
          "indexed": true,
          "internalType": "address",
          "name": "tokenInfoRegistry",
          "type": "address"
        }
      ],
      "name": "TokenInfoRegistryUpdated",
      "type": "event"
    },
    {
      "anonymous": false,
      "inputs": [
        {
          "indexed": true,
          "internalType": "uint256",
          "name": "rateCurveConstant",
          "type": "uint256"
        }
      ],
      "name": "rateCurveConstantUpdated",
      "type": "event"
    },
    {
      "anonymous": false,
      "inputs": [
        {
          "indexed": true,
          "internalType": "uint256",
          "name": "rateCurveSlope",
          "type": "uint256"
        }
      ],
      "name": "rateCurveSlopeUpdated",
      "type": "event"
    },
    {
      "constant": true,
      "inputs": [],
      "name": "accounts",
      "outputs": [
        {
          "internalType": "contract Accounts",
          "name": "",
          "type": "address"
        }
      ],
      "payable": false,
      "stateMutability": "view",
      "type": "function"
    },
    {
      "constant": true,
      "inputs": [],
      "name": "bank",
      "outputs": [
        {
          "internalType": "contract Bank",
          "name": "",
          "type": "address"
        }
      ],
      "payable": false,
      "stateMutability": "view",
      "type": "function"
    },
    {
      "constant": true,
      "inputs": [],
      "name": "chainLink",
      "outputs": [
        {
          "internalType": "contract ChainLinkAggregator",
          "name": "",
          "type": "address"
        }
      ],
      "payable": false,
      "stateMutability": "view",
      "type": "function"
    },
    {
      "constant": true,
      "inputs": [],
      "name": "communityFundRatio",
      "outputs": [
        {
          "internalType": "uint256",
          "name": "",
          "type": "uint256"
        }
      ],
      "payable": false,
      "stateMutability": "view",
      "type": "function"
    },
    {
      "constant": true,
      "inputs": [],
      "name": "compoundBorrowRateWeights",
      "outputs": [
        {
          "internalType": "uint256",
          "name": "",
          "type": "uint256"
        }
      ],
      "payable": false,
      "stateMutability": "view",
      "type": "function"
    },
    {
      "constant": true,
      "inputs": [],
      "name": "compoundSupplyRateWeights",
      "outputs": [
        {
          "internalType": "uint256",
          "name": "",
          "type": "uint256"
        }
      ],
      "payable": false,
      "stateMutability": "view",
      "type": "function"
    },
    {
      "constant": true,
      "inputs": [],
      "name": "constants",
      "outputs": [
        {
          "internalType": "contract Constant",
          "name": "",
          "type": "address"
        }
      ],
      "payable": false,
      "stateMutability": "view",
      "type": "function"
    },
    {
      "constant": true,
      "inputs": [],
      "name": "deFinerCommunityFund",
      "outputs": [
        {
          "internalType": "address payable",
          "name": "",
          "type": "address"
        }
      ],
      "payable": false,
      "stateMutability": "view",
      "type": "function"
    },
    {
      "constant": true,
      "inputs": [],
      "name": "deFinerRate",
      "outputs": [
        {
          "internalType": "uint256",
          "name": "",
          "type": "uint256"
        }
      ],
      "payable": false,
      "stateMutability": "view",
      "type": "function"
    },
    {
      "constant": true,
      "inputs": [],
      "name": "isOwner",
      "outputs": [
        {
          "internalType": "bool",
          "name": "",
          "type": "bool"
        }
      ],
      "payable": false,
      "stateMutability": "view",
      "type": "function"
    },
    {
      "constant": true,
      "inputs": [],
      "name": "liquidationDiscountRatio",
      "outputs": [
        {
          "internalType": "uint256",
          "name": "",
          "type": "uint256"
        }
      ],
      "payable": false,
      "stateMutability": "view",
      "type": "function"
    },
    {
      "constant": true,
      "inputs": [],
      "name": "liquidationThreshold",
      "outputs": [
        {
          "internalType": "uint256",
          "name": "",
          "type": "uint256"
        }
      ],
      "payable": false,
      "stateMutability": "view",
      "type": "function"
    },
    {
      "constant": true,
      "inputs": [],
      "name": "maxReserveRatio",
      "outputs": [
        {
          "internalType": "uint256",
          "name": "",
          "type": "uint256"
        }
      ],
      "payable": false,
      "stateMutability": "view",
      "type": "function"
    },
    {
      "constant": true,
      "inputs": [],
      "name": "minReserveRatio",
      "outputs": [
        {
          "internalType": "uint256",
          "name": "",
          "type": "uint256"
        }
      ],
      "payable": false,
      "stateMutability": "view",
      "type": "function"
    },
    {
      "constant": true,
      "inputs": [],
      "name": "owner",
      "outputs": [
        {
          "internalType": "address",
          "name": "",
          "type": "address"
        }
      ],
      "payable": false,
      "stateMutability": "view",
      "type": "function"
    },
    {
      "constant": true,
      "inputs": [],
      "name": "rateCurveConstant",
      "outputs": [
        {
          "internalType": "uint256",
          "name": "",
          "type": "uint256"
        }
      ],
      "payable": false,
      "stateMutability": "view",
      "type": "function"
    },
    {
      "constant": true,
      "inputs": [],
      "name": "rateCurveSlope",
      "outputs": [
        {
          "internalType": "uint256",
          "name": "",
          "type": "uint256"
        }
      ],
      "payable": false,
      "stateMutability": "view",
      "type": "function"
    },
    {
      "constant": false,
      "inputs": [],
      "name": "renounceOwnership",
      "outputs": [],
      "payable": false,
      "stateMutability": "nonpayable",
      "type": "function"
    },
    {
      "constant": true,
      "inputs": [],
      "name": "savingAccount",
      "outputs": [
        {
          "internalType": "contract SavingAccount",
          "name": "",
          "type": "address"
        }
      ],
      "payable": false,
      "stateMutability": "view",
      "type": "function"
    },
    {
      "constant": true,
      "inputs": [],
      "name": "tokenInfoRegistry",
      "outputs": [
        {
          "internalType": "contract TokenRegistry",
          "name": "",
          "type": "address"
        }
      ],
      "payable": false,
      "stateMutability": "view",
      "type": "function"
    },
    {
      "constant": false,
      "inputs": [
        {
          "internalType": "address",
          "name": "newOwner",
          "type": "address"
        }
      ],
      "name": "transferOwnership",
      "outputs": [],
      "payable": false,
      "stateMutability": "nonpayable",
      "type": "function"
    },
    {
      "constant": false,
      "inputs": [
        {
          "internalType": "contract Bank",
          "name": "_bank",
          "type": "address"
        },
        {
          "internalType": "contract SavingAccount",
          "name": "_savingAccount",
          "type": "address"
        },
        {
          "internalType": "contract TokenRegistry",
          "name": "_tokenInfoRegistry",
          "type": "address"
        },
        {
          "internalType": "contract Accounts",
          "name": "_accounts",
          "type": "address"
        },
        {
          "internalType": "contract Constant",
          "name": "_constants",
          "type": "address"
        },
        {
          "internalType": "contract ChainLinkAggregator",
          "name": "_chainLink",
          "type": "address"
        }
      ],
      "name": "initialize",
      "outputs": [],
      "payable": false,
      "stateMutability": "nonpayable",
      "type": "function"
    },
    {
      "constant": false,
      "inputs": [
        {
          "internalType": "uint256",
          "name": "_communityFundRatio",
          "type": "uint256"
        }
      ],
      "name": "updateCommunityFundRatio",
      "outputs": [],
      "payable": false,
      "stateMutability": "nonpayable",
      "type": "function"
    },
    {
      "constant": false,
      "inputs": [
        {
          "internalType": "uint256",
          "name": "_minReserveRatio",
          "type": "uint256"
        }
      ],
      "name": "updateMinReserveRatio",
      "outputs": [],
      "payable": false,
      "stateMutability": "nonpayable",
      "type": "function"
    },
    {
      "constant": false,
      "inputs": [
        {
          "internalType": "uint256",
          "name": "_maxReserveRatio",
          "type": "uint256"
        }
      ],
      "name": "updateMaxReserveRatio",
      "outputs": [],
      "payable": false,
      "stateMutability": "nonpayable",
      "type": "function"
    },
    {
      "constant": false,
      "inputs": [
        {
          "internalType": "uint256",
          "name": "_liquidationThreshold",
          "type": "uint256"
        }
      ],
      "name": "updateLiquidationThreshold",
      "outputs": [],
      "payable": false,
      "stateMutability": "nonpayable",
      "type": "function"
    },
    {
      "constant": false,
      "inputs": [
        {
          "internalType": "uint256",
          "name": "_liquidationDiscountRatio",
          "type": "uint256"
        }
      ],
      "name": "updateLiquidationDiscountRatio",
      "outputs": [],
      "payable": false,
      "stateMutability": "nonpayable",
      "type": "function"
    },
    {
      "constant": true,
      "inputs": [],
      "name": "midReserveRatio",
      "outputs": [
        {
          "internalType": "uint256",
          "name": "",
          "type": "uint256"
        }
      ],
      "payable": false,
      "stateMutability": "view",
      "type": "function"
    },
    {
      "constant": false,
      "inputs": [
        {
          "internalType": "uint256",
          "name": "_compoundSupplyRateWeights",
          "type": "uint256"
        }
      ],
      "name": "updateCompoundSupplyRateWeights",
      "outputs": [],
      "payable": false,
      "stateMutability": "nonpayable",
      "type": "function"
    },
    {
      "constant": false,
      "inputs": [
        {
          "internalType": "uint256",
          "name": "_compoundBorrowRateWeights",
          "type": "uint256"
        }
      ],
      "name": "updateCompoundBorrowRateWeights",
      "outputs": [],
      "payable": false,
      "stateMutability": "nonpayable",
      "type": "function"
    },
    {
      "constant": false,
      "inputs": [
        {
          "internalType": "uint256",
          "name": "_rateCurveSlope",
          "type": "uint256"
        }
      ],
      "name": "updaterateCurveSlope",
      "outputs": [],
      "payable": false,
      "stateMutability": "nonpayable",
      "type": "function"
    },
    {
      "constant": false,
      "inputs": [
        {
          "internalType": "uint256",
          "name": "_rateCurveConstant",
          "type": "uint256"
        }
      ],
      "name": "updaterateCurveConstant",
      "outputs": [],
      "payable": false,
      "stateMutability": "nonpayable",
      "type": "function"
    },
    {
      "constant": false,
      "inputs": [
        {
          "internalType": "contract Bank",
          "name": "_bank",
          "type": "address"
        }
      ],
      "name": "updateBank",
      "outputs": [],
      "payable": false,
      "stateMutability": "nonpayable",
      "type": "function"
    },
    {
      "constant": false,
      "inputs": [
        {
          "internalType": "contract SavingAccount",
          "name": "_savingAccount",
          "type": "address"
        }
      ],
      "name": "updateSavingAccount",
      "outputs": [],
      "payable": false,
      "stateMutability": "nonpayable",
      "type": "function"
    },
    {
      "constant": false,
      "inputs": [
        {
          "internalType": "contract TokenRegistry",
          "name": "_tokenInfoRegistry",
          "type": "address"
        }
      ],
      "name": "updateTokenInfoRegistry",
      "outputs": [],
      "payable": false,
      "stateMutability": "nonpayable",
      "type": "function"
    },
    {
      "constant": false,
      "inputs": [
        {
          "internalType": "contract Accounts",
          "name": "_accounts",
          "type": "address"
        }
      ],
      "name": "updateAccounts",
      "outputs": [],
      "payable": false,
      "stateMutability": "nonpayable",
      "type": "function"
    },
    {
      "constant": false,
      "inputs": [
        {
          "internalType": "contract Constant",
          "name": "_constants",
          "type": "address"
        }
      ],
      "name": "updateConstant",
      "outputs": [],
      "payable": false,
      "stateMutability": "nonpayable",
      "type": "function"
    },
    {
      "constant": false,
      "inputs": [
        {
          "internalType": "address payable",
          "name": "_deFinerCommunityFund",
          "type": "address"
        }
      ],
      "name": "updatedeFinerCommunityFund",
      "outputs": [],
      "payable": false,
      "stateMutability": "nonpayable",
      "type": "function"
    },
    {
      "constant": false,
      "inputs": [
        {
          "internalType": "uint256",
          "name": "_deFinerRate",
          "type": "uint256"
        }
      ],
      "name": "updatedeFinerRate",
      "outputs": [],
      "payable": false,
      "stateMutability": "nonpayable",
      "type": "function"
    },
    {
      "constant": false,
      "inputs": [
        {
          "internalType": "contract ChainLinkAggregator",
          "name": "_chainLink",
          "type": "address"
        }
      ],
      "name": "updateChainLink",
      "outputs": [],
      "payable": false,
      "stateMutability": "nonpayable",
      "type": "function"
    }
  ],
  "bytecode": "0x6080604052600a60018190556002819055601460035560556004908155605f6005556006908155600755670214e8348c4f0000600855666a94d74f4300006009558055600b80546001600160a01b0319163317905560006100676001600160e01b036100b616565b600080546001600160a01b0319166001600160a01b0383169081178255604051929350917f8be0079c531659141344cd1fd0a4f28419497f9722a3daafe3b4186f6b6457e0908290a3506100ba565b3390565b61162e806100c96000396000f3fe608060405234801561001057600080fd5b50600436106102485760003560e01c80638da5cb5b1161013b578063c3693896116100b8578063d7693d311161007c578063d7693d3114610542578063ecc9870a1461055f578063f2fde38b14610567578063fb31ad171461058d578063fbe30a83146105b357610248565b8063c3693896146104aa578063c53d351b146104b2578063cc2a9a5b146104cf578063cc5738b51461051d578063d3b5be1a1461052557610248565b8063ace96d0e116100ff578063ace96d0e1461044f578063b3bd1c9514610457578063b442a2061461047d578063bdb0d27b14610485578063bf893914146104a257610248565b80638da5cb5b146103e05780638ea7c5cc146103e85780638f32d59b146104055780639895880f14610421578063a33ff7c21461042957610248565b806362891b66116101c9578063715018a61161018d578063715018a6146103a357806372de5b2f146103ab57806376cdb03b146103b35780637dbe5f10146103bb5780638682913a146103c357610248565b806362891b661461030e578063685ff7421461031657806368cd03f61461033c57806368ecef3f146103605780636f7744091461038657610248565b80633dedc31f116102105780633dedc31f146102bc5780634031234c146102d95780634802b7c1146102e157806355baaedb146102e95780635a596d1c1461030657610248565b806308fafb8d1461024d5780630c249bba1461026757806313afb8ef14610286578063268c74e41461028e578063375b47f714610296575b600080fd5b6102556105d9565b60408051918252519081900360200190f35b6102846004803603602081101561027d57600080fd5b50356105df565b005b610255610659565b61025561065f565b610284600480360360208110156102ac57600080fd5b50356001600160a01b0316610665565b610284600480360360208110156102d257600080fd5b50356106f6565b6102556107e1565b6102556107e7565b610284600480360360208110156102ff57600080fd5b50356107ed565b6102556108c2565b6102556108c8565b6102846004803603602081101561032c57600080fd5b50356001600160a01b03166108ce565b61034461095f565b604080516001600160a01b039092168252519081900360200190f35b6102846004803603602081101561037657600080fd5b50356001600160a01b031661096e565b6102846004803603602081101561039c57600080fd5b50356109ff565b610284610a79565b610344610b0a565b610344610b19565b610344610b28565b610284600480360360208110156103d957600080fd5b5035610b37565b610344610c22565b610284600480360360208110156103fe57600080fd5b5035610c31565b61040d610cab565b604080519115158252519081900360200190f35b610344610ccf565b6102846004803603602081101561043f57600080fd5b50356001600160a01b0316610cde565b610255610d6f565b6102846004803603602081101561046d57600080fd5b50356001600160a01b0316610d75565b610255610e06565b6102846004803603602081101561049b57600080fd5b5035610e0c565b610344610ef7565b610255610f06565b610284600480360360208110156104c857600080fd5b5035610f35565b610284600480360360c08110156104e557600080fd5b506001600160a01b038135811691602081013582169160408201358116916060810135821691608082013581169160a0013516611005565b6103446110bb565b6102846004803603602081101561053b57600080fd5b50356110ca565b6102846004803603602081101561055857600080fd5b50356111b5565b61025561122f565b6102846004803603602081101561057d57600080fd5b50356001600160a01b0316611235565b610284600480360360208110156105a357600080fd5b50356001600160a01b0316611285565b610284600480360360208110156105c957600080fd5b50356001600160a01b0316611316565b60065481565b6105e7610cab565b610626576040805162461bcd60e51b815260206004820181905260248201526000805160206115b7833981519152604482015290519081900360640190fd5b600681905560405181907f8792cb1bfe416f1cc137479efed54b16c110e386f36ab33d269896b79dd96a2190600090a250565b60075481565b60035481565b61066d610cab565b6106ac576040805162461bcd60e51b815260206004820181905260248201526000805160206115b7833981519152604482015290519081900360640190fd5b600f80546001600160a01b0319166001600160a01b0383169081179091556040517fbecde7fe690c73ba54232f00eb06c31464f65b45aff18984febaa80df22dcb8d90600090a250565b6106fe610cab565b61073d576040805162461bcd60e51b815260206004820181905260248201526000805160206115b7833981519152604482015290519081900360640190fd5b60015481141561074c576107de565b60008111801561075c5750606481105b6107ad576040805162461bcd60e51b815260206004820152601d60248201527f496e76616c696420636f6d6d756e6974792066756e6420726174696f2e000000604482015290519081900360640190fd5b600181905560405181907f68fcc248082a4ef6255e917b838adc7d786d2c513312b39a8b8f747f591e92a390600090a25b50565b60045481565b60055481565b6107f5610cab565b610834576040805162461bcd60e51b815260206004820181905260248201526000805160206115b7833981519152604482015290519081900360640190fd5b600554811415610843576107de565b600454811180156108545750606481105b61088f5760405162461bcd60e51b81526004018080602001828103825260238152602001806115d76023913960400191505060405180910390fd5b600581905560405181907fdd3919209b55cc8a36f80e4e59ed2a7f25eb84b426cb98e13b9805b56c9fd87890600090a250565b60025481565b60015481565b6108d6610cab565b610915576040805162461bcd60e51b815260206004820181905260248201526000805160206115b7833981519152604482015290519081900360640190fd5b601080546001600160a01b0319166001600160a01b0383169081179091556040517f512865ab9ff06b203689e1921943ed54a8ccd9c9586d66a96c3e8a5120fc494d90600090a250565b600f546001600160a01b031681565b610976610cab565b6109b5576040805162461bcd60e51b815260206004820181905260248201526000805160206115b7833981519152604482015290519081900360640190fd5b600d80546001600160a01b0319166001600160a01b0383169081179091556040517f37a03df42042204c7ea3f0d9dbe44283a33f092125dbdb9f561e884f883fc9a790600090a250565b610a07610cab565b610a46576040805162461bcd60e51b815260206004820181905260248201526000805160206115b7833981519152604482015290519081900360640190fd5b600881905560405181907fe6f1a1db38b4abb216a95813fc49a730494a0c4e67180a3491095c9feb61b99f90600090a250565b610a81610cab565b610ac0576040805162461bcd60e51b815260206004820181905260248201526000805160206115b7833981519152604482015290519081900360640190fd5b600080546040516001600160a01b03909116907f8be0079c531659141344cd1fd0a4f28419497f9722a3daafe3b4186f6b6457e0908390a3600080546001600160a01b0319169055565b6010546001600160a01b031681565b600c546001600160a01b031681565b6011546001600160a01b031681565b610b3f610cab565b610b7e576040805162461bcd60e51b815260206004820181905260248201526000805160206115b7833981519152604482015290519081900360640190fd5b600354811415610b8d576107de565b60025481118015610b9e5750606481105b610bef576040805162461bcd60e51b815260206004820152601a60248201527f496e76616c6964206d6178207265736572766520726174696f2e000000000000604482015290519081900360640190fd5b600381905560405181907f09edb0c5d800f863437b3a2bbda62e87670a2ee0d0d7393d91528b86653686bf90600090a250565b6000546001600160a01b031690565b610c39610cab565b610c78576040805162461bcd60e51b815260206004820181905260248201526000805160206115b7833981519152604482015290519081900360640190fd5b600981905560405181907fb9b54965572c57575800da41b416fdc81a77e9531892e14a2b8ce6f610776dd290600090a250565b600080546001600160a01b0316610cc06113a7565b6001600160a01b031614905090565b600e546001600160a01b031681565b610ce6610cab565b610d25576040805162461bcd60e51b815260206004820181905260248201526000805160206115b7833981519152604482015290519081900360640190fd5b600c80546001600160a01b0319166001600160a01b0383169081179091556040517ffe3d990e3bb62dbf6649423f21da0662810b4f2705032857be268654dea04b8290600090a250565b600a5481565b610d7d610cab565b610dbc576040805162461bcd60e51b815260206004820181905260248201526000805160206115b7833981519152604482015290519081900360640190fd5b600e80546001600160a01b0319166001600160a01b0383169081179091556040517fe8e1a5b0429912cccc46fe2db8f5674dde0987ffc2ef354fbde0344bad0a2abc90600090a250565b60095481565b610e14610cab565b610e53576040805162461bcd60e51b815260206004820181905260248201526000805160206115b7833981519152604482015290519081900360640190fd5b600254811415610e62576107de565b600081118015610e73575060035481105b610ec4576040805162461bcd60e51b815260206004820152601a60248201527f496e76616c6964206d696e207265736572766520726174696f2e000000000000604482015290519081900360640190fd5b600281905560405181907f9908ecf4f1e73ff46a5b94dbb96bd3e037f287f9878cae493114fb422484b1a590600090a250565b600b546001600160a01b031681565b6000610f306002610f246003546002546113ab90919063ffffffff16565b9063ffffffff61140c16565b905090565b610f3d610cab565b610f7c576040805162461bcd60e51b815260206004820181905260248201526000805160206115b7833981519152604482015290519081900360640190fd5b6064811115610fd2576040805162461bcd60e51b815260206004820152601e60248201527f5f646546696e6572526174652063616e6e6f7420657863656564203130300000604482015290519081900360640190fd5b600a81905560405181907f3c192391bb396d800b83e59fa038c7d71e0a7f839a4237a53a5737bc5ca3da7c90600090a250565b61100d610cab565b61104c576040805162461bcd60e51b815260206004820181905260248201526000805160206115b7833981519152604482015290519081900360640190fd5b600c80546001600160a01b03199081166001600160a01b0398891617909155600d8054821696881696909617909555600e8054861694871694909417909355600f8054851692861692909217909155601080548416918516919091179055601180549092169216919091179055565b600d546001600160a01b031681565b6110d2610cab565b611111576040805162461bcd60e51b815260206004820181905260248201526000805160206115b7833981519152604482015290519081900360640190fd5b600454811415611120576107de565b600081118015611131575060055481105b611182576040805162461bcd60e51b815260206004820152601e60248201527f496e76616c6964206c69717569646174696f6e207468726573686f6c642e0000604482015290519081900360640190fd5b600481905560405181907feba9f700db57a60a859189ecad4492254a5045e5cae74167bae53564fdea10ca90600090a250565b6111bd610cab565b6111fc576040805162461bcd60e51b815260206004820181905260248201526000805160206115b7833981519152604482015290519081900360640190fd5b600781905560405181907f69b1319629d69f49c839d9b85118b8f386ad5941c3f6345d62bd383a4dc487b590600090a250565b60085481565b61123d610cab565b61127c576040805162461bcd60e51b815260206004820181905260248201526000805160206115b7833981519152604482015290519081900360640190fd5b6107de8161144e565b61128d610cab565b6112cc576040805162461bcd60e51b815260206004820181905260248201526000805160206115b7833981519152604482015290519081900360640190fd5b600b80546001600160a01b0319166001600160a01b0383169081179091556040517fef8b5647c690089c14520df26f037bc8e972b2288a14444f356a51320b79e5c790600090a250565b61131e610cab565b61135d576040805162461bcd60e51b815260206004820181905260248201526000805160206115b7833981519152604482015290519081900360640190fd5b601180546001600160a01b0319166001600160a01b0383169081179091556040517fa83483d5dc3f2e6615872c0fb282f305c67ac075c766cfb5c38b59f7a25ad12890600090a250565b3390565b600082820183811015611405576040805162461bcd60e51b815260206004820152601b60248201527f536166654d6174683a206164646974696f6e206f766572666c6f770000000000604482015290519081900360640190fd5b9392505050565b600061140583836040518060400160405280601a81526020017f536166654d6174683a206469766973696f6e206279207a65726f0000000000008152506114ee565b6001600160a01b0381166114935760405162461bcd60e51b81526004018080602001828103825260268152602001806115916026913960400191505060405180910390fd5b600080546040516001600160a01b03808516939216917f8be0079c531659141344cd1fd0a4f28419497f9722a3daafe3b4186f6b6457e091a3600080546001600160a01b0319166001600160a01b0392909216919091179055565b6000818361157a5760405162461bcd60e51b81526004018080602001828103825283818151815260200191508051906020019080838360005b8381101561153f578181015183820152602001611527565b50505050905090810190601f16801561156c5780820380516001836020036101000a031916815260200191505b509250505060405180910390fd5b50600083858161158657fe5b049594505050505056fe4f776e61626c653a206e6577206f776e657220697320746865207a65726f20616464726573734f776e61626c653a2063616c6c6572206973206e6f7420746865206f776e6572496e76616c6964206c69717569646174696f6e20646973636f756e7420726174696f2ea265627a7a7231582092caefe3fd86d0a196ccca810d33e8e4b9852bc38e208ccfa20305d9987e372b64736f6c634300050e0032",
  "source": "pragma solidity 0.5.14;\n\nimport \"openzeppelin-solidity/contracts/math/SafeMath.sol\";\nimport \"openzeppelin-solidity/contracts/ownership/Ownable.sol\";\nimport \"../registry/TokenRegistry.sol\";\nimport \"../SavingAccount.sol\";\nimport \"../Bank.sol\";\nimport \"../Accounts.sol\";\nimport \"./Constant.sol\";\n// import \"@nomiclabs/buidler/console.sol\";\nimport \"../oracle/ChainLinkAggregator.sol\";\n\ncontract GlobalConfig is Ownable {\n    using SafeMath for uint256;\n\n    uint256 public communityFundRatio = 10;\n    uint256 public minReserveRatio = 10;\n    uint256 public maxReserveRatio = 20;\n    uint256 public liquidationThreshold = 85;\n    uint256 public liquidationDiscountRatio = 95;\n    uint256 public compoundSupplyRateWeights = 4;\n    uint256 public compoundBorrowRateWeights = 6;\n    uint256 public rateCurveSlope = 15 * 10 ** 16;\n    uint256 public rateCurveConstant = 3 * 10 ** 16;\n    uint256 public deFinerRate = 10;\n    address payable public deFinerCommunityFund = msg.sender;\n\n    Bank public bank;                               // the Bank contract\n    SavingAccount public savingAccount;             // the SavingAccount contract\n    TokenRegistry public tokenInfoRegistry;     // the TokenRegistry contract\n    Accounts public accounts;                       // the Accounts contract\n    Constant public constants;                      // the constants contract\n    ChainLinkAggregator public chainLink;\n\n    event CommunityFundRatioUpdated(uint256 indexed communityFundRatio);\n    event MinReserveRatioUpdated(uint256 indexed minReserveRatio);\n    event MaxReserveRatioUpdated(uint256 indexed maxReserveRatio);\n    event LiquidationThresholdUpdated(uint256 indexed liquidationThreshold);\n    event LiquidationDiscountRatioUpdated(uint256 indexed liquidationDiscountRatio);\n    event CompoundSupplyRateWeightsUpdated(uint256 indexed compoundSupplyRateWeights);\n    event CompoundBorrowRateWeightsUpdated(uint256 indexed compoundBorrowRateWeights);\n    event rateCurveSlopeUpdated(uint256 indexed rateCurveSlope);\n    event rateCurveConstantUpdated(uint256 indexed rateCurveConstant);\n    event ConstantUpdated(address indexed constants);\n    event BankUpdated(address indexed bank);\n    event SavingAccountUpdated(address indexed savingAccount);\n    event TokenInfoRegistryUpdated(address indexed tokenInfoRegistry);\n    event AccountsUpdated(address indexed accounts);\n    event DeFinerCommunityFundUpdated(address indexed deFinerCommunityFund);\n    event DeFinerRateUpdated(uint256 indexed deFinerRate);\n    event ChainLinkUpdated(address indexed chainLink);\n\n\n    function initialize(\n        Bank _bank,\n        SavingAccount _savingAccount,\n        TokenRegistry _tokenInfoRegistry,\n        Accounts _accounts,\n        Constant _constants,\n        ChainLinkAggregator _chainLink\n    ) public onlyOwner {\n        bank = _bank;\n        savingAccount = _savingAccount;\n        tokenInfoRegistry = _tokenInfoRegistry;\n        accounts = _accounts;\n        constants = _constants;\n        chainLink = _chainLink;\n    }\n\n    /**\n     * Update the community fund (commision fee) ratio.\n     * @param _communityFundRatio the new ratio\n     */\n    function updateCommunityFundRatio(uint256 _communityFundRatio) external onlyOwner {\n        if (_communityFundRatio == communityFundRatio)\n            return;\n\n        require(_communityFundRatio > 0 && _communityFundRatio < 100,\n            \"Invalid community fund ratio.\");\n        communityFundRatio = _communityFundRatio;\n\n        emit CommunityFundRatioUpdated(_communityFundRatio);\n    }\n\n    /**\n     * Update the minimum reservation reatio\n     * @param _minReserveRatio the new value of the minimum reservation ratio\n     */\n    function updateMinReserveRatio(uint256 _minReserveRatio) external onlyOwner {\n        if (_minReserveRatio == minReserveRatio)\n            return;\n\n        require(_minReserveRatio > 0 && _minReserveRatio < maxReserveRatio,\n            \"Invalid min reserve ratio.\");\n        minReserveRatio = _minReserveRatio;\n\n        emit MinReserveRatioUpdated(_minReserveRatio);\n    }\n\n    /**\n     * Update the maximum reservation reatio\n     * @param _maxReserveRatio the new value of the maximum reservation ratio\n     */\n    function updateMaxReserveRatio(uint256 _maxReserveRatio) external onlyOwner {\n        if (_maxReserveRatio == maxReserveRatio)\n            return;\n\n        require(_maxReserveRatio > minReserveRatio && _maxReserveRatio < 100,\n            \"Invalid max reserve ratio.\");\n        maxReserveRatio = _maxReserveRatio;\n\n        emit MaxReserveRatioUpdated(_maxReserveRatio);\n    }\n\n    /**\n     * Update the liquidation threshold, i.e. the LTV that will trigger the liquidation.\n     * @param _liquidationThreshold the new threshhold value\n     */\n    function updateLiquidationThreshold(uint256 _liquidationThreshold) external onlyOwner {\n        if (_liquidationThreshold == liquidationThreshold)\n            return;\n\n        require(_liquidationThreshold > 0 && _liquidationThreshold < liquidationDiscountRatio,\n            \"Invalid liquidation threshold.\");\n        liquidationThreshold = _liquidationThreshold;\n\n        emit LiquidationThresholdUpdated(_liquidationThreshold);\n    }\n\n    /**\n     * Update the liquidation discount\n     * @param _liquidationDiscountRatio the new liquidation discount\n     */\n    function updateLiquidationDiscountRatio(uint256 _liquidationDiscountRatio) external onlyOwner {\n        if (_liquidationDiscountRatio == liquidationDiscountRatio)\n            return;\n\n        require(_liquidationDiscountRatio > liquidationThreshold && _liquidationDiscountRatio < 100,\n            \"Invalid liquidation discount ratio.\");\n        liquidationDiscountRatio = _liquidationDiscountRatio;\n\n        emit LiquidationDiscountRatioUpdated(_liquidationDiscountRatio);\n    }\n\n    /**\n     * Medium value of the reservation ratio, which is the value that the pool try to maintain.\n     */\n    function midReserveRatio() public view returns(uint256){\n        return minReserveRatio.add(maxReserveRatio).div(2);\n    }\n\n    function updateCompoundSupplyRateWeights(uint256 _compoundSupplyRateWeights) external onlyOwner{\n        compoundSupplyRateWeights = _compoundSupplyRateWeights;\n\n        emit CompoundSupplyRateWeightsUpdated(_compoundSupplyRateWeights);\n    }\n\n    function updateCompoundBorrowRateWeights(uint256 _compoundBorrowRateWeights) external onlyOwner{\n        compoundBorrowRateWeights = _compoundBorrowRateWeights;\n\n        emit CompoundBorrowRateWeightsUpdated(_compoundBorrowRateWeights);\n    }\n\n    function updaterateCurveSlope(uint256 _rateCurveSlope) external onlyOwner{\n        rateCurveSlope = _rateCurveSlope;\n\n        emit rateCurveSlopeUpdated(_rateCurveSlope);\n    }\n\n    function updaterateCurveConstant(uint256 _rateCurveConstant) external onlyOwner{\n        rateCurveConstant = _rateCurveConstant;\n\n        emit rateCurveConstantUpdated(_rateCurveConstant);\n    }\n\n    function updateBank(Bank _bank) external onlyOwner{\n        bank = _bank;\n\n        emit BankUpdated(address(_bank));\n    }\n\n    function updateSavingAccount(SavingAccount _savingAccount) external onlyOwner{\n        savingAccount = _savingAccount;\n\n        emit SavingAccountUpdated(address(_savingAccount));\n    }\n\n    function updateTokenInfoRegistry(TokenRegistry _tokenInfoRegistry) external onlyOwner{\n        tokenInfoRegistry = _tokenInfoRegistry;\n\n        emit TokenInfoRegistryUpdated(address(_tokenInfoRegistry));\n    }\n\n    function updateAccounts(Accounts _accounts) external onlyOwner{\n        accounts = _accounts;\n\n        emit AccountsUpdated(address(_accounts));\n    }\n\n    function updateConstant(Constant _constants) external onlyOwner{\n        constants = _constants;\n\n        emit ConstantUpdated(address(_constants));\n    }\n\n    function updatedeFinerCommunityFund(address payable _deFinerCommunityFund) external onlyOwner{\n        deFinerCommunityFund = _deFinerCommunityFund;\n\n        emit DeFinerCommunityFundUpdated(_deFinerCommunityFund);\n    }\n\n    function updatedeFinerRate(uint256 _deFinerRate) external onlyOwner{\n        require(_deFinerRate <= 100,\"_deFinerRate cannot exceed 100\");\n        deFinerRate = _deFinerRate;\n\n        emit DeFinerRateUpdated(_deFinerRate);\n    }\n\n    function updateChainLink(ChainLinkAggregator _chainLink) external onlyOwner{\n        chainLink = _chainLink;\n\n        emit ChainLinkUpdated(address(_chainLink));\n    }\n\n}",
  "sourcePath": "/Users/yanyichun/project/Savings/contracts/config/GlobalConfig.sol",
  "compiler": {
    "name": "solc",
    "version": "0.5.14+commit.01f1aaa4.Emscripten.clang"
  },
  "schemaVersion": "3.3.1",
  "updatedAt": "2020-11-09T00:44:13.944Z",
  "networkType": "ethereum",
  "devdoc": {
    "methods": {
      "isOwner()": {
        "details": "Returns true if the caller is the current owner."
      },
      "owner()": {
        "details": "Returns the address of the current owner."
      },
      "renounceOwnership()": {
        "details": "Leaves the contract without owner. It will not be possible to call `onlyOwner` functions anymore. Can only be called by the current owner.     * NOTE: Renouncing ownership will leave the contract without an owner, thereby removing any functionality that is only available to the owner."
      },
      "transferOwnership(address)": {
        "details": "Transfers ownership of the contract to a new account (`newOwner`). Can only be called by the current owner."
      },
      "updateCommunityFundRatio(uint256)": {
        "params": {
          "_communityFundRatio": "the new ratio"
        }
      },
      "updateLiquidationDiscountRatio(uint256)": {
        "params": {
          "_liquidationDiscountRatio": "the new liquidation discount"
        }
      },
      "updateLiquidationThreshold(uint256)": {
        "params": {
          "_liquidationThreshold": "the new threshhold value"
        }
      },
      "updateMaxReserveRatio(uint256)": {
        "params": {
          "_maxReserveRatio": "the new value of the maximum reservation ratio"
        }
      },
      "updateMinReserveRatio(uint256)": {
        "params": {
          "_minReserveRatio": "the new value of the minimum reservation ratio"
        }
      }
    }
  },
  "userdoc": {
    "methods": {
      "midReserveRatio()": {
        "notice": "Medium value of the reservation ratio, which is the value that the pool try to maintain."
      },
      "updateCommunityFundRatio(uint256)": {
        "notice": "Update the community fund (commision fee) ratio."
      },
      "updateLiquidationDiscountRatio(uint256)": {
        "notice": "Update the liquidation discount"
      },
      "updateLiquidationThreshold(uint256)": {
        "notice": "Update the liquidation threshold, i.e. the LTV that will trigger the liquidation."
      },
      "updateMaxReserveRatio(uint256)": {
        "notice": "Update the maximum reservation reatio"
      },
      "updateMinReserveRatio(uint256)": {
        "notice": "Update the minimum reservation reatio"
      }
    }
  }
}