{
  "contractName": "InitializablePausable",
  "abi": [
    {
      "anonymous": false,
      "inputs": [
        {
          "indexed": false,
          "internalType": "address",
          "name": "account",
          "type": "address"
        }
      ],
      "name": "Paused",
      "type": "event"
    },
    {
      "anonymous": false,
      "inputs": [
        {
          "indexed": false,
          "internalType": "address",
          "name": "account",
          "type": "address"
        }
      ],
      "name": "Unpaused",
      "type": "event"
    },
    {
      "constant": true,
      "inputs": [],
      "name": "paused",
      "outputs": [
        {
          "internalType": "bool",
          "name": "",
          "type": "bool"
        }
      ],
      "payable": false,
      "stateMutability": "view",
      "type": "function"
    },
    {
      "constant": false,
      "inputs": [],
      "name": "pause",
      "outputs": [],
      "payable": false,
      "stateMutability": "nonpayable",
      "type": "function"
    },
    {
      "constant": false,
      "inputs": [],
      "name": "unpause",
      "outputs": [],
      "payable": false,
      "stateMutability": "nonpayable",
      "type": "function"
    }
  ],
  "bytecode": "0x608060405234801561001057600080fd5b5061043d806100206000396000f3fe608060405234801561001057600080fd5b50600436106100415760003560e01c80633f4ba83a146100465780635c975abb146100505780638456cb591461006c575b600080fd5b61004e610074565b005b610058610241565b604080519115158252519081900360200190f35b61004e610251565b6000809054906101000a90046001600160a01b03166001600160a01b0316638da5cb5b6040518163ffffffff1660e01b815260040160206040518083038186803b1580156100c157600080fd5b505afa1580156100d5573d6000803e3d6000fd5b505050506040513d60208110156100eb57600080fd5b50516001600160a01b031633146101335760405162461bcd60e51b81526004018080602001828103825260308152602001806103d96030913960400191505060405180910390fd5b600054600160a01b900460ff16610188576040805162461bcd60e51b815260206004820152601460248201527314185d5cd8589b194e881b9bdd081c185d5cd95960621b604482015290519081900360640190fd5b6000805460ff60a01b19811690915560408051638da5cb5b60e01b815290517f5db9ee0a495bf2e6ff9c91a7834c1ba4fdd244a5e8aa4e537bd38aeae4b073aa926001600160a01b031691638da5cb5b916004808301926020929190829003018186803b1580156101f857600080fd5b505afa15801561020c573d6000803e3d6000fd5b505050506040513d602081101561022257600080fd5b5051604080516001600160a01b039092168252519081900360200190a1565b600054600160a01b900460ff1690565b6000809054906101000a90046001600160a01b03166001600160a01b0316638da5cb5b6040518163ffffffff1660e01b815260040160206040518083038186803b15801561029e57600080fd5b505afa1580156102b2573d6000803e3d6000fd5b505050506040513d60208110156102c857600080fd5b50516001600160a01b031633146103105760405162461bcd60e51b81526004018080602001828103825260308152602001806103d96030913960400191505060405180910390fd5b600054600160a01b900460ff1615610362576040805162461bcd60e51b815260206004820152601060248201526f14185d5cd8589b194e881c185d5cd95960821b604482015290519081900360640190fd5b6000805460ff60a01b1916600160a01b179081905560408051638da5cb5b60e01b815290517f62e78cea01bee320cd4e420270b5ea74000d11b0c9f74754ebdbfc544b05a258926001600160a01b031691638da5cb5b916004808301926020929190829003018186803b1580156101f857600080fdfe506175736572526f6c653a2063616c6c657220646f6573206e6f742068617665207468652050617573657220726f6c65a265627a7a723158209e4867550350cc1d30c206054358322cbdac758f950803fab67fbf3a5a417b5764736f6c634300050e0032",
  "source": "pragma solidity ^0.5.14;\n\nimport \"./config/GlobalConfig.sol\";\n\n/**\n * @dev Contract module which allows children to implement an emergency stop\n * mechanism that can be triggered by an authorized account.\n *\n * This module is used through inheritance. It will make available the\n * modifiers `whenNotPaused` and `whenPaused`, which can be applied to\n * the functions of your contract. Note that they will not be pausable by\n * simply including this module, only once the modifiers are put in place.\n */\ncontract InitializablePausable {\n    /**\n     * @dev Emitted when the pause is triggered by a pauser (`account`).\n     */\n    event Paused(address account);\n\n    /**\n     * @dev Emitted when the pause is lifted by a pauser (`account`).\n     */\n    event Unpaused(address account);\n    \n    address private globalConfig;\n    bool private _paused;\n\n    function _initialize(address _globalConfig) internal {\n        globalConfig = _globalConfig;\n        _paused = false;\n    }\n\n    /**\n     * @dev Returns true if the contract is paused, and false otherwise.\n     */\n    function paused() public view returns (bool) {\n        return _paused;\n    }\n\n    /**\n     * @dev Modifier to make a function callable only when the contract is not paused.\n     */\n    modifier whenNotPaused() {\n        require(!_paused, \"Pausable: paused\");\n        _;\n    }\n\n    /**\n     * @dev Modifier to make a function callable only when the contract is paused.\n     */\n    modifier whenPaused() {\n        require(_paused, \"Pausable: not paused\");\n        _;\n    }\n\n    /**\n     * @dev Called by a pauser to pause, triggers stopped state.\n     */\n    function pause() public onlyPauser whenNotPaused {\n        _paused = true;\n        emit Paused(GlobalConfig(globalConfig).owner());\n    }\n\n    /**\n     * @dev Called by a pauser to unpause, returns to normal state.\n     */\n    function unpause() public onlyPauser whenPaused {\n        _paused = false;\n        emit Unpaused(GlobalConfig(globalConfig).owner());\n    }\n\n    modifier onlyPauser() {\n        require(msg.sender == GlobalConfig(globalConfig).owner(), \"PauserRole: caller does not have the Pauser role\");\n        _;\n    }\n}\n",
  "sourcePath": "/Users/yanyichun/project/Savings/contracts/InitializablePausable.sol",
  "compiler": {
    "name": "solc",
    "version": "0.5.14+commit.01f1aaa4.Emscripten.clang"
  },
  "schemaVersion": "3.3.1",
  "updatedAt": "2020-11-08T23:23:52.345Z",
  "devdoc": {
    "details": "Contract module which allows children to implement an emergency stop mechanism that can be triggered by an authorized account. * This module is used through inheritance. It will make available the modifiers `whenNotPaused` and `whenPaused`, which can be applied to the functions of your contract. Note that they will not be pausable by simply including this module, only once the modifiers are put in place.",
    "methods": {
      "pause()": {
        "details": "Called by a pauser to pause, triggers stopped state."
      },
      "paused()": {
        "details": "Returns true if the contract is paused, and false otherwise."
      },
      "unpause()": {
        "details": "Called by a pauser to unpause, returns to normal state."
      }
    }
  },
  "userdoc": {
    "methods": {}
  }
}