{
  "contractName": "MockChainLinkAggregator",
  "abi": [
    {
      "inputs": [
        {
          "internalType": "uint8",
          "name": "_decimals",
          "type": "uint8"
        },
        {
          "internalType": "int256",
          "name": "_initialAnswer",
          "type": "int256"
        }
      ],
      "payable": false,
      "stateMutability": "nonpayable",
      "type": "constructor"
    },
    {
      "anonymous": false,
      "inputs": [
        {
          "indexed": true,
          "internalType": "int256",
          "name": "current",
          "type": "int256"
        },
        {
          "indexed": true,
          "internalType": "uint256",
          "name": "roundId",
          "type": "uint256"
        },
        {
          "indexed": false,
          "internalType": "uint256",
          "name": "timestamp",
          "type": "uint256"
        }
      ],
      "name": "AnswerUpdated",
      "type": "event"
    },
    {
      "anonymous": false,
      "inputs": [
        {
          "indexed": true,
          "internalType": "uint256",
          "name": "roundId",
          "type": "uint256"
        },
        {
          "indexed": true,
          "internalType": "address",
          "name": "startedBy",
          "type": "address"
        }
      ],
      "name": "NewRound",
      "type": "event"
    },
    {
      "constant": true,
      "inputs": [],
      "name": "decimals",
      "outputs": [
        {
          "internalType": "uint8",
          "name": "",
          "type": "uint8"
        }
      ],
      "payable": false,
      "stateMutability": "view",
      "type": "function"
    },
    {
      "constant": true,
      "inputs": [
        {
          "internalType": "uint256",
          "name": "",
          "type": "uint256"
        }
      ],
      "name": "getAnswer",
      "outputs": [
        {
          "internalType": "int256",
          "name": "",
          "type": "int256"
        }
      ],
      "payable": false,
      "stateMutability": "view",
      "type": "function"
    },
    {
      "constant": true,
      "inputs": [
        {
          "internalType": "uint256",
          "name": "",
          "type": "uint256"
        }
      ],
      "name": "getTimestamp",
      "outputs": [
        {
          "internalType": "uint256",
          "name": "",
          "type": "uint256"
        }
      ],
      "payable": false,
      "stateMutability": "view",
      "type": "function"
    },
    {
      "constant": true,
      "inputs": [],
      "name": "latestAnswer",
      "outputs": [
        {
          "internalType": "int256",
          "name": "",
          "type": "int256"
        }
      ],
      "payable": false,
      "stateMutability": "view",
      "type": "function"
    },
    {
      "constant": true,
      "inputs": [],
      "name": "latestRound",
      "outputs": [
        {
          "internalType": "uint256",
          "name": "",
          "type": "uint256"
        }
      ],
      "payable": false,
      "stateMutability": "view",
      "type": "function"
    },
    {
      "constant": true,
      "inputs": [],
      "name": "latestTimestamp",
      "outputs": [
        {
          "internalType": "uint256",
          "name": "",
          "type": "uint256"
        }
      ],
      "payable": false,
      "stateMutability": "view",
      "type": "function"
    },
    {
      "constant": false,
      "inputs": [
        {
          "internalType": "int256",
          "name": "_answer",
          "type": "int256"
        }
      ],
      "name": "updateAnswer",
      "outputs": [],
      "payable": false,
      "stateMutability": "nonpayable",
      "type": "function"
    }
  ],
  "bytecode": "0x608060405234801561001057600080fd5b506040516102733803806102738339818101604052604081101561003357600080fd5b5080516020909101516000805460ff191660ff84161790556100548161005b565b5050610094565b60018181554260028190556003805490920180835560009081526004602090815260408083209590955592548152600590925291902055565b6101d0806100a36000396000f3fe608060405234801561001057600080fd5b506004361061007d5760003560e01c80638205bf6a1161005b5780638205bf6a146100c2578063a87a20ce146100ca578063b5ab58dc146100e9578063b633620c146101065761007d565b8063313ce5671461008257806350d25bcd146100a0578063668a0f02146100ba575b600080fd5b61008a610123565b6040805160ff9092168252519081900360200190f35b6100a861012c565b60408051918252519081900360200190f35b6100a8610132565b6100a8610138565b6100e7600480360360208110156100e057600080fd5b503561013e565b005b6100a8600480360360208110156100ff57600080fd5b5035610177565b6100a86004803603602081101561011c57600080fd5b5035610189565b60005460ff1681565b60015481565b60035481565b60025481565b60018181554260028190556003805490920180835560009081526004602090815260408083209590955592548152600590925291902055565b60046020526000908152604090205481565b6005602052600090815260409020548156fea265627a7a723158209eb46e3d9e6adcfc12f373dcb2018d09dd57c09d407b9e2d23b06fb5ce5108ad64736f6c634300050e0032",
  "source": "pragma solidity 0.5.14;\n\nimport \"@chainlink/contracts/src/v0.5/dev/AggregatorInterface.sol\";\n\n/**\n * @title The MockChainLinkAggregator contract\n * @notice Use this contract when you need to test\n * other contract's ability to read data from an\n * aggregator contract, but how the aggregator got\n * its answer is unimportant\n */\ncontract MockChainLinkAggregator is AggregatorInterface {\n    uint8 public decimals;\n    int256 public latestAnswer;\n    uint256 public latestTimestamp;\n    uint256 public latestRound;\n\n    mapping(uint256 => int256) public getAnswer;\n    mapping(uint256 => uint256) public getTimestamp;\n\n    constructor(\n        uint8 _decimals,\n        int256 _initialAnswer\n    ) public {\n        decimals = _decimals;\n        updateAnswer(_initialAnswer);\n    }\n\n    function updateAnswer(\n        int256 _answer\n    ) public {\n        latestAnswer = _answer;\n        latestTimestamp = block.timestamp;\n        latestRound++;\n        getAnswer[latestRound] = _answer;\n        getTimestamp[latestRound] = block.timestamp;\n    }\n}",
  "sourcePath": "/Users/yanyichun/project/Savings/contracts/mocks/MockChainLinkAggregator.sol",
  "compiler": {
    "name": "solc",
    "version": "0.5.14+commit.01f1aaa4.Emscripten.clang"
  },
  "schemaVersion": "3.3.1",
  "updatedAt": "2020-11-09T00:44:13.956Z",
  "networkType": "ethereum",
  "devdoc": {
    "methods": {},
    "title": "The MockChainLinkAggregator contract"
  },
  "userdoc": {
    "methods": {},
    "notice": "Use this contract when you need to test other contract's ability to read data from an aggregator contract, but how the aggregator got its answer is unimportant"
  }
}