{
  "contractName": "SavingAccount",
  "abi": [
    {
      "inputs": [],
      "payable": false,
      "stateMutability": "nonpayable",
      "type": "constructor"
    },
    {
      "anonymous": false,
      "inputs": [
        {
          "indexed": true,
          "internalType": "address",
          "name": "token",
          "type": "address"
        },
        {
          "indexed": false,
          "internalType": "address",
          "name": "from",
          "type": "address"
        },
        {
          "indexed": false,
          "internalType": "uint256",
          "name": "amount",
          "type": "uint256"
        }
      ],
      "name": "Borrow",
      "type": "event"
    },
    {
      "anonymous": false,
      "inputs": [
        {
          "indexed": true,
          "internalType": "address",
          "name": "token",
          "type": "address"
        },
        {
          "indexed": false,
          "internalType": "address",
          "name": "from",
          "type": "address"
        },
        {
          "indexed": false,
          "internalType": "uint256",
          "name": "amount",
          "type": "uint256"
        }
      ],
      "name": "Deposit",
      "type": "event"
    },
    {
      "anonymous": false,
      "inputs": [
        {
          "indexed": false,
          "internalType": "address",
          "name": "account",
          "type": "address"
        }
      ],
      "name": "Paused",
      "type": "event"
    },
    {
      "anonymous": false,
      "inputs": [
        {
          "indexed": true,
          "internalType": "address",
          "name": "token",
          "type": "address"
        },
        {
          "indexed": false,
          "internalType": "address",
          "name": "from",
          "type": "address"
        },
        {
          "indexed": false,
          "internalType": "uint256",
          "name": "amount",
          "type": "uint256"
        }
      ],
      "name": "Repay",
      "type": "event"
    },
    {
      "anonymous": false,
      "inputs": [
        {
          "indexed": true,
          "internalType": "address",
          "name": "token",
          "type": "address"
        },
        {
          "indexed": false,
          "internalType": "address",
          "name": "from",
          "type": "address"
        },
        {
          "indexed": false,
          "internalType": "address",
          "name": "to",
          "type": "address"
        },
        {
          "indexed": false,
          "internalType": "uint256",
          "name": "amount",
          "type": "uint256"
        }
      ],
      "name": "Transfer",
      "type": "event"
    },
    {
      "anonymous": false,
      "inputs": [
        {
          "indexed": false,
          "internalType": "address",
          "name": "account",
          "type": "address"
        }
      ],
      "name": "Unpaused",
      "type": "event"
    },
    {
      "anonymous": false,
      "inputs": [
        {
          "indexed": true,
          "internalType": "address",
          "name": "token",
          "type": "address"
        },
        {
          "indexed": false,
          "internalType": "address",
          "name": "from",
          "type": "address"
        },
        {
          "indexed": false,
          "internalType": "uint256",
          "name": "amount",
          "type": "uint256"
        }
      ],
      "name": "Withdraw",
      "type": "event"
    },
    {
      "anonymous": false,
      "inputs": [
        {
          "indexed": true,
          "internalType": "address",
          "name": "token",
          "type": "address"
        },
        {
          "indexed": false,
          "internalType": "address",
          "name": "from",
          "type": "address"
        },
        {
          "indexed": false,
          "internalType": "uint256",
          "name": "amount",
          "type": "uint256"
        }
      ],
      "name": "WithdrawAll",
      "type": "event"
    },
    {
      "payable": true,
      "stateMutability": "payable",
      "type": "fallback"
    },
    {
      "constant": true,
      "inputs": [],
      "name": "ACCURACY",
      "outputs": [
        {
          "internalType": "uint256",
          "name": "",
          "type": "uint256"
        }
      ],
      "payable": false,
      "stateMutability": "view",
      "type": "function"
    },
    {
      "constant": true,
      "inputs": [],
      "name": "BLOCKS_PER_YEAR",
      "outputs": [
        {
          "internalType": "uint256",
          "name": "",
          "type": "uint256"
        }
      ],
      "payable": false,
      "stateMutability": "view",
      "type": "function"
    },
    {
      "constant": true,
      "inputs": [],
      "name": "EMERGENCY_ADDR",
      "outputs": [
        {
          "internalType": "address payable",
          "name": "",
          "type": "address"
        }
      ],
      "payable": false,
      "stateMutability": "view",
      "type": "function"
    },
    {
      "constant": true,
      "inputs": [],
      "name": "ETH_ADDR",
      "outputs": [
        {
          "internalType": "address",
          "name": "",
          "type": "address"
        }
      ],
      "payable": false,
      "stateMutability": "view",
      "type": "function"
    },
    {
      "constant": true,
      "inputs": [],
      "name": "INT_UNIT",
      "outputs": [
        {
          "internalType": "uint256",
          "name": "",
          "type": "uint256"
        }
      ],
      "payable": false,
      "stateMutability": "view",
      "type": "function"
    },
    {
      "constant": true,
      "inputs": [],
      "name": "globalConfig",
      "outputs": [
        {
          "internalType": "contract GlobalConfig",
          "name": "",
          "type": "address"
        }
      ],
      "payable": false,
      "stateMutability": "view",
      "type": "function"
    },
    {
      "constant": false,
      "inputs": [],
      "name": "pause",
      "outputs": [],
      "payable": false,
      "stateMutability": "nonpayable",
      "type": "function"
    },
    {
      "constant": true,
      "inputs": [],
      "name": "paused",
      "outputs": [
        {
          "internalType": "bool",
          "name": "",
          "type": "bool"
        }
      ],
      "payable": false,
      "stateMutability": "view",
      "type": "function"
    },
    {
      "constant": false,
      "inputs": [],
      "name": "unpause",
      "outputs": [],
      "payable": false,
      "stateMutability": "nonpayable",
      "type": "function"
    },
    {
      "constant": false,
      "inputs": [
        {
          "internalType": "address[]",
          "name": "_tokenAddresses",
          "type": "address[]"
        },
        {
          "internalType": "address[]",
          "name": "_cTokenAddresses",
          "type": "address[]"
        },
        {
          "internalType": "contract GlobalConfig",
          "name": "_globalConfig",
          "type": "address"
        }
      ],
      "name": "initialize",
      "outputs": [],
      "payable": false,
      "stateMutability": "nonpayable",
      "type": "function"
    },
    {
      "constant": false,
      "inputs": [
        {
          "internalType": "address",
          "name": "_token",
          "type": "address"
        }
      ],
      "name": "approveAll",
      "outputs": [],
      "payable": false,
      "stateMutability": "nonpayable",
      "type": "function"
    },
    {
      "constant": false,
      "inputs": [
        {
          "internalType": "address",
          "name": "_to",
          "type": "address"
        },
        {
          "internalType": "address",
          "name": "_token",
          "type": "address"
        },
        {
          "internalType": "uint256",
          "name": "_amount",
          "type": "uint256"
        }
      ],
      "name": "transfer",
      "outputs": [],
      "payable": false,
      "stateMutability": "nonpayable",
      "type": "function"
    },
    {
      "constant": false,
      "inputs": [
        {
          "internalType": "address",
          "name": "_token",
          "type": "address"
        },
        {
          "internalType": "uint256",
          "name": "_amount",
          "type": "uint256"
        }
      ],
      "name": "borrow",
      "outputs": [],
      "payable": false,
      "stateMutability": "nonpayable",
      "type": "function"
    },
    {
      "constant": false,
      "inputs": [
        {
          "internalType": "address",
          "name": "_token",
          "type": "address"
        },
        {
          "internalType": "uint256",
          "name": "_amount",
          "type": "uint256"
        }
      ],
      "name": "repay",
      "outputs": [],
      "payable": true,
      "stateMutability": "payable",
      "type": "function"
    },
    {
      "constant": false,
      "inputs": [
        {
          "internalType": "address",
          "name": "_token",
          "type": "address"
        },
        {
          "internalType": "uint256",
          "name": "_amount",
          "type": "uint256"
        }
      ],
      "name": "deposit",
      "outputs": [],
      "payable": true,
      "stateMutability": "payable",
      "type": "function"
    },
    {
      "constant": false,
      "inputs": [
        {
          "internalType": "address",
          "name": "_token",
          "type": "address"
        },
        {
          "internalType": "uint256",
          "name": "_amount",
          "type": "uint256"
        }
      ],
      "name": "withdraw",
      "outputs": [],
      "payable": false,
      "stateMutability": "nonpayable",
      "type": "function"
    },
    {
      "constant": false,
      "inputs": [
        {
          "internalType": "address",
          "name": "_token",
          "type": "address"
        }
      ],
      "name": "withdrawAll",
      "outputs": [],
      "payable": false,
      "stateMutability": "nonpayable",
      "type": "function"
    },
    {
      "constant": false,
      "inputs": [
        {
          "internalType": "address",
          "name": "_targetAccountAddr",
          "type": "address"
        },
        {
          "internalType": "address",
          "name": "_targetToken",
          "type": "address"
        }
      ],
      "name": "liquidate",
      "outputs": [],
      "payable": false,
      "stateMutability": "nonpayable",
      "type": "function"
    },
    {
      "constant": false,
      "inputs": [
        {
          "internalType": "address",
          "name": "_token",
          "type": "address"
        },
        {
          "internalType": "uint256",
          "name": "_amount",
          "type": "uint256"
        }
      ],
      "name": "fromCompound",
      "outputs": [],
      "payable": false,
      "stateMutability": "nonpayable",
      "type": "function"
    },
    {
      "constant": false,
      "inputs": [
        {
          "internalType": "address",
          "name": "_token",
          "type": "address"
        },
        {
          "internalType": "uint256",
          "name": "_amount",
          "type": "uint256"
        }
      ],
      "name": "toCompound",
      "outputs": [],
      "payable": false,
      "stateMutability": "nonpayable",
      "type": "function"
    },
    {
      "constant": false,
      "inputs": [
        {
          "internalType": "address",
          "name": "_token",
          "type": "address"
        }
      ],
      "name": "emergencyWithdraw",
      "outputs": [],
      "payable": false,
      "stateMutability": "nonpayable",
      "type": "function"
    }
  ],
  "bytecode": "0x608060405234801561001057600080fd5b5061583480620000216000396000f3fe60806040526004361061012a5760003560e01c80637753f47b116100ab578063beabacc81161006f578063beabacc8146104bd578063d37db1d214610500578063d8c2d84c14610527578063f3fef3a31461053c578063fa09e63014610575578063fbcd9b05146105275761012a565b80637753f47b1461040a5780638280e5a91461041f5780638456cb591461045857806386b9d81f1461046d578063a7c1abe0146104a85761012a565b8063526e93cb116100f2578063526e93cb146102055780635274ac3f1461023e5780635467cec41461037d5780635c975abb146103ae5780636ff1c9bc146103d75761012a565b80630621472c1461012c57806322867d781461015f5780633f4ba83a1461018b57806347e7ef24146101a05780634b8a3529146101cc575b005b34801561013857600080fd5b5061012a6004803603602081101561014f57600080fd5b50356001600160a01b03166105a8565b61012a6004803603604081101561017557600080fd5b506001600160a01b038135169060200135610720565b34801561019757600080fd5b5061012a610c1c565b61012a600480360360408110156101b657600080fd5b506001600160a01b038135169060200135610def565b3480156101d857600080fd5b5061012a600480360360408110156101ef57600080fd5b506001600160a01b038135169060200135611347565b34801561021157600080fd5b5061012a6004803603604081101561022857600080fd5b506001600160a01b0381351690602001356118ea565b34801561024a57600080fd5b5061012a6004803603606081101561026157600080fd5b81019060208101813564010000000081111561027c57600080fd5b82018360208201111561028e57600080fd5b803590602001918460208302840111640100000000831117156102b057600080fd5b919080806020026020016040519081016040528093929190818152602001838360200280828437600092019190915250929594936020810193503591505064010000000081111561030057600080fd5b82018360208201111561031257600080fd5b8035906020019184602083028401116401000000008311171561033457600080fd5b919080806020026020016040519081016040528093929190818152602001838360200280828437600092019190915250929550505090356001600160a01b03169150611b639050565b34801561038957600080fd5b50610392611d06565b604080516001600160a01b039092168252519081900360200190f35b3480156103ba57600080fd5b506103c3611d1e565b604080519115158252519081900360200190f35b3480156103e357600080fd5b5061012a600480360360208110156103fa57600080fd5b50356001600160a01b0316611d2e565b34801561041657600080fd5b50610392611e0c565b34801561042b57600080fd5b5061012a6004803603604081101561044257600080fd5b506001600160a01b038135169060200135611e11565b34801561046457600080fd5b5061012a612162565b34801561047957600080fd5b5061012a6004803603604081101561049057600080fd5b506001600160a01b03813581169160200135166122f0565b3480156104b457600080fd5b50610392613d42565b3480156104c957600080fd5b5061012a600480360360608110156104e057600080fd5b506001600160a01b03813581169160208101359091169060400135613d51565b34801561050c57600080fd5b5061051561440e565b60408051918252519081900360200190f35b34801561053357600080fd5b50610515614415565b34801561054857600080fd5b5061012a6004803603604081101561055f57600080fd5b506001600160a01b038135169060200135614421565b34801561058157600080fd5b5061012a6004803603602081101561059857600080fd5b50356001600160a01b03166148a9565b60345460408051639895880f60e01b815290516000926001600160a01b031691639895880f916004808301926020929190829003018186803b1580156105ed57600080fd5b505afa158015610601573d6000803e3d6000fd5b505050506040513d602081101561061757600080fd5b505160408051637e5a4eb960e01b81526001600160a01b03858116600483015291519190921691637e5a4eb9916024808301926020929190829003018186803b15801561066357600080fd5b505afa158015610677573d6000803e3d6000fd5b505050506040513d602081101561068d57600080fd5b505190506001600160a01b0381166106e5576040805162461bcd60e51b815260206004820152601660248201527563546f6b656e2061646472657373206973207a65726f60501b604482015290519081900360640190fd5b6107006001600160a01b03831682600063ffffffff614ff416565b61071c6001600160a01b0383168260001963ffffffff614ff416565b5050565b603454604080516378b88bc760e11b81526001600160a01b039283166004820152918416602483015251839173__Utils_________________________________9163f171178e91604480820192602092909190829003018186803b15801561078857600080fd5b505af415801561079c573d6000803e3d6000fd5b505050506040513d60208110156107b257600080fd5b50516108ed57603460009054906101000a90046001600160a01b03166001600160a01b0316639895880f6040518163ffffffff1660e01b815260040160206040518083038186803b15801561080657600080fd5b505afa15801561081a573d6000803e3d6000fd5b505050506040513d602081101561083057600080fd5b505160408051633fc422e560e01b81526001600160a01b03848116600483015291519190921691633fc422e5916024808301926020929190829003018186803b15801561087c57600080fd5b505afa158015610890573d6000803e3d6000fd5b505050506040513d60208110156108a657600080fd5b50516108ed576040805162461bcd60e51b81526020600482015260116024820152702ab739bab83837b93a32b2103a37b5b2b760791b604482015290519081900360640190fd5b60335460ff16610932576040805162461bcd60e51b815260206004820152601f602482015260008051602061560a833981519152604482015290519081900360640190fd5b6033805460ff191690558161097f576040805162461bcd60e51b815260206004820152600e60248201526d416d6f756e74206973207a65726f60901b604482015290519081900360640190fd5b603454604080516384ac1f7560e01b81526001600160a01b0392831660048201526024810185905291851660448301525173__SavingLib_____________________________916384ac1f75916064808301926000929190829003018186803b1580156109eb57600080fd5b505af41580156109ff573d6000803e3d6000fd5b505050506000603460009054906101000a90046001600160a01b03166001600160a01b03166376cdb03b6040518163ffffffff1660e01b815260040160206040518083038186803b158015610a5357600080fd5b505afa158015610a67573d6000803e3d6000fd5b505050506040513d6020811015610a7d57600080fd5b505160408051631da649cf60e01b81523360048201526001600160a01b0387811660248301526044820187905291519190921691631da649cf9160648083019260209291908290030181600087803b158015610ad857600080fd5b505af1158015610aec573d6000803e3d6000fd5b505050506040513d6020811015610b0257600080fd5b5051905082811015610bc65760345473__SavingLib_____________________________90633b4571a1906001600160a01b0316610b46868563ffffffff61510716565b876040518463ffffffff1660e01b815260040180846001600160a01b03166001600160a01b03168152602001838152602001826001600160a01b03166001600160a01b03168152602001935050505060006040518083038186803b158015610bad57600080fd5b505af4158015610bc1573d6000803e3d6000fd5b505050505b604080513381526020810183905281516001600160a01b038716927f05f2eeda0e08e4b437f487c8d7d29b14537d15e3488170dc3de5dbdf8dac4684928290030190a250506033805460ff191660011790555050565b603360019054906101000a90046001600160a01b03166001600160a01b0316638da5cb5b6040518163ffffffff1660e01b815260040160206040518083038186803b158015610c6a57600080fd5b505afa158015610c7e573d6000803e3d6000fd5b505050506040513d6020811015610c9457600080fd5b50516001600160a01b03163314610cdc5760405162461bcd60e51b815260040180806020018281038252603081526020018061562a6030913960400191505060405180910390fd5b603354600160a81b900460ff16610d31576040805162461bcd60e51b815260206004820152601460248201527314185d5cd8589b194e881b9bdd081c185d5cd95960621b604482015290519081900360640190fd5b6033805460ff60a81b19169081905560408051638da5cb5b60e01b815290517f5db9ee0a495bf2e6ff9c91a7834c1ba4fdd244a5e8aa4e537bd38aeae4b073aa9261010090046001600160a01b031691638da5cb5b916004808301926020929190829003018186803b158015610da657600080fd5b505afa158015610dba573d6000803e3d6000fd5b505050506040513d6020811015610dd057600080fd5b5051604080516001600160a01b039092168252519081900360200190a1565b603454604080516378b88bc760e11b81526001600160a01b039283166004820152918416602483015251839173__Utils_________________________________9163f171178e91604480820192602092909190829003018186803b158015610e5757600080fd5b505af4158015610e6b573d6000803e3d6000fd5b505050506040513d6020811015610e8157600080fd5b5051610fbc57603460009054906101000a90046001600160a01b03166001600160a01b0316639895880f6040518163ffffffff1660e01b815260040160206040518083038186803b158015610ed557600080fd5b505afa158015610ee9573d6000803e3d6000fd5b505050506040513d6020811015610eff57600080fd5b505160408051633fc422e560e01b81526001600160a01b03848116600483015291519190921691633fc422e5916024808301926020929190829003018186803b158015610f4b57600080fd5b505afa158015610f5f573d6000803e3d6000fd5b505050506040513d6020811015610f7557600080fd5b5051610fbc576040805162461bcd60e51b81526020600482015260116024820152702ab739bab83837b93a32b2103a37b5b2b760791b604482015290519081900360640190fd5b60345460408051639895880f60e01b8152905185926001600160a01b031691639895880f916004808301926020929190829003018186803b15801561100057600080fd5b505afa158015611014573d6000803e3d6000fd5b505050506040513d602081101561102a57600080fd5b50516040805163748538d960e01b81526001600160a01b0384811660048301529151919092169163748538d9916024808301926020929190829003018186803b15801561107657600080fd5b505afa15801561108a573d6000803e3d6000fd5b505050506040513d60208110156110a057600080fd5b50516110ee576040805162461bcd60e51b8152602060048201526018602482015277151a19481d1bdad95b881a5cc81b9bdd08195b98589b195960421b604482015290519081900360640190fd5b60335460ff16611133576040805162461bcd60e51b815260206004820152601f602482015260008051602061560a833981519152604482015290519081900360640190fd5b6033805460ff1916905582611180576040805162461bcd60e51b815260206004820152600e60248201526d416d6f756e74206973207a65726f60901b604482015290519081900360640190fd5b603454604080516384ac1f7560e01b81526001600160a01b0392831660048201526024810186905291861660448301525173__SavingLib_____________________________916384ac1f75916064808301926000929190829003018186803b1580156111ec57600080fd5b505af4158015611200573d6000803e3d6000fd5b50505050603460009054906101000a90046001600160a01b03166001600160a01b03166376cdb03b6040518163ffffffff1660e01b815260040160206040518083038186803b15801561125257600080fd5b505afa158015611266573d6000803e3d6000fd5b505050506040513d602081101561127c57600080fd5b505160408051638340f54960e01b81523360048201526001600160a01b0387811660248301526044820187905291519190921691638340f54991606480830192600092919082900301818387803b1580156112d657600080fd5b505af11580156112ea573d6000803e3d6000fd5b5050604080513381526020810187905281516001600160a01b03891694507f5548c837ab068cf56a2c2479df0882a4922fd203edb7517321831d95078c5f6293509081900390910190a250506033805460ff191660011790555050565b603454604080516378b88bc760e11b81526001600160a01b039283166004820152918416602483015251839173__Utils_________________________________9163f171178e91604480820192602092909190829003018186803b1580156113af57600080fd5b505af41580156113c3573d6000803e3d6000fd5b505050506040513d60208110156113d957600080fd5b505161151457603460009054906101000a90046001600160a01b03166001600160a01b0316639895880f6040518163ffffffff1660e01b815260040160206040518083038186803b15801561142d57600080fd5b505afa158015611441573d6000803e3d6000fd5b505050506040513d602081101561145757600080fd5b505160408051633fc422e560e01b81526001600160a01b03848116600483015291519190921691633fc422e5916024808301926020929190829003018186803b1580156114a357600080fd5b505afa1580156114b7573d6000803e3d6000fd5b505050506040513d60208110156114cd57600080fd5b5051611514576040805162461bcd60e51b81526020600482015260116024820152702ab739bab83837b93a32b2103a37b5b2b760791b604482015290519081900360640190fd5b60345460408051639895880f60e01b8152905185926001600160a01b031691639895880f916004808301926020929190829003018186803b15801561155857600080fd5b505afa15801561156c573d6000803e3d6000fd5b505050506040513d602081101561158257600080fd5b50516040805163748538d960e01b81526001600160a01b0384811660048301529151919092169163748538d9916024808301926020929190829003018186803b1580156115ce57600080fd5b505afa1580156115e2573d6000803e3d6000fd5b505050506040513d60208110156115f857600080fd5b5051611646576040805162461bcd60e51b8152602060048201526018602482015277151a19481d1bdad95b881a5cc81b9bdd08195b98589b195960421b604482015290519081900360640190fd5b603354600160a81b900460ff1615611698576040805162461bcd60e51b815260206004820152601060248201526f14185d5cd8589b194e881c185d5cd95960821b604482015290519081900360640190fd5b60335460ff166116dd576040805162461bcd60e51b815260206004820152601f602482015260008051602061560a833981519152604482015290519081900360640190fd5b6033805460ff19169055826117235760405162461bcd60e51b815260040180806020018281038252602b8152602001806155df602b913960400191505060405180910390fd5b603460009054906101000a90046001600160a01b03166001600160a01b03166376cdb03b6040518163ffffffff1660e01b815260040160206040518083038186803b15801561177157600080fd5b505afa158015611785573d6000803e3d6000fd5b505050506040513d602081101561179b57600080fd5b5051604080516314890dcb60e21b81523360048201526001600160a01b0387811660248301526044820187905291519190921691635224372c91606480830192600092919082900301818387803b1580156117f557600080fd5b505af1158015611809573d6000803e3d6000fd5b505060345460408051633b4571a160e01b81526001600160a01b0392831660048201526024810188905291881660448301525173__SavingLib_____________________________9350633b4571a192506064808301926000929190829003018186803b15801561187957600080fd5b505af415801561188d573d6000803e3d6000fd5b5050604080513381526020810187905281516001600160a01b03891694507f312a5e5e1079f5dda4e95dbbd0b908b291fd5b992ef22073643ab691572c5b5293509081900390910190a250506033805460ff191660011790555050565b603460009054906101000a90046001600160a01b03166001600160a01b03166376cdb03b6040518163ffffffff1660e01b815260040160206040518083038186803b15801561193857600080fd5b505afa15801561194c573d6000803e3d6000fd5b505050506040513d602081101561196257600080fd5b50516001600160a01b031633146119aa5760405162461bcd60e51b81526004018080602001828103825260388152602001806157686038913960400191505060405180910390fd5b603460009054906101000a90046001600160a01b03166001600160a01b0316639895880f6040518163ffffffff1660e01b815260040160206040518083038186803b1580156119f857600080fd5b505afa158015611a0c573d6000803e3d6000fd5b505050506040513d6020811015611a2257600080fd5b505160408051637e5a4eb960e01b81526001600160a01b03858116600483015291519190921691637e5a4eb9916024808301926020929190829003018186803b158015611a6e57600080fd5b505afa158015611a82573d6000803e3d6000fd5b505050506040513d6020811015611a9857600080fd5b50516040805163852a12e360e01b81526004810184905290516001600160a01b039092169163852a12e3916024808201926020929091908290030181600087803b158015611ae557600080fd5b505af1158015611af9573d6000803e3d6000fd5b505050506040513d6020811015611b0f57600080fd5b50511561071c576040805162461bcd60e51b815260206004820152601760248201527f72656465656d556e6465726c79696e67206661696c6564000000000000000000604482015290519081900360640190fd5b600054610100900460ff1680611b7c5750611b7c615152565b80611b8a575060005460ff16155b611bc55760405162461bcd60e51b815260040180806020018281038252602e81526020018061569c602e913960400191505060405180910390fd5b600054610100900460ff16158015611bf0576000805460ff1961ff0019909116610100171660011790555b611bf8615158565b611c0182615167565b603480546001600160a01b0319166001600160a01b0384161790558251845114611c5c5760405162461bcd60e51b81526004018080602001828103825260248152602001806155936024913960400191505060405180910390fd5b60005b8451811015611ced5760006001600160a01b0316848281518110611c7f57fe5b60200260200101516001600160a01b031614158015611cc45750600e6001600160a01b0316858281518110611cb057fe5b60200260200101516001600160a01b031614155b15611ce557611ce5858281518110611cd857fe5b60200260200101516105a8565b600101611c5f565b508015611d00576000805461ff00191690555b50505050565b73c04158f7db6f9c9ffbd5593236a1a3d69f92167c81565b603354600160a81b900460ff1690565b3373c04158f7db6f9c9ffbd5593236a1a3d69f92167c14611d8c576040805162461bcd60e51b8152602060048201526013602482015272155cd95c881b9bdd08185d5d1a1bdc9a5e9959606a1b604482015290519081900360640190fd5b603454604080516302bff52f60e01b81526001600160a01b03928316600482015291831660248301525173__SavingLib_____________________________916302bff52f916044808301926000929190829003018186803b158015611df157600080fd5b505af4158015611e05573d6000803e3d6000fd5b5050505050565b600e81565b603460009054906101000a90046001600160a01b03166001600160a01b03166376cdb03b6040518163ffffffff1660e01b815260040160206040518083038186803b158015611e5f57600080fd5b505afa158015611e73573d6000803e3d6000fd5b505050506040513d6020811015611e8957600080fd5b50516001600160a01b03163314611ed15760405162461bcd60e51b81526004018080602001828103825260388152602001806157686038913960400191505060405180910390fd5b60345460408051639895880f60e01b815290516000926001600160a01b031691639895880f916004808301926020929190829003018186803b158015611f1657600080fd5b505afa158015611f2a573d6000803e3d6000fd5b505050506040513d6020811015611f4057600080fd5b505160408051637e5a4eb960e01b81526001600160a01b03868116600483015291519190921691637e5a4eb9916024808301926020929190829003018186803b158015611f8c57600080fd5b505afa158015611fa0573d6000803e3d6000fd5b505050506040513d6020811015611fb657600080fd5b5051603454604080516378b88bc760e11b81526001600160a01b03928316600482015291861660248301525191925073__Utils_________________________________9163f171178e91604480820192602092909190829003018186803b15801561202157600080fd5b505af4158015612035573d6000803e3d6000fd5b505050506040513d602081101561204b57600080fd5b5051156120ab57806001600160a01b0316631249c58b836040518263ffffffff1660e01b81526004016000604051808303818588803b15801561208d57600080fd5b505af11580156120a1573d6000803e3d6000fd5b505050505061215d565b806001600160a01b031663a0712d68836040518263ffffffff1660e01b815260040180828152602001915050602060405180830381600087803b1580156120f157600080fd5b505af1158015612105573d6000803e3d6000fd5b505050506040513d602081101561211b57600080fd5b50511561215d576040805162461bcd60e51b815260206004820152600b60248201526a1b5a5b9d0819985a5b195960aa1b604482015290519081900360640190fd5b505050565b603360019054906101000a90046001600160a01b03166001600160a01b0316638da5cb5b6040518163ffffffff1660e01b815260040160206040518083038186803b1580156121b057600080fd5b505afa1580156121c4573d6000803e3d6000fd5b505050506040513d60208110156121da57600080fd5b50516001600160a01b031633146122225760405162461bcd60e51b815260040180806020018281038252603081526020018061562a6030913960400191505060405180910390fd5b603354600160a81b900460ff1615612274576040805162461bcd60e51b815260206004820152601060248201526f14185d5cd8589b194e881c185d5cd95960821b604482015290519081900360640190fd5b6033805460ff60a81b1916600160a81b179081905560408051638da5cb5b60e01b815290517f62e78cea01bee320cd4e420270b5ea74000d11b0c9f74754ebdbfc544b05a258926001600160a01b036101009091041691638da5cb5b916004808301926020929190829003018186803b158015610da657600080fd5b603454604080516378b88bc760e11b81526001600160a01b039283166004820152918316602483015251829173__Utils_________________________________9163f171178e91604480820192602092909190829003018186803b15801561235857600080fd5b505af415801561236c573d6000803e3d6000fd5b505050506040513d602081101561238257600080fd5b50516124bd57603460009054906101000a90046001600160a01b03166001600160a01b0316639895880f6040518163ffffffff1660e01b815260040160206040518083038186803b1580156123d657600080fd5b505afa1580156123ea573d6000803e3d6000fd5b505050506040513d602081101561240057600080fd5b505160408051633fc422e560e01b81526001600160a01b03848116600483015291519190921691633fc422e5916024808301926020929190829003018186803b15801561244c57600080fd5b505afa158015612460573d6000803e3d6000fd5b505050506040513d602081101561247657600080fd5b50516124bd576040805162461bcd60e51b81526020600482015260116024820152702ab739bab83837b93a32b2103a37b5b2b760791b604482015290519081900360640190fd5b603354600160a81b900460ff161561250f576040805162461bcd60e51b815260206004820152601060248201526f14185d5cd8589b194e881c185d5cd95960821b604482015290519081900360640190fd5b60335460ff16612554576040805162461bcd60e51b815260206004820152601f602482015260008051602061560a833981519152604482015290519081900360640190fd5b6033805460ff191690556034546040805163346681fb60e11b815290516001600160a01b03909216916368cd03f691600480820192602092909190829003018186803b1580156125a357600080fd5b505afa1580156125b7573d6000803e3d6000fd5b505050506040513d60208110156125cd57600080fd5b50516040805163be2801b560e01b81526001600160a01b0386811660048301529151919092169163be2801b59160248083019260209291908290030181600087803b15801561261b57600080fd5b505af115801561262f573d6000803e3d6000fd5b505050506040513d602081101561264557600080fd5b50516126825760405162461bcd60e51b815260040180806020018281038252602181526020018061565a6021913960400191505060405180910390fd5b61268a615521565b603460009054906101000a90046001600160a01b03166001600160a01b03166368cd03f66040518163ffffffff1660e01b815260040160206040518083038186803b1580156126d857600080fd5b505afa1580156126ec573d6000803e3d6000fd5b505050506040513d602081101561270257600080fd5b505160408051630587e6bd60e51b815233600482015290516001600160a01b039092169163b0fcd7a091602480820192602092909190829003018186803b15801561274c57600080fd5b505afa158015612760573d6000803e3d6000fd5b505050506040513d602081101561277657600080fd5b505160c08201526034546040805163346681fb60e11b815290516001600160a01b03909216916368cd03f691600480820192602092909190829003018186803b1580156127c257600080fd5b505afa1580156127d6573d6000803e3d6000fd5b505050506040513d60208110156127ec57600080fd5b50516040805163e21f0b5560e01b815233600482015290516001600160a01b039092169163e21f0b5591602480820192602092909190829003018186803b15801561283657600080fd5b505afa15801561284a573d6000803e3d6000fd5b505050506040513d602081101561286057600080fd5b505160c082015161287890606463ffffffff61519616565b106128b45760405162461bcd60e51b81526004018080602001828103825260288152602001806155b76028913960400191505060405180910390fd5b603460009054906101000a90046001600160a01b03166001600160a01b03166368cd03f66040518163ffffffff1660e01b815260040160206040518083038186803b15801561290257600080fd5b505afa158015612916573d6000803e3d6000fd5b505050506040513d602081101561292c57600080fd5b50516040805163b44d253d60e01b81526001600160a01b0386811660048301523360248301529151919092169163b44d253d916044808301926020929190829003018186803b15801561297e57600080fd5b505afa158015612992573d6000803e3d6000fd5b505050506040513d60208110156129a857600080fd5b505160e082018190526129ec5760405162461bcd60e51b815260040180806020018281038252602d8152602001806156ca602d913960400191505060405180910390fd5b603460009054906101000a90046001600160a01b03166001600160a01b03166368cd03f66040518163ffffffff1660e01b815260040160206040518083038186803b158015612a3a57600080fd5b505afa158015612a4e573d6000803e3d6000fd5b505050506040513d6020811015612a6457600080fd5b50516040805163e94201c760e01b81526001600160a01b03868116600483015287811660248301529151919092169163e94201c7916044808301926020929190829003018186803b158015612ab857600080fd5b505afa158015612acc573d6000803e3d6000fd5b505050506040513d6020811015612ae257600080fd5b50516101008201819052612b275760405162461bcd60e51b81526004018080602001828103825260448152602001806156f76044913960600191505060405180910390fd5b8061010001518160e001511115612b445761010081015160e08201525b60006001600160a01b038416600e14612c5257603460009054906101000a90046001600160a01b03166001600160a01b0316639895880f6040518163ffffffff1660e01b815260040160206040518083038186803b158015612ba557600080fd5b505afa158015612bb9573d6000803e3d6000fd5b505050506040513d6020811015612bcf57600080fd5b505160408051633c2e3e7b60e11b81526001600160a01b0387811660048301529151919092169163785c7cf6916024808301926020929190829003018186803b158015612c1b57600080fd5b505afa158015612c2f573d6000803e3d6000fd5b505050506040513d6020811015612c4557600080fd5b505160ff16600a0a612c5c565b670de0b6b3a76400005b9050603460009054906101000a90046001600160a01b03166001600160a01b0316639895880f6040518163ffffffff1660e01b815260040160206040518083038186803b158015612cac57600080fd5b505afa158015612cc0573d6000803e3d6000fd5b505050506040513d6020811015612cd657600080fd5b505160408051636e9ecb0f60e11b81526001600160a01b0387811660048301529151919092169163dd3d961e916024808301926020929190829003018186803b158015612d2257600080fd5b505afa158015612d36573d6000803e3d6000fd5b505050506040513d6020811015612d4c57600080fd5b505161012083015260345460408051634802b7c160e01b815290516001600160a01b0390921691634802b7c191600480820192602092909190829003018186803b158015612d9957600080fd5b505afa158015612dad573d6000803e3d6000fd5b505050506040513d6020811015612dc357600080fd5b5051610140830181905261012083015160e0840151612e0e928492612e02928391606491612df69163ffffffff61519616565b9063ffffffff61519616565b9063ffffffff6151ef16565b60608301526034546040805163346681fb60e11b815290516001600160a01b03909216916368cd03f691600480820192602092909190829003018186803b158015612e5857600080fd5b505afa158015612e6c573d6000803e3d6000fd5b505050506040513d6020811015612e8257600080fd5b505160408051630587e6bd60e51b81526001600160a01b0388811660048301529151919092169163b0fcd7a0916024808301926020929190829003018186803b158015612ece57600080fd5b505afa158015612ee2573d6000803e3d6000fd5b505050506040513d6020811015612ef857600080fd5b50516101608301526034546040805163346681fb60e11b815290516001600160a01b03909216916368cd03f691600480820192602092909190829003018186803b158015612f4557600080fd5b505afa158015612f59573d6000803e3d6000fd5b505050506040513d6020811015612f6f57600080fd5b50516040805163e21f0b5560e01b81526001600160a01b0388811660048301529151919092169163e21f0b55916024808301926020929190829003018186803b158015612fbb57600080fd5b505afa158015612fcf573d6000803e3d6000fd5b505050506040513d6020811015612fe557600080fd5b505161018083015261016082015160005b603460009054906101000a90046001600160a01b03166001600160a01b0316639895880f6040518163ffffffff1660e01b815260040160206040518083038186803b15801561304457600080fd5b505afa158015613058573d6000803e3d6000fd5b505050506040513d602081101561306e57600080fd5b505160408051630463749760e51b815290516001600160a01b0390921691638c6e92e091600480820192602092909190829003018186803b1580156130b257600080fd5b505afa1580156130c6573d6000803e3d6000fd5b505050506040513d60208110156130dc57600080fd5b5051811015613b0557603460009054906101000a90046001600160a01b03166001600160a01b0316639895880f6040518163ffffffff1660e01b815260040160206040518083038186803b15801561313357600080fd5b505afa158015613147573d6000803e3d6000fd5b505050506040513d602081101561315d57600080fd5b50516040805163021245b160e01b81526004810184905290516001600160a01b039092169163021245b191602480820192602092909190829003018186803b1580156131a857600080fd5b505afa1580156131bc573d6000803e3d6000fd5b505050506040513d60208110156131d257600080fd5b50516001600160a01b0390811685526034546040805163346681fb60e11b8152905191909216916368cd03f6916004808301926020929190829003018186803b15801561321e57600080fd5b505afa158015613232573d6000803e3d6000fd5b505050506040513d602081101561324857600080fd5b505160408051629612df60e71b81526001600160a01b038a8116600483015260ff8516602483015291519190921691634b096f80916044808301926020929190829003018186803b15801561329c57600080fd5b505afa1580156132b0573d6000803e3d6000fd5b505050506040513d60208110156132c657600080fd5b505115613ad857603460009054906101000a90046001600160a01b03166001600160a01b0316639895880f6040518163ffffffff1660e01b815260040160206040518083038186803b15801561331b57600080fd5b505afa15801561332f573d6000803e3d6000fd5b505050506040513d602081101561334557600080fd5b505160408051634af44fff60e11b81526004810184905290516001600160a01b03909216916395e89ffe91602480820192602092909190829003018186803b15801561339057600080fd5b505afa1580156133a4573d6000803e3d6000fd5b505050506040513d60208110156133ba57600080fd5b5051602085015283516001600160a01b0316600e146134d057603460009054906101000a90046001600160a01b03166001600160a01b0316639895880f6040518163ffffffff1660e01b815260040160206040518083038186803b15801561342157600080fd5b505afa158015613435573d6000803e3d6000fd5b505050506040513d602081101561344b57600080fd5b5051845160408051633c2e3e7b60e11b81526001600160a01b0392831660048201529051919092169163785c7cf6916024808301926020929190829003018186803b15801561349957600080fd5b505afa1580156134ad573d6000803e3d6000fd5b505050506040513d60208110156134c357600080fd5b505160ff16600a0a6134da565b670de0b6b3a76400005b60a085018190526020808601516034546040805163346681fb60e11b815290516135e79594612e0294936001600160a01b0316926368cd03f69260048083019392829003018186803b15801561352f57600080fd5b505afa158015613543573d6000803e3d6000fd5b505050506040513d602081101561355957600080fd5b505188516040805163b44d253d60e01b81526001600160a01b0392831660048201528e831660248201529051919092169163b44d253d916044808301926020929190829003018186803b1580156135af57600080fd5b505afa1580156135c3573d6000803e3d6000fd5b505050506040513d60208110156135d957600080fd5b50519063ffffffff61519616565b846040018181525050600061371e6136fc603460009054906101000a90046001600160a01b03166001600160a01b0316639895880f6040518163ffffffff1660e01b815260040160206040518083038186803b15801561364657600080fd5b505afa15801561365a573d6000803e3d6000fd5b505050506040513d602081101561367057600080fd5b5051875160408051632418cd4960e21b81526001600160a01b039283166004820152905191909216916390633524916024808301926020929190829003018186803b1580156136be57600080fd5b505afa1580156136d2573d6000803e3d6000fd5b505050506040513d60208110156136e857600080fd5b50516101408801519063ffffffff61510716565b612e026064612df68961018001518a610160015161510790919063ffffffff16565b9050808560400151111561373457604085018190525b84606001518560400151111561374f57606085015160408601525b6137856137736064612e02886101400151896040015161519690919063ffffffff16565b6101608701519063ffffffff61510716565b61016086015260345460408051639895880f60e01b815290516138a39261389192606492612e02926001600160a01b031691639895880f916004808301926020929190829003018186803b1580156137dc57600080fd5b505afa1580156137f0573d6000803e3d6000fd5b505050506040513d602081101561380657600080fd5b5051895160408051632418cd4960e21b81526001600160a01b039283166004820152905191909216916390633524916024808301926020929190829003018186803b15801561385457600080fd5b505afa158015613868573d6000803e3d6000fd5b505050506040513d602081101561387e57600080fd5b505160408a01519063ffffffff61519616565b6101808701519063ffffffff61510716565b610180860152604085015160608601516138c29163ffffffff61510716565b6060860152602085015160a086015160408701516138eb9291612e02919063ffffffff61519616565b60808601526034546040805163346681fb60e11b815290516000926001600160a01b0316916368cd03f6916004808301926020929190829003018186803b15801561393557600080fd5b505afa158015613949573d6000803e3d6000fd5b505050506040513d602081101561395f57600080fd5b50518651608088015160408051636ce5768960e11b81526001600160a01b038e811660048301529384166024820152604481019290925251919092169163d9caed129160648083019260209291908290030181600087803b1580156139c357600080fd5b505af11580156139d7573d6000803e3d6000fd5b505050506040513d60208110156139ed57600080fd5b50516034546040805163346681fb60e11b815290519293506001600160a01b03909116916368cd03f691600480820192602092909190829003018186803b158015613a3757600080fd5b505afa158015613a4b573d6000803e3d6000fd5b505050506040513d6020811015613a6157600080fd5b5051865160408051638340f54960e01b81523360048201526001600160a01b0392831660248201526044810185905290519190921691638340f54991606480830192600092919082900301818387803b158015613abd57600080fd5b505af1158015613ad1573d6000803e3d6000fd5b5050505050505b836101800151846101600151111580613af357506060840151155b15613afd57613b05565b600101612ff6565b506000613b2d846101200151612e0285612df68861016001518761510790919063ffffffff16565b90506000603460009054906101000a90046001600160a01b03166001600160a01b03166376cdb03b6040518163ffffffff1660e01b815260040160206040518083038186803b158015613b7f57600080fd5b505afa158015613b93573d6000803e3d6000fd5b505050506040513d6020811015613ba957600080fd5b505160408051636ce5768960e11b81523360048201526001600160a01b038a81166024830152604482018690529151919092169163d9caed129160648083019260209291908290030181600087803b158015613c0457600080fd5b505af1158015613c18573d6000803e3d6000fd5b505050506040513d6020811015613c2e57600080fd5b5051603454604080516376cdb03b60e01b815290519293506001600160a01b03909116916376cdb03b91600480820192602092909190829003018186803b158015613c7857600080fd5b505afa158015613c8c573d6000803e3d6000fd5b505050506040513d6020811015613ca257600080fd5b505160408051631da649cf60e01b81526001600160a01b038b811660048301528a811660248301526044820185905291519190921691631da649cf9160648083019260209291908290030181600087803b158015613cff57600080fd5b505af1158015613d13573d6000803e3d6000fd5b505050506040513d6020811015613d2957600080fd5b50506033805460ff191660011790555050505050505050565b6034546001600160a01b031681565b603454604080516378b88bc760e11b81526001600160a01b039283166004820152918416602483015251839173__Utils_________________________________9163f171178e91604480820192602092909190829003018186803b158015613db957600080fd5b505af4158015613dcd573d6000803e3d6000fd5b505050506040513d6020811015613de357600080fd5b5051613f1e57603460009054906101000a90046001600160a01b03166001600160a01b0316639895880f6040518163ffffffff1660e01b815260040160206040518083038186803b158015613e3757600080fd5b505afa158015613e4b573d6000803e3d6000fd5b505050506040513d6020811015613e6157600080fd5b505160408051633fc422e560e01b81526001600160a01b03848116600483015291519190921691633fc422e5916024808301926020929190829003018186803b158015613ead57600080fd5b505afa158015613ec1573d6000803e3d6000fd5b505050506040513d6020811015613ed757600080fd5b5051613f1e576040805162461bcd60e51b81526020600482015260116024820152702ab739bab83837b93a32b2103a37b5b2b760791b604482015290519081900360640190fd5b60345460408051639895880f60e01b8152905185926001600160a01b031691639895880f916004808301926020929190829003018186803b158015613f6257600080fd5b505afa158015613f76573d6000803e3d6000fd5b505050506040513d6020811015613f8c57600080fd5b50516040805163748538d960e01b81526001600160a01b0384811660048301529151919092169163748538d9916024808301926020929190829003018186803b158015613fd857600080fd5b505afa158015613fec573d6000803e3d6000fd5b505050506040513d602081101561400257600080fd5b5051614050576040805162461bcd60e51b8152602060048201526018602482015277151a19481d1bdad95b881a5cc81b9bdd08195b98589b195960421b604482015290519081900360640190fd5b603354600160a81b900460ff16156140a2576040805162461bcd60e51b815260206004820152601060248201526f14185d5cd8589b194e881c185d5cd95960821b604482015290519081900360640190fd5b60335460ff166140e7576040805162461bcd60e51b815260206004820152601f602482015260008051602061560a833981519152604482015290519081900360640190fd5b6033805460ff19169055603454604080516376cdb03b60e01b815290516001600160a01b03909216916376cdb03b91600480820192602092909190829003018186803b15801561413657600080fd5b505afa15801561414a573d6000803e3d6000fd5b505050506040513d602081101561416057600080fd5b50516040805163378d2c3d60e21b81526001600160a01b0387811660048301529151919092169163de34b0f491602480830192600092919082900301818387803b1580156141ad57600080fd5b505af11580156141c1573d6000803e3d6000fd5b505050506000603460009054906101000a90046001600160a01b03166001600160a01b03166368cd03f66040518163ffffffff1660e01b815260040160206040518083038186803b15801561421557600080fd5b505afa158015614229573d6000803e3d6000fd5b505050506040513d602081101561423f57600080fd5b505160408051636ce5768960e11b81523360048201526001600160a01b038881166024830152604482018890529151919092169163d9caed129160648083019260209291908290030181600087803b15801561429a57600080fd5b505af11580156142ae573d6000803e3d6000fd5b505050506040513d60208110156142c457600080fd5b50516034546040805163346681fb60e11b815290519293506001600160a01b03909116916368cd03f691600480820192602092909190829003018186803b15801561430e57600080fd5b505afa158015614322573d6000803e3d6000fd5b505050506040513d602081101561433857600080fd5b505160408051638340f54960e01b81526001600160a01b03898116600483015288811660248301526044820188905291519190921691638340f54991606480830192600092919082900301818387803b15801561439457600080fd5b505af11580156143a8573d6000803e3d6000fd5b5050604080513381526001600160a01b038a81166020830152818301869052915191891693507fd1398bee19313d6bf672ccb116e51f4a1a947e91c757907f51fbb5b5e56c698f925081900360600190a250506033805460ff1916600117905550505050565b6220148081565b670de0b6b3a764000081565b603454604080516378b88bc760e11b81526001600160a01b039283166004820152918416602483015251839173__Utils_________________________________9163f171178e91604480820192602092909190829003018186803b15801561448957600080fd5b505af415801561449d573d6000803e3d6000fd5b505050506040513d60208110156144b357600080fd5b50516145ee57603460009054906101000a90046001600160a01b03166001600160a01b0316639895880f6040518163ffffffff1660e01b815260040160206040518083038186803b15801561450757600080fd5b505afa15801561451b573d6000803e3d6000fd5b505050506040513d602081101561453157600080fd5b505160408051633fc422e560e01b81526001600160a01b03848116600483015291519190921691633fc422e5916024808301926020929190829003018186803b15801561457d57600080fd5b505afa158015614591573d6000803e3d6000fd5b505050506040513d60208110156145a757600080fd5b50516145ee576040805162461bcd60e51b81526020600482015260116024820152702ab739bab83837b93a32b2103a37b5b2b760791b604482015290519081900360640190fd5b603354600160a81b900460ff1615614640576040805162461bcd60e51b815260206004820152601060248201526f14185d5cd8589b194e881c185d5cd95960821b604482015290519081900360640190fd5b60335460ff16614685576040805162461bcd60e51b815260206004820152601f602482015260008051602061560a833981519152604482015290519081900360640190fd5b6033805460ff19169055816146d2576040805162461bcd60e51b815260206004820152600e60248201526d416d6f756e74206973207a65726f60901b604482015290519081900360640190fd5b603454604080516376cdb03b60e01b815290516000926001600160a01b0316916376cdb03b916004808301926020929190829003018186803b15801561471757600080fd5b505afa15801561472b573d6000803e3d6000fd5b505050506040513d602081101561474157600080fd5b505160408051636ce5768960e11b81523360048201526001600160a01b038781166024830152604482018790529151919092169163d9caed129160648083019260209291908290030181600087803b15801561479c57600080fd5b505af11580156147b0573d6000803e3d6000fd5b505050506040513d60208110156147c657600080fd5b505160345460408051633b4571a160e01b81526001600160a01b0392831660048201526024810184905291871660448301525191925073__SavingLib_____________________________91633b4571a191606480820192600092909190829003018186803b15801561483857600080fd5b505af415801561484c573d6000803e3d6000fd5b5050604080513381526020810185905281516001600160a01b03891694507f9b1bfa7fa9ee420a16e124f794c35ac9f90472acc99140eb2f6447c714cad8eb93509081900390910190a250506033805460ff191660011790555050565b603454604080516378b88bc760e11b81526001600160a01b039283166004820152918316602483015251829173__Utils_________________________________9163f171178e91604480820192602092909190829003018186803b15801561491157600080fd5b505af4158015614925573d6000803e3d6000fd5b505050506040513d602081101561493b57600080fd5b5051614a7657603460009054906101000a90046001600160a01b03166001600160a01b0316639895880f6040518163ffffffff1660e01b815260040160206040518083038186803b15801561498f57600080fd5b505afa1580156149a3573d6000803e3d6000fd5b505050506040513d60208110156149b957600080fd5b505160408051633fc422e560e01b81526001600160a01b03848116600483015291519190921691633fc422e5916024808301926020929190829003018186803b158015614a0557600080fd5b505afa158015614a19573d6000803e3d6000fd5b505050506040513d6020811015614a2f57600080fd5b5051614a76576040805162461bcd60e51b81526020600482015260116024820152702ab739bab83837b93a32b2103a37b5b2b760791b604482015290519081900360640190fd5b603354600160a81b900460ff1615614ac8576040805162461bcd60e51b815260206004820152601060248201526f14185d5cd8589b194e881c185d5cd95960821b604482015290519081900360640190fd5b60335460ff16614b0d576040805162461bcd60e51b815260206004820152601f602482015260008051602061560a833981519152604482015290519081900360640190fd5b6033805460ff191690556034546040805163346681fb60e11b815290516000926001600160a01b0316916368cd03f6916004808301926020929190829003018186803b158015614b5c57600080fd5b505afa158015614b70573d6000803e3d6000fd5b505050506040513d6020811015614b8657600080fd5b50516040805163fa78d59f60e01b81523360048201526001600160a01b0386811660248301529151919092169163fa78d59f916044808301926020929190829003018186803b158015614bd857600080fd5b505afa158015614bec573d6000803e3d6000fd5b505050506040513d6020811015614c0257600080fd5b505111614c405760405162461bcd60e51b815260040180806020018281038252602d81526020018061573b602d913960400191505060405180910390fd5b603460009054906101000a90046001600160a01b03166001600160a01b03166376cdb03b6040518163ffffffff1660e01b815260040160206040518083038186803b158015614c8e57600080fd5b505afa158015614ca2573d6000803e3d6000fd5b505050506040513d6020811015614cb857600080fd5b50516040805163378d2c3d60e21b81526001600160a01b0385811660048301529151919092169163de34b0f491602480830192600092919082900301818387803b158015614d0557600080fd5b505af1158015614d19573d6000803e3d6000fd5b505050506000603460009054906101000a90046001600160a01b03166001600160a01b03166368cd03f66040518163ffffffff1660e01b815260040160206040518083038186803b158015614d6d57600080fd5b505afa158015614d81573d6000803e3d6000fd5b505050506040513d6020811015614d9757600080fd5b50516040805163b44d253d60e01b81526001600160a01b0386811660048301523360248301529151919092169163b44d253d916044808301926020929190829003018186803b158015614de957600080fd5b505afa158015614dfd573d6000803e3d6000fd5b505050506040513d6020811015614e1357600080fd5b5051603454604080516376cdb03b60e01b815290519293506000926001600160a01b03909216916376cdb03b91600480820192602092909190829003018186803b158015614e6057600080fd5b505afa158015614e74573d6000803e3d6000fd5b505050506040513d6020811015614e8a57600080fd5b505160408051636ce5768960e11b81523360048201526001600160a01b038781166024830152604482018690529151919092169163d9caed129160648083019260209291908290030181600087803b158015614ee557600080fd5b505af1158015614ef9573d6000803e3d6000fd5b505050506040513d6020811015614f0f57600080fd5b505190508015614f9e5760345460408051633b4571a160e01b81526001600160a01b0392831660048201526024810184905291861660448301525173__SavingLib_____________________________91633b4571a1916064808301926000929190829003018186803b158015614f8557600080fd5b505af4158015614f99573d6000803e3d6000fd5b505050505b604080513381526020810183905281516001600160a01b038716927f858f8be6acc95d7ac4177f157cb7c92a1d922bd948b968ce21df5b7b26a10a95928290030190a250506033805460ff191660011790555050565b80158061507a575060408051636eb1769f60e11b81523060048201526001600160a01b03848116602483015291519185169163dd62ed3e91604480820192602092909190829003018186803b15801561504c57600080fd5b505afa158015615060573d6000803e3d6000fd5b505050506040513d602081101561507657600080fd5b5051155b6150b55760405162461bcd60e51b81526004018080602001828103825260368152602001806157ca6036913960400191505060405180910390fd5b604080516001600160a01b038416602482015260448082018490528251808303909101815260649091019091526020810180516001600160e01b031663095ea7b360e01b17905261215d908490615231565b600061514983836040518060400160405280601e81526020017f536166654d6174683a207375627472616374696f6e206f766572666c6f7700008152506153e9565b90505b92915050565b303b1590565b6033805460ff19166001179055565b6033805460ff60a81b196001600160a01b0390931661010002610100600160a81b031990911617919091169055565b6000826151a55750600061514c565b828202828482816151b257fe5b04146151495760405162461bcd60e51b815260040180806020018281038252602181526020018061567b6021913960400191505060405180910390fd5b600061514983836040518060400160405280601a81526020017f536166654d6174683a206469766973696f6e206279207a65726f000000000000815250615480565b615243826001600160a01b03166154e5565b615294576040805162461bcd60e51b815260206004820152601f60248201527f5361666545524332303a2063616c6c20746f206e6f6e2d636f6e747261637400604482015290519081900360640190fd5b60006060836001600160a01b0316836040518082805190602001908083835b602083106152d25780518252601f1990920191602091820191016152b3565b6001836020036101000a0380198251168184511680821785525050505050509050019150506000604051808303816000865af19150503d8060008114615334576040519150601f19603f3d011682016040523d82523d6000602084013e615339565b606091505b509150915081615390576040805162461bcd60e51b815260206004820181905260248201527f5361666545524332303a206c6f772d6c6576656c2063616c6c206661696c6564604482015290519081900360640190fd5b805115611d00578080602001905160208110156153ac57600080fd5b5051611d005760405162461bcd60e51b815260040180806020018281038252602a8152602001806157a0602a913960400191505060405180910390fd5b600081848411156154785760405162461bcd60e51b81526004018080602001828103825283818151815260200191508051906020019080838360005b8381101561543d578181015183820152602001615425565b50505050905090810190601f16801561546a5780820380516001836020036101000a031916815260200191505b509250505060405180910390fd5b505050900390565b600081836154cf5760405162461bcd60e51b815260206004820181815283516024840152835190928392604490910191908501908083836000831561543d578181015183820152602001615425565b5060008385816154db57fe5b0495945050505050565b6000813f7fc5d2460186f7233c927e7db2dcc703c0e500b653ca82273b7bfad8045d85a47081811480159061551957508115155b949350505050565b604051806101a0016040528060006001600160a01b03168152602001600081526020016000815260200160008152602001600081526020016000815260200160008152602001600081526020016000815260200160008152602001600081526020016000815260200160008152509056fe546f6b656e20616e642063546f6b656e206c656e67746820646f6e2774206d617463682e4e6f2065787472612066756e647320617265207573656420666f72206c69717569646174696f6e2e426f72726f77207a65726f20616d6f756e74206f6620746f6b656e206973206e6f7420616c6c6f7765642e5265656e7472616e637947756172643a207265656e7472616e742063616c6c00506175736572526f6c653a2063616c6c657220646f6573206e6f742068617665207468652050617573657220726f6c6554686520626f72726f776572206973206e6f74206c6971756964617461626c652e536166654d6174683a206d756c7469706c69636174696f6e206f766572666c6f77436f6e747261637420696e7374616e63652068617320616c7265616479206265656e20696e697469616c697a6564546865206163636f756e7420616d6f756e74206d7573742062652067726561746572207468616e207a65726f2e54686520626f72726f77657220646f65736e2774206f776e20616e79206465627420746f6b656e2073706563696669656420627920746865206c697175696461746f722e546f6b656e206465706f7369745072696e636970616c206d7573742062652067726561746572207468616e20304f6e6c7920617574686f72697a656420746f2063616c6c2066726f6d20446546696e657220696e7465726e616c20636f6e7472616374732e5361666545524332303a204552433230206f7065726174696f6e20646964206e6f7420737563636565645361666545524332303a20617070726f76652066726f6d206e6f6e2d7a65726f20746f206e6f6e2d7a65726f20616c6c6f77616e6365a265627a7a7231582085cb7baf15f6e14775c9c64671fd4c0c0211fccd7203223a20f0f3dd44a9283264736f6c634300050e0032",
  "source": "pragma solidity 0.5.14;\n\nimport \"openzeppelin-solidity/contracts/token/ERC20/SafeERC20.sol\";\nimport \"./config/Constant.sol\";\nimport \"./config/GlobalConfig.sol\";\nimport \"./lib/SavingLib.sol\";\nimport \"./lib/Utils.sol\";\nimport \"@openzeppelin/upgrades/contracts/Initializable.sol\";\nimport \"./InitializableReentrancyGuard.sol\";\nimport \"./InitializablePausable.sol\";\nimport { ICToken } from \"./compound/ICompound.sol\";\nimport { ICETH } from \"./compound/ICompound.sol\";\n// import \"@nomiclabs/buidler/console.sol\";\n\ncontract SavingAccount is Initializable, InitializableReentrancyGuard, Constant, InitializablePausable {\n    using SafeERC20 for IERC20;\n    using SafeMath for uint256;\n\n    GlobalConfig public globalConfig;\n\n    // Following are the constants, initialized via upgradable proxy contract\n    // This is emergency address to allow withdrawal of funds from the contract\n\n    event Transfer(address indexed token, address from, address to, uint256 amount);\n    event Borrow(address indexed token, address from, uint256 amount);\n    event Repay(address indexed token, address from, uint256 amount);\n    event Deposit(address indexed token, address from, uint256 amount);\n    event Withdraw(address indexed token, address from, uint256 amount);\n    event WithdrawAll(address indexed token, address from, uint256 amount);\n\n    modifier onlyEmergencyAddress() {\n        require(msg.sender ==  EMERGENCY_ADDR, \"User not authorized\");\n        _;\n    }\n\n    modifier onlySupportedToken(address _token) {\n        if(!Utils._isETH(address(globalConfig), _token)) {\n            require(globalConfig.tokenInfoRegistry().isTokenExist(_token), \"Unsupported token\");\n        }\n        _;\n    }\n\n    modifier onlyEnabledToken(address _token) {\n        require(globalConfig.tokenInfoRegistry().isTokenEnabled(_token), \"The token is not enabled\");\n        _;\n    }\n\n    modifier onlyInternal() {\n        require(msg.sender == address(globalConfig.bank()),\n            \"Only authorized to call from DeFiner internal contracts.\");\n        _;\n    }\n\n    constructor() public {\n        // THIS SHOULD BE EMPTY FOR UPGRADABLE CONTRACTS\n        // console.log(\"Start to construct\", msg.sender);\n    }\n\n    /**\n     * Initialize function to be called by the Deployer for the first time\n     * @param _tokenAddresses list of token addresses\n     * @param _cTokenAddresses list of corresponding cToken addresses\n     * @param _globalConfig global configuration contract\n     */\n    function initialize(\n        address[] memory _tokenAddresses,\n        address[] memory _cTokenAddresses,\n        GlobalConfig _globalConfig\n    )\n        public\n        initializer\n    {\n        // Initialize InitializableReentrancyGuard\n        super._initialize();\n        super._initialize(address(_globalConfig));\n\n        globalConfig = _globalConfig;\n\n        require(_tokenAddresses.length == _cTokenAddresses.length, \"Token and cToken length don't match.\");\n        for(uint i = 0;i < _tokenAddresses.length;i++) {\n            if(_cTokenAddresses[i] != address(0x0) && _tokenAddresses[i] != ETH_ADDR) {\n                approveAll(_tokenAddresses[i]);\n            }\n        }\n    }\n\n    /**\n     * Approve transfer of all available tokens\n     * @param _token token address\n     */\n    function approveAll(address _token) public {\n        address cToken = globalConfig.tokenInfoRegistry().getCToken(_token);\n        require(cToken != address(0x0), \"cToken address is zero\");\n        IERC20(_token).safeApprove(cToken, 0);\n        IERC20(_token).safeApprove(cToken, uint256(-1));\n    }\n\n    /**\n     * Get current block number\n     * @return the current block number\n     */\n    function getBlockNumber() internal view returns (uint) {\n        return block.number;\n    }\n\n    /**\n     * Transfer the token between users inside DeFiner\n     * @param _to the address that the token be transfered to\n     * @param _token token address\n     * @param _amount amout of tokens transfer\n     */\n    function transfer(address _to, address _token, uint _amount) public onlySupportedToken(_token) onlyEnabledToken(_token) whenNotPaused nonReentrant {\n\n        globalConfig.bank().newRateIndexCheckpoint(_token);\n        uint256 amount = globalConfig.accounts().withdraw(msg.sender, _token, _amount);\n        globalConfig.accounts().deposit(_to, _token, _amount);\n\n        emit Transfer(_token, msg.sender, _to, amount);\n    }\n\n    /**\n     * Borrow the amount of token from the saving pool.\n     * @param _token token address\n     * @param _amount amout of tokens to borrow\n     */\n    function borrow(address _token, uint256 _amount) public onlySupportedToken(_token) onlyEnabledToken(_token) whenNotPaused nonReentrant {\n\n        require(_amount != 0, \"Borrow zero amount of token is not allowed.\");\n\n        globalConfig.bank().borrow(msg.sender, _token, _amount);\n\n        // Transfer the token on Ethereum\n        SavingLib.send(globalConfig, _amount, _token);\n\n        emit Borrow(_token, msg.sender, _amount);\n    }\n\n    /**\n     * Repay the amount of token back to the saving pool.\n     * @param _token token address\n     * @param _amount amout of tokens to borrow\n     * @dev If the repay amount is larger than the borrowed balance, the extra will be returned.\n     */\n    function repay(address _token, uint256 _amount) public payable onlySupportedToken(_token) nonReentrant {\n        require(_amount != 0, \"Amount is zero\");\n        SavingLib.receive(globalConfig, _amount, _token);\n\n        // Add a new checkpoint on the index curve.\n        uint256 amount = globalConfig.bank().repay(msg.sender, _token, _amount);\n\n        // Send the remain money back\n        if(amount < _amount) {\n            SavingLib.send(globalConfig, _amount.sub(amount), _token);\n        }\n\n        emit Repay(_token, msg.sender, amount);\n    }\n\n    /**\n     * Deposit the amount of token to the saving pool.\n     * @param _token the address of the deposited token\n     * @param _amount the mount of the deposited token\n     */\n    function deposit(address _token, uint256 _amount) public payable onlySupportedToken(_token) onlyEnabledToken(_token) nonReentrant {\n        require(_amount != 0, \"Amount is zero\");\n        SavingLib.receive(globalConfig, _amount, _token);\n\n        globalConfig.bank().deposit(msg.sender, _token, _amount);\n\n        emit Deposit(_token, msg.sender, _amount);\n    }\n\n    /**\n     * Withdraw a token from an address\n     * @param _token token address\n     * @param _amount amount to be withdrawn\n     */\n    function withdraw(address _token, uint256 _amount) public onlySupportedToken(_token) whenNotPaused nonReentrant {\n        require(_amount != 0, \"Amount is zero\");\n        uint256 amount = globalConfig.bank().withdraw(msg.sender, _token, _amount);\n        SavingLib.send(globalConfig, amount, _token);\n\n        emit Withdraw(_token, msg.sender, amount);\n    }\n\n    /**\n     * Withdraw all tokens from the saving pool.\n     * @param _token the address of the withdrawn token\n     */\n    function withdrawAll(address _token) public onlySupportedToken(_token) whenNotPaused nonReentrant {\n\n        // Sanity check\n        require(globalConfig.accounts().getDepositPrincipal(msg.sender, _token) > 0, \"Token depositPrincipal must be greater than 0\");\n\n        // Add a new checkpoint on the index curve.\n        globalConfig.bank().newRateIndexCheckpoint(_token);\n\n        // Get the total amount of token for the account\n        uint amount = globalConfig.accounts().getDepositBalanceCurrent(_token, msg.sender);\n\n        uint256 actualAmount = globalConfig.bank().withdraw(msg.sender, _token, amount);\n        if(actualAmount != 0) {\n            SavingLib.send(globalConfig, actualAmount, _token);\n        }\n        emit WithdrawAll(_token, msg.sender, actualAmount);\n    }\n\n    struct LiquidationVars {\n        address token;\n        uint256 tokenPrice;\n        uint256 coinValue;\n        // uint256 targetTokenAmount;\n        uint256 liquidationDebtValue;\n        uint256 tokenAmount;\n        uint256 tokenDivisor;\n        uint256 msgTotalBorrow;\n        uint256 targetTokenBalance;\n        uint256 targetTokenBalanceBorrowed;\n        uint256 targetTokenPrice;\n        uint256 liquidationDiscountRatio;\n        uint256 totalBorrow;\n        uint256 borrowPower;\n    }\n\n    /**\n     * Liquidate function\n     * @param _targetAccountAddr account to be liquidated\n     * @param _targetToken token used for purchasing collaterals\n     */\n    function liquidate(address _targetAccountAddr, address _targetToken) public onlySupportedToken(_targetToken) whenNotPaused nonReentrant {\n\n        require(globalConfig.accounts().isAccountLiquidatable(_targetAccountAddr), \"The borrower is not liquidatable.\");\n        LiquidationVars memory vars;\n\n        // It is required that the liquidator doesn't exceed it's borrow power.\n        vars.msgTotalBorrow = globalConfig.accounts().getBorrowETH(msg.sender);\n        require(\n            vars.msgTotalBorrow.mul(100) < globalConfig.accounts().getBorrowPower(msg.sender),\n            \"No extra funds are used for liquidation.\"\n        );\n\n        // Get the available amount of debt token for liquidation. It equals to the amount of target token\n        // that the liquidator has, or the amount of target token that the borrower has borrowed, whichever\n        // is smaller.\n        vars.targetTokenBalance = globalConfig.accounts().getDepositBalanceCurrent(_targetToken, msg.sender);\n        require(vars.targetTokenBalance > 0, \"The account amount must be greater than zero.\");\n\n        vars.targetTokenBalanceBorrowed = globalConfig.accounts().getBorrowBalanceCurrent(_targetToken, _targetAccountAddr);\n        require(vars.targetTokenBalanceBorrowed > 0, \"The borrower doesn't own any debt token specified by the liquidator.\");\n\n        if (vars.targetTokenBalance > vars.targetTokenBalanceBorrowed)\n            vars.targetTokenBalance = vars.targetTokenBalanceBorrowed;\n\n        // The value of the maximum amount of debt token that could transfered from the liquidator to the borrower\n        uint divisor = _targetToken == ETH_ADDR ? INT_UNIT : 10 ** uint256(globalConfig.tokenInfoRegistry().getTokenDecimals(_targetToken));\n        vars.targetTokenPrice = globalConfig.tokenInfoRegistry().priceFromAddress(_targetToken);\n        vars.liquidationDiscountRatio = globalConfig.liquidationDiscountRatio();\n        vars.liquidationDebtValue = vars.targetTokenBalance.mul(vars.targetTokenPrice).mul(100).div(vars.liquidationDiscountRatio).div(divisor);\n\n        // The collaterals are liquidate in the order of their market liquidity. The liquidation would stop if one\n        // of the following conditions are true. 1) The maximum amount of debt token has transfered from the\n        // liquidator to the borrower, which we call a partial liquidation. 2) The mount of loan reaches the\n        // borrowPower, which we call a full liquidation.\n        // Here we assume that there are always enough collaterals to be purchased to finish the liquidation process,\n        // given the 15% margin set by the liquidation threshold.\n        vars.totalBorrow = globalConfig.accounts().getBorrowETH(_targetAccountAddr);\n        vars.borrowPower = globalConfig.accounts().getBorrowPower(_targetAccountAddr);\n\n        uint256 totalBorrowBeforeLiquidation = vars.totalBorrow;\n        for(uint i = 0; i < globalConfig.tokenInfoRegistry().getCoinLength(); i++) {\n            vars.token = globalConfig.tokenInfoRegistry().addressFromIndex(i);\n            if(globalConfig.accounts().isUserHasDeposits(_targetAccountAddr, uint8(i))) {\n                // Get the collateral token price and divisor\n                vars.tokenPrice = globalConfig.tokenInfoRegistry().priceFromIndex(i);\n                vars.tokenDivisor = vars.token == ETH_ADDR ? INT_UNIT : 10**uint256(globalConfig.tokenInfoRegistry().getTokenDecimals(vars.token));\n\n                // Get the collateral token value\n                vars.coinValue = globalConfig.accounts().getDepositBalanceCurrent(vars.token, _targetAccountAddr).mul(vars.tokenPrice).div(vars.tokenDivisor);\n\n                // Checkout if the coin value is enough to set the borrow amount back to borrow power\n                uint256 fullLiquidationValue = vars.totalBorrow.sub(vars.borrowPower).mul(100).div(\n                            vars.liquidationDiscountRatio.sub(globalConfig.tokenInfoRegistry().getBorrowLTV(vars.token)));\n\n                // Derive the true liquidation value.\n                if (vars.coinValue > fullLiquidationValue)\n                    vars.coinValue = fullLiquidationValue;\n                if(vars.coinValue > vars.liquidationDebtValue)\n                    vars.coinValue = vars.liquidationDebtValue;\n\n                // Update the totalBorrow and borrowPower\n                vars.totalBorrow = vars.totalBorrow.sub(vars.coinValue.mul(vars.liquidationDiscountRatio).div(100));\n                vars.borrowPower = vars.borrowPower.sub(vars.coinValue.mul(globalConfig.tokenInfoRegistry().getBorrowLTV(vars.token)).div(100));\n                vars.liquidationDebtValue = vars.liquidationDebtValue.sub(vars.coinValue);\n\n                // Update the account balance after the collateral is transfered.\n                vars.tokenAmount = vars.coinValue.mul(vars.tokenDivisor).div(vars.tokenPrice);\n                uint256 amount = globalConfig.accounts().withdraw(_targetAccountAddr, vars.token, vars.tokenAmount);\n                globalConfig.accounts().deposit(msg.sender, vars.token, amount);\n            }\n\n            if(vars.totalBorrow <= vars.borrowPower || vars.liquidationDebtValue == 0) {\n                break;\n            }\n        }\n\n        // Trasfer the debt token from borrower to the liquidator\n        // We call the withdraw/repay functions in SavingAccount instead of in Accounts because the total amount\n        // of loan in SavingAccount should be updated though the reservation and compound parts will not changed.\n        uint256 targetTokenTransfer = totalBorrowBeforeLiquidation.sub(vars.totalBorrow).mul(divisor).div(vars.targetTokenPrice);\n        uint256 amount = globalConfig.bank().withdraw(msg.sender, _targetToken, targetTokenTransfer);\n        globalConfig.bank().repay(_targetAccountAddr, _targetToken, amount);\n    }\n\n    /**\n     * Withdraw token from Compound\n     * @param _token token address\n     * @param _amount amount of token\n     */\n    function fromCompound(address _token, uint _amount) public onlyInternal {\n        require(ICToken(globalConfig.tokenInfoRegistry().getCToken(_token)).redeemUnderlying(_amount) == 0, \"redeemUnderlying failed\");\n    }\n\n    function toCompound(address _token, uint _amount) public onlyInternal {\n        address cToken = globalConfig.tokenInfoRegistry().getCToken(_token);\n        if (Utils._isETH(address(globalConfig), _token)) {\n            ICETH(cToken).mint.value(_amount)();\n        } else {\n            // uint256 success = ICToken(cToken).mint(_amount);\n            require(ICToken(cToken).mint(_amount) == 0, \"mint failed\");\n        }\n    }\n\n    function() external payable{}\n\n    function emergencyWithdraw(address _token) external onlyEmergencyAddress {\n        SavingLib.emergencyWithdraw(globalConfig, _token);\n    }\n}\n",
  "sourcePath": "/Users/yanyichun/project/Savings/contracts/SavingAccount.sol",
  "compiler": {
    "name": "solc",
    "version": "0.5.14+commit.01f1aaa4.Emscripten.clang"
  },
  "schemaVersion": "3.3.1",
  "updatedAt": "2020-11-09T00:44:13.918Z",
  "networkType": "ethereum",
  "devdoc": {
    "methods": {
      "approveAll(address)": {
        "params": {
          "_token": "token address"
        }
      },
      "borrow(address,uint256)": {
        "params": {
          "_amount": "amout of tokens to borrow",
          "_token": "token address"
        }
      },
      "deposit(address,uint256)": {
        "params": {
          "_amount": "the mount of the deposited token",
          "_token": "the address of the deposited token"
        }
      },
      "fromCompound(address,uint256)": {
        "params": {
          "_amount": "amount of token",
          "_token": "token address"
        }
      },
      "initialize(address[],address[],address)": {
        "params": {
          "_cTokenAddresses": "list of corresponding cToken addresses",
          "_globalConfig": "global configuration contract",
          "_tokenAddresses": "list of token addresses"
        }
      },
      "liquidate(address,address)": {
        "params": {
          "_targetAccountAddr": "account to be liquidated",
          "_targetToken": "token used for purchasing collaterals"
        }
      },
      "pause()": {
        "details": "Called by a pauser to pause, triggers stopped state."
      },
      "paused()": {
        "details": "Returns true if the contract is paused, and false otherwise."
      },
      "repay(address,uint256)": {
        "details": "If the repay amount is larger than the borrowed balance, the extra will be returned.",
        "params": {
          "_amount": "amout of tokens to borrow",
          "_token": "token address"
        }
      },
      "transfer(address,address,uint256)": {
        "params": {
          "_amount": "amout of tokens transfer",
          "_to": "the address that the token be transfered to",
          "_token": "token address"
        }
      },
      "unpause()": {
        "details": "Called by a pauser to unpause, returns to normal state."
      },
      "withdraw(address,uint256)": {
        "params": {
          "_amount": "amount to be withdrawn",
          "_token": "token address"
        }
      },
      "withdrawAll(address)": {
        "params": {
          "_token": "the address of the withdrawn token"
        }
      }
    }
  },
  "userdoc": {
    "methods": {
      "approveAll(address)": {
        "notice": "Approve transfer of all available tokens"
      },
      "borrow(address,uint256)": {
        "notice": "Borrow the amount of token from the saving pool."
      },
      "deposit(address,uint256)": {
        "notice": "Deposit the amount of token to the saving pool."
      },
      "fromCompound(address,uint256)": {
        "notice": "Withdraw token from Compound"
      },
      "initialize(address[],address[],address)": {
        "notice": "Initialize function to be called by the Deployer for the first time"
      },
      "liquidate(address,address)": {
        "notice": "Liquidate function"
      },
      "repay(address,uint256)": {
        "notice": "Repay the amount of token back to the saving pool."
      },
      "transfer(address,address,uint256)": {
        "notice": "Transfer the token between users inside DeFiner"
      },
      "withdraw(address,uint256)": {
        "notice": "Withdraw a token from an address"
      },
      "withdrawAll(address)": {
        "notice": "Withdraw all tokens from the saving pool."
      }
    }
  }
}