{
  "contractName": "SavingAccountWithController",
  "abi": [
    {
      "inputs": [],
      "payable": false,
      "stateMutability": "nonpayable",
      "type": "constructor"
    },
    {
      "anonymous": false,
      "inputs": [
        {
          "indexed": true,
          "internalType": "address",
          "name": "token",
          "type": "address"
        },
        {
          "indexed": false,
          "internalType": "address",
          "name": "from",
          "type": "address"
        },
        {
          "indexed": false,
          "internalType": "uint256",
          "name": "amount",
          "type": "uint256"
        }
      ],
      "name": "Borrow",
      "type": "event"
    },
    {
      "anonymous": false,
      "inputs": [
        {
          "indexed": true,
          "internalType": "address",
          "name": "token",
          "type": "address"
        },
        {
          "indexed": false,
          "internalType": "address",
          "name": "from",
          "type": "address"
        },
        {
          "indexed": false,
          "internalType": "uint256",
          "name": "amount",
          "type": "uint256"
        }
      ],
      "name": "Deposit",
      "type": "event"
    },
    {
      "anonymous": false,
      "inputs": [
        {
          "indexed": false,
          "internalType": "address",
          "name": "account",
          "type": "address"
        }
      ],
      "name": "Paused",
      "type": "event"
    },
    {
      "anonymous": false,
      "inputs": [
        {
          "indexed": true,
          "internalType": "address",
          "name": "token",
          "type": "address"
        },
        {
          "indexed": false,
          "internalType": "address",
          "name": "from",
          "type": "address"
        },
        {
          "indexed": false,
          "internalType": "uint256",
          "name": "amount",
          "type": "uint256"
        }
      ],
      "name": "Repay",
      "type": "event"
    },
    {
      "anonymous": false,
      "inputs": [
        {
          "indexed": true,
          "internalType": "address",
          "name": "token",
          "type": "address"
        },
        {
          "indexed": false,
          "internalType": "address",
          "name": "from",
          "type": "address"
        },
        {
          "indexed": false,
          "internalType": "address",
          "name": "to",
          "type": "address"
        },
        {
          "indexed": false,
          "internalType": "uint256",
          "name": "amount",
          "type": "uint256"
        }
      ],
      "name": "Transfer",
      "type": "event"
    },
    {
      "anonymous": false,
      "inputs": [
        {
          "indexed": false,
          "internalType": "address",
          "name": "account",
          "type": "address"
        }
      ],
      "name": "Unpaused",
      "type": "event"
    },
    {
      "anonymous": false,
      "inputs": [
        {
          "indexed": true,
          "internalType": "address",
          "name": "token",
          "type": "address"
        },
        {
          "indexed": false,
          "internalType": "address",
          "name": "from",
          "type": "address"
        },
        {
          "indexed": false,
          "internalType": "uint256",
          "name": "amount",
          "type": "uint256"
        }
      ],
      "name": "Withdraw",
      "type": "event"
    },
    {
      "anonymous": false,
      "inputs": [
        {
          "indexed": true,
          "internalType": "address",
          "name": "token",
          "type": "address"
        },
        {
          "indexed": false,
          "internalType": "address",
          "name": "from",
          "type": "address"
        },
        {
          "indexed": false,
          "internalType": "uint256",
          "name": "amount",
          "type": "uint256"
        }
      ],
      "name": "WithdrawAll",
      "type": "event"
    },
    {
      "payable": true,
      "stateMutability": "payable",
      "type": "fallback"
    },
    {
      "constant": true,
      "inputs": [],
      "name": "ACCURACY",
      "outputs": [
        {
          "internalType": "uint256",
          "name": "",
          "type": "uint256"
        }
      ],
      "payable": false,
      "stateMutability": "view",
      "type": "function"
    },
    {
      "constant": true,
      "inputs": [],
      "name": "BLOCKS_PER_YEAR",
      "outputs": [
        {
          "internalType": "uint256",
          "name": "",
          "type": "uint256"
        }
      ],
      "payable": false,
      "stateMutability": "view",
      "type": "function"
    },
    {
      "constant": true,
      "inputs": [],
      "name": "EMERGENCY_ADDR",
      "outputs": [
        {
          "internalType": "address payable",
          "name": "",
          "type": "address"
        }
      ],
      "payable": false,
      "stateMutability": "view",
      "type": "function"
    },
    {
      "constant": true,
      "inputs": [],
      "name": "ETH_ADDR",
      "outputs": [
        {
          "internalType": "address",
          "name": "",
          "type": "address"
        }
      ],
      "payable": false,
      "stateMutability": "view",
      "type": "function"
    },
    {
      "constant": true,
      "inputs": [],
      "name": "INT_UNIT",
      "outputs": [
        {
          "internalType": "uint256",
          "name": "",
          "type": "uint256"
        }
      ],
      "payable": false,
      "stateMutability": "view",
      "type": "function"
    },
    {
      "constant": true,
      "inputs": [],
      "name": "accountVariable",
      "outputs": [
        {
          "internalType": "uint128",
          "name": "depositBitmap",
          "type": "uint128"
        },
        {
          "internalType": "uint128",
          "name": "borrowBitmap",
          "type": "uint128"
        }
      ],
      "payable": false,
      "stateMutability": "view",
      "type": "function"
    },
    {
      "constant": false,
      "inputs": [
        {
          "internalType": "address",
          "name": "_token",
          "type": "address"
        }
      ],
      "name": "approveAll",
      "outputs": [],
      "payable": false,
      "stateMutability": "nonpayable",
      "type": "function"
    },
    {
      "constant": false,
      "inputs": [
        {
          "internalType": "address",
          "name": "_token",
          "type": "address"
        },
        {
          "internalType": "uint256",
          "name": "_amount",
          "type": "uint256"
        }
      ],
      "name": "borrow",
      "outputs": [],
      "payable": false,
      "stateMutability": "nonpayable",
      "type": "function"
    },
    {
      "constant": false,
      "inputs": [
        {
          "internalType": "address",
          "name": "_token",
          "type": "address"
        },
        {
          "internalType": "uint256",
          "name": "_amount",
          "type": "uint256"
        }
      ],
      "name": "deposit",
      "outputs": [],
      "payable": true,
      "stateMutability": "payable",
      "type": "function"
    },
    {
      "constant": false,
      "inputs": [
        {
          "internalType": "address",
          "name": "_token",
          "type": "address"
        }
      ],
      "name": "emergencyWithdraw",
      "outputs": [],
      "payable": false,
      "stateMutability": "nonpayable",
      "type": "function"
    },
    {
      "constant": false,
      "inputs": [
        {
          "internalType": "address",
          "name": "_token",
          "type": "address"
        },
        {
          "internalType": "uint256",
          "name": "_amount",
          "type": "uint256"
        }
      ],
      "name": "fromCompound",
      "outputs": [],
      "payable": false,
      "stateMutability": "nonpayable",
      "type": "function"
    },
    {
      "constant": true,
      "inputs": [],
      "name": "globalConfig",
      "outputs": [
        {
          "internalType": "contract GlobalConfig",
          "name": "",
          "type": "address"
        }
      ],
      "payable": false,
      "stateMutability": "view",
      "type": "function"
    },
    {
      "constant": false,
      "inputs": [
        {
          "internalType": "address",
          "name": "_targetAccountAddr",
          "type": "address"
        },
        {
          "internalType": "address",
          "name": "_targetToken",
          "type": "address"
        }
      ],
      "name": "liquidate",
      "outputs": [],
      "payable": false,
      "stateMutability": "nonpayable",
      "type": "function"
    },
    {
      "constant": false,
      "inputs": [],
      "name": "pause",
      "outputs": [],
      "payable": false,
      "stateMutability": "nonpayable",
      "type": "function"
    },
    {
      "constant": true,
      "inputs": [],
      "name": "paused",
      "outputs": [
        {
          "internalType": "bool",
          "name": "",
          "type": "bool"
        }
      ],
      "payable": false,
      "stateMutability": "view",
      "type": "function"
    },
    {
      "constant": false,
      "inputs": [
        {
          "internalType": "address",
          "name": "_token",
          "type": "address"
        },
        {
          "internalType": "uint256",
          "name": "_amount",
          "type": "uint256"
        }
      ],
      "name": "repay",
      "outputs": [],
      "payable": true,
      "stateMutability": "payable",
      "type": "function"
    },
    {
      "constant": false,
      "inputs": [
        {
          "internalType": "address",
          "name": "_token",
          "type": "address"
        },
        {
          "internalType": "uint256",
          "name": "_amount",
          "type": "uint256"
        }
      ],
      "name": "toCompound",
      "outputs": [],
      "payable": false,
      "stateMutability": "nonpayable",
      "type": "function"
    },
    {
      "constant": false,
      "inputs": [
        {
          "internalType": "address",
          "name": "_to",
          "type": "address"
        },
        {
          "internalType": "address",
          "name": "_token",
          "type": "address"
        },
        {
          "internalType": "uint256",
          "name": "_amount",
          "type": "uint256"
        }
      ],
      "name": "transfer",
      "outputs": [],
      "payable": false,
      "stateMutability": "nonpayable",
      "type": "function"
    },
    {
      "constant": false,
      "inputs": [],
      "name": "unpause",
      "outputs": [],
      "payable": false,
      "stateMutability": "nonpayable",
      "type": "function"
    },
    {
      "constant": false,
      "inputs": [
        {
          "internalType": "address",
          "name": "_token",
          "type": "address"
        },
        {
          "internalType": "uint256",
          "name": "_amount",
          "type": "uint256"
        }
      ],
      "name": "withdraw",
      "outputs": [],
      "payable": false,
      "stateMutability": "nonpayable",
      "type": "function"
    },
    {
      "constant": false,
      "inputs": [
        {
          "internalType": "address",
          "name": "_token",
          "type": "address"
        }
      ],
      "name": "withdrawAll",
      "outputs": [],
      "payable": false,
      "stateMutability": "nonpayable",
      "type": "function"
    },
    {
      "constant": false,
      "inputs": [
        {
          "internalType": "address[]",
          "name": "_tokenAddresses",
          "type": "address[]"
        },
        {
          "internalType": "address[]",
          "name": "_cTokenAddresses",
          "type": "address[]"
        },
        {
          "internalType": "contract GlobalConfig",
          "name": "_globalConfig",
          "type": "address"
        },
        {
          "internalType": "address",
          "name": "_comptroller",
          "type": "address"
        }
      ],
      "name": "initialize",
      "outputs": [],
      "payable": false,
      "stateMutability": "nonpayable",
      "type": "function"
    },
    {
      "constant": false,
      "inputs": [
        {
          "internalType": "address[]",
          "name": "_tokenAddresses",
          "type": "address[]"
        },
        {
          "internalType": "address[]",
          "name": "_cTokenAddresses",
          "type": "address[]"
        },
        {
          "internalType": "contract GlobalConfig",
          "name": "_globalConfig",
          "type": "address"
        }
      ],
      "name": "initialize",
      "outputs": [],
      "payable": false,
      "stateMutability": "nonpayable",
      "type": "function"
    },
    {
      "constant": false,
      "inputs": [
        {
          "internalType": "uint256",
          "name": "blocks",
          "type": "uint256"
        }
      ],
      "name": "fastForward",
      "outputs": [
        {
          "internalType": "uint256",
          "name": "",
          "type": "uint256"
        }
      ],
      "payable": false,
      "stateMutability": "nonpayable",
      "type": "function"
    },
    {
      "constant": false,
      "inputs": [
        {
          "internalType": "address",
          "name": "_token",
          "type": "address"
        }
      ],
      "name": "newRateIndexCheckpoint",
      "outputs": [],
      "payable": false,
      "stateMutability": "nonpayable",
      "type": "function"
    },
    {
      "constant": true,
      "inputs": [
        {
          "internalType": "address",
          "name": "_token",
          "type": "address"
        }
      ],
      "name": "getDepositPrincipal",
      "outputs": [
        {
          "internalType": "uint256",
          "name": "",
          "type": "uint256"
        }
      ],
      "payable": false,
      "stateMutability": "view",
      "type": "function"
    },
    {
      "constant": true,
      "inputs": [
        {
          "internalType": "address",
          "name": "_token",
          "type": "address"
        }
      ],
      "name": "getDepositInterest",
      "outputs": [
        {
          "internalType": "uint256",
          "name": "",
          "type": "uint256"
        }
      ],
      "payable": false,
      "stateMutability": "view",
      "type": "function"
    },
    {
      "constant": true,
      "inputs": [
        {
          "internalType": "address",
          "name": "_token",
          "type": "address"
        },
        {
          "internalType": "address",
          "name": "_accountAddr",
          "type": "address"
        }
      ],
      "name": "getDepositBalance",
      "outputs": [
        {
          "internalType": "uint256",
          "name": "",
          "type": "uint256"
        }
      ],
      "payable": false,
      "stateMutability": "view",
      "type": "function"
    },
    {
      "constant": true,
      "inputs": [
        {
          "internalType": "address",
          "name": "_token",
          "type": "address"
        }
      ],
      "name": "getBorrowPrincipal",
      "outputs": [
        {
          "internalType": "uint256",
          "name": "",
          "type": "uint256"
        }
      ],
      "payable": false,
      "stateMutability": "view",
      "type": "function"
    },
    {
      "constant": true,
      "inputs": [
        {
          "internalType": "address",
          "name": "_token",
          "type": "address"
        }
      ],
      "name": "getBorrowInterest",
      "outputs": [
        {
          "internalType": "uint256",
          "name": "",
          "type": "uint256"
        }
      ],
      "payable": false,
      "stateMutability": "view",
      "type": "function"
    },
    {
      "constant": true,
      "inputs": [
        {
          "internalType": "address",
          "name": "_token",
          "type": "address"
        },
        {
          "internalType": "address",
          "name": "_accountAddr",
          "type": "address"
        }
      ],
      "name": "getBorrowBalance",
      "outputs": [
        {
          "internalType": "uint256",
          "name": "",
          "type": "uint256"
        }
      ],
      "payable": false,
      "stateMutability": "view",
      "type": "function"
    },
    {
      "constant": true,
      "inputs": [
        {
          "internalType": "address",
          "name": "_account",
          "type": "address"
        }
      ],
      "name": "getBorrowETH",
      "outputs": [
        {
          "internalType": "uint256",
          "name": "",
          "type": "uint256"
        }
      ],
      "payable": false,
      "stateMutability": "view",
      "type": "function"
    },
    {
      "constant": true,
      "inputs": [
        {
          "internalType": "address",
          "name": "_account",
          "type": "address"
        }
      ],
      "name": "getDepositETH",
      "outputs": [
        {
          "internalType": "uint256",
          "name": "",
          "type": "uint256"
        }
      ],
      "payable": false,
      "stateMutability": "view",
      "type": "function"
    },
    {
      "constant": true,
      "inputs": [
        {
          "internalType": "address",
          "name": "_token",
          "type": "address"
        }
      ],
      "name": "getTokenPrice",
      "outputs": [
        {
          "internalType": "uint256",
          "name": "",
          "type": "uint256"
        }
      ],
      "payable": false,
      "stateMutability": "view",
      "type": "function"
    },
    {
      "constant": true,
      "inputs": [
        {
          "internalType": "address",
          "name": "_token",
          "type": "address"
        }
      ],
      "name": "getTokenState",
      "outputs": [
        {
          "internalType": "uint256",
          "name": "deposits",
          "type": "uint256"
        },
        {
          "internalType": "uint256",
          "name": "loans",
          "type": "uint256"
        },
        {
          "internalType": "uint256",
          "name": "reserveBalance",
          "type": "uint256"
        },
        {
          "internalType": "uint256",
          "name": "remainingAssets",
          "type": "uint256"
        }
      ],
      "payable": false,
      "stateMutability": "view",
      "type": "function"
    }
  ],
  "bytecode": "0x608060405234801561001057600080fd5b5061676a80620000216000396000f3fe6080604052600436106102045760003560e01c80638280e5a911610118578063d37db1d2116100a0578063f13688ce1161006f578063f13688ce146109c7578063f3fef3a3146109fa578063fa09e63014610a33578063fbcd9b051461094c578063fccbe7f614610a6657610204565b8063d37db1d214610937578063d8c2d84c1461094c578063de34b0f414610961578063e603d8351461099457610204565b8063a7c1abe0116100e7578063a7c1abe01461083e578063b0fcd7a014610853578063b528155714610886578063beabacc8146108c1578063d02641a01461090457610204565b80638280e5a9146107825780638456cb59146107bb57806386b9d81f146107d05780639c9dd88f1461080b57610204565b80633f4ba83a1161019b5780635274ac3f1161016a5780635274ac3f146105a55780635467cec4146106e05780635c975abb146107115780636ff1c9bc1461073a5780637753f47b1461076d57610204565b80633f4ba83a146104f257806347e7ef24146105075780634b8a352914610533578063526e93cb1461056c57610204565b806322867d78116101d757806322867d781461031a57806332a7621214610346578063330d0fff146103795780633c8bf9b3146103ac57610204565b80630621472c146102065780630ae112a4146102395780630b3eb97014610286578063118e31b7146102df575b005b34801561021257600080fd5b506102046004803603602081101561022957600080fd5b50356001600160a01b0316610a90565b34801561024557600080fd5b506102746004803603604081101561025c57600080fd5b506001600160a01b0381358116916020013516610c08565b60408051918252519081900360200190f35b34801561029257600080fd5b506102b9600480360360208110156102a957600080fd5b50356001600160a01b0316610d00565b604080519485526020850193909352838301919091526060830152519081900360800190f35b3480156102eb57600080fd5b506102746004803603604081101561030257600080fd5b506001600160a01b0381358116916020013516610e15565b6102046004803603604081101561033057600080fd5b506001600160a01b038135169060200135610ed8565b34801561035257600080fd5b506102746004803603602081101561036957600080fd5b50356001600160a01b03166113d4565b34801561038557600080fd5b506102746004803603602081101561039c57600080fd5b50356001600160a01b03166114c7565b3480156103b857600080fd5b50610204600480360360808110156103cf57600080fd5b810190602081018135600160201b8111156103e957600080fd5b8201836020820111156103fb57600080fd5b803590602001918460208302840111600160201b8311171561041c57600080fd5b9190808060200260200160405190810160405280939291908181526020018383602002808284376000920191909152509295949360208101935035915050600160201b81111561046b57600080fd5b82018360208201111561047d57600080fd5b803590602001918460208302840111600160201b8311171561049e57600080fd5b919080806020026020016040519081016040528093929190818152602001838360200280828437600092019190915250929550506001600160a01b0383358116945060209093013590921691506115889050565b3480156104fe57600080fd5b50610204611654565b6102046004803603604081101561051d57600080fd5b506001600160a01b038135169060200135611827565b34801561053f57600080fd5b506102046004803603604081101561055657600080fd5b506001600160a01b038135169060200135611d7f565b34801561057857600080fd5b506102046004803603604081101561058f57600080fd5b506001600160a01b038135169060200135612322565b3480156105b157600080fd5b50610204600480360360608110156105c857600080fd5b810190602081018135600160201b8111156105e257600080fd5b8201836020820111156105f457600080fd5b803590602001918460208302840111600160201b8311171561061557600080fd5b9190808060200260200160405190810160405280939291908181526020018383602002808284376000920191909152509295949360208101935035915050600160201b81111561066457600080fd5b82018360208201111561067657600080fd5b803590602001918460208302840111600160201b8311171561069757600080fd5b919080806020026020016040519081016040528093929190818152602001838360200280828437600092019190915250929550505090356001600160a01b0316915061259b9050565b3480156106ec57600080fd5b506106f561273e565b604080516001600160a01b039092168252519081900360200190f35b34801561071d57600080fd5b50610726612756565b604080519115158252519081900360200190f35b34801561074657600080fd5b506102046004803603602081101561075d57600080fd5b50356001600160a01b0316612766565b34801561077957600080fd5b506106f561283d565b34801561078e57600080fd5b50610204600480360360408110156107a557600080fd5b506001600160a01b038135169060200135612842565b3480156107c757600080fd5b50610204612b93565b3480156107dc57600080fd5b50610204600480360360408110156107f357600080fd5b506001600160a01b0381358116916020013516612d21565b34801561081757600080fd5b506102746004803603602081101561082e57600080fd5b50356001600160a01b0316614773565b34801561084a57600080fd5b506106f561482e565b34801561085f57600080fd5b506102746004803603602081101561087657600080fd5b50356001600160a01b031661483d565b34801561089257600080fd5b5061089b6148f8565b604080516001600160801b03938416815291909216602082015281519081900390910190f35b3480156108cd57600080fd5b50610204600480360360608110156108e457600080fd5b506001600160a01b03813581169160208101359091169060400135614912565b34801561091057600080fd5b506102746004803603602081101561092757600080fd5b50356001600160a01b0316614fcf565b34801561094357600080fd5b5061027461508a565b34801561095857600080fd5b50610274615091565b34801561096d57600080fd5b506102046004803603602081101561098457600080fd5b50356001600160a01b031661509d565b3480156109a057600080fd5b50610274600480360360208110156109b757600080fd5b50356001600160a01b0316615176565b3480156109d357600080fd5b50610274600480360360208110156109ea57600080fd5b50356001600160a01b0316615237565b348015610a0657600080fd5b5061020460048036036040811015610a1d57600080fd5b506001600160a01b0381351690602001356152f8565b348015610a3f57600080fd5b5061020460048036036020811015610a5657600080fd5b50356001600160a01b0316615780565b348015610a7257600080fd5b5061027460048036036020811015610a8957600080fd5b5035615ecb565b60345460408051639895880f60e01b815290516000926001600160a01b031691639895880f916004808301926020929190829003018186803b158015610ad557600080fd5b505afa158015610ae9573d6000803e3d6000fd5b505050506040513d6020811015610aff57600080fd5b505160408051637e5a4eb960e01b81526001600160a01b03858116600483015291519190921691637e5a4eb9916024808301926020929190829003018186803b158015610b4b57600080fd5b505afa158015610b5f573d6000803e3d6000fd5b505050506040513d6020811015610b7557600080fd5b505190506001600160a01b038116610bcd576040805162461bcd60e51b815260206004820152601660248201527563546f6b656e2061646472657373206973207a65726f60501b604482015290519081900360640190fd5b610be86001600160a01b03831682600063ffffffff615f2c16565b610c046001600160a01b0383168260001963ffffffff615f2c16565b5050565b6034546040805163346681fb60e11b815290516000926001600160a01b0316916368cd03f6916004808301926020929190829003018186803b158015610c4d57600080fd5b505afa158015610c61573d6000803e3d6000fd5b505050506040513d6020811015610c7757600080fd5b50516040805163b44d253d60e01b81526001600160a01b03868116600483015285811660248301529151919092169163b44d253d916044808301926020929190829003018186803b158015610ccb57600080fd5b505afa158015610cdf573d6000803e3d6000fd5b505050506040513d6020811015610cf557600080fd5b505190505b92915050565b600080600080603460009054906101000a90046001600160a01b03166001600160a01b03166376cdb03b6040518163ffffffff1660e01b815260040160206040518083038186803b158015610d5457600080fd5b505afa158015610d68573d6000803e3d6000fd5b505050506040513d6020811015610d7e57600080fd5b50516040805162b3eb9760e41b81526001600160a01b03888116600483015291519190921691630b3eb970916024808301926080929190829003018186803b158015610dc957600080fd5b505afa158015610ddd573d6000803e3d6000fd5b505050506040513d6080811015610df357600080fd5b5080516020820151604083015160609093015191989097509195509350915050565b6034546040805163346681fb60e11b815290516000926001600160a01b0316916368cd03f6916004808301926020929190829003018186803b158015610e5a57600080fd5b505afa158015610e6e573d6000803e3d6000fd5b505050506040513d6020811015610e8457600080fd5b50516040805163e94201c760e01b81526001600160a01b03868116600483015285811660248301529151919092169163e94201c7916044808301926020929190829003018186803b158015610ccb57600080fd5b603454604080516378b88bc760e11b81526001600160a01b039283166004820152918416602483015251839173__Utils_________________________________9163f171178e91604480820192602092909190829003018186803b158015610f4057600080fd5b505af4158015610f54573d6000803e3d6000fd5b505050506040513d6020811015610f6a57600080fd5b50516110a557603460009054906101000a90046001600160a01b03166001600160a01b0316639895880f6040518163ffffffff1660e01b815260040160206040518083038186803b158015610fbe57600080fd5b505afa158015610fd2573d6000803e3d6000fd5b505050506040513d6020811015610fe857600080fd5b505160408051633fc422e560e01b81526001600160a01b03848116600483015291519190921691633fc422e5916024808301926020929190829003018186803b15801561103457600080fd5b505afa158015611048573d6000803e3d6000fd5b505050506040513d602081101561105e57600080fd5b50516110a5576040805162461bcd60e51b81526020600482015260116024820152702ab739bab83837b93a32b2103a37b5b2b760791b604482015290519081900360640190fd5b60335460ff166110ea576040805162461bcd60e51b815260206004820152601f6024820152600080516020616540833981519152604482015290519081900360640190fd5b6033805460ff1916905581611137576040805162461bcd60e51b815260206004820152600e60248201526d416d6f756e74206973207a65726f60901b604482015290519081900360640190fd5b603454604080516384ac1f7560e01b81526001600160a01b0392831660048201526024810185905291851660448301525173__SavingLib_____________________________916384ac1f75916064808301926000929190829003018186803b1580156111a357600080fd5b505af41580156111b7573d6000803e3d6000fd5b505050506000603460009054906101000a90046001600160a01b03166001600160a01b03166376cdb03b6040518163ffffffff1660e01b815260040160206040518083038186803b15801561120b57600080fd5b505afa15801561121f573d6000803e3d6000fd5b505050506040513d602081101561123557600080fd5b505160408051631da649cf60e01b81523360048201526001600160a01b0387811660248301526044820187905291519190921691631da649cf9160648083019260209291908290030181600087803b15801561129057600080fd5b505af11580156112a4573d6000803e3d6000fd5b505050506040513d60208110156112ba57600080fd5b505190508281101561137e5760345473__SavingLib_____________________________90633b4571a1906001600160a01b03166112fe868563ffffffff61603f16565b876040518463ffffffff1660e01b815260040180846001600160a01b03166001600160a01b03168152602001838152602001826001600160a01b03166001600160a01b03168152602001935050505060006040518083038186803b15801561136557600080fd5b505af4158015611379573d6000803e3d6000fd5b505050505b604080513381526020810183905281516001600160a01b038716927f05f2eeda0e08e4b437f487c8d7d29b14537d15e3488170dc3de5dbdf8dac4684928290030190a250506033805460ff191660011790555050565b6034546040805163346681fb60e11b815290516000926001600160a01b0316916368cd03f6916004808301926020929190829003018186803b15801561141957600080fd5b505afa15801561142d573d6000803e3d6000fd5b505050506040513d602081101561144357600080fd5b50516040805163e2a93dd960e01b81523360048201526001600160a01b0385811660248301529151919092169163e2a93dd9916044808301926020929190829003018186803b15801561149557600080fd5b505afa1580156114a9573d6000803e3d6000fd5b505050506040513d60208110156114bf57600080fd5b505192915050565b6034546040805163346681fb60e11b815290516000926001600160a01b0316916368cd03f6916004808301926020929190829003018186803b15801561150c57600080fd5b505afa158015611520573d6000803e3d6000fd5b505050506040513d602081101561153657600080fd5b50516040805163fa78d59f60e01b81523360048201526001600160a01b0385811660248301529151919092169163fa78d59f916044808301926020929190829003018186803b15801561149557600080fd5b600054610100900460ff16806115a157506115a1616088565b806115af575060005460ff16155b6115ea5760405162461bcd60e51b815260040180806020018281038252602e8152602001806165d2602e913960400191505060405180910390fd5b600054610100900460ff16158015611615576000805460ff1961ff0019909116610100171660011790555b61162085858561259b565b603a80546001600160a01b0319166001600160a01b038416179055801561164d576000805461ff00191690555b5050505050565b603360019054906101000a90046001600160a01b03166001600160a01b0316638da5cb5b6040518163ffffffff1660e01b815260040160206040518083038186803b1580156116a257600080fd5b505afa1580156116b6573d6000803e3d6000fd5b505050506040513d60208110156116cc57600080fd5b50516001600160a01b031633146117145760405162461bcd60e51b81526004018080602001828103825260308152602001806165606030913960400191505060405180910390fd5b603354600160a81b900460ff16611769576040805162461bcd60e51b815260206004820152601460248201527314185d5cd8589b194e881b9bdd081c185d5cd95960621b604482015290519081900360640190fd5b6033805460ff60a81b19169081905560408051638da5cb5b60e01b815290517f5db9ee0a495bf2e6ff9c91a7834c1ba4fdd244a5e8aa4e537bd38aeae4b073aa9261010090046001600160a01b031691638da5cb5b916004808301926020929190829003018186803b1580156117de57600080fd5b505afa1580156117f2573d6000803e3d6000fd5b505050506040513d602081101561180857600080fd5b5051604080516001600160a01b039092168252519081900360200190a1565b603454604080516378b88bc760e11b81526001600160a01b039283166004820152918416602483015251839173__Utils_________________________________9163f171178e91604480820192602092909190829003018186803b15801561188f57600080fd5b505af41580156118a3573d6000803e3d6000fd5b505050506040513d60208110156118b957600080fd5b50516119f457603460009054906101000a90046001600160a01b03166001600160a01b0316639895880f6040518163ffffffff1660e01b815260040160206040518083038186803b15801561190d57600080fd5b505afa158015611921573d6000803e3d6000fd5b505050506040513d602081101561193757600080fd5b505160408051633fc422e560e01b81526001600160a01b03848116600483015291519190921691633fc422e5916024808301926020929190829003018186803b15801561198357600080fd5b505afa158015611997573d6000803e3d6000fd5b505050506040513d60208110156119ad57600080fd5b50516119f4576040805162461bcd60e51b81526020600482015260116024820152702ab739bab83837b93a32b2103a37b5b2b760791b604482015290519081900360640190fd5b60345460408051639895880f60e01b8152905185926001600160a01b031691639895880f916004808301926020929190829003018186803b158015611a3857600080fd5b505afa158015611a4c573d6000803e3d6000fd5b505050506040513d6020811015611a6257600080fd5b50516040805163748538d960e01b81526001600160a01b0384811660048301529151919092169163748538d9916024808301926020929190829003018186803b158015611aae57600080fd5b505afa158015611ac2573d6000803e3d6000fd5b505050506040513d6020811015611ad857600080fd5b5051611b26576040805162461bcd60e51b8152602060048201526018602482015277151a19481d1bdad95b881a5cc81b9bdd08195b98589b195960421b604482015290519081900360640190fd5b60335460ff16611b6b576040805162461bcd60e51b815260206004820152601f6024820152600080516020616540833981519152604482015290519081900360640190fd5b6033805460ff1916905582611bb8576040805162461bcd60e51b815260206004820152600e60248201526d416d6f756e74206973207a65726f60901b604482015290519081900360640190fd5b603454604080516384ac1f7560e01b81526001600160a01b0392831660048201526024810186905291861660448301525173__SavingLib_____________________________916384ac1f75916064808301926000929190829003018186803b158015611c2457600080fd5b505af4158015611c38573d6000803e3d6000fd5b50505050603460009054906101000a90046001600160a01b03166001600160a01b03166376cdb03b6040518163ffffffff1660e01b815260040160206040518083038186803b158015611c8a57600080fd5b505afa158015611c9e573d6000803e3d6000fd5b505050506040513d6020811015611cb457600080fd5b505160408051638340f54960e01b81523360048201526001600160a01b0387811660248301526044820187905291519190921691638340f54991606480830192600092919082900301818387803b158015611d0e57600080fd5b505af1158015611d22573d6000803e3d6000fd5b5050604080513381526020810187905281516001600160a01b03891694507f5548c837ab068cf56a2c2479df0882a4922fd203edb7517321831d95078c5f6293509081900390910190a250506033805460ff191660011790555050565b603454604080516378b88bc760e11b81526001600160a01b039283166004820152918416602483015251839173__Utils_________________________________9163f171178e91604480820192602092909190829003018186803b158015611de757600080fd5b505af4158015611dfb573d6000803e3d6000fd5b505050506040513d6020811015611e1157600080fd5b5051611f4c57603460009054906101000a90046001600160a01b03166001600160a01b0316639895880f6040518163ffffffff1660e01b815260040160206040518083038186803b158015611e6557600080fd5b505afa158015611e79573d6000803e3d6000fd5b505050506040513d6020811015611e8f57600080fd5b505160408051633fc422e560e01b81526001600160a01b03848116600483015291519190921691633fc422e5916024808301926020929190829003018186803b158015611edb57600080fd5b505afa158015611eef573d6000803e3d6000fd5b505050506040513d6020811015611f0557600080fd5b5051611f4c576040805162461bcd60e51b81526020600482015260116024820152702ab739bab83837b93a32b2103a37b5b2b760791b604482015290519081900360640190fd5b60345460408051639895880f60e01b8152905185926001600160a01b031691639895880f916004808301926020929190829003018186803b158015611f9057600080fd5b505afa158015611fa4573d6000803e3d6000fd5b505050506040513d6020811015611fba57600080fd5b50516040805163748538d960e01b81526001600160a01b0384811660048301529151919092169163748538d9916024808301926020929190829003018186803b15801561200657600080fd5b505afa15801561201a573d6000803e3d6000fd5b505050506040513d602081101561203057600080fd5b505161207e576040805162461bcd60e51b8152602060048201526018602482015277151a19481d1bdad95b881a5cc81b9bdd08195b98589b195960421b604482015290519081900360640190fd5b603354600160a81b900460ff16156120d0576040805162461bcd60e51b815260206004820152601060248201526f14185d5cd8589b194e881c185d5cd95960821b604482015290519081900360640190fd5b60335460ff16612115576040805162461bcd60e51b815260206004820152601f6024820152600080516020616540833981519152604482015290519081900360640190fd5b6033805460ff191690558261215b5760405162461bcd60e51b815260040180806020018281038252602b815260200180616515602b913960400191505060405180910390fd5b603460009054906101000a90046001600160a01b03166001600160a01b03166376cdb03b6040518163ffffffff1660e01b815260040160206040518083038186803b1580156121a957600080fd5b505afa1580156121bd573d6000803e3d6000fd5b505050506040513d60208110156121d357600080fd5b5051604080516314890dcb60e21b81523360048201526001600160a01b0387811660248301526044820187905291519190921691635224372c91606480830192600092919082900301818387803b15801561222d57600080fd5b505af1158015612241573d6000803e3d6000fd5b505060345460408051633b4571a160e01b81526001600160a01b0392831660048201526024810188905291881660448301525173__SavingLib_____________________________9350633b4571a192506064808301926000929190829003018186803b1580156122b157600080fd5b505af41580156122c5573d6000803e3d6000fd5b5050604080513381526020810187905281516001600160a01b03891694507f312a5e5e1079f5dda4e95dbbd0b908b291fd5b992ef22073643ab691572c5b5293509081900390910190a250506033805460ff191660011790555050565b603460009054906101000a90046001600160a01b03166001600160a01b03166376cdb03b6040518163ffffffff1660e01b815260040160206040518083038186803b15801561237057600080fd5b505afa158015612384573d6000803e3d6000fd5b505050506040513d602081101561239a57600080fd5b50516001600160a01b031633146123e25760405162461bcd60e51b815260040180806020018281038252603881526020018061669e6038913960400191505060405180910390fd5b603460009054906101000a90046001600160a01b03166001600160a01b0316639895880f6040518163ffffffff1660e01b815260040160206040518083038186803b15801561243057600080fd5b505afa158015612444573d6000803e3d6000fd5b505050506040513d602081101561245a57600080fd5b505160408051637e5a4eb960e01b81526001600160a01b03858116600483015291519190921691637e5a4eb9916024808301926020929190829003018186803b1580156124a657600080fd5b505afa1580156124ba573d6000803e3d6000fd5b505050506040513d60208110156124d057600080fd5b50516040805163852a12e360e01b81526004810184905290516001600160a01b039092169163852a12e3916024808201926020929091908290030181600087803b15801561251d57600080fd5b505af1158015612531573d6000803e3d6000fd5b505050506040513d602081101561254757600080fd5b505115610c04576040805162461bcd60e51b815260206004820152601760248201527f72656465656d556e6465726c79696e67206661696c6564000000000000000000604482015290519081900360640190fd5b600054610100900460ff16806125b457506125b4616088565b806125c2575060005460ff16155b6125fd5760405162461bcd60e51b815260040180806020018281038252602e8152602001806165d2602e913960400191505060405180910390fd5b600054610100900460ff16158015612628576000805460ff1961ff0019909116610100171660011790555b61263061608e565b6126398261609d565b603480546001600160a01b0319166001600160a01b03841617905582518451146126945760405162461bcd60e51b81526004018080602001828103825260248152602001806164c96024913960400191505060405180910390fd5b60005b84518110156127255760006001600160a01b03168482815181106126b757fe5b60200260200101516001600160a01b0316141580156126fc5750600e6001600160a01b03168582815181106126e857fe5b60200260200101516001600160a01b031614155b1561271d5761271d85828151811061271057fe5b6020026020010151610a90565b600101612697565b508015612738576000805461ff00191690555b50505050565b73c04158f7db6f9c9ffbd5593236a1a3d69f92167c81565b603354600160a81b900460ff1690565b3373c04158f7db6f9c9ffbd5593236a1a3d69f92167c146127c4576040805162461bcd60e51b8152602060048201526013602482015272155cd95c881b9bdd08185d5d1a1bdc9a5e9959606a1b604482015290519081900360640190fd5b603454604080516302bff52f60e01b81526001600160a01b03928316600482015291831660248301525173__SavingLib_____________________________916302bff52f916044808301926000929190829003018186803b15801561282957600080fd5b505af415801561164d573d6000803e3d6000fd5b600e81565b603460009054906101000a90046001600160a01b03166001600160a01b03166376cdb03b6040518163ffffffff1660e01b815260040160206040518083038186803b15801561289057600080fd5b505afa1580156128a4573d6000803e3d6000fd5b505050506040513d60208110156128ba57600080fd5b50516001600160a01b031633146129025760405162461bcd60e51b815260040180806020018281038252603881526020018061669e6038913960400191505060405180910390fd5b60345460408051639895880f60e01b815290516000926001600160a01b031691639895880f916004808301926020929190829003018186803b15801561294757600080fd5b505afa15801561295b573d6000803e3d6000fd5b505050506040513d602081101561297157600080fd5b505160408051637e5a4eb960e01b81526001600160a01b03868116600483015291519190921691637e5a4eb9916024808301926020929190829003018186803b1580156129bd57600080fd5b505afa1580156129d1573d6000803e3d6000fd5b505050506040513d60208110156129e757600080fd5b5051603454604080516378b88bc760e11b81526001600160a01b03928316600482015291861660248301525191925073__Utils_________________________________9163f171178e91604480820192602092909190829003018186803b158015612a5257600080fd5b505af4158015612a66573d6000803e3d6000fd5b505050506040513d6020811015612a7c57600080fd5b505115612adc57806001600160a01b0316631249c58b836040518263ffffffff1660e01b81526004016000604051808303818588803b158015612abe57600080fd5b505af1158015612ad2573d6000803e3d6000fd5b5050505050612b8e565b806001600160a01b031663a0712d68836040518263ffffffff1660e01b815260040180828152602001915050602060405180830381600087803b158015612b2257600080fd5b505af1158015612b36573d6000803e3d6000fd5b505050506040513d6020811015612b4c57600080fd5b505115612b8e576040805162461bcd60e51b815260206004820152600b60248201526a1b5a5b9d0819985a5b195960aa1b604482015290519081900360640190fd5b505050565b603360019054906101000a90046001600160a01b03166001600160a01b0316638da5cb5b6040518163ffffffff1660e01b815260040160206040518083038186803b158015612be157600080fd5b505afa158015612bf5573d6000803e3d6000fd5b505050506040513d6020811015612c0b57600080fd5b50516001600160a01b03163314612c535760405162461bcd60e51b81526004018080602001828103825260308152602001806165606030913960400191505060405180910390fd5b603354600160a81b900460ff1615612ca5576040805162461bcd60e51b815260206004820152601060248201526f14185d5cd8589b194e881c185d5cd95960821b604482015290519081900360640190fd5b6033805460ff60a81b1916600160a81b179081905560408051638da5cb5b60e01b815290517f62e78cea01bee320cd4e420270b5ea74000d11b0c9f74754ebdbfc544b05a258926001600160a01b036101009091041691638da5cb5b916004808301926020929190829003018186803b1580156117de57600080fd5b603454604080516378b88bc760e11b81526001600160a01b039283166004820152918316602483015251829173__Utils_________________________________9163f171178e91604480820192602092909190829003018186803b158015612d8957600080fd5b505af4158015612d9d573d6000803e3d6000fd5b505050506040513d6020811015612db357600080fd5b5051612eee57603460009054906101000a90046001600160a01b03166001600160a01b0316639895880f6040518163ffffffff1660e01b815260040160206040518083038186803b158015612e0757600080fd5b505afa158015612e1b573d6000803e3d6000fd5b505050506040513d6020811015612e3157600080fd5b505160408051633fc422e560e01b81526001600160a01b03848116600483015291519190921691633fc422e5916024808301926020929190829003018186803b158015612e7d57600080fd5b505afa158015612e91573d6000803e3d6000fd5b505050506040513d6020811015612ea757600080fd5b5051612eee576040805162461bcd60e51b81526020600482015260116024820152702ab739bab83837b93a32b2103a37b5b2b760791b604482015290519081900360640190fd5b603354600160a81b900460ff1615612f40576040805162461bcd60e51b815260206004820152601060248201526f14185d5cd8589b194e881c185d5cd95960821b604482015290519081900360640190fd5b60335460ff16612f85576040805162461bcd60e51b815260206004820152601f6024820152600080516020616540833981519152604482015290519081900360640190fd5b6033805460ff191690556034546040805163346681fb60e11b815290516001600160a01b03909216916368cd03f691600480820192602092909190829003018186803b158015612fd457600080fd5b505afa158015612fe8573d6000803e3d6000fd5b505050506040513d6020811015612ffe57600080fd5b50516040805163be2801b560e01b81526001600160a01b0386811660048301529151919092169163be2801b59160248083019260209291908290030181600087803b15801561304c57600080fd5b505af1158015613060573d6000803e3d6000fd5b505050506040513d602081101561307657600080fd5b50516130b35760405162461bcd60e51b81526004018080602001828103825260218152602001806165906021913960400191505060405180910390fd5b6130bb616457565b603460009054906101000a90046001600160a01b03166001600160a01b03166368cd03f66040518163ffffffff1660e01b815260040160206040518083038186803b15801561310957600080fd5b505afa15801561311d573d6000803e3d6000fd5b505050506040513d602081101561313357600080fd5b505160408051630587e6bd60e51b815233600482015290516001600160a01b039092169163b0fcd7a091602480820192602092909190829003018186803b15801561317d57600080fd5b505afa158015613191573d6000803e3d6000fd5b505050506040513d60208110156131a757600080fd5b505160c08201526034546040805163346681fb60e11b815290516001600160a01b03909216916368cd03f691600480820192602092909190829003018186803b1580156131f357600080fd5b505afa158015613207573d6000803e3d6000fd5b505050506040513d602081101561321d57600080fd5b50516040805163e21f0b5560e01b815233600482015290516001600160a01b039092169163e21f0b5591602480820192602092909190829003018186803b15801561326757600080fd5b505afa15801561327b573d6000803e3d6000fd5b505050506040513d602081101561329157600080fd5b505160c08201516132a990606463ffffffff6160cc16565b106132e55760405162461bcd60e51b81526004018080602001828103825260288152602001806164ed6028913960400191505060405180910390fd5b603460009054906101000a90046001600160a01b03166001600160a01b03166368cd03f66040518163ffffffff1660e01b815260040160206040518083038186803b15801561333357600080fd5b505afa158015613347573d6000803e3d6000fd5b505050506040513d602081101561335d57600080fd5b50516040805163b44d253d60e01b81526001600160a01b0386811660048301523360248301529151919092169163b44d253d916044808301926020929190829003018186803b1580156133af57600080fd5b505afa1580156133c3573d6000803e3d6000fd5b505050506040513d60208110156133d957600080fd5b505160e0820181905261341d5760405162461bcd60e51b815260040180806020018281038252602d815260200180616600602d913960400191505060405180910390fd5b603460009054906101000a90046001600160a01b03166001600160a01b03166368cd03f66040518163ffffffff1660e01b815260040160206040518083038186803b15801561346b57600080fd5b505afa15801561347f573d6000803e3d6000fd5b505050506040513d602081101561349557600080fd5b50516040805163e94201c760e01b81526001600160a01b03868116600483015287811660248301529151919092169163e94201c7916044808301926020929190829003018186803b1580156134e957600080fd5b505afa1580156134fd573d6000803e3d6000fd5b505050506040513d602081101561351357600080fd5b505161010082018190526135585760405162461bcd60e51b815260040180806020018281038252604481526020018061662d6044913960600191505060405180910390fd5b8061010001518160e0015111156135755761010081015160e08201525b60006001600160a01b038416600e1461368357603460009054906101000a90046001600160a01b03166001600160a01b0316639895880f6040518163ffffffff1660e01b815260040160206040518083038186803b1580156135d657600080fd5b505afa1580156135ea573d6000803e3d6000fd5b505050506040513d602081101561360057600080fd5b505160408051633c2e3e7b60e11b81526001600160a01b0387811660048301529151919092169163785c7cf6916024808301926020929190829003018186803b15801561364c57600080fd5b505afa158015613660573d6000803e3d6000fd5b505050506040513d602081101561367657600080fd5b505160ff16600a0a61368d565b670de0b6b3a76400005b9050603460009054906101000a90046001600160a01b03166001600160a01b0316639895880f6040518163ffffffff1660e01b815260040160206040518083038186803b1580156136dd57600080fd5b505afa1580156136f1573d6000803e3d6000fd5b505050506040513d602081101561370757600080fd5b505160408051636e9ecb0f60e11b81526001600160a01b0387811660048301529151919092169163dd3d961e916024808301926020929190829003018186803b15801561375357600080fd5b505afa158015613767573d6000803e3d6000fd5b505050506040513d602081101561377d57600080fd5b505161012083015260345460408051634802b7c160e01b815290516001600160a01b0390921691634802b7c191600480820192602092909190829003018186803b1580156137ca57600080fd5b505afa1580156137de573d6000803e3d6000fd5b505050506040513d60208110156137f457600080fd5b5051610140830181905261012083015160e084015161383f9284926138339283916064916138279163ffffffff6160cc16565b9063ffffffff6160cc16565b9063ffffffff61612516565b60608301526034546040805163346681fb60e11b815290516001600160a01b03909216916368cd03f691600480820192602092909190829003018186803b15801561388957600080fd5b505afa15801561389d573d6000803e3d6000fd5b505050506040513d60208110156138b357600080fd5b505160408051630587e6bd60e51b81526001600160a01b0388811660048301529151919092169163b0fcd7a0916024808301926020929190829003018186803b1580156138ff57600080fd5b505afa158015613913573d6000803e3d6000fd5b505050506040513d602081101561392957600080fd5b50516101608301526034546040805163346681fb60e11b815290516001600160a01b03909216916368cd03f691600480820192602092909190829003018186803b15801561397657600080fd5b505afa15801561398a573d6000803e3d6000fd5b505050506040513d60208110156139a057600080fd5b50516040805163e21f0b5560e01b81526001600160a01b0388811660048301529151919092169163e21f0b55916024808301926020929190829003018186803b1580156139ec57600080fd5b505afa158015613a00573d6000803e3d6000fd5b505050506040513d6020811015613a1657600080fd5b505161018083015261016082015160005b603460009054906101000a90046001600160a01b03166001600160a01b0316639895880f6040518163ffffffff1660e01b815260040160206040518083038186803b158015613a7557600080fd5b505afa158015613a89573d6000803e3d6000fd5b505050506040513d6020811015613a9f57600080fd5b505160408051630463749760e51b815290516001600160a01b0390921691638c6e92e091600480820192602092909190829003018186803b158015613ae357600080fd5b505afa158015613af7573d6000803e3d6000fd5b505050506040513d6020811015613b0d57600080fd5b505181101561453657603460009054906101000a90046001600160a01b03166001600160a01b0316639895880f6040518163ffffffff1660e01b815260040160206040518083038186803b158015613b6457600080fd5b505afa158015613b78573d6000803e3d6000fd5b505050506040513d6020811015613b8e57600080fd5b50516040805163021245b160e01b81526004810184905290516001600160a01b039092169163021245b191602480820192602092909190829003018186803b158015613bd957600080fd5b505afa158015613bed573d6000803e3d6000fd5b505050506040513d6020811015613c0357600080fd5b50516001600160a01b0390811685526034546040805163346681fb60e11b8152905191909216916368cd03f6916004808301926020929190829003018186803b158015613c4f57600080fd5b505afa158015613c63573d6000803e3d6000fd5b505050506040513d6020811015613c7957600080fd5b505160408051629612df60e71b81526001600160a01b038a8116600483015260ff8516602483015291519190921691634b096f80916044808301926020929190829003018186803b158015613ccd57600080fd5b505afa158015613ce1573d6000803e3d6000fd5b505050506040513d6020811015613cf757600080fd5b50511561450957603460009054906101000a90046001600160a01b03166001600160a01b0316639895880f6040518163ffffffff1660e01b815260040160206040518083038186803b158015613d4c57600080fd5b505afa158015613d60573d6000803e3d6000fd5b505050506040513d6020811015613d7657600080fd5b505160408051634af44fff60e11b81526004810184905290516001600160a01b03909216916395e89ffe91602480820192602092909190829003018186803b158015613dc157600080fd5b505afa158015613dd5573d6000803e3d6000fd5b505050506040513d6020811015613deb57600080fd5b5051602085015283516001600160a01b0316600e14613f0157603460009054906101000a90046001600160a01b03166001600160a01b0316639895880f6040518163ffffffff1660e01b815260040160206040518083038186803b158015613e5257600080fd5b505afa158015613e66573d6000803e3d6000fd5b505050506040513d6020811015613e7c57600080fd5b5051845160408051633c2e3e7b60e11b81526001600160a01b0392831660048201529051919092169163785c7cf6916024808301926020929190829003018186803b158015613eca57600080fd5b505afa158015613ede573d6000803e3d6000fd5b505050506040513d6020811015613ef457600080fd5b505160ff16600a0a613f0b565b670de0b6b3a76400005b60a085018190526020808601516034546040805163346681fb60e11b81529051614018959461383394936001600160a01b0316926368cd03f69260048083019392829003018186803b158015613f6057600080fd5b505afa158015613f74573d6000803e3d6000fd5b505050506040513d6020811015613f8a57600080fd5b505188516040805163b44d253d60e01b81526001600160a01b0392831660048201528e831660248201529051919092169163b44d253d916044808301926020929190829003018186803b158015613fe057600080fd5b505afa158015613ff4573d6000803e3d6000fd5b505050506040513d602081101561400a57600080fd5b50519063ffffffff6160cc16565b846040018181525050600061414f61412d603460009054906101000a90046001600160a01b03166001600160a01b0316639895880f6040518163ffffffff1660e01b815260040160206040518083038186803b15801561407757600080fd5b505afa15801561408b573d6000803e3d6000fd5b505050506040513d60208110156140a157600080fd5b5051875160408051632418cd4960e21b81526001600160a01b039283166004820152905191909216916390633524916024808301926020929190829003018186803b1580156140ef57600080fd5b505afa158015614103573d6000803e3d6000fd5b505050506040513d602081101561411957600080fd5b50516101408801519063ffffffff61603f16565b61383360646138278961018001518a610160015161603f90919063ffffffff16565b9050808560400151111561416557604085018190525b84606001518560400151111561418057606085015160408601525b6141b66141a4606461383388610140015189604001516160cc90919063ffffffff16565b6101608701519063ffffffff61603f16565b61016086015260345460408051639895880f60e01b815290516142d4926142c292606492613833926001600160a01b031691639895880f916004808301926020929190829003018186803b15801561420d57600080fd5b505afa158015614221573d6000803e3d6000fd5b505050506040513d602081101561423757600080fd5b5051895160408051632418cd4960e21b81526001600160a01b039283166004820152905191909216916390633524916024808301926020929190829003018186803b15801561428557600080fd5b505afa158015614299573d6000803e3d6000fd5b505050506040513d60208110156142af57600080fd5b505160408a01519063ffffffff6160cc16565b6101808701519063ffffffff61603f16565b610180860152604085015160608601516142f39163ffffffff61603f16565b6060860152602085015160a0860151604087015161431c9291613833919063ffffffff6160cc16565b60808601526034546040805163346681fb60e11b815290516000926001600160a01b0316916368cd03f6916004808301926020929190829003018186803b15801561436657600080fd5b505afa15801561437a573d6000803e3d6000fd5b505050506040513d602081101561439057600080fd5b50518651608088015160408051636ce5768960e11b81526001600160a01b038e811660048301529384166024820152604481019290925251919092169163d9caed129160648083019260209291908290030181600087803b1580156143f457600080fd5b505af1158015614408573d6000803e3d6000fd5b505050506040513d602081101561441e57600080fd5b50516034546040805163346681fb60e11b815290519293506001600160a01b03909116916368cd03f691600480820192602092909190829003018186803b15801561446857600080fd5b505afa15801561447c573d6000803e3d6000fd5b505050506040513d602081101561449257600080fd5b5051865160408051638340f54960e01b81523360048201526001600160a01b0392831660248201526044810185905290519190921691638340f54991606480830192600092919082900301818387803b1580156144ee57600080fd5b505af1158015614502573d6000803e3d6000fd5b5050505050505b83610180015184610160015111158061452457506060840151155b1561452e57614536565b600101613a27565b50600061455e846101200151613833856138278861016001518761603f90919063ffffffff16565b90506000603460009054906101000a90046001600160a01b03166001600160a01b03166376cdb03b6040518163ffffffff1660e01b815260040160206040518083038186803b1580156145b057600080fd5b505afa1580156145c4573d6000803e3d6000fd5b505050506040513d60208110156145da57600080fd5b505160408051636ce5768960e11b81523360048201526001600160a01b038a81166024830152604482018690529151919092169163d9caed129160648083019260209291908290030181600087803b15801561463557600080fd5b505af1158015614649573d6000803e3d6000fd5b505050506040513d602081101561465f57600080fd5b5051603454604080516376cdb03b60e01b815290519293506001600160a01b03909116916376cdb03b91600480820192602092909190829003018186803b1580156146a957600080fd5b505afa1580156146bd573d6000803e3d6000fd5b505050506040513d60208110156146d357600080fd5b505160408051631da649cf60e01b81526001600160a01b038b811660048301528a811660248301526044820185905291519190921691631da649cf9160648083019260209291908290030181600087803b15801561473057600080fd5b505af1158015614744573d6000803e3d6000fd5b505050506040513d602081101561475a57600080fd5b50506033805460ff191660011790555050505050505050565b6034546040805163346681fb60e11b815290516000926001600160a01b0316916368cd03f6916004808301926020929190829003018186803b1580156147b857600080fd5b505afa1580156147cc573d6000803e3d6000fd5b505050506040513d60208110156147e257600080fd5b505160408051639c9dd88f60e01b81526001600160a01b03858116600483015291519190921691639c9dd88f916024808301926020929190829003018186803b15801561149557600080fd5b6034546001600160a01b031681565b6034546040805163346681fb60e11b815290516000926001600160a01b0316916368cd03f6916004808301926020929190829003018186803b15801561488257600080fd5b505afa158015614896573d6000803e3d6000fd5b505050506040513d60208110156148ac57600080fd5b505160408051630587e6bd60e51b81526001600160a01b0385811660048301529151919092169163b0fcd7a0916024808301926020929190829003018186803b15801561149557600080fd5b6036546001600160801b0380821691600160801b90041682565b603454604080516378b88bc760e11b81526001600160a01b039283166004820152918416602483015251839173__Utils_________________________________9163f171178e91604480820192602092909190829003018186803b15801561497a57600080fd5b505af415801561498e573d6000803e3d6000fd5b505050506040513d60208110156149a457600080fd5b5051614adf57603460009054906101000a90046001600160a01b03166001600160a01b0316639895880f6040518163ffffffff1660e01b815260040160206040518083038186803b1580156149f857600080fd5b505afa158015614a0c573d6000803e3d6000fd5b505050506040513d6020811015614a2257600080fd5b505160408051633fc422e560e01b81526001600160a01b03848116600483015291519190921691633fc422e5916024808301926020929190829003018186803b158015614a6e57600080fd5b505afa158015614a82573d6000803e3d6000fd5b505050506040513d6020811015614a9857600080fd5b5051614adf576040805162461bcd60e51b81526020600482015260116024820152702ab739bab83837b93a32b2103a37b5b2b760791b604482015290519081900360640190fd5b60345460408051639895880f60e01b8152905185926001600160a01b031691639895880f916004808301926020929190829003018186803b158015614b2357600080fd5b505afa158015614b37573d6000803e3d6000fd5b505050506040513d6020811015614b4d57600080fd5b50516040805163748538d960e01b81526001600160a01b0384811660048301529151919092169163748538d9916024808301926020929190829003018186803b158015614b9957600080fd5b505afa158015614bad573d6000803e3d6000fd5b505050506040513d6020811015614bc357600080fd5b5051614c11576040805162461bcd60e51b8152602060048201526018602482015277151a19481d1bdad95b881a5cc81b9bdd08195b98589b195960421b604482015290519081900360640190fd5b603354600160a81b900460ff1615614c63576040805162461bcd60e51b815260206004820152601060248201526f14185d5cd8589b194e881c185d5cd95960821b604482015290519081900360640190fd5b60335460ff16614ca8576040805162461bcd60e51b815260206004820152601f6024820152600080516020616540833981519152604482015290519081900360640190fd5b6033805460ff19169055603454604080516376cdb03b60e01b815290516001600160a01b03909216916376cdb03b91600480820192602092909190829003018186803b158015614cf757600080fd5b505afa158015614d0b573d6000803e3d6000fd5b505050506040513d6020811015614d2157600080fd5b50516040805163378d2c3d60e21b81526001600160a01b0387811660048301529151919092169163de34b0f491602480830192600092919082900301818387803b158015614d6e57600080fd5b505af1158015614d82573d6000803e3d6000fd5b505050506000603460009054906101000a90046001600160a01b03166001600160a01b03166368cd03f66040518163ffffffff1660e01b815260040160206040518083038186803b158015614dd657600080fd5b505afa158015614dea573d6000803e3d6000fd5b505050506040513d6020811015614e0057600080fd5b505160408051636ce5768960e11b81523360048201526001600160a01b038881166024830152604482018890529151919092169163d9caed129160648083019260209291908290030181600087803b158015614e5b57600080fd5b505af1158015614e6f573d6000803e3d6000fd5b505050506040513d6020811015614e8557600080fd5b50516034546040805163346681fb60e11b815290519293506001600160a01b03909116916368cd03f691600480820192602092909190829003018186803b158015614ecf57600080fd5b505afa158015614ee3573d6000803e3d6000fd5b505050506040513d6020811015614ef957600080fd5b505160408051638340f54960e01b81526001600160a01b03898116600483015288811660248301526044820188905291519190921691638340f54991606480830192600092919082900301818387803b158015614f5557600080fd5b505af1158015614f69573d6000803e3d6000fd5b5050604080513381526001600160a01b038a81166020830152818301869052915191891693507fd1398bee19313d6bf672ccb116e51f4a1a947e91c757907f51fbb5b5e56c698f925081900360600190a250506033805460ff1916600117905550505050565b60345460408051639895880f60e01b815290516000926001600160a01b031691639895880f916004808301926020929190829003018186803b15801561501457600080fd5b505afa158015615028573d6000803e3d6000fd5b505050506040513d602081101561503e57600080fd5b505160408051636e9ecb0f60e11b81526001600160a01b0385811660048301529151919092169163dd3d961e916024808301926020929190829003018186803b15801561149557600080fd5b6220148081565b670de0b6b3a764000081565b603460009054906101000a90046001600160a01b03166001600160a01b03166376cdb03b6040518163ffffffff1660e01b815260040160206040518083038186803b1580156150eb57600080fd5b505afa1580156150ff573d6000803e3d6000fd5b505050506040513d602081101561511557600080fd5b50516040805163378d2c3d60e21b81526001600160a01b0384811660048301529151919092169163de34b0f491602480830192600092919082900301818387803b15801561516257600080fd5b505af115801561164d573d6000803e3d6000fd5b6034546040805163346681fb60e11b815290516000926001600160a01b0316916368cd03f6916004808301926020929190829003018186803b1580156151bb57600080fd5b505afa1580156151cf573d6000803e3d6000fd5b505050506040513d60208110156151e557600080fd5b505160408051630f1debb960e41b81523360048201526001600160a01b0385811660248301529151919092169163f1debb90916044808301926020929190829003018186803b15801561149557600080fd5b6034546040805163346681fb60e11b815290516000926001600160a01b0316916368cd03f6916004808301926020929190829003018186803b15801561527c57600080fd5b505afa158015615290573d6000803e3d6000fd5b505050506040513d60208110156152a657600080fd5b505160408051638224b89960e01b81523360048201526001600160a01b03858116602483015291519190921691638224b899916044808301926020929190829003018186803b15801561149557600080fd5b603454604080516378b88bc760e11b81526001600160a01b039283166004820152918416602483015251839173__Utils_________________________________9163f171178e91604480820192602092909190829003018186803b15801561536057600080fd5b505af4158015615374573d6000803e3d6000fd5b505050506040513d602081101561538a57600080fd5b50516154c557603460009054906101000a90046001600160a01b03166001600160a01b0316639895880f6040518163ffffffff1660e01b815260040160206040518083038186803b1580156153de57600080fd5b505afa1580156153f2573d6000803e3d6000fd5b505050506040513d602081101561540857600080fd5b505160408051633fc422e560e01b81526001600160a01b03848116600483015291519190921691633fc422e5916024808301926020929190829003018186803b15801561545457600080fd5b505afa158015615468573d6000803e3d6000fd5b505050506040513d602081101561547e57600080fd5b50516154c5576040805162461bcd60e51b81526020600482015260116024820152702ab739bab83837b93a32b2103a37b5b2b760791b604482015290519081900360640190fd5b603354600160a81b900460ff1615615517576040805162461bcd60e51b815260206004820152601060248201526f14185d5cd8589b194e881c185d5cd95960821b604482015290519081900360640190fd5b60335460ff1661555c576040805162461bcd60e51b815260206004820152601f6024820152600080516020616540833981519152604482015290519081900360640190fd5b6033805460ff19169055816155a9576040805162461bcd60e51b815260206004820152600e60248201526d416d6f756e74206973207a65726f60901b604482015290519081900360640190fd5b603454604080516376cdb03b60e01b815290516000926001600160a01b0316916376cdb03b916004808301926020929190829003018186803b1580156155ee57600080fd5b505afa158015615602573d6000803e3d6000fd5b505050506040513d602081101561561857600080fd5b505160408051636ce5768960e11b81523360048201526001600160a01b038781166024830152604482018790529151919092169163d9caed129160648083019260209291908290030181600087803b15801561567357600080fd5b505af1158015615687573d6000803e3d6000fd5b505050506040513d602081101561569d57600080fd5b505160345460408051633b4571a160e01b81526001600160a01b0392831660048201526024810184905291871660448301525191925073__SavingLib_____________________________91633b4571a191606480820192600092909190829003018186803b15801561570f57600080fd5b505af4158015615723573d6000803e3d6000fd5b5050604080513381526020810185905281516001600160a01b03891694507f9b1bfa7fa9ee420a16e124f794c35ac9f90472acc99140eb2f6447c714cad8eb93509081900390910190a250506033805460ff191660011790555050565b603454604080516378b88bc760e11b81526001600160a01b039283166004820152918316602483015251829173__Utils_________________________________9163f171178e91604480820192602092909190829003018186803b1580156157e857600080fd5b505af41580156157fc573d6000803e3d6000fd5b505050506040513d602081101561581257600080fd5b505161594d57603460009054906101000a90046001600160a01b03166001600160a01b0316639895880f6040518163ffffffff1660e01b815260040160206040518083038186803b15801561586657600080fd5b505afa15801561587a573d6000803e3d6000fd5b505050506040513d602081101561589057600080fd5b505160408051633fc422e560e01b81526001600160a01b03848116600483015291519190921691633fc422e5916024808301926020929190829003018186803b1580156158dc57600080fd5b505afa1580156158f0573d6000803e3d6000fd5b505050506040513d602081101561590657600080fd5b505161594d576040805162461bcd60e51b81526020600482015260116024820152702ab739bab83837b93a32b2103a37b5b2b760791b604482015290519081900360640190fd5b603354600160a81b900460ff161561599f576040805162461bcd60e51b815260206004820152601060248201526f14185d5cd8589b194e881c185d5cd95960821b604482015290519081900360640190fd5b60335460ff166159e4576040805162461bcd60e51b815260206004820152601f6024820152600080516020616540833981519152604482015290519081900360640190fd5b6033805460ff191690556034546040805163346681fb60e11b815290516000926001600160a01b0316916368cd03f6916004808301926020929190829003018186803b158015615a3357600080fd5b505afa158015615a47573d6000803e3d6000fd5b505050506040513d6020811015615a5d57600080fd5b50516040805163fa78d59f60e01b81523360048201526001600160a01b0386811660248301529151919092169163fa78d59f916044808301926020929190829003018186803b158015615aaf57600080fd5b505afa158015615ac3573d6000803e3d6000fd5b505050506040513d6020811015615ad957600080fd5b505111615b175760405162461bcd60e51b815260040180806020018281038252602d815260200180616671602d913960400191505060405180910390fd5b603460009054906101000a90046001600160a01b03166001600160a01b03166376cdb03b6040518163ffffffff1660e01b815260040160206040518083038186803b158015615b6557600080fd5b505afa158015615b79573d6000803e3d6000fd5b505050506040513d6020811015615b8f57600080fd5b50516040805163378d2c3d60e21b81526001600160a01b0385811660048301529151919092169163de34b0f491602480830192600092919082900301818387803b158015615bdc57600080fd5b505af1158015615bf0573d6000803e3d6000fd5b505050506000603460009054906101000a90046001600160a01b03166001600160a01b03166368cd03f66040518163ffffffff1660e01b815260040160206040518083038186803b158015615c4457600080fd5b505afa158015615c58573d6000803e3d6000fd5b505050506040513d6020811015615c6e57600080fd5b50516040805163b44d253d60e01b81526001600160a01b0386811660048301523360248301529151919092169163b44d253d916044808301926020929190829003018186803b158015615cc057600080fd5b505afa158015615cd4573d6000803e3d6000fd5b505050506040513d6020811015615cea57600080fd5b5051603454604080516376cdb03b60e01b815290519293506000926001600160a01b03909216916376cdb03b91600480820192602092909190829003018186803b158015615d3757600080fd5b505afa158015615d4b573d6000803e3d6000fd5b505050506040513d6020811015615d6157600080fd5b505160408051636ce5768960e11b81523360048201526001600160a01b038781166024830152604482018690529151919092169163d9caed129160648083019260209291908290030181600087803b158015615dbc57600080fd5b505af1158015615dd0573d6000803e3d6000fd5b505050506040513d6020811015615de657600080fd5b505190508015615e755760345460408051633b4571a160e01b81526001600160a01b0392831660048201526024810184905291861660448301525173__SavingLib_____________________________91633b4571a1916064808301926000929190829003018186803b158015615e5c57600080fd5b505af4158015615e70573d6000803e3d6000fd5b505050505b604080513381526020810183905281516001600160a01b038716927f858f8be6acc95d7ac4177f157cb7c92a1d922bd948b968ce21df5b7b26a10a95928290030190a250506033805460ff191660011790555050565b603a5460408051637e65f3fb60e11b81526004810184905290516000926001600160a01b03169163fccbe7f691602480830192602092919082900301818787803b158015615f1857600080fd5b505af11580156114a9573d6000803e3d6000fd5b801580615fb2575060408051636eb1769f60e11b81523060048201526001600160a01b03848116602483015291519185169163dd62ed3e91604480820192602092909190829003018186803b158015615f8457600080fd5b505afa158015615f98573d6000803e3d6000fd5b505050506040513d6020811015615fae57600080fd5b5051155b615fed5760405162461bcd60e51b81526004018080602001828103825260368152602001806167006036913960400191505060405180910390fd5b604080516001600160a01b038416602482015260448082018490528251808303909101815260649091019091526020810180516001600160e01b031663095ea7b360e01b179052612b8e908490616167565b600061608183836040518060400160405280601e81526020017f536166654d6174683a207375627472616374696f6e206f766572666c6f77000081525061631f565b9392505050565b303b1590565b6033805460ff19166001179055565b6033805460ff60a81b196001600160a01b0390931661010002610100600160a81b031990911617919091169055565b6000826160db57506000610cfa565b828202828482816160e857fe5b04146160815760405162461bcd60e51b81526004018080602001828103825260218152602001806165b16021913960400191505060405180910390fd5b600061608183836040518060400160405280601a81526020017f536166654d6174683a206469766973696f6e206279207a65726f0000000000008152506163b6565b616179826001600160a01b031661641b565b6161ca576040805162461bcd60e51b815260206004820152601f60248201527f5361666545524332303a2063616c6c20746f206e6f6e2d636f6e747261637400604482015290519081900360640190fd5b60006060836001600160a01b0316836040518082805190602001908083835b602083106162085780518252601f1990920191602091820191016161e9565b6001836020036101000a0380198251168184511680821785525050505050509050019150506000604051808303816000865af19150503d806000811461626a576040519150601f19603f3d011682016040523d82523d6000602084013e61626f565b606091505b5091509150816162c6576040805162461bcd60e51b815260206004820181905260248201527f5361666545524332303a206c6f772d6c6576656c2063616c6c206661696c6564604482015290519081900360640190fd5b805115612738578080602001905160208110156162e257600080fd5b50516127385760405162461bcd60e51b815260040180806020018281038252602a8152602001806166d6602a913960400191505060405180910390fd5b600081848411156163ae5760405162461bcd60e51b81526004018080602001828103825283818151815260200191508051906020019080838360005b8381101561637357818101518382015260200161635b565b50505050905090810190601f1680156163a05780820380516001836020036101000a031916815260200191505b509250505060405180910390fd5b505050900390565b600081836164055760405162461bcd60e51b815260206004820181815283516024840152835190928392604490910191908501908083836000831561637357818101518382015260200161635b565b50600083858161641157fe5b0495945050505050565b6000813f7fc5d2460186f7233c927e7db2dcc703c0e500b653ca82273b7bfad8045d85a47081811480159061644f57508115155b949350505050565b604051806101a0016040528060006001600160a01b03168152602001600081526020016000815260200160008152602001600081526020016000815260200160008152602001600081526020016000815260200160008152602001600081526020016000815260200160008152509056fe546f6b656e20616e642063546f6b656e206c656e67746820646f6e2774206d617463682e4e6f2065787472612066756e647320617265207573656420666f72206c69717569646174696f6e2e426f72726f77207a65726f20616d6f756e74206f6620746f6b656e206973206e6f7420616c6c6f7765642e5265656e7472616e637947756172643a207265656e7472616e742063616c6c00506175736572526f6c653a2063616c6c657220646f6573206e6f742068617665207468652050617573657220726f6c6554686520626f72726f776572206973206e6f74206c6971756964617461626c652e536166654d6174683a206d756c7469706c69636174696f6e206f766572666c6f77436f6e747261637420696e7374616e63652068617320616c7265616479206265656e20696e697469616c697a6564546865206163636f756e7420616d6f756e74206d7573742062652067726561746572207468616e207a65726f2e54686520626f72726f77657220646f65736e2774206f776e20616e79206465627420746f6b656e2073706563696669656420627920746865206c697175696461746f722e546f6b656e206465706f7369745072696e636970616c206d7573742062652067726561746572207468616e20304f6e6c7920617574686f72697a656420746f2063616c6c2066726f6d20446546696e657220696e7465726e616c20636f6e7472616374732e5361666545524332303a204552433230206f7065726174696f6e20646964206e6f7420737563636565645361666545524332303a20617070726f76652066726f6d206e6f6e2d7a65726f20746f206e6f6e2d7a65726f20616c6c6f77616e6365a265627a7a72315820d7116219c8267a270a467c52e2b1dbf4146be4eae936bd121cc19e56e27e7bf064736f6c634300050e0032",
  "source": "pragma solidity 0.5.14;\n\nimport \"../SavingAccount.sol\";\nimport { IController } from \"../compound/ICompound.sol\";\nimport \"../Accounts.sol\";\n//import { TokenRegistry } from \"../registry/TokenRegistry.sol\";\n//import { Bank } from \"../Bank.sol\";\n//import \"../config/GlobalConfig.sol\";\n\n// This file is only for testing purpose only\ncontract SavingAccountWithController is SavingAccount {\n\n    Accounts.Account public accountVariable;\n    //GlobalConfig public globalConfig;\n    TokenRegistry.TokenInfo symbols;\n    address comptroller;\n\n    constructor() public {\n        // DO NOT ADD ANY LOGIC HERE.\n        // THIS IS AN UPGRADABLE CONTRACT\n    }\n\n    /**\n     * Intialize the contract\n     * @param _tokenAddresses list of token addresses\n     * @param _cTokenAddresses list of corresponding cToken addresses\n     * @param _globalConfig global configuration contract\n     * @param _comptroller Compound controller address\n     */\n    function initialize(\n        address[] memory _tokenAddresses,\n        address[] memory _cTokenAddresses, \n        //TokenRegistry _tokenRegistry, // can remove\n        GlobalConfig _globalConfig,\n        address _comptroller\n    ) public initializer {\n        super.initialize(_tokenAddresses, _cTokenAddresses, _globalConfig); // expected 3 passed 5 args\n        comptroller = _comptroller;\n    }\n\n    /**\n     * Fastfoward for specified block numbers. The block number is synced to compound.\n     * @param blocks number of blocks to be forwarded\n     */\n    function fastForward(uint blocks) public returns (uint) {\n        return IController(comptroller).fastForward(blocks);\n    }\n\n    /**\n     * Get the block number from comound\n     */\n    function getBlockNumber() internal view returns (uint) {\n        return IController(comptroller).getBlockNumber();\n    }\n\n    function newRateIndexCheckpoint(address _token) public {\n        globalConfig.bank().newRateIndexCheckpoint(_token);\n    }\n\n    function getDepositPrincipal(address _token) public view returns (uint256) {\n        //TokenRegistry.TokenInfo storage tokenInfo.depositPrincipal = globalConfig.accounts().getDepositPrincipal(msg.sender, _token);\n        return globalConfig.accounts().getDepositPrincipal(msg.sender, _token);\n    }\n\n    function getDepositInterest(address _token) public view returns (uint256) {\n        /* TokenRegistry.TokenInfo storage tokenInfo = accountVariable.tokenInfos[_token];\n        uint256 lastDepositBlock = globalConfig.accounts().getLastDepositBlock(msg.sender, _token);\n        uint256 accruedRate = globalConfig.bank().getDepositAccruedRate(_token, lastDepositBlock);\n        return tokenInfo.calculateDepositInterest(accruedRate); */\n        return globalConfig.accounts().getDepositInterest(msg.sender, _token);\n\n    }\n\n    function getDepositBalance(address _token, address _accountAddr) public view returns (uint256) {\n        return globalConfig.accounts().getDepositBalanceCurrent(_token, _accountAddr);\n    }\n\n    function getBorrowPrincipal(address _token) public view returns (uint256) {\n        //TokenRegistry.TokenInfo storage tokenInfo = globalConfig.accounts().accounts[msg.sender].tokenInfos[_token];\n        return globalConfig.accounts().getBorrowPrincipal(msg.sender, _token);\n    }\n\n    function getBorrowInterest(address _token) public view returns (uint256) {\n        /* TokenRegistry.TokenInfo storage tokenInfo = globalConfig.accounts().accounts[msg.sender].tokenInfos[_token];\n        uint256 accruedRate = globalConfig.bank().getBorrowAccruedRate(_token, tokenInfo.getLastBorrowBlock());\n        return tokenInfo.calculateBorrowInterest(accruedRate); */\n        return globalConfig.accounts().getBorrowInterest(msg.sender, _token);\n    }\n\n    function getBorrowBalance(address _token, address _accountAddr) public view returns (uint256) {\n        return globalConfig.accounts().getBorrowBalanceCurrent(_token, _accountAddr);\n    }\n\n    function getBorrowETH(address _account) public view returns (uint256) {\n        return globalConfig.accounts().getBorrowETH(_account);\n    }\n\n    function getDepositETH(address _account) public view returns (uint256) {\n        return globalConfig.accounts().getDepositETH(_account);\n    }\n\n    function getTokenPrice(address _token) public view returns (uint256) {\n        return globalConfig.tokenInfoRegistry().priceFromAddress(_token);\n    }\n\n    function getTokenState(address _token) public view returns (uint256 deposits, uint256 loans, uint256 reserveBalance, uint256 remainingAssets){\n        return globalConfig.bank().getTokenState(_token);\n    }\n}",
  "sourcePath": "/Users/yanyichun/project/Savings/contracts/mocks/SavingAccountWithController.sol",
  "compiler": {
    "name": "solc",
    "version": "0.5.14+commit.01f1aaa4.Emscripten.clang"
  },
  "schemaVersion": "3.3.1",
  "updatedAt": "2020-11-09T00:44:13.928Z",
  "networkType": "ethereum",
  "devdoc": {
    "methods": {
      "approveAll(address)": {
        "params": {
          "_token": "token address"
        }
      },
      "borrow(address,uint256)": {
        "params": {
          "_amount": "amout of tokens to borrow",
          "_token": "token address"
        }
      },
      "deposit(address,uint256)": {
        "params": {
          "_amount": "the mount of the deposited token",
          "_token": "the address of the deposited token"
        }
      },
      "fastForward(uint256)": {
        "params": {
          "blocks": "number of blocks to be forwarded"
        }
      },
      "fromCompound(address,uint256)": {
        "params": {
          "_amount": "amount of token",
          "_token": "token address"
        }
      },
      "initialize(address[],address[],address)": {
        "params": {
          "_cTokenAddresses": "list of corresponding cToken addresses",
          "_globalConfig": "global configuration contract",
          "_tokenAddresses": "list of token addresses"
        }
      },
      "initialize(address[],address[],address,address)": {
        "params": {
          "_cTokenAddresses": "list of corresponding cToken addresses",
          "_comptroller": "Compound controller address",
          "_globalConfig": "global configuration contract",
          "_tokenAddresses": "list of token addresses"
        }
      },
      "liquidate(address,address)": {
        "params": {
          "_targetAccountAddr": "account to be liquidated",
          "_targetToken": "token used for purchasing collaterals"
        }
      },
      "pause()": {
        "details": "Called by a pauser to pause, triggers stopped state."
      },
      "paused()": {
        "details": "Returns true if the contract is paused, and false otherwise."
      },
      "repay(address,uint256)": {
        "details": "If the repay amount is larger than the borrowed balance, the extra will be returned.",
        "params": {
          "_amount": "amout of tokens to borrow",
          "_token": "token address"
        }
      },
      "transfer(address,address,uint256)": {
        "params": {
          "_amount": "amout of tokens transfer",
          "_to": "the address that the token be transfered to",
          "_token": "token address"
        }
      },
      "unpause()": {
        "details": "Called by a pauser to unpause, returns to normal state."
      },
      "withdraw(address,uint256)": {
        "params": {
          "_amount": "amount to be withdrawn",
          "_token": "token address"
        }
      },
      "withdrawAll(address)": {
        "params": {
          "_token": "the address of the withdrawn token"
        }
      }
    }
  },
  "userdoc": {
    "methods": {
      "approveAll(address)": {
        "notice": "Approve transfer of all available tokens"
      },
      "borrow(address,uint256)": {
        "notice": "Borrow the amount of token from the saving pool."
      },
      "deposit(address,uint256)": {
        "notice": "Deposit the amount of token to the saving pool."
      },
      "fastForward(uint256)": {
        "notice": "Fastfoward for specified block numbers. The block number is synced to compound."
      },
      "fromCompound(address,uint256)": {
        "notice": "Withdraw token from Compound"
      },
      "initialize(address[],address[],address)": {
        "notice": "Initialize function to be called by the Deployer for the first time"
      },
      "initialize(address[],address[],address,address)": {
        "notice": "Intialize the contract"
      },
      "liquidate(address,address)": {
        "notice": "Liquidate function"
      },
      "repay(address,uint256)": {
        "notice": "Repay the amount of token back to the saving pool."
      },
      "transfer(address,address,uint256)": {
        "notice": "Transfer the token between users inside DeFiner"
      },
      "withdraw(address,uint256)": {
        "notice": "Withdraw a token from an address"
      },
      "withdrawAll(address)": {
        "notice": "Withdraw all tokens from the saving pool."
      }
    }
  }
}