{
  "contractName": "SavingAccountProxy",
  "abi": [
    {
      "anonymous": false,
      "inputs": [
        {
          "indexed": false,
          "internalType": "address",
          "name": "previousAdmin",
          "type": "address"
        },
        {
          "indexed": false,
          "internalType": "address",
          "name": "newAdmin",
          "type": "address"
        }
      ],
      "name": "AdminChanged",
      "type": "event"
    },
    {
      "anonymous": false,
      "inputs": [
        {
          "indexed": true,
          "internalType": "address",
          "name": "implementation",
          "type": "address"
        }
      ],
      "name": "Upgraded",
      "type": "event"
    },
    {
      "payable": true,
      "stateMutability": "payable",
      "type": "fallback"
    },
    {
      "constant": false,
      "inputs": [],
      "name": "admin",
      "outputs": [
        {
          "internalType": "address",
          "name": "",
          "type": "address"
        }
      ],
      "payable": false,
      "stateMutability": "nonpayable",
      "type": "function"
    },
    {
      "constant": false,
      "inputs": [
        {
          "internalType": "address",
          "name": "newAdmin",
          "type": "address"
        }
      ],
      "name": "changeAdmin",
      "outputs": [],
      "payable": false,
      "stateMutability": "nonpayable",
      "type": "function"
    },
    {
      "constant": false,
      "inputs": [],
      "name": "implementation",
      "outputs": [
        {
          "internalType": "address",
          "name": "",
          "type": "address"
        }
      ],
      "payable": false,
      "stateMutability": "nonpayable",
      "type": "function"
    },
    {
      "constant": false,
      "inputs": [
        {
          "internalType": "address",
          "name": "_logic",
          "type": "address"
        },
        {
          "internalType": "address",
          "name": "_admin",
          "type": "address"
        },
        {
          "internalType": "bytes",
          "name": "_data",
          "type": "bytes"
        }
      ],
      "name": "initialize",
      "outputs": [],
      "payable": true,
      "stateMutability": "payable",
      "type": "function"
    },
    {
      "constant": false,
      "inputs": [
        {
          "internalType": "address",
          "name": "_logic",
          "type": "address"
        },
        {
          "internalType": "bytes",
          "name": "_data",
          "type": "bytes"
        }
      ],
      "name": "initialize",
      "outputs": [],
      "payable": true,
      "stateMutability": "payable",
      "type": "function"
    },
    {
      "constant": false,
      "inputs": [
        {
          "internalType": "address",
          "name": "newImplementation",
          "type": "address"
        }
      ],
      "name": "upgradeTo",
      "outputs": [],
      "payable": false,
      "stateMutability": "nonpayable",
      "type": "function"
    },
    {
      "constant": false,
      "inputs": [
        {
          "internalType": "address",
          "name": "newImplementation",
          "type": "address"
        },
        {
          "internalType": "bytes",
          "name": "data",
          "type": "bytes"
        }
      ],
      "name": "upgradeToAndCall",
      "outputs": [],
      "payable": true,
      "stateMutability": "payable",
      "type": "function"
    }
  ],
  "bytecode": "0x608060405234801561001057600080fd5b50610986806100206000396000f3fe6080604052600436106100705760003560e01c80638f2839701161004e5780638f28397014610168578063cf7a1d771461019b578063d1f578941461025a578063f851a4401461031057610070565b80633659cfe6146100845780634f1ef286146100b75780635c60da1b14610137575b3661007a57610082565b610082610325565b005b34801561009057600080fd5b50610082600480360360208110156100a757600080fd5b50356001600160a01b031661033f565b610082600480360360408110156100cd57600080fd5b6001600160a01b0382351691908101906040810160208201356401000000008111156100f857600080fd5b82018360208201111561010a57600080fd5b8035906020019184600183028401116401000000008311171561012c57600080fd5b509092509050610379565b34801561014357600080fd5b5061014c610426565b604080516001600160a01b039092168252519081900360200190f35b34801561017457600080fd5b506100826004803603602081101561018b57600080fd5b50356001600160a01b0316610463565b610082600480360360608110156101b157600080fd5b6001600160a01b0382358116926020810135909116918101906060810160408201356401000000008111156101e557600080fd5b8201836020820111156101f757600080fd5b8035906020019184600183028401116401000000008311171561021957600080fd5b91908080601f01602080910402602001604051908101604052809392919081815260200183838082843760009201919091525092955061051d945050505050565b6100826004803603604081101561027057600080fd5b6001600160a01b03823516919081019060408101602082013564010000000081111561029b57600080fd5b8201836020820111156102ad57600080fd5b803590602001918460018302840111640100000000831117156102cf57600080fd5b91908080601f0160208091040260200160405190810160405280939291908181526020018383808284376000920191909152509295506105a3945050505050565b34801561031c57600080fd5b5061014c6106e3565b61032d61070e565b61033d61033861076e565b610793565b565b6103476107b7565b6001600160a01b0316336001600160a01b0316141561036e57610369816107dc565b610376565b610376610325565b50565b6103816107b7565b6001600160a01b0316336001600160a01b03161415610419576103a3836107dc565b6000836001600160a01b031683836040518083838082843760405192019450600093509091505080830381855af49150503d8060008114610400576040519150601f19603f3d011682016040523d82523d6000602084013e610405565b606091505b505090508061041357600080fd5b50610421565b610421610325565b505050565b60006104306107b7565b6001600160a01b0316336001600160a01b031614156104585761045161076e565b9050610460565b610460610325565b90565b61046b6107b7565b6001600160a01b0316336001600160a01b0316141561036e576001600160a01b0381166104c95760405162461bcd60e51b81526004018080602001828103825260368152602001806108e16036913960400191505060405180910390fd5b7f7e644d79422f17c01e4894b5f4f588d331ebfa28653d42ae832dc59e38c9798f6104f26107b7565b604080516001600160a01b03928316815291841660208301528051918290030190a16103698161081c565b600061052761076e565b6001600160a01b03161461053a57600080fd5b61054483826105a3565b604080517232b4b8189c9b1b97383937bc3c9730b236b4b760691b815290519081900360130190207fb53127684a568b3173ae13b9f8a6016e243e63b6e8ee1178d6a717850b5d61036000199091011461059a57fe5b6104218261081c565b60006105ad61076e565b6001600160a01b0316146105c057600080fd5b604080517f656970313936372e70726f78792e696d706c656d656e746174696f6e000000008152905190819003601c0190207f360894a13ba1a3210667c828492db98dca3e2076cc3735a920a3ca505d382bbc6000199091011461062057fe5b61062982610840565b8051156106df576000826001600160a01b0316826040518082805190602001908083835b6020831061066c5780518252601f19909201916020918201910161064d565b6001836020036101000a038019825116818451168082178552505050505050905001915050600060405180830381855af49150503d80600081146106cc576040519150601f19603f3d011682016040523d82523d6000602084013e6106d1565b606091505b505090508061042157600080fd5b5050565b60006106ed6107b7565b6001600160a01b0316336001600160a01b03161415610458576104516107b7565b6107166107b7565b6001600160a01b0316336001600160a01b031614156107665760405162461bcd60e51b81526004018080602001828103825260328152602001806108af6032913960400191505060405180910390fd5b61033d61033d565b7f360894a13ba1a3210667c828492db98dca3e2076cc3735a920a3ca505d382bbc5490565b3660008037600080366000845af43d6000803e8080156107b2573d6000f35b3d6000fd5b7fb53127684a568b3173ae13b9f8a6016e243e63b6e8ee1178d6a717850b5d61035490565b6107e581610840565b6040516001600160a01b038216907fbc7cd75a20ee27fd9adebab32041f755214dbc6bffa90cc0225b39da2e5c2d3b90600090a250565b7fb53127684a568b3173ae13b9f8a6016e243e63b6e8ee1178d6a717850b5d610355565b610849816108a8565b6108845760405162461bcd60e51b815260040180806020018281038252603b815260200180610917603b913960400191505060405180910390fd5b7f360894a13ba1a3210667c828492db98dca3e2076cc3735a920a3ca505d382bbc55565b3b15159056fe43616e6e6f742063616c6c2066616c6c6261636b2066756e6374696f6e2066726f6d207468652070726f78792061646d696e43616e6e6f74206368616e6765207468652061646d696e206f6620612070726f787920746f20746865207a65726f206164647265737343616e6e6f742073657420612070726f787920696d706c656d656e746174696f6e20746f2061206e6f6e2d636f6e74726163742061646472657373a265627a7a72315820bcae5589be2a1efafcd46a7210a91a822bcdfcd38821cb3f4ebf94d3ea50b95b64736f6c634300050e0032",
  "source": "pragma solidity 0.5.14;\n\nimport \"@openzeppelin/upgrades/contracts/upgradeability/InitializableAdminUpgradeabilityProxy.sol\";\n\ncontract SavingAccountProxy is InitializableAdminUpgradeabilityProxy {\n\n    /**\n     * @dev Overriding Proxy's fallback function to allow it to receive ETH\n     * @notice https://forum.openzeppelin.com/t/openzeppelin-upgradeable-contracts-affected-by-istanbul-hardfork/1616\n     * @notice After Istanbul hardfork ZOS upgradable contracts were not able receive ETH with fallback functions\n     * Hence, we have added a possible fix for this issue\n     */\n    function () external payable {\n        // When no function call is invoked for delegatecall, assume that ETH is sent to the contract\n        // Hence, just return and accept ETH at Proxy, which are sent from other contract\n        if(msg.data.length == 0) return;\n        // When data is present, follow the normal Proxy calls\n        super._fallback();\n    }\n}",
  "sourcePath": "/Users/yanyichun/project/Savings/contracts/upgradability/ContractProxies.sol",
  "compiler": {
    "name": "solc",
    "version": "0.5.14+commit.01f1aaa4.Emscripten.clang"
  },
  "schemaVersion": "3.3.1",
  "updatedAt": "2020-11-09T00:44:13.949Z",
  "networkType": "ethereum",
  "devdoc": {
    "methods": {
      "admin()": {
        "return": "The address of the proxy admin."
      },
      "changeAdmin(address)": {
        "details": "Changes the admin of the proxy. Only the current admin can call this function.",
        "params": {
          "newAdmin": "Address to transfer proxy administration to."
        }
      },
      "implementation()": {
        "return": "The address of the implementation."
      },
      "initialize(address,address,bytes)": {
        "params": {
          "_admin": "Address of the proxy administrator.",
          "_data": "Data to send as msg.data to the implementation to initialize the proxied contract. It should include the signature and the parameters of the function to be called, as described in https://solidity.readthedocs.io/en/v0.4.24/abi-spec.html#function-selector-and-argument-encoding. This parameter is optional, if no data is given the initialization call to proxied contract will be skipped.",
          "_logic": "address of the initial implementation."
        }
      },
      "initialize(address,bytes)": {
        "details": "Contract initializer.",
        "params": {
          "_data": "Data to send as msg.data to the implementation to initialize the proxied contract. It should include the signature and the parameters of the function to be called, as described in https://solidity.readthedocs.io/en/v0.4.24/abi-spec.html#function-selector-and-argument-encoding. This parameter is optional, if no data is given the initialization call to proxied contract will be skipped.",
          "_logic": "Address of the initial implementation."
        }
      },
      "upgradeTo(address)": {
        "details": "Upgrade the backing implementation of the proxy. Only the admin can call this function.",
        "params": {
          "newImplementation": "Address of the new implementation."
        }
      },
      "upgradeToAndCall(address,bytes)": {
        "details": "Upgrade the backing implementation of the proxy and call a function on the new implementation. This is useful to initialize the proxied contract.",
        "params": {
          "data": "Data to send as msg.data in the low level call. It should include the signature and the parameters of the function to be called, as described in https://solidity.readthedocs.io/en/v0.4.24/abi-spec.html#function-selector-and-argument-encoding.",
          "newImplementation": "Address of the new implementation."
        }
      }
    }
  },
  "userdoc": {
    "methods": {
      "initialize(address,address,bytes)": {
        "notice": "Contract initializer."
      }
    }
  }
}