{
  "contractName": "TokenRegistry",
  "abi": [
    {
      "anonymous": false,
      "inputs": [
        {
          "indexed": true,
          "internalType": "address",
          "name": "previousOwner",
          "type": "address"
        },
        {
          "indexed": true,
          "internalType": "address",
          "name": "newOwner",
          "type": "address"
        }
      ],
      "name": "OwnershipTransferred",
      "type": "event"
    },
    {
      "anonymous": false,
      "inputs": [
        {
          "indexed": true,
          "internalType": "address",
          "name": "token",
          "type": "address"
        }
      ],
      "name": "TokenAdded",
      "type": "event"
    },
    {
      "anonymous": false,
      "inputs": [
        {
          "indexed": true,
          "internalType": "address",
          "name": "token",
          "type": "address"
        }
      ],
      "name": "TokenUpdated",
      "type": "event"
    },
    {
      "constant": true,
      "inputs": [],
      "name": "MAX_TOKENS",
      "outputs": [
        {
          "internalType": "uint256",
          "name": "",
          "type": "uint256"
        }
      ],
      "payable": false,
      "stateMutability": "view",
      "type": "function"
    },
    {
      "constant": true,
      "inputs": [],
      "name": "SCALE",
      "outputs": [
        {
          "internalType": "uint256",
          "name": "",
          "type": "uint256"
        }
      ],
      "payable": false,
      "stateMutability": "view",
      "type": "function"
    },
    {
      "constant": true,
      "inputs": [],
      "name": "globalConfig",
      "outputs": [
        {
          "internalType": "contract GlobalConfig",
          "name": "",
          "type": "address"
        }
      ],
      "payable": false,
      "stateMutability": "view",
      "type": "function"
    },
    {
      "constant": true,
      "inputs": [],
      "name": "isOwner",
      "outputs": [
        {
          "internalType": "bool",
          "name": "",
          "type": "bool"
        }
      ],
      "payable": false,
      "stateMutability": "view",
      "type": "function"
    },
    {
      "constant": true,
      "inputs": [],
      "name": "owner",
      "outputs": [
        {
          "internalType": "address",
          "name": "",
          "type": "address"
        }
      ],
      "payable": false,
      "stateMutability": "view",
      "type": "function"
    },
    {
      "constant": false,
      "inputs": [],
      "name": "renounceOwnership",
      "outputs": [],
      "payable": false,
      "stateMutability": "nonpayable",
      "type": "function"
    },
    {
      "constant": true,
      "inputs": [
        {
          "internalType": "address",
          "name": "",
          "type": "address"
        }
      ],
      "name": "tokenInfo",
      "outputs": [
        {
          "internalType": "uint8",
          "name": "index",
          "type": "uint8"
        },
        {
          "internalType": "uint8",
          "name": "decimals",
          "type": "uint8"
        },
        {
          "internalType": "bool",
          "name": "enabled",
          "type": "bool"
        },
        {
          "internalType": "bool",
          "name": "isTransferFeeEnabled",
          "type": "bool"
        },
        {
          "internalType": "bool",
          "name": "isSupportedOnCompound",
          "type": "bool"
        },
        {
          "internalType": "address",
          "name": "cToken",
          "type": "address"
        },
        {
          "internalType": "address",
          "name": "chainLinkOracle",
          "type": "address"
        },
        {
          "internalType": "uint256",
          "name": "borrowLTV",
          "type": "uint256"
        }
      ],
      "payable": false,
      "stateMutability": "view",
      "type": "function"
    },
    {
      "constant": true,
      "inputs": [
        {
          "internalType": "uint256",
          "name": "",
          "type": "uint256"
        }
      ],
      "name": "tokens",
      "outputs": [
        {
          "internalType": "address",
          "name": "",
          "type": "address"
        }
      ],
      "payable": false,
      "stateMutability": "view",
      "type": "function"
    },
    {
      "constant": false,
      "inputs": [
        {
          "internalType": "address",
          "name": "newOwner",
          "type": "address"
        }
      ],
      "name": "transferOwnership",
      "outputs": [],
      "payable": false,
      "stateMutability": "nonpayable",
      "type": "function"
    },
    {
      "constant": false,
      "inputs": [
        {
          "internalType": "contract GlobalConfig",
          "name": "_globalConfig",
          "type": "address"
        }
      ],
      "name": "initialize",
      "outputs": [],
      "payable": false,
      "stateMutability": "nonpayable",
      "type": "function"
    },
    {
      "constant": false,
      "inputs": [
        {
          "internalType": "address",
          "name": "_token",
          "type": "address"
        },
        {
          "internalType": "uint8",
          "name": "_decimals",
          "type": "uint8"
        },
        {
          "internalType": "bool",
          "name": "_isTransferFeeEnabled",
          "type": "bool"
        },
        {
          "internalType": "bool",
          "name": "_isSupportedOnCompound",
          "type": "bool"
        },
        {
          "internalType": "address",
          "name": "_cToken",
          "type": "address"
        },
        {
          "internalType": "address",
          "name": "_chainLinkOracle",
          "type": "address"
        }
      ],
      "name": "addToken",
      "outputs": [],
      "payable": false,
      "stateMutability": "nonpayable",
      "type": "function"
    },
    {
      "constant": false,
      "inputs": [
        {
          "internalType": "address",
          "name": "_token",
          "type": "address"
        },
        {
          "internalType": "uint256",
          "name": "_borrowLTV",
          "type": "uint256"
        }
      ],
      "name": "updateBorrowLTV",
      "outputs": [],
      "payable": false,
      "stateMutability": "nonpayable",
      "type": "function"
    },
    {
      "constant": false,
      "inputs": [
        {
          "internalType": "address",
          "name": "_token",
          "type": "address"
        },
        {
          "internalType": "bool",
          "name": "_isTransfeFeeEnabled",
          "type": "bool"
        }
      ],
      "name": "updateTokenTransferFeeFlag",
      "outputs": [],
      "payable": false,
      "stateMutability": "nonpayable",
      "type": "function"
    },
    {
      "constant": false,
      "inputs": [
        {
          "internalType": "address",
          "name": "_token",
          "type": "address"
        },
        {
          "internalType": "bool",
          "name": "_isSupportedOnCompound",
          "type": "bool"
        }
      ],
      "name": "updateTokenSupportedOnCompoundFlag",
      "outputs": [],
      "payable": false,
      "stateMutability": "nonpayable",
      "type": "function"
    },
    {
      "constant": false,
      "inputs": [
        {
          "internalType": "address",
          "name": "_token",
          "type": "address"
        },
        {
          "internalType": "address",
          "name": "_cToken",
          "type": "address"
        }
      ],
      "name": "updateCToken",
      "outputs": [],
      "payable": false,
      "stateMutability": "nonpayable",
      "type": "function"
    },
    {
      "constant": false,
      "inputs": [
        {
          "internalType": "address",
          "name": "_token",
          "type": "address"
        },
        {
          "internalType": "address",
          "name": "_chainLinkOracle",
          "type": "address"
        }
      ],
      "name": "updateChainLinkAggregator",
      "outputs": [],
      "payable": false,
      "stateMutability": "nonpayable",
      "type": "function"
    },
    {
      "constant": false,
      "inputs": [
        {
          "internalType": "address",
          "name": "_token",
          "type": "address"
        }
      ],
      "name": "enableToken",
      "outputs": [],
      "payable": false,
      "stateMutability": "nonpayable",
      "type": "function"
    },
    {
      "constant": false,
      "inputs": [
        {
          "internalType": "address",
          "name": "_token",
          "type": "address"
        }
      ],
      "name": "disableToken",
      "outputs": [],
      "payable": false,
      "stateMutability": "nonpayable",
      "type": "function"
    },
    {
      "constant": true,
      "inputs": [
        {
          "internalType": "address",
          "name": "_token",
          "type": "address"
        }
      ],
      "name": "isTokenExist",
      "outputs": [
        {
          "internalType": "bool",
          "name": "isExist",
          "type": "bool"
        }
      ],
      "payable": false,
      "stateMutability": "view",
      "type": "function"
    },
    {
      "constant": true,
      "inputs": [],
      "name": "getTokens",
      "outputs": [
        {
          "internalType": "address[]",
          "name": "",
          "type": "address[]"
        }
      ],
      "payable": false,
      "stateMutability": "view",
      "type": "function"
    },
    {
      "constant": true,
      "inputs": [
        {
          "internalType": "address",
          "name": "_token",
          "type": "address"
        }
      ],
      "name": "getTokenIndex",
      "outputs": [
        {
          "internalType": "uint8",
          "name": "",
          "type": "uint8"
        }
      ],
      "payable": false,
      "stateMutability": "view",
      "type": "function"
    },
    {
      "constant": true,
      "inputs": [
        {
          "internalType": "address",
          "name": "_token",
          "type": "address"
        }
      ],
      "name": "isTokenEnabled",
      "outputs": [
        {
          "internalType": "bool",
          "name": "",
          "type": "bool"
        }
      ],
      "payable": false,
      "stateMutability": "view",
      "type": "function"
    },
    {
      "constant": true,
      "inputs": [],
      "name": "getCTokens",
      "outputs": [
        {
          "internalType": "address[]",
          "name": "cTokens",
          "type": "address[]"
        }
      ],
      "payable": false,
      "stateMutability": "view",
      "type": "function"
    },
    {
      "constant": true,
      "inputs": [
        {
          "internalType": "address",
          "name": "_token",
          "type": "address"
        }
      ],
      "name": "getTokenDecimals",
      "outputs": [
        {
          "internalType": "uint8",
          "name": "",
          "type": "uint8"
        }
      ],
      "payable": false,
      "stateMutability": "view",
      "type": "function"
    },
    {
      "constant": true,
      "inputs": [
        {
          "internalType": "address",
          "name": "_token",
          "type": "address"
        }
      ],
      "name": "isTransferFeeEnabled",
      "outputs": [
        {
          "internalType": "bool",
          "name": "",
          "type": "bool"
        }
      ],
      "payable": false,
      "stateMutability": "view",
      "type": "function"
    },
    {
      "constant": true,
      "inputs": [
        {
          "internalType": "address",
          "name": "_token",
          "type": "address"
        }
      ],
      "name": "isSupportedOnCompound",
      "outputs": [
        {
          "internalType": "bool",
          "name": "",
          "type": "bool"
        }
      ],
      "payable": false,
      "stateMutability": "view",
      "type": "function"
    },
    {
      "constant": true,
      "inputs": [
        {
          "internalType": "address",
          "name": "_token",
          "type": "address"
        }
      ],
      "name": "getCToken",
      "outputs": [
        {
          "internalType": "address",
          "name": "",
          "type": "address"
        }
      ],
      "payable": false,
      "stateMutability": "view",
      "type": "function"
    },
    {
      "constant": true,
      "inputs": [
        {
          "internalType": "address",
          "name": "_token",
          "type": "address"
        }
      ],
      "name": "getChainLinkAggregator",
      "outputs": [
        {
          "internalType": "address",
          "name": "",
          "type": "address"
        }
      ],
      "payable": false,
      "stateMutability": "view",
      "type": "function"
    },
    {
      "constant": true,
      "inputs": [
        {
          "internalType": "address",
          "name": "_token",
          "type": "address"
        }
      ],
      "name": "getBorrowLTV",
      "outputs": [
        {
          "internalType": "uint256",
          "name": "",
          "type": "uint256"
        }
      ],
      "payable": false,
      "stateMutability": "view",
      "type": "function"
    },
    {
      "constant": true,
      "inputs": [],
      "name": "getCoinLength",
      "outputs": [
        {
          "internalType": "uint256",
          "name": "length",
          "type": "uint256"
        }
      ],
      "payable": false,
      "stateMutability": "view",
      "type": "function"
    },
    {
      "constant": true,
      "inputs": [
        {
          "internalType": "uint256",
          "name": "index",
          "type": "uint256"
        }
      ],
      "name": "addressFromIndex",
      "outputs": [
        {
          "internalType": "address",
          "name": "",
          "type": "address"
        }
      ],
      "payable": false,
      "stateMutability": "view",
      "type": "function"
    },
    {
      "constant": true,
      "inputs": [
        {
          "internalType": "uint256",
          "name": "index",
          "type": "uint256"
        }
      ],
      "name": "priceFromIndex",
      "outputs": [
        {
          "internalType": "uint256",
          "name": "",
          "type": "uint256"
        }
      ],
      "payable": false,
      "stateMutability": "view",
      "type": "function"
    },
    {
      "constant": true,
      "inputs": [
        {
          "internalType": "address",
          "name": "tokenAddress",
          "type": "address"
        }
      ],
      "name": "priceFromAddress",
      "outputs": [
        {
          "internalType": "uint256",
          "name": "",
          "type": "uint256"
        }
      ],
      "payable": false,
      "stateMutability": "view",
      "type": "function"
    }
  ],
  "bytecode": "0x608060405260006100176001600160e01b0361006616565b600080546001600160a01b0319166001600160a01b0383169081178255604051929350917f8be0079c531659141344cd1fd0a4f28419497f9722a3daafe3b4186f6b6457e0908290a35061006a565b3390565b611c71806100796000396000f3fe608060405234801561001057600080fd5b50600436106101fb5760003560e01c8063906335241161011a578063c690908a116100ad578063e644e5341161007c578063e644e53414610634578063eced55261461065a578063f2fde38b14610662578063f47c84c514610688578063f5dab71114610690576101fb565b8063c690908a1461056b578063d618ea5a14610591578063dd3d961e146105bf578063e11ed8ff146105e5576101fb565b8063aa6ca808116100e9578063aa6ca808146104b7578063b142fabc1461050f578063b95ecb2714610517578063c4d66de814610545576101fb565b8063906335241461043e578063910b1a261461046457806395e89ffe14610492578063a7c1abe0146104af576101fb565b8063715018a61161019257806380ebe4421161016157806380ebe442146103e65780638c6e92e0146104145780638da5cb5b1461042e5780638f32d59b14610436576101fb565b8063715018a61461036c578063748538d914610374578063785c7cf61461039a5780637e5a4eb9146103c0576101fb565b806339497b64116101ce57806339497b64146102c75780633fc422e5146102ed5780634f64b2be1461031357806366c0bd2414610330576101fb565b8063021245b11461020057806323e27a6414610239578063283c880214610261578063298d3f3f1461029b575b600080fd5b61021d6004803603602081101561021657600080fd5b5035610709565b604080516001600160a01b039092168252519081900360200190f35b61025f6004803603602081101561024f57600080fd5b50356001600160a01b0316610776565b005b6102876004803603602081101561027757600080fd5b50356001600160a01b03166108b7565b604080519115158252519081900360200190f35b61025f600480360360408110156102b157600080fd5b506001600160a01b0381351690602001356108dc565b610287600480360360208110156102dd57600080fd5b50356001600160a01b0316610a10565b6102876004803603602081101561030357600080fd5b50356001600160a01b0316610a36565b61021d6004803603602081101561032957600080fd5b5035610a5a565b6103566004803603602081101561034657600080fd5b50356001600160a01b0316610a81565b6040805160ff9092168252519081900360200190f35b61025f610a9f565b6102876004803603602081101561038a57600080fd5b50356001600160a01b0316610b30565b610356600480360360208110156103b057600080fd5b50356001600160a01b0316610b54565b61021d600480360360208110156103d657600080fd5b50356001600160a01b0316610b77565b61025f600480360360408110156103fc57600080fd5b506001600160a01b0381358116916020013516610b9c565b61041c610cb9565b60408051918252519081900360200190f35b61021d610cbf565b610287610cce565b61041c6004803603602081101561045457600080fd5b50356001600160a01b0316610cf2565b61025f6004803603604081101561047a57600080fd5b506001600160a01b0381351690602001351515610d10565b61041c600480360360208110156104a857600080fd5b5035610e22565b61021d611021565b6104bf611030565b60408051602080825283518183015283519192839290830191858101910280838360005b838110156104fb5781810151838201526020016104e3565b505050509050019250505060405180910390f35b6104bf611092565b61025f6004803603604081101561052d57600080fd5b506001600160a01b038135169060200135151561114a565b61025f6004803603602081101561055b57600080fd5b50356001600160a01b0316611259565b61025f6004803603602081101561058157600080fd5b50356001600160a01b03166112c2565b61025f600480360360408110156105a757600080fd5b506001600160a01b0381358116916020013516611402565b61041c600480360360208110156105d557600080fd5b50356001600160a01b0316611514565b61025f600480360360c08110156105fb57600080fd5b506001600160a01b03813581169160ff6020820135169160408201351515916060810135151591608082013581169160a00135166116b3565b61021d6004803603602081101561064a57600080fd5b50356001600160a01b03166119de565b61041c611a00565b61025f6004803603602081101561067857600080fd5b50356001600160a01b0316611a05565b61041c611a58565b6106b6600480360360208110156106a657600080fd5b50356001600160a01b0316611a5d565b6040805160ff998a16815297909816602088015294151586880152921515606086015290151560808501526001600160a01b0390811660a08501521660c083015260e08201529051908190036101000190f35b600254600090821061074c5760405162461bcd60e51b8152600401808060200182810382526030815260200180611b626030913960400191505060405180910390fd5b6002828154811061075957fe5b6000918252602090912001546001600160a01b031690505b919050565b61077e610cce565b6107bd576040805162461bcd60e51b81526020600482018190526024820152600080516020611c1d833981519152604482015290519081900360640190fd5b806107c781610a36565b61080b576040805162461bcd60e51b815260206004820152601060248201526f546f6b656e206e6f742065786973747360801b604482015290519081900360640190fd5b6001600160a01b03821660009081526001602081905260409091205462010000900460ff1615151461087d576040805162461bcd60e51b8152602060048201526016602482015275151bdad95b88185b1c9958591e48191a5cd8589b195960521b604482015290519081900360640190fd5b6001600160a01b038216600081815260016020526040808220805462ff00001916905551600080516020611bfd8339815191529190a25050565b6001600160a01b03166000908152600160205260409020546301000000900460ff1690565b6108e4610cce565b610923576040805162461bcd60e51b81526020600482018190526024820152600080516020611c1d833981519152604482015290519081900360640190fd5b8161092d81610a36565b610971576040805162461bcd60e51b815260206004820152601060248201526f546f6b656e206e6f742065786973747360801b604482015290519081900360640190fd5b6001600160a01b03831660009081526001602052604090206002015482141561099957610a0b565b606482106109d85760405162461bcd60e51b8152600401808060200182810382526022815260200180611bb86022913960400191505060405180910390fd5b6001600160a01b03831660008181526001602052604080822060020185905551600080516020611bfd8339815191529190a25b505050565b6001600160a01b0316600090815260016020526040902054640100000000900460ff1690565b6001600160a01b039081166000908152600160208190526040909120015416151590565b60028181548110610a6757fe5b6000918252602090912001546001600160a01b0316905081565b6001600160a01b031660009081526001602052604090205460ff1690565b610aa7610cce565b610ae6576040805162461bcd60e51b81526020600482018190526024820152600080516020611c1d833981519152604482015290519081900360640190fd5b600080546040516001600160a01b03909116907f8be0079c531659141344cd1fd0a4f28419497f9722a3daafe3b4186f6b6457e0908390a3600080546001600160a01b0319169055565b6001600160a01b031660009081526001602052604090205462010000900460ff1690565b6001600160a01b0316600090815260016020526040902054610100900460ff1690565b6001600160a01b03908116600090815260016020526040902054600160281b90041690565b610ba4610cce565b610be3576040805162461bcd60e51b81526020600482018190526024820152600080516020611c1d833981519152604482015290519081900360640190fd5b81610bed81610a36565b610c31576040805162461bcd60e51b815260206004820152601060248201526f546f6b656e206e6f742065786973747360801b604482015290519081900360640190fd5b6001600160a01b03838116600090815260016020526040902054600160281b900481169083161415610c6257610a0b565b6001600160a01b038084166000818152600160205260408082208054948716600160281b0265010000000000600160c81b03199095169490941790935591519091600080516020611bfd83398151915291a2505050565b60025490565b6000546001600160a01b031690565b600080546001600160a01b0316610ce3611abd565b6001600160a01b031614905090565b6001600160a01b031660009081526001602052604090206002015490565b610d18610cce565b610d57576040805162461bcd60e51b81526020600482018190526024820152600080516020611c1d833981519152604482015290519081900360640190fd5b81610d6181610a36565b610da5576040805162461bcd60e51b815260206004820152601060248201526f546f6b656e206e6f742065786973747360801b604482015290519081900360640190fd5b6001600160a01b03831660009081526001602052604090205460ff6401000000009091041615158215151415610dda57610a0b565b6001600160a01b038316600081815260016020526040808220805464ff0000000019166401000000008715150217905551600080516020611bfd8339815191529190a2505050565b6002546000908210610e655760405162461bcd60e51b8152600401808060200182810382526030815260200180611b626030913960400191505060405180910390fd5b600060028381548110610e7457fe5b60009182526020918290200154600354604080516378b88bc760e11b81526001600160a01b0392831660048201529190921660248201819052915191935073__Utils_________________________________9263f171178e92604480840193829003018186803b158015610ee857600080fd5b505af4158015610efc573d6000803e3d6000fd5b505050506040513d6020811015610f1257600080fd5b505115610f2a57670de0b6b3a7640000915050610771565b600360009054906101000a90046001600160a01b03166001600160a01b0316637dbe5f106040518163ffffffff1660e01b815260040160206040518083038186803b158015610f7857600080fd5b505afa158015610f8c573d6000803e3d6000fd5b505050506040513d6020811015610fa257600080fd5b505160408051633424d1dd60e11b81526001600160a01b03848116600483015291519190921691636849a3ba916024808301926020929190829003018186803b158015610fee57600080fd5b505afa158015611002573d6000803e3d6000fd5b505050506040513d602081101561101857600080fd5b50519392505050565b6003546001600160a01b031681565b6060600280548060200260200160405190810160405280929190818152602001828054801561108857602002820191906000526020600020905b81546001600160a01b0316815260019091019060200180831161106a575b5050505050905090565b600254604080518281526020808402820101909152606091908180156110c2578160200160208202803883390190505b50915060005b818110156111455760016000600283815481106110e157fe5b60009182526020808320909101546001600160a01b0390811684529083019390935260409091019020548451600160281b9091049091169084908390811061112557fe5b6001600160a01b03909216602092830291909101909101526001016110c8565b505090565b611152610cce565b611191576040805162461bcd60e51b81526020600482018190526024820152600080516020611c1d833981519152604482015290519081900360640190fd5b8161119b81610a36565b6111df576040805162461bcd60e51b815260206004820152601060248201526f546f6b656e206e6f742065786973747360801b604482015290519081900360640190fd5b6001600160a01b03831660009081526001602052604090205460ff6301000000909104161515821515141561121357610a0b565b6001600160a01b038316600081815260016020526040808220805463ff000000191663010000008715150217905551600080516020611bfd8339815191529190a2505050565b611261610cce565b6112a0576040805162461bcd60e51b81526020600482018190526024820152600080516020611c1d833981519152604482015290519081900360640190fd5b600380546001600160a01b0319166001600160a01b0392909216919091179055565b6112ca610cce565b611309576040805162461bcd60e51b81526020600482018190526024820152600080516020611c1d833981519152604482015290519081900360640190fd5b8061131381610a36565b611357576040805162461bcd60e51b815260206004820152601060248201526f546f6b656e206e6f742065786973747360801b604482015290519081900360640190fd5b6001600160a01b03821660009081526001602052604090205462010000900460ff16156113c3576040805162461bcd60e51b8152602060048201526015602482015274151bdad95b88185b1c9958591e48195b98589b1959605a1b604482015290519081900360640190fd5b6001600160a01b038216600081815260016020526040808220805462ff000019166201000017905551600080516020611bfd8339815191529190a25050565b61140a610cce565b611449576040805162461bcd60e51b81526020600482018190526024820152600080516020611c1d833981519152604482015290519081900360640190fd5b8161145381610a36565b611497576040805162461bcd60e51b815260206004820152601060248201526f546f6b656e206e6f742065786973747360801b604482015290519081900360640190fd5b6001600160a01b0383811660009081526001602081905260409091200154811690831614156114c557610a0b565b6001600160a01b03838116600081815260016020819052604080832090910180546001600160a01b0319169487169490941790935591519091600080516020611bfd83398151915291a2505050565b600354604080516378b88bc760e11b81526001600160a01b03928316600482015291831660248301525160009173__Utils_________________________________9163f171178e91604480820192602092909190829003018186803b15801561157d57600080fd5b505af4158015611591573d6000803e3d6000fd5b505050506040513d60208110156115a757600080fd5b5051156115bd5750670de0b6b3a7640000610771565b600360009054906101000a90046001600160a01b03166001600160a01b0316637dbe5f106040518163ffffffff1660e01b815260040160206040518083038186803b15801561160b57600080fd5b505afa15801561161f573d6000803e3d6000fd5b505050506040513d602081101561163557600080fd5b505160408051633424d1dd60e11b81526001600160a01b03858116600483015291519190921691636849a3ba916024808301926020929190829003018186803b15801561168157600080fd5b505afa158015611695573d6000803e3d6000fd5b505050506040513d60208110156116ab57600080fd5b505192915050565b6116bb610cce565b6116fa576040805162461bcd60e51b81526020600482018190526024820152600080516020611c1d833981519152604482015290519081900360640190fd5b6001600160a01b03861661174d576040805162461bcd60e51b8152602060048201526015602482015274546f6b656e2061646472657373206973207a65726f60581b604482015290519081900360640190fd5b61175686610a36565b1561179e576040805162461bcd60e51b8152602060048201526013602482015272151bdad95b88185b1c9958591e48195e1a5cdd606a1b604482015290519081900360640190fd5b6001600160a01b0381166117e35760405162461bcd60e51b8152600401808060200182810382526023815260200180611bda6023913960400191505060405180910390fd5b60025460801161183a576040805162461bcd60e51b815260206004820152601760248201527f4d617820746f6b656e206c696d69742072656163686564000000000000000000604482015290519081900360640190fd5b600060016000886001600160a01b03166001600160a01b0316815260200190815260200160002090506002805490508160000160006101000a81548160ff021916908360ff160217905550858160000160016101000a81548160ff021916908360ff16021790555060018160000160026101000a81548160ff021916908315150217905550848160000160036101000a81548160ff021916908315150217905550838160000160046101000a81548160ff021916908315150217905550828160000160056101000a8154816001600160a01b0302191690836001600160a01b03160217905550818160010160006101000a8154816001600160a01b0302191690836001600160a01b03160217905550603c816002018190555060028790806001815401808255809150509060018203906000526020600020016000909192909190916101000a8154816001600160a01b0302191690836001600160a01b0316021790555050866001600160a01b03167f784c8f4dbf0ffedd6e72c76501c545a70f8b203b30a26ce542bf92ba87c248a460405160405180910390a250505050505050565b6001600160a01b03908116600090815260016020819052604090912001541690565b606481565b611a0d610cce565b611a4c576040805162461bcd60e51b81526020600482018190526024820152600080516020611c1d833981519152604482015290519081900360640190fd5b611a5581611ac1565b50565b608081565b600160208190526000918252604090912080549181015460029091015460ff80841693610100810482169362010000820483169363010000008304841693640100000000840416926001600160a01b03600160281b909104811692169088565b3390565b6001600160a01b038116611b065760405162461bcd60e51b8152600401808060200182810382526026815260200180611b926026913960400191505060405180910390fd5b600080546040516001600160a01b03808516939216917f8be0079c531659141344cd1fd0a4f28419497f9722a3daafe3b4186f6b6457e091a3600080546001600160a01b0319166001600160a01b039290921691909117905556fe636f696e496e646578206d75737420626520736d616c6c6572207468616e2074686520636f696e73206c656e6774682e4f776e61626c653a206e6577206f776e657220697320746865207a65726f2061646472657373426f72726f77204c5456206d757374206265206c657373207468616e205363616c65436861696e4c696e6b41676772656761746f722061646472657373206973207a65726f5ba6b30cd4b2f9e9e67f4feb9b9df10d5da3b057598e6901b217b7d590345e304f776e61626c653a2063616c6c6572206973206e6f7420746865206f776e6572a265627a7a72315820833d13d097e78a99196064bdb8713c999214ade1084d9553a02fa4a544f38f4364736f6c634300050e0032",
  "source": "pragma solidity 0.5.14;\n\nimport \"openzeppelin-solidity/contracts/ownership/Ownable.sol\";\nimport \"openzeppelin-solidity/contracts/math/SafeMath.sol\";\nimport \"../config/GlobalConfig.sol\";\nimport \"../lib/Utils.sol\";\n\n/**\n * @dev Token Info Registry to manage Token information\n *      The Owner of the contract allowed to update the information\n */\ncontract TokenRegistry is Ownable {\n\n    using SafeMath for uint256;\n\n    /**\n     * @dev TokenInfo struct stores Token Information, this includes:\n     *      ERC20 Token address, Compound Token address, ChainLink Aggregator address etc.\n     * @notice This struct will consume 5 storage locations\n     */\n    struct TokenInfo {\n        // Token index, can store upto 255\n        uint8 index;\n        // ERC20 Token decimal\n        uint8 decimals;\n        // If token is enabled / disabled\n        bool enabled;\n        // Is ERC20 token charge transfer fee?\n        bool isTransferFeeEnabled;\n        // Is Token supported on Compound\n        bool isSupportedOnCompound;\n        // cToken address on Compound\n        address cToken;\n        // Chain Link Aggregator address for TOKEN/ETH pair\n        address chainLinkOracle;\n        // Borrow LTV, by default 60%\n        uint256 borrowLTV;\n    }\n\n    event TokenAdded(address indexed token);\n    event TokenUpdated(address indexed token);\n\n    address internal constant ETH_ADDR = 0x000000000000000000000000000000000000000E;\n    uint256 public constant MAX_TOKENS = 128;\n    uint256 public constant SCALE = 100;\n\n    // TokenAddress to TokenInfo mapping\n    mapping (address => TokenInfo) public tokenInfo;\n    // TokenAddress array\n    address[] public tokens;\n    GlobalConfig public globalConfig;\n\n    /**\n     */\n    modifier whenTokenExists(address _token) {\n        require(isTokenExist(_token), \"Token not exists\");\n        _;\n    }\n\n    /**\n     *  initializes the symbols structure\n     */\n    function initialize(GlobalConfig _globalConfig) public onlyOwner{\n        globalConfig = _globalConfig;\n    }\n\n    /**\n     * @dev Add a new token to registry\n     * @param _token ERC20 Token address\n     * @param _decimals Token's decimals\n     * @param _isTransferFeeEnabled Is token changes transfer fee\n     * @param _isSupportedOnCompound Is token supported on Compound\n     * @param _cToken cToken contract address\n     * @param _chainLinkOracle Chain Link Aggregator address to get TOKEN/ETH rate\n     */\n    function addToken(\n        address _token,\n        uint8 _decimals,\n        bool _isTransferFeeEnabled,\n        bool _isSupportedOnCompound,\n        address _cToken,\n        address _chainLinkOracle\n    )\n        public\n        onlyOwner\n    {\n        require(_token != address(0), \"Token address is zero\");\n        require(!isTokenExist(_token), \"Token already exist\");\n        require(_chainLinkOracle != address(0), \"ChainLinkAggregator address is zero\");\n        require(tokens.length < MAX_TOKENS, \"Max token limit reached\");\n\n        TokenInfo storage storageTokenInfo = tokenInfo[_token];\n        storageTokenInfo.index = uint8(tokens.length);\n        storageTokenInfo.decimals = _decimals;\n        storageTokenInfo.enabled = true;\n        storageTokenInfo.isTransferFeeEnabled = _isTransferFeeEnabled;\n        storageTokenInfo.isSupportedOnCompound = _isSupportedOnCompound;\n        storageTokenInfo.cToken = _cToken;\n        storageTokenInfo.chainLinkOracle = _chainLinkOracle;\n        // Default values\n        storageTokenInfo.borrowLTV = 60; //6e7; // 60%\n\n        tokens.push(_token);\n        emit TokenAdded(_token);\n    }\n\n    function updateBorrowLTV(\n        address _token,\n        uint256 _borrowLTV\n    )\n        external\n        onlyOwner\n        whenTokenExists(_token)\n    {\n        if (tokenInfo[_token].borrowLTV == _borrowLTV)\n            return;\n\n        // require(_borrowLTV != 0, \"Borrow LTV is zero\");\n        require(_borrowLTV < SCALE, \"Borrow LTV must be less than Scale\");\n        // require(liquidationThreshold > _borrowLTV, \"Liquidation threshold must be greater than Borrow LTV\");\n\n        tokenInfo[_token].borrowLTV = _borrowLTV;\n        emit TokenUpdated(_token);\n    }\n\n    /**\n     */\n    function updateTokenTransferFeeFlag(\n        address _token,\n        bool _isTransfeFeeEnabled\n    )\n        external\n        onlyOwner\n        whenTokenExists(_token)\n    {\n        if (tokenInfo[_token].isTransferFeeEnabled == _isTransfeFeeEnabled)\n            return;\n\n        tokenInfo[_token].isTransferFeeEnabled = _isTransfeFeeEnabled;\n        emit TokenUpdated(_token);\n    }\n\n    /**\n     */\n    function updateTokenSupportedOnCompoundFlag(\n        address _token,\n        bool _isSupportedOnCompound\n    )\n        external\n        onlyOwner\n        whenTokenExists(_token)\n    {\n        if (tokenInfo[_token].isSupportedOnCompound == _isSupportedOnCompound)\n            return;\n\n        tokenInfo[_token].isSupportedOnCompound = _isSupportedOnCompound;\n        emit TokenUpdated(_token);\n    }\n\n    /**\n     */\n    function updateCToken(\n        address _token,\n        address _cToken\n    )\n        external\n        onlyOwner\n        whenTokenExists(_token)\n    {\n        if (tokenInfo[_token].cToken == _cToken)\n            return;\n\n        tokenInfo[_token].cToken = _cToken;\n        emit TokenUpdated(_token);\n    }\n\n    /**\n     */\n    function updateChainLinkAggregator(\n        address _token,\n        address _chainLinkOracle\n    )\n        external\n        onlyOwner\n        whenTokenExists(_token)\n    {\n        if (tokenInfo[_token].chainLinkOracle == _chainLinkOracle)\n            return;\n\n        tokenInfo[_token].chainLinkOracle = _chainLinkOracle;\n        emit TokenUpdated(_token);\n    }\n\n\n    function enableToken(address _token) external onlyOwner whenTokenExists(_token) {\n        require(tokenInfo[_token].enabled == false, \"Token already enabled\");\n\n        tokenInfo[_token].enabled = true;\n\n        emit TokenUpdated(_token);\n    }\n\n    function disableToken(address _token) external onlyOwner whenTokenExists(_token) {\n        require(tokenInfo[_token].enabled == true, \"Token already disabled\");\n\n        tokenInfo[_token].enabled = false;\n\n        emit TokenUpdated(_token);\n    }\n\n    // =====================\n    //      GETTERS\n    // =====================\n\n    /**\n     * @dev Is token address is registered\n     * @param _token token address\n     * @return Returns `true` when token registered, otherwise `false`\n     */\n    function isTokenExist(address _token) public view returns (bool isExist) {\n        isExist = tokenInfo[_token].chainLinkOracle != address(0);\n    }\n\n    function getTokens() external view returns (address[] memory) {\n        return tokens;\n    }\n\n    function getTokenIndex(address _token) external view returns (uint8) {\n        return tokenInfo[_token].index;\n    }\n\n    function isTokenEnabled(address _token) external view returns (bool) {\n        return tokenInfo[_token].enabled;\n    }\n\n    /**\n     */\n    function getCTokens() external view returns (address[] memory cTokens) {\n        uint256 len = tokens.length;\n        cTokens = new address[](len);\n        for(uint256 i = 0; i < len; i++) {\n            cTokens[i] = tokenInfo[tokens[i]].cToken;\n        }\n    }\n\n    function getTokenDecimals(address _token) public view returns (uint8) {\n        return tokenInfo[_token].decimals;\n    }\n\n    function isTransferFeeEnabled(address _token) external view returns (bool) {\n        return tokenInfo[_token].isTransferFeeEnabled;\n    }\n\n    function isSupportedOnCompound(address _token) external view returns (bool) {\n        return tokenInfo[_token].isSupportedOnCompound;\n    }\n\n    /**\n     */\n    function getCToken(address _token) external view returns (address) {\n        return tokenInfo[_token].cToken;\n    }\n\n    function getChainLinkAggregator(address _token) external view returns (address) {\n        return tokenInfo[_token].chainLinkOracle;\n    }\n\n    function getBorrowLTV(address _token) external view returns (uint256) {\n        return tokenInfo[_token].borrowLTV;\n    }\n\n    function getCoinLength() public view returns (uint256 length) {\n        return tokens.length;\n    }\n\n    function addressFromIndex(uint index) public view returns(address) {\n        require(index < tokens.length, \"coinIndex must be smaller than the coins length.\");\n        return tokens[index];\n    }\n\n    function priceFromIndex(uint index) public view returns(uint256) {\n        require(index < tokens.length, \"coinIndex must be smaller than the coins length.\");\n        address tokenAddress = tokens[index];\n        // Temp fix\n        if(Utils._isETH(address(globalConfig), tokenAddress)) {\n            return 1e18;\n        }\n        return uint256(globalConfig.chainLink().getLatestAnswer(tokenAddress));\n    }\n\n    function priceFromAddress(address tokenAddress) public view returns(uint256) {\n        if(Utils._isETH(address(globalConfig), tokenAddress)) {\n            return 1e18;\n        }\n        return uint256(globalConfig.chainLink().getLatestAnswer(tokenAddress));\n    }\n\n    // function _isETH(address _token) public view returns (bool) {\n    //     return globalConfig.constants().ETH_ADDR() == _token;\n    // }\n\n    // function getDivisor(address _token) public view returns (uint256) {\n    //     if(_isETH(_token)) return INT_UNIT;\n    //     return 10 ** uint256(getTokenDecimals(_token));\n    // }\n}",
  "sourcePath": "/Users/yanyichun/project/Savings/contracts/registry/TokenRegistry.sol",
  "compiler": {
    "name": "solc",
    "version": "0.5.14+commit.01f1aaa4.Emscripten.clang"
  },
  "schemaVersion": "3.3.1",
  "updatedAt": "2020-11-09T00:44:13.936Z",
  "networkType": "ethereum",
  "devdoc": {
    "details": "Token Info Registry to manage Token information     The Owner of the contract allowed to update the information",
    "methods": {
      "addToken(address,uint8,bool,bool,address,address)": {
        "details": "Add a new token to registry",
        "params": {
          "_cToken": "cToken contract address",
          "_chainLinkOracle": "Chain Link Aggregator address to get TOKEN/ETH rate",
          "_decimals": "Token's decimals",
          "_isSupportedOnCompound": "Is token supported on Compound",
          "_isTransferFeeEnabled": "Is token changes transfer fee",
          "_token": "ERC20 Token address"
        }
      },
      "isOwner()": {
        "details": "Returns true if the caller is the current owner."
      },
      "isTokenExist(address)": {
        "details": "Is token address is registered",
        "params": {
          "_token": "token address"
        },
        "return": "Returns `true` when token registered, otherwise `false`"
      },
      "owner()": {
        "details": "Returns the address of the current owner."
      },
      "renounceOwnership()": {
        "details": "Leaves the contract without owner. It will not be possible to call `onlyOwner` functions anymore. Can only be called by the current owner.     * NOTE: Renouncing ownership will leave the contract without an owner, thereby removing any functionality that is only available to the owner."
      },
      "transferOwnership(address)": {
        "details": "Transfers ownership of the contract to a new account (`newOwner`). Can only be called by the current owner."
      }
    }
  },
  "userdoc": {
    "methods": {
      "initialize(address)": {
        "notice": "initializes the symbols structure"
      }
    }
  }
}