{
  "contractName": "Utils",
  "abi": [
    {
      "constant": true,
      "inputs": [
        {
          "internalType": "address",
          "name": "globalConfig",
          "type": "address"
        },
        {
          "internalType": "address",
          "name": "_token",
          "type": "address"
        }
      ],
      "name": "_isETH",
      "outputs": [
        {
          "internalType": "bool",
          "name": "",
          "type": "bool"
        }
      ],
      "payable": false,
      "stateMutability": "view",
      "type": "function"
    },
    {
      "constant": true,
      "inputs": [
        {
          "internalType": "address",
          "name": "globalConfig",
          "type": "address"
        },
        {
          "internalType": "address",
          "name": "_token",
          "type": "address"
        }
      ],
      "name": "getDivisor",
      "outputs": [
        {
          "internalType": "uint256",
          "name": "",
          "type": "uint256"
        }
      ],
      "payable": false,
      "stateMutability": "view",
      "type": "function"
    }
  ],
  "bytecode": "0x6103c1610026600b82828239805160001a60731461001957fe5b30600052607381538281f3fe73000000000000000000000000000000000000000030146080604052600436106100405760003560e01c8063d182f33514610045578063f171178e14610085575b600080fd5b6100736004803603604081101561005b57600080fd5b506001600160a01b03813581169160200135166100c7565b60408051918252519081900360200190f35b6100b36004803603604081101561009b57600080fd5b506001600160a01b038135811691602001351661029c565b604080519115158252519081900360200190f35b60006100d3838361029c565b156101b257826001600160a01b03166372de5b2f6040518163ffffffff1660e01b815260040160206040518083038186803b15801561011157600080fd5b505afa158015610125573d6000803e3d6000fd5b505050506040513d602081101561013b57600080fd5b505160408051633630b61360e21b815290516001600160a01b039092169163d8c2d84c91600480820192602092909190829003018186803b15801561017f57600080fd5b505afa158015610193573d6000803e3d6000fd5b505050506040513d60208110156101a957600080fd5b50519050610296565b826001600160a01b0316639895880f6040518163ffffffff1660e01b815260040160206040518083038186803b1580156101eb57600080fd5b505afa1580156101ff573d6000803e3d6000fd5b505050506040513d602081101561021557600080fd5b505160408051633c2e3e7b60e11b81526001600160a01b0385811660048301529151919092169163785c7cf6916024808301926020929190829003018186803b15801561026157600080fd5b505afa158015610275573d6000803e3d6000fd5b505050506040513d602081101561028b57600080fd5b505160ff16600a0a90505b92915050565b6000816001600160a01b0316836001600160a01b03166372de5b2f6040518163ffffffff1660e01b815260040160206040518083038186803b1580156102e157600080fd5b505afa1580156102f5573d6000803e3d6000fd5b505050506040513d602081101561030b57600080fd5b505160408051637753f47b60e01b815290516001600160a01b0390921691637753f47b91600480820192602092909190829003018186803b15801561034f57600080fd5b505afa158015610363573d6000803e3d6000fd5b505050506040513d602081101561037957600080fd5b50516001600160a01b031614939250505056fea265627a7a72315820619d569175dce223563fa260318c1674a0d32c98f090fdbe4167b79389c28b5f64736f6c634300050e0032",
  "source": "pragma solidity 0.5.14;\n\nimport \"../config/GlobalConfig.sol\";\n\nlibrary Utils{\n\n    function _isETH(address globalConfig, address _token) public view returns (bool) {\n        return GlobalConfig(globalConfig).constants().ETH_ADDR() == _token;\n    }\n\n    function getDivisor(address globalConfig, address _token) public view returns (uint256) {\n        if(_isETH(globalConfig, _token)) return GlobalConfig(globalConfig).constants().INT_UNIT();\n        return 10 ** uint256(GlobalConfig(globalConfig).tokenInfoRegistry().getTokenDecimals(_token));\n    }\n\n}",
  "sourcePath": "/Users/yanyichun/project/Savings/contracts/lib/Utils.sol",
  "compiler": {
    "name": "solc",
    "version": "0.5.14+commit.01f1aaa4.Emscripten.clang"
  },
  "schemaVersion": "3.3.1",
  "updatedAt": "2020-11-09T00:44:13.873Z",
  "networkType": "ethereum",
  "devdoc": {
    "methods": {}
  },
  "userdoc": {
    "methods": {}
  }
}